{
	"inheritage.sol": {
		"inheritage": {
			"abi": [
				{
					"inputs": [],
					"stateMutability": "nonpayable",
					"type": "constructor"
				},
				{
					"inputs": [
						{
							"internalType": "address payable",
							"name": "walletAddress",
							"type": "address"
						},
						{
							"internalType": "string",
							"name": "name",
							"type": "string"
						}
					],
					"name": "addSuccessor",
					"outputs": [],
					"stateMutability": "nonpayable",
					"type": "function"
				},
				{
					"inputs": [],
					"name": "distrubiteInheritage",
					"outputs": [],
					"stateMutability": "nonpayable",
					"type": "function"
				},
				{
					"inputs": [],
					"name": "putmoney",
					"outputs": [],
					"stateMutability": "payable",
					"type": "function"
				},
				{
					"inputs": [
						{
							"internalType": "address payable",
							"name": "walletAddress",
							"type": "address"
						}
					],
					"name": "removeSuccessor",
					"outputs": [],
					"stateMutability": "nonpayable",
					"type": "function"
				},
				{
					"inputs": [],
					"name": "viewSuccessor",
					"outputs": [
						{
							"components": [
								{
									"internalType": "address payable",
									"name": "walletAddress",
									"type": "address"
								},
								{
									"internalType": "string",
									"name": "name",
									"type": "string"
								}
							],
							"internalType": "struct inheritage.Successor[]",
							"name": "",
							"type": "tuple[]"
						}
					],
					"stateMutability": "view",
					"type": "function"
				},
				{
					"inputs": [],
					"name": "viewbalance",
					"outputs": [
						{
							"internalType": "uint256",
							"name": "",
							"type": "uint256"
						}
					],
					"stateMutability": "view",
					"type": "function"
				}
			],
			"devdoc": {
				"kind": "dev",
				"methods": {},
				"version": 1
			},
			"evm": {
				"assembly": "    /* \"inheritage.sol\":60:2289  contract inheritage {... */\n  mstore(0x40, 0x80)\n    /* \"inheritage.sol\":137:187  constructor(){... */\n  callvalue\n  dup1\n  iszero\n  tag_1\n  jumpi\n  0x00\n  dup1\n  revert\ntag_1:\n  pop\n    /* \"inheritage.sol\":169:179  msg.sender */\n  caller\n    /* \"inheritage.sol\":161:166  owner */\n  0x00\n  dup1\n    /* \"inheritage.sol\":161:179  owner = msg.sender */\n  0x0100\n  exp\n  dup2\n  sload\n  dup2\n  0xffffffffffffffffffffffffffffffffffffffff\n  mul\n  not\n  and\n  swap1\n  dup4\n  0xffffffffffffffffffffffffffffffffffffffff\n  and\n  mul\n  or\n  swap1\n  sstore\n  pop\n    /* \"inheritage.sol\":60:2289  contract inheritage {... */\n  dataSize(sub_0)\n  dup1\n  dataOffset(sub_0)\n  0x00\n  codecopy\n  0x00\n  return\nstop\n\nsub_0: assembly {\n        /* \"inheritage.sol\":60:2289  contract inheritage {... */\n      mstore(0x40, 0x80)\n      jumpi(tag_1, lt(calldatasize, 0x04))\n      shr(0xe0, calldataload(0x00))\n      dup1\n      0x25415eaf\n      eq\n      tag_2\n      jumpi\n      dup1\n      0x48bf296a\n      eq\n      tag_3\n      jumpi\n      dup1\n      0x6416845c\n      eq\n      tag_4\n      jumpi\n      dup1\n      0x674526bc\n      eq\n      tag_5\n      jumpi\n      dup1\n      0x736c9563\n      eq\n      tag_6\n      jumpi\n      dup1\n      0xaf61ed3d\n      eq\n      tag_7\n      jumpi\n    tag_1:\n      0x00\n      dup1\n      revert\n        /* \"inheritage.sol\":529:1093  function addSuccessor(address payable walletAddress,string memory name) public {... */\n    tag_2:\n      callvalue\n      dup1\n      iszero\n      tag_8\n      jumpi\n      0x00\n      dup1\n      revert\n    tag_8:\n      pop\n      tag_9\n      0x04\n      dup1\n      calldatasize\n      sub\n      dup2\n      add\n      swap1\n      tag_10\n      swap2\n      swap1\n      tag_11\n      jump\t// in\n    tag_10:\n      tag_12\n      jump\t// in\n    tag_9:\n      stop\n        /* \"inheritage.sol\":1759:2136  function distrubiteInheritage() public {... */\n    tag_3:\n      callvalue\n      dup1\n      iszero\n      tag_13\n      jumpi\n      0x00\n      dup1\n      revert\n    tag_13:\n      pop\n      tag_14\n      tag_15\n      jump\t// in\n    tag_14:\n      stop\n        /* \"inheritage.sol\":1101:1591  function removeSuccessor(address payable walletAddress) public{... */\n    tag_4:\n      callvalue\n      dup1\n      iszero\n      tag_16\n      jumpi\n      0x00\n      dup1\n      revert\n    tag_16:\n      pop\n      tag_17\n      0x04\n      dup1\n      calldatasize\n      sub\n      dup2\n      add\n      swap1\n      tag_18\n      swap2\n      swap1\n      tag_19\n      jump\t// in\n    tag_18:\n      tag_20\n      jump\t// in\n    tag_17:\n      stop\n        /* \"inheritage.sol\":225:270  function putmoney() payable public {... */\n    tag_5:\n      tag_21\n      tag_22\n      jump\t// in\n    tag_21:\n      stop\n        /* \"inheritage.sol\":1620:1720  function viewSuccessor() public view returns(Successor[] memory) {... */\n    tag_6:\n      callvalue\n      dup1\n      iszero\n      tag_23\n      jumpi\n      0x00\n      dup1\n      revert\n    tag_23:\n      pop\n      tag_24\n      tag_25\n      jump\t// in\n    tag_24:\n      mload(0x40)\n      tag_26\n      swap2\n      swap1\n      tag_27\n      jump\t// in\n    tag_26:\n      mload(0x40)\n      dup1\n      swap2\n      sub\n      swap1\n      return\n        /* \"inheritage.sol\":305:400  function viewbalance() public view returns(uint){... */\n    tag_7:\n      callvalue\n      dup1\n      iszero\n      tag_28\n      jumpi\n      0x00\n      dup1\n      revert\n    tag_28:\n      pop\n      tag_29\n      tag_30\n      jump\t// in\n    tag_29:\n      mload(0x40)\n      tag_31\n      swap2\n      swap1\n      tag_32\n      jump\t// in\n    tag_31:\n      mload(0x40)\n      dup1\n      swap2\n      sub\n      swap1\n      return\n        /* \"inheritage.sol\":529:1093  function addSuccessor(address payable walletAddress,string memory name) public {... */\n    tag_12:\n        /* \"inheritage.sol\":641:646  owner */\n      0x00\n      dup1\n      sload\n      swap1\n      0x0100\n      exp\n      swap1\n      div\n      0xffffffffffffffffffffffffffffffffffffffff\n      and\n        /* \"inheritage.sol\":627:646  msg.sender == owner */\n      0xffffffffffffffffffffffffffffffffffffffff\n      and\n        /* \"inheritage.sol\":627:637  msg.sender */\n      caller\n        /* \"inheritage.sol\":627:646  msg.sender == owner */\n      0xffffffffffffffffffffffffffffffffffffffff\n      and\n      eq\n        /* \"inheritage.sol\":619:689  require(msg.sender == owner, \"Only the onwer can call this function.\") */\n      tag_34\n      jumpi\n      mload(0x40)\n      0x08c379a000000000000000000000000000000000000000000000000000000000\n      dup2\n      mstore\n      0x04\n      add\n      tag_35\n      swap1\n      tag_36\n      jump\t// in\n    tag_35:\n      mload(0x40)\n      dup1\n      swap2\n      sub\n      swap1\n      revert\n    tag_34:\n        /* \"inheritage.sol\":700:719  bool successorExist */\n      0x00\n        /* \"inheritage.sol\":760:761  1 */\n      0x01\n        /* \"inheritage.sol\":741:750  successor */\n      dup1\n        /* \"inheritage.sol\":741:757  successor.length */\n      dup1\n      sload\n      swap1\n      pop\n        /* \"inheritage.sol\":741:761  successor.length >=1 */\n      lt\n        /* \"inheritage.sol\":738:971  if(successor.length >=1){... */\n      tag_37\n      jumpi\n        /* \"inheritage.sol\":781:787  uint i */\n      0x00\n        /* \"inheritage.sol\":777:960  for(uint i=0; i<successor.length; i++){... */\n    tag_38:\n        /* \"inheritage.sol\":793:802  successor */\n      0x01\n        /* \"inheritage.sol\":793:809  successor.length */\n      dup1\n      sload\n      swap1\n      pop\n        /* \"inheritage.sol\":791:792  i */\n      dup2\n        /* \"inheritage.sol\":791:809  i<successor.length */\n      lt\n        /* \"inheritage.sol\":777:960  for(uint i=0; i<successor.length; i++){... */\n      iszero\n      tag_39\n      jumpi\n        /* \"inheritage.sol\":867:880  walletAddress */\n      dup4\n        /* \"inheritage.sol\":837:880  successor[i].walletAddress == walletAddress */\n      0xffffffffffffffffffffffffffffffffffffffff\n      and\n        /* \"inheritage.sol\":837:846  successor */\n      0x01\n        /* \"inheritage.sol\":847:848  i */\n      dup3\n        /* \"inheritage.sol\":837:849  successor[i] */\n      dup2\n      sload\n      dup2\n      lt\n      tag_41\n      jumpi\n      tag_42\n      tag_43\n      jump\t// in\n    tag_42:\n    tag_41:\n      swap1\n      0x00\n      mstore\n      keccak256(0x00, 0x20)\n      swap1\n      0x02\n      mul\n      add\n        /* \"inheritage.sol\":837:863  successor[i].walletAddress */\n      0x00\n      add\n      0x00\n      swap1\n      sload\n      swap1\n      0x0100\n      exp\n      swap1\n      div\n      0xffffffffffffffffffffffffffffffffffffffff\n      and\n        /* \"inheritage.sol\":837:880  successor[i].walletAddress == walletAddress */\n      0xffffffffffffffffffffffffffffffffffffffff\n      and\n      sub\n        /* \"inheritage.sol\":834:945  if(successor[i].walletAddress == walletAddress){... */\n      tag_45\n      jumpi\n        /* \"inheritage.sol\":921:925  true */\n      0x01\n        /* \"inheritage.sol\":904:925  successorExist = true */\n      swap2\n      pop\n        /* \"inheritage.sol\":834:945  if(successor[i].walletAddress == walletAddress){... */\n    tag_45:\n        /* \"inheritage.sol\":811:814  i++ */\n      dup1\n      dup1\n      0x01\n      add\n      swap2\n      pop\n      pop\n        /* \"inheritage.sol\":777:960  for(uint i=0; i<successor.length; i++){... */\n      jump(tag_38)\n    tag_39:\n      pop\n        /* \"inheritage.sol\":738:971  if(successor.length >=1){... */\n    tag_37:\n        /* \"inheritage.sol\":1000:1005  false */\n      0x00\n        /* \"inheritage.sol\":984:1005  successorExist==false */\n      iszero\n      iszero\n        /* \"inheritage.sol\":984:998  successorExist */\n      dup2\n        /* \"inheritage.sol\":984:1005  successorExist==false */\n      iszero\n      iszero\n      sub\n        /* \"inheritage.sol\":981:1086  if(successorExist==false){... */\n      tag_46\n      jumpi\n        /* \"inheritage.sol\":1021:1030  successor */\n      0x01\n        /* \"inheritage.sol\":1036:1065  Successor(walletAddress,name) */\n      mload(0x40)\n      dup1\n      0x40\n      add\n      0x40\n      mstore\n      dup1\n        /* \"inheritage.sol\":1046:1059  walletAddress */\n      dup6\n        /* \"inheritage.sol\":1036:1065  Successor(walletAddress,name) */\n      0xffffffffffffffffffffffffffffffffffffffff\n      and\n      dup2\n      mstore\n      0x20\n      add\n        /* \"inheritage.sol\":1060:1064  name */\n      dup5\n        /* \"inheritage.sol\":1036:1065  Successor(walletAddress,name) */\n      dup2\n      mstore\n      pop\n        /* \"inheritage.sol\":1021:1066  successor.push(Successor(walletAddress,name)) */\n      swap1\n      dup1\n      0x01\n      dup2\n      sload\n      add\n      dup1\n      dup3\n      sstore\n      dup1\n      swap2\n      pop\n      pop\n      0x01\n      swap1\n      sub\n      swap1\n      0x00\n      mstore\n      keccak256(0x00, 0x20)\n      swap1\n      0x02\n      mul\n      add\n      0x00\n      swap1\n      swap2\n      swap1\n      swap2\n      swap1\n      swap2\n      pop\n      0x00\n      dup3\n      add\n      mload\n      dup2\n      0x00\n      add\n      exp(0x0100, 0x00)\n      dup2\n      sload\n      dup2\n      0xffffffffffffffffffffffffffffffffffffffff\n      mul\n      not\n      and\n      swap1\n      dup4\n      0xffffffffffffffffffffffffffffffffffffffff\n      and\n      mul\n      or\n      swap1\n      sstore\n      pop\n      0x20\n      dup3\n      add\n      mload\n      dup2\n      0x01\n      add\n      swap1\n      dup2\n      tag_48\n      swap2\n      swap1\n      tag_49\n      jump\t// in\n    tag_48:\n      pop\n      pop\n      pop\n        /* \"inheritage.sol\":981:1086  if(successorExist==false){... */\n    tag_46:\n        /* \"inheritage.sol\":608:1093  {... */\n      pop\n        /* \"inheritage.sol\":529:1093  function addSuccessor(address payable walletAddress,string memory name) public {... */\n      pop\n      pop\n      jump\t// out\n        /* \"inheritage.sol\":1759:2136  function distrubiteInheritage() public {... */\n    tag_15:\n        /* \"inheritage.sol\":1841:1842  0 */\n      0x00\n        /* \"inheritage.sol\":1817:1838  address(this).balance */\n      selfbalance\n        /* \"inheritage.sol\":1817:1842  address(this).balance > 0 */\n      gt\n        /* \"inheritage.sol\":1809:1884  require(address(this).balance > 0, \"Insufficient balance in the contract.\") */\n      tag_51\n      jumpi\n      mload(0x40)\n      0x08c379a000000000000000000000000000000000000000000000000000000000\n      dup2\n      mstore\n      0x04\n      add\n      tag_52\n      swap1\n      tag_53\n      jump\t// in\n    tag_52:\n      mload(0x40)\n      dup1\n      swap2\n      sub\n      swap1\n      revert\n    tag_51:\n        /* \"inheritage.sol\":1916:1917  1 */\n      0x01\n        /* \"inheritage.sol\":1898:1907  successor */\n      dup1\n        /* \"inheritage.sol\":1898:1914  successor.length */\n      dup1\n      sload\n      swap1\n      pop\n        /* \"inheritage.sol\":1898:1917  successor.length>=1 */\n      lt\n        /* \"inheritage.sol\":1895:2129  if(successor.length>=1){... */\n      tag_54\n      jumpi\n        /* \"inheritage.sol\":1933:1944  uint amount */\n      0x00\n        /* \"inheritage.sol\":1971:1980  successor */\n      0x01\n        /* \"inheritage.sol\":1971:1987  successor.length */\n      dup1\n      sload\n      swap1\n      pop\n        /* \"inheritage.sol\":1947:1968  address(this).balance */\n      selfbalance\n        /* \"inheritage.sol\":1947:1987  address(this).balance / successor.length */\n      tag_55\n      swap2\n      swap1\n      tag_56\n      jump\t// in\n    tag_55:\n        /* \"inheritage.sol\":1933:1987  uint amount = address(this).balance / successor.length */\n      swap1\n      pop\n        /* \"inheritage.sol\":2006:2012  uint i */\n      0x00\n        /* \"inheritage.sol\":2002:2118  for(uint i=0; i<successor.length; i++){... */\n    tag_57:\n        /* \"inheritage.sol\":2018:2027  successor */\n      0x01\n        /* \"inheritage.sol\":2018:2034  successor.length */\n      dup1\n      sload\n      swap1\n      pop\n        /* \"inheritage.sol\":2016:2017  i */\n      dup2\n        /* \"inheritage.sol\":2016:2034  i<successor.length */\n      lt\n        /* \"inheritage.sol\":2002:2118  for(uint i=0; i<successor.length; i++){... */\n      iszero\n      tag_58\n      jumpi\n        /* \"inheritage.sol\":2059:2102  transfer(successor[i].walletAddress,amount) */\n      tag_60\n        /* \"inheritage.sol\":2068:2077  successor */\n      0x01\n        /* \"inheritage.sol\":2078:2079  i */\n      dup3\n        /* \"inheritage.sol\":2068:2080  successor[i] */\n      dup2\n      sload\n      dup2\n      lt\n      tag_61\n      jumpi\n      tag_62\n      tag_43\n      jump\t// in\n    tag_62:\n    tag_61:\n      swap1\n      0x00\n      mstore\n      keccak256(0x00, 0x20)\n      swap1\n      0x02\n      mul\n      add\n        /* \"inheritage.sol\":2068:2094  successor[i].walletAddress */\n      0x00\n      add\n      0x00\n      swap1\n      sload\n      swap1\n      0x0100\n      exp\n      swap1\n      div\n      0xffffffffffffffffffffffffffffffffffffffff\n      and\n        /* \"inheritage.sol\":2095:2101  amount */\n      dup4\n        /* \"inheritage.sol\":2059:2067  transfer */\n      tag_64\n        /* \"inheritage.sol\":2059:2102  transfer(successor[i].walletAddress,amount) */\n      jump\t// in\n    tag_60:\n        /* \"inheritage.sol\":2036:2039  i++ */\n      dup1\n      dup1\n      0x01\n      add\n      swap2\n      pop\n      pop\n        /* \"inheritage.sol\":2002:2118  for(uint i=0; i<successor.length; i++){... */\n      jump(tag_57)\n    tag_58:\n      pop\n        /* \"inheritage.sol\":1918:2129  {... */\n      pop\n        /* \"inheritage.sol\":1895:2129  if(successor.length>=1){... */\n    tag_54:\n        /* \"inheritage.sol\":1759:2136  function distrubiteInheritage() public {... */\n      jump\t// out\n        /* \"inheritage.sol\":1101:1591  function removeSuccessor(address payable walletAddress) public{... */\n    tag_20:\n        /* \"inheritage.sol\":1195:1196  1 */\n      0x01\n        /* \"inheritage.sol\":1177:1186  successor */\n      dup1\n        /* \"inheritage.sol\":1177:1193  successor.length */\n      dup1\n      sload\n      swap1\n      pop\n        /* \"inheritage.sol\":1177:1196  successor.length>=1 */\n      lt\n        /* \"inheritage.sol\":1174:1584  if(successor.length>=1){... */\n      tag_66\n      jumpi\n        /* \"inheritage.sol\":1216:1222  uint i */\n      0x00\n        /* \"inheritage.sol\":1212:1573  for(uint i=0; i<successor.length; i++){... */\n    tag_67:\n        /* \"inheritage.sol\":1228:1237  successor */\n      0x01\n        /* \"inheritage.sol\":1228:1244  successor.length */\n      dup1\n      sload\n      swap1\n      pop\n        /* \"inheritage.sol\":1226:1227  i */\n      dup2\n        /* \"inheritage.sol\":1226:1244  i<successor.length */\n      lt\n        /* \"inheritage.sol\":1212:1573  for(uint i=0; i<successor.length; i++){... */\n      iszero\n      tag_68\n      jumpi\n        /* \"inheritage.sol\":1300:1313  walletAddress */\n      dup2\n        /* \"inheritage.sol\":1272:1313  successor[i].walletAddress==walletAddress */\n      0xffffffffffffffffffffffffffffffffffffffff\n      and\n        /* \"inheritage.sol\":1272:1281  successor */\n      0x01\n        /* \"inheritage.sol\":1282:1283  i */\n      dup3\n        /* \"inheritage.sol\":1272:1284  successor[i] */\n      dup2\n      sload\n      dup2\n      lt\n      tag_70\n      jumpi\n      tag_71\n      tag_43\n      jump\t// in\n    tag_71:\n    tag_70:\n      swap1\n      0x00\n      mstore\n      keccak256(0x00, 0x20)\n      swap1\n      0x02\n      mul\n      add\n        /* \"inheritage.sol\":1272:1298  successor[i].walletAddress */\n      0x00\n      add\n      0x00\n      swap1\n      sload\n      swap1\n      0x0100\n      exp\n      swap1\n      div\n      0xffffffffffffffffffffffffffffffffffffffff\n      and\n        /* \"inheritage.sol\":1272:1313  successor[i].walletAddress==walletAddress */\n      0xffffffffffffffffffffffffffffffffffffffff\n      and\n      sub\n        /* \"inheritage.sol\":1269:1540  if(successor[i].walletAddress==walletAddress){... */\n      tag_73\n      jumpi\n        /* \"inheritage.sol\":1341:1347  uint j */\n      0x00\n        /* \"inheritage.sol\":1348:1349  i */\n      dup2\n        /* \"inheritage.sol\":1341:1349  uint j=i */\n      swap1\n      pop\n        /* \"inheritage.sol\":1337:1455  for(uint j=i; j<successor.length-1; j++){... */\n    tag_74:\n        /* \"inheritage.sol\":1370:1371  1 */\n      0x01\n        /* \"inheritage.sol\":1353:1362  successor */\n      dup1\n        /* \"inheritage.sol\":1353:1369  successor.length */\n      dup1\n      sload\n      swap1\n      pop\n        /* \"inheritage.sol\":1353:1371  successor.length-1 */\n      tag_77\n      swap2\n      swap1\n      tag_78\n      jump\t// in\n    tag_77:\n        /* \"inheritage.sol\":1351:1352  j */\n      dup2\n        /* \"inheritage.sol\":1351:1371  j<successor.length-1 */\n      lt\n        /* \"inheritage.sol\":1337:1455  for(uint j=i; j<successor.length-1; j++){... */\n      iszero\n      tag_75\n      jumpi\n        /* \"inheritage.sol\":1417:1426  successor */\n      0x01\n        /* \"inheritage.sol\":1429:1430  1 */\n      dup1\n        /* \"inheritage.sol\":1427:1428  j */\n      dup3\n        /* \"inheritage.sol\":1427:1430  j+1 */\n      tag_79\n      swap2\n      swap1\n      tag_80\n      jump\t// in\n    tag_79:\n        /* \"inheritage.sol\":1417:1431  successor[j+1] */\n      dup2\n      sload\n      dup2\n      lt\n      tag_81\n      jumpi\n      tag_82\n      tag_43\n      jump\t// in\n    tag_82:\n    tag_81:\n      swap1\n      0x00\n      mstore\n      keccak256(0x00, 0x20)\n      swap1\n      0x02\n      mul\n      add\n        /* \"inheritage.sol\":1404:1413  successor */\n      0x01\n        /* \"inheritage.sol\":1414:1415  j */\n      dup3\n        /* \"inheritage.sol\":1404:1416  successor[j] */\n      dup2\n      sload\n      dup2\n      lt\n      tag_84\n      jumpi\n      tag_85\n      tag_43\n      jump\t// in\n    tag_85:\n    tag_84:\n      swap1\n      0x00\n      mstore\n      keccak256(0x00, 0x20)\n      swap1\n      0x02\n      mul\n      add\n        /* \"inheritage.sol\":1404:1431  successor[j]=successor[j+1] */\n      0x00\n      dup3\n      add\n      0x00\n      swap1\n      sload\n      swap1\n      0x0100\n      exp\n      swap1\n      div\n      0xffffffffffffffffffffffffffffffffffffffff\n      and\n      dup2\n      0x00\n      add\n      exp(0x0100, 0x00)\n      dup2\n      sload\n      dup2\n      0xffffffffffffffffffffffffffffffffffffffff\n      mul\n      not\n      and\n      swap1\n      dup4\n      0xffffffffffffffffffffffffffffffffffffffff\n      and\n      mul\n      or\n      swap1\n      sstore\n      pop\n      0x01\n      dup3\n      add\n      dup2\n      0x01\n      add\n      swap1\n      dup2\n      tag_87\n      swap2\n      swap1\n      tag_88\n      jump\t// in\n    tag_87:\n      pop\n      swap1\n      pop\n      pop\n        /* \"inheritage.sol\":1373:1376  j++ */\n      dup1\n      dup1\n      0x01\n      add\n      swap2\n      pop\n      pop\n        /* \"inheritage.sol\":1337:1455  for(uint j=i; j<successor.length-1; j++){... */\n      jump(tag_74)\n    tag_75:\n      pop\n        /* \"inheritage.sol\":1477:1486  successor */\n      0x01\n        /* \"inheritage.sol\":1477:1492  successor.pop() */\n      dup1\n      sload\n      dup1\n      tag_89\n      jumpi\n      tag_90\n      tag_91\n      jump\t// in\n    tag_90:\n    tag_89:\n      0x01\n      swap1\n      sub\n      dup2\n      dup2\n      swap1\n      0x00\n      mstore\n      keccak256(0x00, 0x20)\n      swap1\n      0x02\n      mul\n      add\n      0x00\n      dup1\n      dup3\n      add\n      exp(0x0100, 0x00)\n      dup2\n      sload\n      swap1\n      0xffffffffffffffffffffffffffffffffffffffff\n      mul\n      not\n      and\n      swap1\n      sstore\n      0x01\n      dup3\n      add\n      0x00\n      tag_93\n      swap2\n      swap1\n      tag_94\n      jump\t// in\n    tag_93:\n      pop\n      pop\n      swap1\n      sstore\n        /* \"inheritage.sol\":1515:1520  break */\n      jump(tag_68)\n        /* \"inheritage.sol\":1269:1540  if(successor[i].walletAddress==walletAddress){... */\n    tag_73:\n        /* \"inheritage.sol\":1246:1249  i++ */\n      dup1\n      dup1\n      0x01\n      add\n      swap2\n      pop\n      pop\n        /* \"inheritage.sol\":1212:1573  for(uint i=0; i<successor.length; i++){... */\n      jump(tag_67)\n    tag_68:\n      pop\n        /* \"inheritage.sol\":1174:1584  if(successor.length>=1){... */\n    tag_66:\n        /* \"inheritage.sol\":1101:1591  function removeSuccessor(address payable walletAddress) public{... */\n      pop\n      jump\t// out\n        /* \"inheritage.sol\":225:270  function putmoney() payable public {... */\n    tag_22:\n      jump\t// out\n        /* \"inheritage.sol\":1620:1720  function viewSuccessor() public view returns(Successor[] memory) {... */\n    tag_25:\n        /* \"inheritage.sol\":1665:1683  Successor[] memory */\n      0x60\n        /* \"inheritage.sol\":1703:1712  successor */\n      0x01\n        /* \"inheritage.sol\":1696:1712  return successor */\n      dup1\n      sload\n      dup1\n      0x20\n      mul\n      0x20\n      add\n      mload(0x40)\n      swap1\n      dup2\n      add\n      0x40\n      mstore\n      dup1\n      swap3\n      swap2\n      swap1\n      dup2\n      dup2\n      mstore\n      0x20\n      add\n      0x00\n      swap1\n    tag_97:\n      dup3\n      dup3\n      lt\n      iszero\n      tag_98\n      jumpi\n      dup4\n      dup3\n      swap1\n      0x00\n      mstore\n      keccak256(0x00, 0x20)\n      swap1\n      0x02\n      mul\n      add\n      mload(0x40)\n      dup1\n      0x40\n      add\n      0x40\n      mstore\n      swap1\n      dup2\n      0x00\n      dup3\n      add\n      0x00\n      swap1\n      sload\n      swap1\n      0x0100\n      exp\n      swap1\n      div\n      0xffffffffffffffffffffffffffffffffffffffff\n      and\n      0xffffffffffffffffffffffffffffffffffffffff\n      and\n      0xffffffffffffffffffffffffffffffffffffffff\n      and\n      dup2\n      mstore\n      0x20\n      add\n      0x01\n      dup3\n      add\n      dup1\n      sload\n      tag_100\n      swap1\n      tag_101\n      jump\t// in\n    tag_100:\n      dup1\n      0x1f\n      add\n      0x20\n      dup1\n      swap2\n      div\n      mul\n      0x20\n      add\n      mload(0x40)\n      swap1\n      dup2\n      add\n      0x40\n      mstore\n      dup1\n      swap3\n      swap2\n      swap1\n      dup2\n      dup2\n      mstore\n      0x20\n      add\n      dup3\n      dup1\n      sload\n      tag_102\n      swap1\n      tag_101\n      jump\t// in\n    tag_102:\n      dup1\n      iszero\n      tag_103\n      jumpi\n      dup1\n      0x1f\n      lt\n      tag_104\n      jumpi\n      0x0100\n      dup1\n      dup4\n      sload\n      div\n      mul\n      dup4\n      mstore\n      swap2\n      0x20\n      add\n      swap2\n      jump(tag_103)\n    tag_104:\n      dup3\n      add\n      swap2\n      swap1\n      0x00\n      mstore\n      keccak256(0x00, 0x20)\n      swap1\n    tag_105:\n      dup2\n      sload\n      dup2\n      mstore\n      swap1\n      0x01\n      add\n      swap1\n      0x20\n      add\n      dup1\n      dup4\n      gt\n      tag_105\n      jumpi\n      dup3\n      swap1\n      sub\n      0x1f\n      and\n      dup3\n      add\n      swap2\n    tag_103:\n      pop\n      pop\n      pop\n      pop\n      pop\n      dup2\n      mstore\n      pop\n      pop\n      dup2\n      mstore\n      0x20\n      add\n      swap1\n      0x01\n      add\n      swap1\n      jump(tag_97)\n    tag_98:\n      pop\n      pop\n      pop\n      pop\n      swap1\n      pop\n        /* \"inheritage.sol\":1620:1720  function viewSuccessor() public view returns(Successor[] memory) {... */\n      swap1\n      jump\t// out\n        /* \"inheritage.sol\":305:400  function viewbalance() public view returns(uint){... */\n    tag_30:\n        /* \"inheritage.sol\":348:352  uint */\n      0x00\n        /* \"inheritage.sol\":371:392  address(this).balance */\n      selfbalance\n        /* \"inheritage.sol\":364:392  return address(this).balance */\n      swap1\n      pop\n        /* \"inheritage.sol\":305:400  function viewbalance() public view returns(uint){... */\n      swap1\n      jump\t// out\n        /* \"inheritage.sol\":2144:2264  function transfer(address payable walletAddress, uint amount) internal {... */\n    tag_64:\n        /* \"inheritage.sol\":2226:2239  walletAddress */\n      dup2\n        /* \"inheritage.sol\":2226:2248  walletAddress.transfer */\n      0xffffffffffffffffffffffffffffffffffffffff\n      and\n        /* \"inheritage.sol\":2226:2256  walletAddress.transfer(amount) */\n      0x08fc\n        /* \"inheritage.sol\":2249:2255  amount */\n      dup3\n        /* \"inheritage.sol\":2226:2256  walletAddress.transfer(amount) */\n      swap1\n      dup2\n      iszero\n      mul\n      swap1\n      mload(0x40)\n      0x00\n      mload(0x40)\n      dup1\n      dup4\n      sub\n      dup2\n      dup6\n      dup9\n      dup9\n      call\n      swap4\n      pop\n      pop\n      pop\n      pop\n      iszero\n      dup1\n      iszero\n      tag_109\n      jumpi\n      returndatasize\n      0x00\n      dup1\n      returndatacopy\n      revert(0x00, returndatasize)\n    tag_109:\n      pop\n        /* \"inheritage.sol\":2144:2264  function transfer(address payable walletAddress, uint amount) internal {... */\n      pop\n      pop\n      jump\t// out\n    tag_94:\n      pop\n      dup1\n      sload\n      tag_110\n      swap1\n      tag_101\n      jump\t// in\n    tag_110:\n      0x00\n      dup3\n      sstore\n      dup1\n      0x1f\n      lt\n      tag_112\n      jumpi\n      pop\n      jump(tag_111)\n    tag_112:\n      0x1f\n      add\n      0x20\n      swap1\n      div\n      swap1\n      0x00\n      mstore\n      keccak256(0x00, 0x20)\n      swap1\n      dup2\n      add\n      swap1\n      tag_113\n      swap2\n      swap1\n      tag_114\n      jump\t// in\n    tag_113:\n    tag_111:\n      pop\n      jump\t// out\n    tag_114:\n    tag_115:\n      dup1\n      dup3\n      gt\n      iszero\n      tag_116\n      jumpi\n      0x00\n      dup2\n      0x00\n      swap1\n      sstore\n      pop\n      0x01\n      add\n      jump(tag_115)\n    tag_116:\n      pop\n      swap1\n      jump\t// out\n        /* \"#utility.yul\":7:82   */\n    tag_117:\n        /* \"#utility.yul\":40:46   */\n      0x00\n        /* \"#utility.yul\":73:75   */\n      0x40\n        /* \"#utility.yul\":67:76   */\n      mload\n        /* \"#utility.yul\":57:76   */\n      swap1\n      pop\n        /* \"#utility.yul\":7:82   */\n      swap1\n      jump\t// out\n        /* \"#utility.yul\":88:205   */\n    tag_118:\n        /* \"#utility.yul\":197:198   */\n      0x00\n        /* \"#utility.yul\":194:195   */\n      dup1\n        /* \"#utility.yul\":187:199   */\n      revert\n        /* \"#utility.yul\":211:328   */\n    tag_119:\n        /* \"#utility.yul\":320:321   */\n      0x00\n        /* \"#utility.yul\":317:318   */\n      dup1\n        /* \"#utility.yul\":310:322   */\n      revert\n        /* \"#utility.yul\":334:460   */\n    tag_120:\n        /* \"#utility.yul\":371:378   */\n      0x00\n        /* \"#utility.yul\":411:453   */\n      0xffffffffffffffffffffffffffffffffffffffff\n        /* \"#utility.yul\":404:409   */\n      dup3\n        /* \"#utility.yul\":400:454   */\n      and\n        /* \"#utility.yul\":389:454   */\n      swap1\n      pop\n        /* \"#utility.yul\":334:460   */\n      swap2\n      swap1\n      pop\n      jump\t// out\n        /* \"#utility.yul\":466:570   */\n    tag_121:\n        /* \"#utility.yul\":511:518   */\n      0x00\n        /* \"#utility.yul\":540:564   */\n      tag_178\n        /* \"#utility.yul\":558:563   */\n      dup3\n        /* \"#utility.yul\":540:564   */\n      tag_120\n      jump\t// in\n    tag_178:\n        /* \"#utility.yul\":529:564   */\n      swap1\n      pop\n        /* \"#utility.yul\":466:570   */\n      swap2\n      swap1\n      pop\n      jump\t// out\n        /* \"#utility.yul\":576:714   */\n    tag_122:\n        /* \"#utility.yul\":657:689   */\n      tag_180\n        /* \"#utility.yul\":683:688   */\n      dup2\n        /* \"#utility.yul\":657:689   */\n      tag_121\n      jump\t// in\n    tag_180:\n        /* \"#utility.yul\":650:655   */\n      dup2\n        /* \"#utility.yul\":647:690   */\n      eq\n        /* \"#utility.yul\":637:708   */\n      tag_181\n      jumpi\n        /* \"#utility.yul\":704:705   */\n      0x00\n        /* \"#utility.yul\":701:702   */\n      dup1\n        /* \"#utility.yul\":694:706   */\n      revert\n        /* \"#utility.yul\":637:708   */\n    tag_181:\n        /* \"#utility.yul\":576:714   */\n      pop\n      jump\t// out\n        /* \"#utility.yul\":720:875   */\n    tag_123:\n        /* \"#utility.yul\":774:779   */\n      0x00\n        /* \"#utility.yul\":812:818   */\n      dup2\n        /* \"#utility.yul\":799:819   */\n      calldataload\n        /* \"#utility.yul\":790:819   */\n      swap1\n      pop\n        /* \"#utility.yul\":828:869   */\n      tag_183\n        /* \"#utility.yul\":863:868   */\n      dup2\n        /* \"#utility.yul\":828:869   */\n      tag_122\n      jump\t// in\n    tag_183:\n        /* \"#utility.yul\":720:875   */\n      swap3\n      swap2\n      pop\n      pop\n      jump\t// out\n        /* \"#utility.yul\":881:998   */\n    tag_124:\n        /* \"#utility.yul\":990:991   */\n      0x00\n        /* \"#utility.yul\":987:988   */\n      dup1\n        /* \"#utility.yul\":980:992   */\n      revert\n        /* \"#utility.yul\":1004:1121   */\n    tag_125:\n        /* \"#utility.yul\":1113:1114   */\n      0x00\n        /* \"#utility.yul\":1110:1111   */\n      dup1\n        /* \"#utility.yul\":1103:1115   */\n      revert\n        /* \"#utility.yul\":1127:1229   */\n    tag_126:\n        /* \"#utility.yul\":1168:1174   */\n      0x00\n        /* \"#utility.yul\":1219:1221   */\n      0x1f\n        /* \"#utility.yul\":1215:1222   */\n      not\n        /* \"#utility.yul\":1210:1212   */\n      0x1f\n        /* \"#utility.yul\":1203:1208   */\n      dup4\n        /* \"#utility.yul\":1199:1213   */\n      add\n        /* \"#utility.yul\":1195:1223   */\n      and\n        /* \"#utility.yul\":1185:1223   */\n      swap1\n      pop\n        /* \"#utility.yul\":1127:1229   */\n      swap2\n      swap1\n      pop\n      jump\t// out\n        /* \"#utility.yul\":1235:1415   */\n    tag_127:\n        /* \"#utility.yul\":1283:1360   */\n      0x4e487b7100000000000000000000000000000000000000000000000000000000\n        /* \"#utility.yul\":1280:1281   */\n      0x00\n        /* \"#utility.yul\":1273:1361   */\n      mstore\n        /* \"#utility.yul\":1380:1384   */\n      0x41\n        /* \"#utility.yul\":1377:1378   */\n      0x04\n        /* \"#utility.yul\":1370:1385   */\n      mstore\n        /* \"#utility.yul\":1404:1408   */\n      0x24\n        /* \"#utility.yul\":1401:1402   */\n      0x00\n        /* \"#utility.yul\":1394:1409   */\n      revert\n        /* \"#utility.yul\":1421:1702   */\n    tag_128:\n        /* \"#utility.yul\":1504:1531   */\n      tag_189\n        /* \"#utility.yul\":1526:1530   */\n      dup3\n        /* \"#utility.yul\":1504:1531   */\n      tag_126\n      jump\t// in\n    tag_189:\n        /* \"#utility.yul\":1496:1502   */\n      dup2\n        /* \"#utility.yul\":1492:1532   */\n      add\n        /* \"#utility.yul\":1634:1640   */\n      dup2\n        /* \"#utility.yul\":1622:1632   */\n      dup2\n        /* \"#utility.yul\":1619:1641   */\n      lt\n        /* \"#utility.yul\":1598:1616   */\n      0xffffffffffffffff\n        /* \"#utility.yul\":1586:1596   */\n      dup3\n        /* \"#utility.yul\":1583:1617   */\n      gt\n        /* \"#utility.yul\":1580:1642   */\n      or\n        /* \"#utility.yul\":1577:1665   */\n      iszero\n      tag_190\n      jumpi\n        /* \"#utility.yul\":1645:1663   */\n      tag_191\n      tag_127\n      jump\t// in\n    tag_191:\n        /* \"#utility.yul\":1577:1665   */\n    tag_190:\n        /* \"#utility.yul\":1685:1695   */\n      dup1\n        /* \"#utility.yul\":1681:1683   */\n      0x40\n        /* \"#utility.yul\":1674:1696   */\n      mstore\n        /* \"#utility.yul\":1464:1702   */\n      pop\n        /* \"#utility.yul\":1421:1702   */\n      pop\n      pop\n      jump\t// out\n        /* \"#utility.yul\":1708:1837   */\n    tag_129:\n        /* \"#utility.yul\":1742:1748   */\n      0x00\n        /* \"#utility.yul\":1769:1789   */\n      tag_193\n      tag_117\n      jump\t// in\n    tag_193:\n        /* \"#utility.yul\":1759:1789   */\n      swap1\n      pop\n        /* \"#utility.yul\":1798:1831   */\n      tag_194\n        /* \"#utility.yul\":1826:1830   */\n      dup3\n        /* \"#utility.yul\":1818:1824   */\n      dup3\n        /* \"#utility.yul\":1798:1831   */\n      tag_128\n      jump\t// in\n    tag_194:\n        /* \"#utility.yul\":1708:1837   */\n      swap2\n      swap1\n      pop\n      jump\t// out\n        /* \"#utility.yul\":1843:2151   */\n    tag_130:\n        /* \"#utility.yul\":1905:1909   */\n      0x00\n        /* \"#utility.yul\":1995:2013   */\n      0xffffffffffffffff\n        /* \"#utility.yul\":1987:1993   */\n      dup3\n        /* \"#utility.yul\":1984:2014   */\n      gt\n        /* \"#utility.yul\":1981:2037   */\n      iszero\n      tag_196\n      jumpi\n        /* \"#utility.yul\":2017:2035   */\n      tag_197\n      tag_127\n      jump\t// in\n    tag_197:\n        /* \"#utility.yul\":1981:2037   */\n    tag_196:\n        /* \"#utility.yul\":2055:2084   */\n      tag_198\n        /* \"#utility.yul\":2077:2083   */\n      dup3\n        /* \"#utility.yul\":2055:2084   */\n      tag_126\n      jump\t// in\n    tag_198:\n        /* \"#utility.yul\":2047:2084   */\n      swap1\n      pop\n        /* \"#utility.yul\":2139:2143   */\n      0x20\n        /* \"#utility.yul\":2133:2137   */\n      dup2\n        /* \"#utility.yul\":2129:2144   */\n      add\n        /* \"#utility.yul\":2121:2144   */\n      swap1\n      pop\n        /* \"#utility.yul\":1843:2151   */\n      swap2\n      swap1\n      pop\n      jump\t// out\n        /* \"#utility.yul\":2157:2305   */\n    tag_131:\n        /* \"#utility.yul\":2255:2261   */\n      dup3\n        /* \"#utility.yul\":2250:2253   */\n      dup2\n        /* \"#utility.yul\":2245:2248   */\n      dup4\n        /* \"#utility.yul\":2232:2262   */\n      calldatacopy\n        /* \"#utility.yul\":2296:2297   */\n      0x00\n        /* \"#utility.yul\":2287:2293   */\n      dup4\n        /* \"#utility.yul\":2282:2285   */\n      dup4\n        /* \"#utility.yul\":2278:2294   */\n      add\n        /* \"#utility.yul\":2271:2298   */\n      mstore\n        /* \"#utility.yul\":2157:2305   */\n      pop\n      pop\n      pop\n      jump\t// out\n        /* \"#utility.yul\":2311:2736   */\n    tag_132:\n        /* \"#utility.yul\":2389:2394   */\n      0x00\n        /* \"#utility.yul\":2414:2480   */\n      tag_201\n        /* \"#utility.yul\":2430:2479   */\n      tag_202\n        /* \"#utility.yul\":2472:2478   */\n      dup5\n        /* \"#utility.yul\":2430:2479   */\n      tag_130\n      jump\t// in\n    tag_202:\n        /* \"#utility.yul\":2414:2480   */\n      tag_129\n      jump\t// in\n    tag_201:\n        /* \"#utility.yul\":2405:2480   */\n      swap1\n      pop\n        /* \"#utility.yul\":2503:2509   */\n      dup3\n        /* \"#utility.yul\":2496:2501   */\n      dup2\n        /* \"#utility.yul\":2489:2510   */\n      mstore\n        /* \"#utility.yul\":2541:2545   */\n      0x20\n        /* \"#utility.yul\":2534:2539   */\n      dup2\n        /* \"#utility.yul\":2530:2546   */\n      add\n        /* \"#utility.yul\":2579:2582   */\n      dup5\n        /* \"#utility.yul\":2570:2576   */\n      dup5\n        /* \"#utility.yul\":2565:2568   */\n      dup5\n        /* \"#utility.yul\":2561:2577   */\n      add\n        /* \"#utility.yul\":2558:2583   */\n      gt\n        /* \"#utility.yul\":2555:2667   */\n      iszero\n      tag_203\n      jumpi\n        /* \"#utility.yul\":2586:2665   */\n      tag_204\n      tag_125\n      jump\t// in\n    tag_204:\n        /* \"#utility.yul\":2555:2667   */\n    tag_203:\n        /* \"#utility.yul\":2676:2730   */\n      tag_205\n        /* \"#utility.yul\":2723:2729   */\n      dup5\n        /* \"#utility.yul\":2718:2721   */\n      dup3\n        /* \"#utility.yul\":2713:2716   */\n      dup6\n        /* \"#utility.yul\":2676:2730   */\n      tag_131\n      jump\t// in\n    tag_205:\n        /* \"#utility.yul\":2395:2736   */\n      pop\n        /* \"#utility.yul\":2311:2736   */\n      swap4\n      swap3\n      pop\n      pop\n      pop\n      jump\t// out\n        /* \"#utility.yul\":2756:3096   */\n    tag_133:\n        /* \"#utility.yul\":2812:2817   */\n      0x00\n        /* \"#utility.yul\":2861:2864   */\n      dup3\n        /* \"#utility.yul\":2854:2858   */\n      0x1f\n        /* \"#utility.yul\":2846:2852   */\n      dup4\n        /* \"#utility.yul\":2842:2859   */\n      add\n        /* \"#utility.yul\":2838:2865   */\n      slt\n        /* \"#utility.yul\":2828:2950   */\n      tag_207\n      jumpi\n        /* \"#utility.yul\":2869:2948   */\n      tag_208\n      tag_124\n      jump\t// in\n    tag_208:\n        /* \"#utility.yul\":2828:2950   */\n    tag_207:\n        /* \"#utility.yul\":2986:2992   */\n      dup2\n        /* \"#utility.yul\":2973:2993   */\n      calldataload\n        /* \"#utility.yul\":3011:3090   */\n      tag_209\n        /* \"#utility.yul\":3086:3089   */\n      dup5\n        /* \"#utility.yul\":3078:3084   */\n      dup3\n        /* \"#utility.yul\":3071:3075   */\n      0x20\n        /* \"#utility.yul\":3063:3069   */\n      dup7\n        /* \"#utility.yul\":3059:3076   */\n      add\n        /* \"#utility.yul\":3011:3090   */\n      tag_132\n      jump\t// in\n    tag_209:\n        /* \"#utility.yul\":3002:3090   */\n      swap2\n      pop\n        /* \"#utility.yul\":2818:3096   */\n      pop\n        /* \"#utility.yul\":2756:3096   */\n      swap3\n      swap2\n      pop\n      pop\n      jump\t// out\n        /* \"#utility.yul\":3102:3772   */\n    tag_11:\n        /* \"#utility.yul\":3188:3194   */\n      0x00\n        /* \"#utility.yul\":3196:3202   */\n      dup1\n        /* \"#utility.yul\":3245:3247   */\n      0x40\n        /* \"#utility.yul\":3233:3242   */\n      dup4\n        /* \"#utility.yul\":3224:3231   */\n      dup6\n        /* \"#utility.yul\":3220:3243   */\n      sub\n        /* \"#utility.yul\":3216:3248   */\n      slt\n        /* \"#utility.yul\":3213:3332   */\n      iszero\n      tag_211\n      jumpi\n        /* \"#utility.yul\":3251:3330   */\n      tag_212\n      tag_118\n      jump\t// in\n    tag_212:\n        /* \"#utility.yul\":3213:3332   */\n    tag_211:\n        /* \"#utility.yul\":3371:3372   */\n      0x00\n        /* \"#utility.yul\":3396:3457   */\n      tag_213\n        /* \"#utility.yul\":3449:3456   */\n      dup6\n        /* \"#utility.yul\":3440:3446   */\n      dup3\n        /* \"#utility.yul\":3429:3438   */\n      dup7\n        /* \"#utility.yul\":3425:3447   */\n      add\n        /* \"#utility.yul\":3396:3457   */\n      tag_123\n      jump\t// in\n    tag_213:\n        /* \"#utility.yul\":3386:3457   */\n      swap3\n      pop\n        /* \"#utility.yul\":3342:3467   */\n      pop\n        /* \"#utility.yul\":3534:3536   */\n      0x20\n        /* \"#utility.yul\":3523:3532   */\n      dup4\n        /* \"#utility.yul\":3519:3537   */\n      add\n        /* \"#utility.yul\":3506:3538   */\n      calldataload\n        /* \"#utility.yul\":3565:3583   */\n      0xffffffffffffffff\n        /* \"#utility.yul\":3557:3563   */\n      dup2\n        /* \"#utility.yul\":3554:3584   */\n      gt\n        /* \"#utility.yul\":3551:3668   */\n      iszero\n      tag_214\n      jumpi\n        /* \"#utility.yul\":3587:3666   */\n      tag_215\n      tag_119\n      jump\t// in\n    tag_215:\n        /* \"#utility.yul\":3551:3668   */\n    tag_214:\n        /* \"#utility.yul\":3692:3755   */\n      tag_216\n        /* \"#utility.yul\":3747:3754   */\n      dup6\n        /* \"#utility.yul\":3738:3744   */\n      dup3\n        /* \"#utility.yul\":3727:3736   */\n      dup7\n        /* \"#utility.yul\":3723:3745   */\n      add\n        /* \"#utility.yul\":3692:3755   */\n      tag_133\n      jump\t// in\n    tag_216:\n        /* \"#utility.yul\":3682:3755   */\n      swap2\n      pop\n        /* \"#utility.yul\":3477:3765   */\n      pop\n        /* \"#utility.yul\":3102:3772   */\n      swap3\n      pop\n      swap3\n      swap1\n      pop\n      jump\t// out\n        /* \"#utility.yul\":3778:4123   */\n    tag_19:\n        /* \"#utility.yul\":3845:3851   */\n      0x00\n        /* \"#utility.yul\":3894:3896   */\n      0x20\n        /* \"#utility.yul\":3882:3891   */\n      dup3\n        /* \"#utility.yul\":3873:3880   */\n      dup5\n        /* \"#utility.yul\":3869:3892   */\n      sub\n        /* \"#utility.yul\":3865:3897   */\n      slt\n        /* \"#utility.yul\":3862:3981   */\n      iszero\n      tag_218\n      jumpi\n        /* \"#utility.yul\":3900:3979   */\n      tag_219\n      tag_118\n      jump\t// in\n    tag_219:\n        /* \"#utility.yul\":3862:3981   */\n    tag_218:\n        /* \"#utility.yul\":4020:4021   */\n      0x00\n        /* \"#utility.yul\":4045:4106   */\n      tag_220\n        /* \"#utility.yul\":4098:4105   */\n      dup5\n        /* \"#utility.yul\":4089:4095   */\n      dup3\n        /* \"#utility.yul\":4078:4087   */\n      dup6\n        /* \"#utility.yul\":4074:4096   */\n      add\n        /* \"#utility.yul\":4045:4106   */\n      tag_123\n      jump\t// in\n    tag_220:\n        /* \"#utility.yul\":4035:4106   */\n      swap2\n      pop\n        /* \"#utility.yul\":3991:4116   */\n      pop\n        /* \"#utility.yul\":3778:4123   */\n      swap3\n      swap2\n      pop\n      pop\n      jump\t// out\n        /* \"#utility.yul\":4129:4268   */\n    tag_134:\n        /* \"#utility.yul\":4221:4227   */\n      0x00\n        /* \"#utility.yul\":4255:4260   */\n      dup2\n        /* \"#utility.yul\":4249:4261   */\n      mload\n        /* \"#utility.yul\":4239:4261   */\n      swap1\n      pop\n        /* \"#utility.yul\":4129:4268   */\n      swap2\n      swap1\n      pop\n      jump\t// out\n        /* \"#utility.yul\":4274:4483   */\n    tag_135:\n        /* \"#utility.yul\":4398:4409   */\n      0x00\n        /* \"#utility.yul\":4432:4438   */\n      dup3\n        /* \"#utility.yul\":4427:4430   */\n      dup3\n        /* \"#utility.yul\":4420:4439   */\n      mstore\n        /* \"#utility.yul\":4472:4476   */\n      0x20\n        /* \"#utility.yul\":4467:4470   */\n      dup3\n        /* \"#utility.yul\":4463:4477   */\n      add\n        /* \"#utility.yul\":4448:4477   */\n      swap1\n      pop\n        /* \"#utility.yul\":4274:4483   */\n      swap3\n      swap2\n      pop\n      pop\n      jump\t// out\n        /* \"#utility.yul\":4489:4646   */\n    tag_136:\n        /* \"#utility.yul\":4581:4585   */\n      0x00\n        /* \"#utility.yul\":4604:4607   */\n      dup2\n        /* \"#utility.yul\":4596:4607   */\n      swap1\n      pop\n        /* \"#utility.yul\":4634:4638   */\n      0x20\n        /* \"#utility.yul\":4629:4632   */\n      dup3\n        /* \"#utility.yul\":4625:4639   */\n      add\n        /* \"#utility.yul\":4617:4639   */\n      swap1\n      pop\n        /* \"#utility.yul\":4489:4646   */\n      swap2\n      swap1\n      pop\n      jump\t// out\n        /* \"#utility.yul\":4652:4784   */\n    tag_137:\n        /* \"#utility.yul\":4745:4777   */\n      tag_225\n        /* \"#utility.yul\":4771:4776   */\n      dup2\n        /* \"#utility.yul\":4745:4777   */\n      tag_121\n      jump\t// in\n    tag_225:\n        /* \"#utility.yul\":4740:4743   */\n      dup3\n        /* \"#utility.yul\":4733:4778   */\n      mstore\n        /* \"#utility.yul\":4652:4784   */\n      pop\n      pop\n      jump\t// out\n        /* \"#utility.yul\":4790:4889   */\n    tag_138:\n        /* \"#utility.yul\":4842:4848   */\n      0x00\n        /* \"#utility.yul\":4876:4881   */\n      dup2\n        /* \"#utility.yul\":4870:4882   */\n      mload\n        /* \"#utility.yul\":4860:4882   */\n      swap1\n      pop\n        /* \"#utility.yul\":4790:4889   */\n      swap2\n      swap1\n      pop\n      jump\t// out\n        /* \"#utility.yul\":4895:5054   */\n    tag_139:\n        /* \"#utility.yul\":4969:4980   */\n      0x00\n        /* \"#utility.yul\":5003:5009   */\n      dup3\n        /* \"#utility.yul\":4998:5001   */\n      dup3\n        /* \"#utility.yul\":4991:5010   */\n      mstore\n        /* \"#utility.yul\":5043:5047   */\n      0x20\n        /* \"#utility.yul\":5038:5041   */\n      dup3\n        /* \"#utility.yul\":5034:5048   */\n      add\n        /* \"#utility.yul\":5019:5048   */\n      swap1\n      pop\n        /* \"#utility.yul\":4895:5054   */\n      swap3\n      swap2\n      pop\n      pop\n      jump\t// out\n        /* \"#utility.yul\":5060:5199   */\n    tag_140:\n        /* \"#utility.yul\":5149:5155   */\n      dup3\n        /* \"#utility.yul\":5144:5147   */\n      dup2\n        /* \"#utility.yul\":5139:5142   */\n      dup4\n        /* \"#utility.yul\":5133:5156   */\n      mcopy\n        /* \"#utility.yul\":5190:5191   */\n      0x00\n        /* \"#utility.yul\":5181:5187   */\n      dup4\n        /* \"#utility.yul\":5176:5179   */\n      dup4\n        /* \"#utility.yul\":5172:5188   */\n      add\n        /* \"#utility.yul\":5165:5192   */\n      mstore\n        /* \"#utility.yul\":5060:5199   */\n      pop\n      pop\n      pop\n      jump\t// out\n        /* \"#utility.yul\":5205:5562   */\n    tag_141:\n        /* \"#utility.yul\":5283:5286   */\n      0x00\n        /* \"#utility.yul\":5311:5350   */\n      tag_230\n        /* \"#utility.yul\":5344:5349   */\n      dup3\n        /* \"#utility.yul\":5311:5350   */\n      tag_138\n      jump\t// in\n    tag_230:\n        /* \"#utility.yul\":5366:5427   */\n      tag_231\n        /* \"#utility.yul\":5420:5426   */\n      dup2\n        /* \"#utility.yul\":5415:5418   */\n      dup6\n        /* \"#utility.yul\":5366:5427   */\n      tag_139\n      jump\t// in\n    tag_231:\n        /* \"#utility.yul\":5359:5427   */\n      swap4\n      pop\n        /* \"#utility.yul\":5436:5501   */\n      tag_232\n        /* \"#utility.yul\":5494:5500   */\n      dup2\n        /* \"#utility.yul\":5489:5492   */\n      dup6\n        /* \"#utility.yul\":5482:5486   */\n      0x20\n        /* \"#utility.yul\":5475:5480   */\n      dup7\n        /* \"#utility.yul\":5471:5487   */\n      add\n        /* \"#utility.yul\":5436:5501   */\n      tag_140\n      jump\t// in\n    tag_232:\n        /* \"#utility.yul\":5526:5555   */\n      tag_233\n        /* \"#utility.yul\":5548:5554   */\n      dup2\n        /* \"#utility.yul\":5526:5555   */\n      tag_126\n      jump\t// in\n    tag_233:\n        /* \"#utility.yul\":5521:5524   */\n      dup5\n        /* \"#utility.yul\":5517:5556   */\n      add\n        /* \"#utility.yul\":5510:5556   */\n      swap2\n      pop\n        /* \"#utility.yul\":5287:5562   */\n      pop\n        /* \"#utility.yul\":5205:5562   */\n      swap3\n      swap2\n      pop\n      pop\n      jump\t// out\n        /* \"#utility.yul\":5634:6255   */\n    tag_142:\n        /* \"#utility.yul\":5743:5746   */\n      0x00\n        /* \"#utility.yul\":5779:5783   */\n      0x40\n        /* \"#utility.yul\":5774:5777   */\n      dup4\n        /* \"#utility.yul\":5770:5784   */\n      add\n        /* \"#utility.yul\":5875:5879   */\n      0x00\n        /* \"#utility.yul\":5868:5873   */\n      dup4\n        /* \"#utility.yul\":5864:5880   */\n      add\n        /* \"#utility.yul\":5858:5881   */\n      mload\n        /* \"#utility.yul\":5894:5973   */\n      tag_235\n        /* \"#utility.yul\":5967:5971   */\n      0x00\n        /* \"#utility.yul\":5962:5965   */\n      dup7\n        /* \"#utility.yul\":5958:5972   */\n      add\n        /* \"#utility.yul\":5944:5956   */\n      dup3\n        /* \"#utility.yul\":5894:5973   */\n      tag_137\n      jump\t// in\n    tag_235:\n        /* \"#utility.yul\":5794:5983   */\n      pop\n        /* \"#utility.yul\":6065:6069   */\n      0x20\n        /* \"#utility.yul\":6058:6063   */\n      dup4\n        /* \"#utility.yul\":6054:6070   */\n      add\n        /* \"#utility.yul\":6048:6071   */\n      mload\n        /* \"#utility.yul\":6118:6121   */\n      dup5\n        /* \"#utility.yul\":6112:6116   */\n      dup3\n        /* \"#utility.yul\":6108:6122   */\n      sub\n        /* \"#utility.yul\":6101:6105   */\n      0x20\n        /* \"#utility.yul\":6096:6099   */\n      dup7\n        /* \"#utility.yul\":6092:6106   */\n      add\n        /* \"#utility.yul\":6085:6123   */\n      mstore\n        /* \"#utility.yul\":6144:6217   */\n      tag_236\n        /* \"#utility.yul\":6212:6216   */\n      dup3\n        /* \"#utility.yul\":6198:6210   */\n      dup3\n        /* \"#utility.yul\":6144:6217   */\n      tag_141\n      jump\t// in\n    tag_236:\n        /* \"#utility.yul\":6136:6217   */\n      swap2\n      pop\n        /* \"#utility.yul\":5993:6228   */\n      pop\n        /* \"#utility.yul\":6245:6249   */\n      dup1\n        /* \"#utility.yul\":6238:6249   */\n      swap2\n      pop\n        /* \"#utility.yul\":5748:6255   */\n      pop\n        /* \"#utility.yul\":5634:6255   */\n      swap3\n      swap2\n      pop\n      pop\n      jump\t// out\n        /* \"#utility.yul\":6261:6517   */\n    tag_143:\n        /* \"#utility.yul\":6380:6390   */\n      0x00\n        /* \"#utility.yul\":6415:6511   */\n      tag_238\n        /* \"#utility.yul\":6507:6510   */\n      dup4\n        /* \"#utility.yul\":6499:6505   */\n      dup4\n        /* \"#utility.yul\":6415:6511   */\n      tag_142\n      jump\t// in\n    tag_238:\n        /* \"#utility.yul\":6401:6511   */\n      swap1\n      pop\n        /* \"#utility.yul\":6261:6517   */\n      swap3\n      swap2\n      pop\n      pop\n      jump\t// out\n        /* \"#utility.yul\":6523:6661   */\n    tag_144:\n        /* \"#utility.yul\":6618:6622   */\n      0x00\n        /* \"#utility.yul\":6650:6654   */\n      0x20\n        /* \"#utility.yul\":6645:6648   */\n      dup3\n        /* \"#utility.yul\":6641:6655   */\n      add\n        /* \"#utility.yul\":6633:6655   */\n      swap1\n      pop\n        /* \"#utility.yul\":6523:6661   */\n      swap2\n      swap1\n      pop\n      jump\t// out\n        /* \"#utility.yul\":6737:7848   */\n    tag_145:\n        /* \"#utility.yul\":6906:6909   */\n      0x00\n        /* \"#utility.yul\":6935:7014   */\n      tag_241\n        /* \"#utility.yul\":7008:7013   */\n      dup3\n        /* \"#utility.yul\":6935:7014   */\n      tag_134\n      jump\t// in\n    tag_241:\n        /* \"#utility.yul\":7030:7141   */\n      tag_242\n        /* \"#utility.yul\":7134:7140   */\n      dup2\n        /* \"#utility.yul\":7129:7132   */\n      dup6\n        /* \"#utility.yul\":7030:7141   */\n      tag_135\n      jump\t// in\n    tag_242:\n        /* \"#utility.yul\":7023:7141   */\n      swap4\n      pop\n        /* \"#utility.yul\":7167:7170   */\n      dup4\n        /* \"#utility.yul\":7212:7216   */\n      0x20\n        /* \"#utility.yul\":7204:7210   */\n      dup3\n        /* \"#utility.yul\":7200:7217   */\n      mul\n        /* \"#utility.yul\":7195:7198   */\n      dup6\n        /* \"#utility.yul\":7191:7218   */\n      add\n        /* \"#utility.yul\":7242:7323   */\n      tag_243\n        /* \"#utility.yul\":7317:7322   */\n      dup6\n        /* \"#utility.yul\":7242:7323   */\n      tag_136\n      jump\t// in\n    tag_243:\n        /* \"#utility.yul\":7346:7353   */\n      dup1\n        /* \"#utility.yul\":7377:7378   */\n      0x00\n        /* \"#utility.yul\":7362:7803   */\n    tag_244:\n        /* \"#utility.yul\":7387:7393   */\n      dup6\n        /* \"#utility.yul\":7384:7385   */\n      dup2\n        /* \"#utility.yul\":7381:7394   */\n      lt\n        /* \"#utility.yul\":7362:7803   */\n      iszero\n      tag_246\n      jumpi\n        /* \"#utility.yul\":7458:7467   */\n      dup5\n        /* \"#utility.yul\":7452:7456   */\n      dup5\n        /* \"#utility.yul\":7448:7468   */\n      sub\n        /* \"#utility.yul\":7443:7446   */\n      dup10\n        /* \"#utility.yul\":7436:7469   */\n      mstore\n        /* \"#utility.yul\":7509:7515   */\n      dup2\n        /* \"#utility.yul\":7503:7516   */\n      mload\n        /* \"#utility.yul\":7537:7651   */\n      tag_247\n        /* \"#utility.yul\":7646:7650   */\n      dup6\n        /* \"#utility.yul\":7631:7644   */\n      dup3\n        /* \"#utility.yul\":7537:7651   */\n      tag_143\n      jump\t// in\n    tag_247:\n        /* \"#utility.yul\":7529:7651   */\n      swap5\n      pop\n        /* \"#utility.yul\":7674:7759   */\n      tag_248\n        /* \"#utility.yul\":7752:7758   */\n      dup4\n        /* \"#utility.yul\":7674:7759   */\n      tag_144\n      jump\t// in\n    tag_248:\n        /* \"#utility.yul\":7664:7759   */\n      swap3\n      pop\n        /* \"#utility.yul\":7788:7792   */\n      0x20\n        /* \"#utility.yul\":7783:7786   */\n      dup11\n        /* \"#utility.yul\":7779:7793   */\n      add\n        /* \"#utility.yul\":7772:7793   */\n      swap10\n      pop\n        /* \"#utility.yul\":7422:7803   */\n      pop\n        /* \"#utility.yul\":7409:7410   */\n      0x01\n        /* \"#utility.yul\":7406:7407   */\n      dup2\n        /* \"#utility.yul\":7402:7411   */\n      add\n        /* \"#utility.yul\":7397:7411   */\n      swap1\n      pop\n        /* \"#utility.yul\":7362:7803   */\n      jump(tag_244)\n    tag_246:\n        /* \"#utility.yul\":7366:7380   */\n      pop\n        /* \"#utility.yul\":7819:7823   */\n      dup3\n        /* \"#utility.yul\":7812:7823   */\n      swap8\n      pop\n        /* \"#utility.yul\":7839:7842   */\n      dup8\n        /* \"#utility.yul\":7832:7842   */\n      swap6\n      pop\n        /* \"#utility.yul\":6911:7848   */\n      pop\n      pop\n      pop\n      pop\n      pop\n        /* \"#utility.yul\":6737:7848   */\n      swap3\n      swap2\n      pop\n      pop\n      jump\t// out\n        /* \"#utility.yul\":7854:8327   */\n    tag_27:\n        /* \"#utility.yul\":8047:8051   */\n      0x00\n        /* \"#utility.yul\":8085:8087   */\n      0x20\n        /* \"#utility.yul\":8074:8083   */\n      dup3\n        /* \"#utility.yul\":8070:8088   */\n      add\n        /* \"#utility.yul\":8062:8088   */\n      swap1\n      pop\n        /* \"#utility.yul\":8134:8143   */\n      dup2\n        /* \"#utility.yul\":8128:8132   */\n      dup2\n        /* \"#utility.yul\":8124:8144   */\n      sub\n        /* \"#utility.yul\":8120:8121   */\n      0x00\n        /* \"#utility.yul\":8109:8118   */\n      dup4\n        /* \"#utility.yul\":8105:8122   */\n      add\n        /* \"#utility.yul\":8098:8145   */\n      mstore\n        /* \"#utility.yul\":8162:8320   */\n      tag_250\n        /* \"#utility.yul\":8315:8319   */\n      dup2\n        /* \"#utility.yul\":8306:8312   */\n      dup5\n        /* \"#utility.yul\":8162:8320   */\n      tag_145\n      jump\t// in\n    tag_250:\n        /* \"#utility.yul\":8154:8320   */\n      swap1\n      pop\n        /* \"#utility.yul\":7854:8327   */\n      swap3\n      swap2\n      pop\n      pop\n      jump\t// out\n        /* \"#utility.yul\":8333:8410   */\n    tag_146:\n        /* \"#utility.yul\":8370:8377   */\n      0x00\n        /* \"#utility.yul\":8399:8404   */\n      dup2\n        /* \"#utility.yul\":8388:8404   */\n      swap1\n      pop\n        /* \"#utility.yul\":8333:8410   */\n      swap2\n      swap1\n      pop\n      jump\t// out\n        /* \"#utility.yul\":8416:8534   */\n    tag_147:\n        /* \"#utility.yul\":8503:8527   */\n      tag_253\n        /* \"#utility.yul\":8521:8526   */\n      dup2\n        /* \"#utility.yul\":8503:8527   */\n      tag_146\n      jump\t// in\n    tag_253:\n        /* \"#utility.yul\":8498:8501   */\n      dup3\n        /* \"#utility.yul\":8491:8528   */\n      mstore\n        /* \"#utility.yul\":8416:8534   */\n      pop\n      pop\n      jump\t// out\n        /* \"#utility.yul\":8540:8762   */\n    tag_32:\n        /* \"#utility.yul\":8633:8637   */\n      0x00\n        /* \"#utility.yul\":8671:8673   */\n      0x20\n        /* \"#utility.yul\":8660:8669   */\n      dup3\n        /* \"#utility.yul\":8656:8674   */\n      add\n        /* \"#utility.yul\":8648:8674   */\n      swap1\n      pop\n        /* \"#utility.yul\":8684:8755   */\n      tag_255\n        /* \"#utility.yul\":8752:8753   */\n      0x00\n        /* \"#utility.yul\":8741:8750   */\n      dup4\n        /* \"#utility.yul\":8737:8754   */\n      add\n        /* \"#utility.yul\":8728:8734   */\n      dup5\n        /* \"#utility.yul\":8684:8755   */\n      tag_147\n      jump\t// in\n    tag_255:\n        /* \"#utility.yul\":8540:8762   */\n      swap3\n      swap2\n      pop\n      pop\n      jump\t// out\n        /* \"#utility.yul\":8768:8937   */\n    tag_148:\n        /* \"#utility.yul\":8852:8863   */\n      0x00\n        /* \"#utility.yul\":8886:8892   */\n      dup3\n        /* \"#utility.yul\":8881:8884   */\n      dup3\n        /* \"#utility.yul\":8874:8893   */\n      mstore\n        /* \"#utility.yul\":8926:8930   */\n      0x20\n        /* \"#utility.yul\":8921:8924   */\n      dup3\n        /* \"#utility.yul\":8917:8931   */\n      add\n        /* \"#utility.yul\":8902:8931   */\n      swap1\n      pop\n        /* \"#utility.yul\":8768:8937   */\n      swap3\n      swap2\n      pop\n      pop\n      jump\t// out\n        /* \"#utility.yul\":8943:9168   */\n    tag_149:\n        /* \"#utility.yul\":9083:9117   */\n      0x4f6e6c7920746865206f6e7765722063616e2063616c6c20746869732066756e\n        /* \"#utility.yul\":9079:9080   */\n      0x00\n        /* \"#utility.yul\":9071:9077   */\n      dup3\n        /* \"#utility.yul\":9067:9081   */\n      add\n        /* \"#utility.yul\":9060:9118   */\n      mstore\n        /* \"#utility.yul\":9152:9160   */\n      0x6374696f6e2e0000000000000000000000000000000000000000000000000000\n        /* \"#utility.yul\":9147:9149   */\n      0x20\n        /* \"#utility.yul\":9139:9145   */\n      dup3\n        /* \"#utility.yul\":9135:9150   */\n      add\n        /* \"#utility.yul\":9128:9161   */\n      mstore\n        /* \"#utility.yul\":8943:9168   */\n      pop\n      jump\t// out\n        /* \"#utility.yul\":9174:9540   */\n    tag_150:\n        /* \"#utility.yul\":9316:9319   */\n      0x00\n        /* \"#utility.yul\":9337:9404   */\n      tag_259\n        /* \"#utility.yul\":9401:9403   */\n      0x26\n        /* \"#utility.yul\":9396:9399   */\n      dup4\n        /* \"#utility.yul\":9337:9404   */\n      tag_148\n      jump\t// in\n    tag_259:\n        /* \"#utility.yul\":9330:9404   */\n      swap2\n      pop\n        /* \"#utility.yul\":9413:9506   */\n      tag_260\n        /* \"#utility.yul\":9502:9505   */\n      dup3\n        /* \"#utility.yul\":9413:9506   */\n      tag_149\n      jump\t// in\n    tag_260:\n        /* \"#utility.yul\":9531:9533   */\n      0x40\n        /* \"#utility.yul\":9526:9529   */\n      dup3\n        /* \"#utility.yul\":9522:9534   */\n      add\n        /* \"#utility.yul\":9515:9534   */\n      swap1\n      pop\n        /* \"#utility.yul\":9174:9540   */\n      swap2\n      swap1\n      pop\n      jump\t// out\n        /* \"#utility.yul\":9546:9965   */\n    tag_36:\n        /* \"#utility.yul\":9712:9716   */\n      0x00\n        /* \"#utility.yul\":9750:9752   */\n      0x20\n        /* \"#utility.yul\":9739:9748   */\n      dup3\n        /* \"#utility.yul\":9735:9753   */\n      add\n        /* \"#utility.yul\":9727:9753   */\n      swap1\n      pop\n        /* \"#utility.yul\":9799:9808   */\n      dup2\n        /* \"#utility.yul\":9793:9797   */\n      dup2\n        /* \"#utility.yul\":9789:9809   */\n      sub\n        /* \"#utility.yul\":9785:9786   */\n      0x00\n        /* \"#utility.yul\":9774:9783   */\n      dup4\n        /* \"#utility.yul\":9770:9787   */\n      add\n        /* \"#utility.yul\":9763:9810   */\n      mstore\n        /* \"#utility.yul\":9827:9958   */\n      tag_262\n        /* \"#utility.yul\":9953:9957   */\n      dup2\n        /* \"#utility.yul\":9827:9958   */\n      tag_150\n      jump\t// in\n    tag_262:\n        /* \"#utility.yul\":9819:9958   */\n      swap1\n      pop\n        /* \"#utility.yul\":9546:9965   */\n      swap2\n      swap1\n      pop\n      jump\t// out\n        /* \"#utility.yul\":9971:10151   */\n    tag_43:\n        /* \"#utility.yul\":10019:10096   */\n      0x4e487b7100000000000000000000000000000000000000000000000000000000\n        /* \"#utility.yul\":10016:10017   */\n      0x00\n        /* \"#utility.yul\":10009:10097   */\n      mstore\n        /* \"#utility.yul\":10116:10120   */\n      0x32\n        /* \"#utility.yul\":10113:10114   */\n      0x04\n        /* \"#utility.yul\":10106:10121   */\n      mstore\n        /* \"#utility.yul\":10140:10144   */\n      0x24\n        /* \"#utility.yul\":10137:10138   */\n      0x00\n        /* \"#utility.yul\":10130:10145   */\n      revert\n        /* \"#utility.yul\":10157:10337   */\n    tag_151:\n        /* \"#utility.yul\":10205:10282   */\n      0x4e487b7100000000000000000000000000000000000000000000000000000000\n        /* \"#utility.yul\":10202:10203   */\n      0x00\n        /* \"#utility.yul\":10195:10283   */\n      mstore\n        /* \"#utility.yul\":10302:10306   */\n      0x22\n        /* \"#utility.yul\":10299:10300   */\n      0x04\n        /* \"#utility.yul\":10292:10307   */\n      mstore\n        /* \"#utility.yul\":10326:10330   */\n      0x24\n        /* \"#utility.yul\":10323:10324   */\n      0x00\n        /* \"#utility.yul\":10316:10331   */\n      revert\n        /* \"#utility.yul\":10343:10663   */\n    tag_101:\n        /* \"#utility.yul\":10387:10393   */\n      0x00\n        /* \"#utility.yul\":10424:10425   */\n      0x02\n        /* \"#utility.yul\":10418:10422   */\n      dup3\n        /* \"#utility.yul\":10414:10426   */\n      div\n        /* \"#utility.yul\":10404:10426   */\n      swap1\n      pop\n        /* \"#utility.yul\":10471:10472   */\n      0x01\n        /* \"#utility.yul\":10465:10469   */\n      dup3\n        /* \"#utility.yul\":10461:10473   */\n      and\n        /* \"#utility.yul\":10492:10510   */\n      dup1\n        /* \"#utility.yul\":10482:10563   */\n      tag_266\n      jumpi\n        /* \"#utility.yul\":10548:10552   */\n      0x7f\n        /* \"#utility.yul\":10540:10546   */\n      dup3\n        /* \"#utility.yul\":10536:10553   */\n      and\n        /* \"#utility.yul\":10526:10553   */\n      swap2\n      pop\n        /* \"#utility.yul\":10482:10563   */\n    tag_266:\n        /* \"#utility.yul\":10610:10612   */\n      0x20\n        /* \"#utility.yul\":10602:10608   */\n      dup3\n        /* \"#utility.yul\":10599:10613   */\n      lt\n        /* \"#utility.yul\":10579:10597   */\n      dup2\n        /* \"#utility.yul\":10576:10614   */\n      sub\n        /* \"#utility.yul\":10573:10657   */\n      tag_267\n      jumpi\n        /* \"#utility.yul\":10629:10647   */\n      tag_268\n      tag_151\n      jump\t// in\n    tag_268:\n        /* \"#utility.yul\":10573:10657   */\n    tag_267:\n        /* \"#utility.yul\":10394:10663   */\n      pop\n        /* \"#utility.yul\":10343:10663   */\n      swap2\n      swap1\n      pop\n      jump\t// out\n        /* \"#utility.yul\":10669:10810   */\n    tag_152:\n        /* \"#utility.yul\":10718:10722   */\n      0x00\n        /* \"#utility.yul\":10741:10744   */\n      dup2\n        /* \"#utility.yul\":10733:10744   */\n      swap1\n      pop\n        /* \"#utility.yul\":10764:10767   */\n      dup2\n        /* \"#utility.yul\":10761:10762   */\n      0x00\n        /* \"#utility.yul\":10754:10768   */\n      mstore\n        /* \"#utility.yul\":10798:10802   */\n      0x20\n        /* \"#utility.yul\":10795:10796   */\n      0x00\n        /* \"#utility.yul\":10785:10803   */\n      keccak256\n        /* \"#utility.yul\":10777:10803   */\n      swap1\n      pop\n        /* \"#utility.yul\":10669:10810   */\n      swap2\n      swap1\n      pop\n      jump\t// out\n        /* \"#utility.yul\":10816:10909   */\n    tag_153:\n        /* \"#utility.yul\":10853:10859   */\n      0x00\n        /* \"#utility.yul\":10900:10902   */\n      0x20\n        /* \"#utility.yul\":10895:10897   */\n      0x1f\n        /* \"#utility.yul\":10888:10893   */\n      dup4\n        /* \"#utility.yul\":10884:10898   */\n      add\n        /* \"#utility.yul\":10880:10903   */\n      div\n        /* \"#utility.yul\":10870:10903   */\n      swap1\n      pop\n        /* \"#utility.yul\":10816:10909   */\n      swap2\n      swap1\n      pop\n      jump\t// out\n        /* \"#utility.yul\":10915:11022   */\n    tag_154:\n        /* \"#utility.yul\":10959:10967   */\n      0x00\n        /* \"#utility.yul\":11009:11014   */\n      dup3\n        /* \"#utility.yul\":11003:11007   */\n      dup3\n        /* \"#utility.yul\":10999:11015   */\n      shl\n        /* \"#utility.yul\":10978:11015   */\n      swap1\n      pop\n        /* \"#utility.yul\":10915:11022   */\n      swap3\n      swap2\n      pop\n      pop\n      jump\t// out\n        /* \"#utility.yul\":11028:11421   */\n    tag_155:\n        /* \"#utility.yul\":11097:11103   */\n      0x00\n        /* \"#utility.yul\":11147:11148   */\n      0x08\n        /* \"#utility.yul\":11135:11145   */\n      dup4\n        /* \"#utility.yul\":11131:11149   */\n      mul\n        /* \"#utility.yul\":11170:11267   */\n      tag_273\n        /* \"#utility.yul\":11200:11266   */\n      0xffffffffffffffffffffffffffffffffffffffffffffffffffffffffffffffff\n        /* \"#utility.yul\":11189:11198   */\n      dup3\n        /* \"#utility.yul\":11170:11267   */\n      tag_154\n      jump\t// in\n    tag_273:\n        /* \"#utility.yul\":11288:11327   */\n      tag_274\n        /* \"#utility.yul\":11318:11326   */\n      dup7\n        /* \"#utility.yul\":11307:11316   */\n      dup4\n        /* \"#utility.yul\":11288:11327   */\n      tag_154\n      jump\t// in\n    tag_274:\n        /* \"#utility.yul\":11276:11327   */\n      swap6\n      pop\n        /* \"#utility.yul\":11360:11364   */\n      dup1\n        /* \"#utility.yul\":11356:11365   */\n      not\n        /* \"#utility.yul\":11349:11354   */\n      dup5\n        /* \"#utility.yul\":11345:11366   */\n      and\n        /* \"#utility.yul\":11336:11366   */\n      swap4\n      pop\n        /* \"#utility.yul\":11409:11413   */\n      dup1\n        /* \"#utility.yul\":11399:11407   */\n      dup7\n        /* \"#utility.yul\":11395:11414   */\n      and\n        /* \"#utility.yul\":11388:11393   */\n      dup5\n        /* \"#utility.yul\":11385:11415   */\n      or\n        /* \"#utility.yul\":11375:11415   */\n      swap3\n      pop\n        /* \"#utility.yul\":11104:11421   */\n      pop\n      pop\n        /* \"#utility.yul\":11028:11421   */\n      swap4\n      swap3\n      pop\n      pop\n      pop\n      jump\t// out\n        /* \"#utility.yul\":11427:11487   */\n    tag_156:\n        /* \"#utility.yul\":11455:11458   */\n      0x00\n        /* \"#utility.yul\":11476:11481   */\n      dup2\n        /* \"#utility.yul\":11469:11481   */\n      swap1\n      pop\n        /* \"#utility.yul\":11427:11487   */\n      swap2\n      swap1\n      pop\n      jump\t// out\n        /* \"#utility.yul\":11493:11635   */\n    tag_157:\n        /* \"#utility.yul\":11543:11552   */\n      0x00\n        /* \"#utility.yul\":11576:11629   */\n      tag_277\n        /* \"#utility.yul\":11594:11628   */\n      tag_278\n        /* \"#utility.yul\":11603:11627   */\n      tag_279\n        /* \"#utility.yul\":11621:11626   */\n      dup5\n        /* \"#utility.yul\":11603:11627   */\n      tag_146\n      jump\t// in\n    tag_279:\n        /* \"#utility.yul\":11594:11628   */\n      tag_156\n      jump\t// in\n    tag_278:\n        /* \"#utility.yul\":11576:11629   */\n      tag_146\n      jump\t// in\n    tag_277:\n        /* \"#utility.yul\":11563:11629   */\n      swap1\n      pop\n        /* \"#utility.yul\":11493:11635   */\n      swap2\n      swap1\n      pop\n      jump\t// out\n        /* \"#utility.yul\":11641:11716   */\n    tag_158:\n        /* \"#utility.yul\":11684:11687   */\n      0x00\n        /* \"#utility.yul\":11705:11710   */\n      dup2\n        /* \"#utility.yul\":11698:11710   */\n      swap1\n      pop\n        /* \"#utility.yul\":11641:11716   */\n      swap2\n      swap1\n      pop\n      jump\t// out\n        /* \"#utility.yul\":11722:11991   */\n    tag_159:\n        /* \"#utility.yul\":11832:11871   */\n      tag_282\n        /* \"#utility.yul\":11863:11870   */\n      dup4\n        /* \"#utility.yul\":11832:11871   */\n      tag_157\n      jump\t// in\n    tag_282:\n        /* \"#utility.yul\":11893:11984   */\n      tag_283\n        /* \"#utility.yul\":11942:11983   */\n      tag_284\n        /* \"#utility.yul\":11966:11982   */\n      dup3\n        /* \"#utility.yul\":11942:11983   */\n      tag_158\n      jump\t// in\n    tag_284:\n        /* \"#utility.yul\":11934:11940   */\n      dup5\n        /* \"#utility.yul\":11927:11931   */\n      dup5\n        /* \"#utility.yul\":11921:11932   */\n      sload\n        /* \"#utility.yul\":11893:11984   */\n      tag_155\n      jump\t// in\n    tag_283:\n        /* \"#utility.yul\":11887:11891   */\n      dup3\n        /* \"#utility.yul\":11880:11985   */\n      sstore\n        /* \"#utility.yul\":11798:11991   */\n      pop\n        /* \"#utility.yul\":11722:11991   */\n      pop\n      pop\n      pop\n      jump\t// out\n        /* \"#utility.yul\":11997:12070   */\n    tag_160:\n        /* \"#utility.yul\":12042:12045   */\n      0x00\n        /* \"#utility.yul\":11997:12070   */\n      swap1\n      jump\t// out\n        /* \"#utility.yul\":12076:12265   */\n    tag_161:\n        /* \"#utility.yul\":12153:12185   */\n      tag_287\n      tag_160\n      jump\t// in\n    tag_287:\n        /* \"#utility.yul\":12194:12259   */\n      tag_288\n        /* \"#utility.yul\":12252:12258   */\n      dup2\n        /* \"#utility.yul\":12244:12250   */\n      dup5\n        /* \"#utility.yul\":12238:12242   */\n      dup5\n        /* \"#utility.yul\":12194:12259   */\n      tag_159\n      jump\t// in\n    tag_288:\n        /* \"#utility.yul\":12129:12265   */\n      pop\n        /* \"#utility.yul\":12076:12265   */\n      pop\n      pop\n      jump\t// out\n        /* \"#utility.yul\":12271:12457   */\n    tag_162:\n        /* \"#utility.yul\":12331:12451   */\n    tag_290:\n        /* \"#utility.yul\":12348:12351   */\n      dup2\n        /* \"#utility.yul\":12341:12346   */\n      dup2\n        /* \"#utility.yul\":12338:12352   */\n      lt\n        /* \"#utility.yul\":12331:12451   */\n      iszero\n      tag_292\n      jumpi\n        /* \"#utility.yul\":12402:12441   */\n      tag_293\n        /* \"#utility.yul\":12439:12440   */\n      0x00\n        /* \"#utility.yul\":12432:12437   */\n      dup3\n        /* \"#utility.yul\":12402:12441   */\n      tag_161\n      jump\t// in\n    tag_293:\n        /* \"#utility.yul\":12375:12376   */\n      0x01\n        /* \"#utility.yul\":12368:12373   */\n      dup2\n        /* \"#utility.yul\":12364:12377   */\n      add\n        /* \"#utility.yul\":12355:12377   */\n      swap1\n      pop\n        /* \"#utility.yul\":12331:12451   */\n      jump(tag_290)\n    tag_292:\n        /* \"#utility.yul\":12271:12457   */\n      pop\n      pop\n      jump\t// out\n        /* \"#utility.yul\":12463:13006   */\n    tag_163:\n        /* \"#utility.yul\":12564:12566   */\n      0x1f\n        /* \"#utility.yul\":12559:12562   */\n      dup3\n        /* \"#utility.yul\":12556:12567   */\n      gt\n        /* \"#utility.yul\":12553:12999   */\n      iszero\n      tag_295\n      jumpi\n        /* \"#utility.yul\":12598:12636   */\n      tag_296\n        /* \"#utility.yul\":12630:12635   */\n      dup2\n        /* \"#utility.yul\":12598:12636   */\n      tag_152\n      jump\t// in\n    tag_296:\n        /* \"#utility.yul\":12682:12711   */\n      tag_297\n        /* \"#utility.yul\":12700:12710   */\n      dup5\n        /* \"#utility.yul\":12682:12711   */\n      tag_153\n      jump\t// in\n    tag_297:\n        /* \"#utility.yul\":12672:12680   */\n      dup2\n        /* \"#utility.yul\":12668:12712   */\n      add\n        /* \"#utility.yul\":12865:12867   */\n      0x20\n        /* \"#utility.yul\":12853:12863   */\n      dup6\n        /* \"#utility.yul\":12850:12868   */\n      lt\n        /* \"#utility.yul\":12847:12896   */\n      iszero\n      tag_298\n      jumpi\n        /* \"#utility.yul\":12886:12894   */\n      dup2\n        /* \"#utility.yul\":12871:12894   */\n      swap1\n      pop\n        /* \"#utility.yul\":12847:12896   */\n    tag_298:\n        /* \"#utility.yul\":12909:12989   */\n      tag_299\n        /* \"#utility.yul\":12965:12987   */\n      tag_300\n        /* \"#utility.yul\":12983:12986   */\n      dup6\n        /* \"#utility.yul\":12965:12987   */\n      tag_153\n      jump\t// in\n    tag_300:\n        /* \"#utility.yul\":12955:12963   */\n      dup4\n        /* \"#utility.yul\":12951:12988   */\n      add\n        /* \"#utility.yul\":12938:12949   */\n      dup3\n        /* \"#utility.yul\":12909:12989   */\n      tag_162\n      jump\t// in\n    tag_299:\n        /* \"#utility.yul\":12568:12999   */\n      pop\n      pop\n        /* \"#utility.yul\":12553:12999   */\n    tag_295:\n        /* \"#utility.yul\":12463:13006   */\n      pop\n      pop\n      pop\n      jump\t// out\n        /* \"#utility.yul\":13012:13129   */\n    tag_164:\n        /* \"#utility.yul\":13066:13074   */\n      0x00\n        /* \"#utility.yul\":13116:13121   */\n      dup3\n        /* \"#utility.yul\":13110:13114   */\n      dup3\n        /* \"#utility.yul\":13106:13122   */\n      shr\n        /* \"#utility.yul\":13085:13122   */\n      swap1\n      pop\n        /* \"#utility.yul\":13012:13129   */\n      swap3\n      swap2\n      pop\n      pop\n      jump\t// out\n        /* \"#utility.yul\":13135:13304   */\n    tag_165:\n        /* \"#utility.yul\":13179:13185   */\n      0x00\n        /* \"#utility.yul\":13212:13263   */\n      tag_303\n        /* \"#utility.yul\":13260:13261   */\n      0x00\n        /* \"#utility.yul\":13256:13262   */\n      not\n        /* \"#utility.yul\":13248:13253   */\n      dup5\n        /* \"#utility.yul\":13245:13246   */\n      0x08\n        /* \"#utility.yul\":13241:13254   */\n      mul\n        /* \"#utility.yul\":13212:13263   */\n      tag_164\n      jump\t// in\n    tag_303:\n        /* \"#utility.yul\":13208:13264   */\n      not\n        /* \"#utility.yul\":13293:13297   */\n      dup1\n        /* \"#utility.yul\":13287:13291   */\n      dup4\n        /* \"#utility.yul\":13283:13298   */\n      and\n        /* \"#utility.yul\":13273:13298   */\n      swap2\n      pop\n        /* \"#utility.yul\":13186:13304   */\n      pop\n        /* \"#utility.yul\":13135:13304   */\n      swap3\n      swap2\n      pop\n      pop\n      jump\t// out\n        /* \"#utility.yul\":13309:13604   */\n    tag_166:\n        /* \"#utility.yul\":13385:13389   */\n      0x00\n        /* \"#utility.yul\":13531:13560   */\n      tag_305\n        /* \"#utility.yul\":13556:13559   */\n      dup4\n        /* \"#utility.yul\":13550:13554   */\n      dup4\n        /* \"#utility.yul\":13531:13560   */\n      tag_165\n      jump\t// in\n    tag_305:\n        /* \"#utility.yul\":13523:13560   */\n      swap2\n      pop\n        /* \"#utility.yul\":13593:13596   */\n      dup3\n        /* \"#utility.yul\":13590:13591   */\n      0x02\n        /* \"#utility.yul\":13586:13597   */\n      mul\n        /* \"#utility.yul\":13580:13584   */\n      dup3\n        /* \"#utility.yul\":13577:13598   */\n      or\n        /* \"#utility.yul\":13569:13598   */\n      swap1\n      pop\n        /* \"#utility.yul\":13309:13604   */\n      swap3\n      swap2\n      pop\n      pop\n      jump\t// out\n        /* \"#utility.yul\":13609:15004   */\n    tag_49:\n        /* \"#utility.yul\":13726:13763   */\n      tag_307\n        /* \"#utility.yul\":13759:13762   */\n      dup3\n        /* \"#utility.yul\":13726:13763   */\n      tag_138\n      jump\t// in\n    tag_307:\n        /* \"#utility.yul\":13828:13846   */\n      0xffffffffffffffff\n        /* \"#utility.yul\":13820:13826   */\n      dup2\n        /* \"#utility.yul\":13817:13847   */\n      gt\n        /* \"#utility.yul\":13814:13870   */\n      iszero\n      tag_308\n      jumpi\n        /* \"#utility.yul\":13850:13868   */\n      tag_309\n      tag_127\n      jump\t// in\n    tag_309:\n        /* \"#utility.yul\":13814:13870   */\n    tag_308:\n        /* \"#utility.yul\":13894:13932   */\n      tag_310\n        /* \"#utility.yul\":13926:13930   */\n      dup3\n        /* \"#utility.yul\":13920:13931   */\n      sload\n        /* \"#utility.yul\":13894:13932   */\n      tag_101\n      jump\t// in\n    tag_310:\n        /* \"#utility.yul\":13979:14046   */\n      tag_311\n        /* \"#utility.yul\":14039:14045   */\n      dup3\n        /* \"#utility.yul\":14031:14037   */\n      dup3\n        /* \"#utility.yul\":14025:14029   */\n      dup6\n        /* \"#utility.yul\":13979:14046   */\n      tag_163\n      jump\t// in\n    tag_311:\n        /* \"#utility.yul\":14073:14074   */\n      0x00\n        /* \"#utility.yul\":14097:14101   */\n      0x20\n        /* \"#utility.yul\":14084:14101   */\n      swap1\n      pop\n        /* \"#utility.yul\":14129:14131   */\n      0x1f\n        /* \"#utility.yul\":14121:14127   */\n      dup4\n        /* \"#utility.yul\":14118:14132   */\n      gt\n        /* \"#utility.yul\":14146:14147   */\n      0x01\n        /* \"#utility.yul\":14141:14759   */\n      dup2\n      eq\n      tag_313\n      jumpi\n        /* \"#utility.yul\":14803:14804   */\n      0x00\n        /* \"#utility.yul\":14820:14826   */\n      dup5\n        /* \"#utility.yul\":14817:14894   */\n      iszero\n      tag_314\n      jumpi\n        /* \"#utility.yul\":14869:14878   */\n      dup3\n        /* \"#utility.yul\":14864:14867   */\n      dup8\n        /* \"#utility.yul\":14860:14879   */\n      add\n        /* \"#utility.yul\":14854:14880   */\n      mload\n        /* \"#utility.yul\":14845:14880   */\n      swap1\n      pop\n        /* \"#utility.yul\":14817:14894   */\n    tag_314:\n        /* \"#utility.yul\":14920:14987   */\n      tag_315\n        /* \"#utility.yul\":14980:14986   */\n      dup6\n        /* \"#utility.yul\":14973:14978   */\n      dup3\n        /* \"#utility.yul\":14920:14987   */\n      tag_166\n      jump\t// in\n    tag_315:\n        /* \"#utility.yul\":14914:14918   */\n      dup7\n        /* \"#utility.yul\":14907:14988   */\n      sstore\n        /* \"#utility.yul\":14776:14998   */\n      pop\n        /* \"#utility.yul\":14111:14998   */\n      jump(tag_312)\n        /* \"#utility.yul\":14141:14759   */\n    tag_313:\n        /* \"#utility.yul\":14193:14197   */\n      0x1f\n        /* \"#utility.yul\":14189:14198   */\n      not\n        /* \"#utility.yul\":14181:14187   */\n      dup5\n        /* \"#utility.yul\":14177:14199   */\n      and\n        /* \"#utility.yul\":14227:14264   */\n      tag_316\n        /* \"#utility.yul\":14259:14263   */\n      dup7\n        /* \"#utility.yul\":14227:14264   */\n      tag_152\n      jump\t// in\n    tag_316:\n        /* \"#utility.yul\":14286:14287   */\n      0x00\n        /* \"#utility.yul\":14300:14508   */\n    tag_317:\n        /* \"#utility.yul\":14314:14321   */\n      dup3\n        /* \"#utility.yul\":14311:14312   */\n      dup2\n        /* \"#utility.yul\":14308:14322   */\n      lt\n        /* \"#utility.yul\":14300:14508   */\n      iszero\n      tag_319\n      jumpi\n        /* \"#utility.yul\":14393:14402   */\n      dup5\n        /* \"#utility.yul\":14388:14391   */\n      dup10\n        /* \"#utility.yul\":14384:14403   */\n      add\n        /* \"#utility.yul\":14378:14404   */\n      mload\n        /* \"#utility.yul\":14370:14376   */\n      dup3\n        /* \"#utility.yul\":14363:14405   */\n      sstore\n        /* \"#utility.yul\":14444:14445   */\n      0x01\n        /* \"#utility.yul\":14436:14442   */\n      dup3\n        /* \"#utility.yul\":14432:14446   */\n      add\n        /* \"#utility.yul\":14422:14446   */\n      swap2\n      pop\n        /* \"#utility.yul\":14491:14493   */\n      0x20\n        /* \"#utility.yul\":14480:14489   */\n      dup6\n        /* \"#utility.yul\":14476:14494   */\n      add\n        /* \"#utility.yul\":14463:14494   */\n      swap5\n      pop\n        /* \"#utility.yul\":14337:14341   */\n      0x20\n        /* \"#utility.yul\":14334:14335   */\n      dup2\n        /* \"#utility.yul\":14330:14342   */\n      add\n        /* \"#utility.yul\":14325:14342   */\n      swap1\n      pop\n        /* \"#utility.yul\":14300:14508   */\n      jump(tag_317)\n    tag_319:\n        /* \"#utility.yul\":14536:14542   */\n      dup7\n        /* \"#utility.yul\":14527:14534   */\n      dup4\n        /* \"#utility.yul\":14524:14543   */\n      lt\n        /* \"#utility.yul\":14521:14700   */\n      iszero\n      tag_320\n      jumpi\n        /* \"#utility.yul\":14594:14603   */\n      dup5\n        /* \"#utility.yul\":14589:14592   */\n      dup10\n        /* \"#utility.yul\":14585:14604   */\n      add\n        /* \"#utility.yul\":14579:14605   */\n      mload\n        /* \"#utility.yul\":14637:14685   */\n      tag_321\n        /* \"#utility.yul\":14679:14683   */\n      0x1f\n        /* \"#utility.yul\":14671:14677   */\n      dup10\n        /* \"#utility.yul\":14667:14684   */\n      and\n        /* \"#utility.yul\":14656:14665   */\n      dup3\n        /* \"#utility.yul\":14637:14685   */\n      tag_165\n      jump\t// in\n    tag_321:\n        /* \"#utility.yul\":14629:14635   */\n      dup4\n        /* \"#utility.yul\":14622:14686   */\n      sstore\n        /* \"#utility.yul\":14544:14700   */\n      pop\n        /* \"#utility.yul\":14521:14700   */\n    tag_320:\n        /* \"#utility.yul\":14746:14747   */\n      0x01\n        /* \"#utility.yul\":14742:14743   */\n      0x02\n        /* \"#utility.yul\":14734:14740   */\n      dup9\n        /* \"#utility.yul\":14730:14744   */\n      mul\n        /* \"#utility.yul\":14726:14748   */\n      add\n        /* \"#utility.yul\":14720:14724   */\n      dup9\n        /* \"#utility.yul\":14713:14749   */\n      sstore\n        /* \"#utility.yul\":14148:14759   */\n      pop\n      pop\n      pop\n        /* \"#utility.yul\":14111:14998   */\n    tag_312:\n      pop\n        /* \"#utility.yul\":13701:15004   */\n      pop\n      pop\n      pop\n        /* \"#utility.yul\":13609:15004   */\n      pop\n      pop\n      jump\t// out\n        /* \"#utility.yul\":15010:15234   */\n    tag_167:\n        /* \"#utility.yul\":15150:15184   */\n      0x496e73756666696369656e742062616c616e636520696e2074686520636f6e74\n        /* \"#utility.yul\":15146:15147   */\n      0x00\n        /* \"#utility.yul\":15138:15144   */\n      dup3\n        /* \"#utility.yul\":15134:15148   */\n      add\n        /* \"#utility.yul\":15127:15185   */\n      mstore\n        /* \"#utility.yul\":15219:15226   */\n      0x726163742e000000000000000000000000000000000000000000000000000000\n        /* \"#utility.yul\":15214:15216   */\n      0x20\n        /* \"#utility.yul\":15206:15212   */\n      dup3\n        /* \"#utility.yul\":15202:15217   */\n      add\n        /* \"#utility.yul\":15195:15227   */\n      mstore\n        /* \"#utility.yul\":15010:15234   */\n      pop\n      jump\t// out\n        /* \"#utility.yul\":15240:15606   */\n    tag_168:\n        /* \"#utility.yul\":15382:15385   */\n      0x00\n        /* \"#utility.yul\":15403:15470   */\n      tag_324\n        /* \"#utility.yul\":15467:15469   */\n      0x25\n        /* \"#utility.yul\":15462:15465   */\n      dup4\n        /* \"#utility.yul\":15403:15470   */\n      tag_148\n      jump\t// in\n    tag_324:\n        /* \"#utility.yul\":15396:15470   */\n      swap2\n      pop\n        /* \"#utility.yul\":15479:15572   */\n      tag_325\n        /* \"#utility.yul\":15568:15571   */\n      dup3\n        /* \"#utility.yul\":15479:15572   */\n      tag_167\n      jump\t// in\n    tag_325:\n        /* \"#utility.yul\":15597:15599   */\n      0x40\n        /* \"#utility.yul\":15592:15595   */\n      dup3\n        /* \"#utility.yul\":15588:15600   */\n      add\n        /* \"#utility.yul\":15581:15600   */\n      swap1\n      pop\n        /* \"#utility.yul\":15240:15606   */\n      swap2\n      swap1\n      pop\n      jump\t// out\n        /* \"#utility.yul\":15612:16031   */\n    tag_53:\n        /* \"#utility.yul\":15778:15782   */\n      0x00\n        /* \"#utility.yul\":15816:15818   */\n      0x20\n        /* \"#utility.yul\":15805:15814   */\n      dup3\n        /* \"#utility.yul\":15801:15819   */\n      add\n        /* \"#utility.yul\":15793:15819   */\n      swap1\n      pop\n        /* \"#utility.yul\":15865:15874   */\n      dup2\n        /* \"#utility.yul\":15859:15863   */\n      dup2\n        /* \"#utility.yul\":15855:15875   */\n      sub\n        /* \"#utility.yul\":15851:15852   */\n      0x00\n        /* \"#utility.yul\":15840:15849   */\n      dup4\n        /* \"#utility.yul\":15836:15853   */\n      add\n        /* \"#utility.yul\":15829:15876   */\n      mstore\n        /* \"#utility.yul\":15893:16024   */\n      tag_327\n        /* \"#utility.yul\":16019:16023   */\n      dup2\n        /* \"#utility.yul\":15893:16024   */\n      tag_168\n      jump\t// in\n    tag_327:\n        /* \"#utility.yul\":15885:16024   */\n      swap1\n      pop\n        /* \"#utility.yul\":15612:16031   */\n      swap2\n      swap1\n      pop\n      jump\t// out\n        /* \"#utility.yul\":16037:16217   */\n    tag_169:\n        /* \"#utility.yul\":16085:16162   */\n      0x4e487b7100000000000000000000000000000000000000000000000000000000\n        /* \"#utility.yul\":16082:16083   */\n      0x00\n        /* \"#utility.yul\":16075:16163   */\n      mstore\n        /* \"#utility.yul\":16182:16186   */\n      0x12\n        /* \"#utility.yul\":16179:16180   */\n      0x04\n        /* \"#utility.yul\":16172:16187   */\n      mstore\n        /* \"#utility.yul\":16206:16210   */\n      0x24\n        /* \"#utility.yul\":16203:16204   */\n      0x00\n        /* \"#utility.yul\":16196:16211   */\n      revert\n        /* \"#utility.yul\":16223:16403   */\n    tag_170:\n        /* \"#utility.yul\":16271:16348   */\n      0x4e487b7100000000000000000000000000000000000000000000000000000000\n        /* \"#utility.yul\":16268:16269   */\n      0x00\n        /* \"#utility.yul\":16261:16349   */\n      mstore\n        /* \"#utility.yul\":16368:16372   */\n      0x11\n        /* \"#utility.yul\":16365:16366   */\n      0x04\n        /* \"#utility.yul\":16358:16373   */\n      mstore\n        /* \"#utility.yul\":16392:16396   */\n      0x24\n        /* \"#utility.yul\":16389:16390   */\n      0x00\n        /* \"#utility.yul\":16382:16397   */\n      revert\n        /* \"#utility.yul\":16409:16594   */\n    tag_56:\n        /* \"#utility.yul\":16449:16450   */\n      0x00\n        /* \"#utility.yul\":16466:16486   */\n      tag_331\n        /* \"#utility.yul\":16484:16485   */\n      dup3\n        /* \"#utility.yul\":16466:16486   */\n      tag_146\n      jump\t// in\n    tag_331:\n        /* \"#utility.yul\":16461:16486   */\n      swap2\n      pop\n        /* \"#utility.yul\":16500:16520   */\n      tag_332\n        /* \"#utility.yul\":16518:16519   */\n      dup4\n        /* \"#utility.yul\":16500:16520   */\n      tag_146\n      jump\t// in\n    tag_332:\n        /* \"#utility.yul\":16495:16520   */\n      swap3\n      pop\n        /* \"#utility.yul\":16539:16540   */\n      dup3\n        /* \"#utility.yul\":16529:16564   */\n      tag_333\n      jumpi\n        /* \"#utility.yul\":16544:16562   */\n      tag_334\n      tag_169\n      jump\t// in\n    tag_334:\n        /* \"#utility.yul\":16529:16564   */\n    tag_333:\n        /* \"#utility.yul\":16586:16587   */\n      dup3\n        /* \"#utility.yul\":16583:16584   */\n      dup3\n        /* \"#utility.yul\":16579:16588   */\n      div\n        /* \"#utility.yul\":16574:16588   */\n      swap1\n      pop\n        /* \"#utility.yul\":16409:16594   */\n      swap3\n      swap2\n      pop\n      pop\n      jump\t// out\n        /* \"#utility.yul\":16600:16794   */\n    tag_78:\n        /* \"#utility.yul\":16640:16644   */\n      0x00\n        /* \"#utility.yul\":16660:16680   */\n      tag_336\n        /* \"#utility.yul\":16678:16679   */\n      dup3\n        /* \"#utility.yul\":16660:16680   */\n      tag_146\n      jump\t// in\n    tag_336:\n        /* \"#utility.yul\":16655:16680   */\n      swap2\n      pop\n        /* \"#utility.yul\":16694:16714   */\n      tag_337\n        /* \"#utility.yul\":16712:16713   */\n      dup4\n        /* \"#utility.yul\":16694:16714   */\n      tag_146\n      jump\t// in\n    tag_337:\n        /* \"#utility.yul\":16689:16714   */\n      swap3\n      pop\n        /* \"#utility.yul\":16738:16739   */\n      dup3\n        /* \"#utility.yul\":16735:16736   */\n      dup3\n        /* \"#utility.yul\":16731:16740   */\n      sub\n        /* \"#utility.yul\":16723:16740   */\n      swap1\n      pop\n        /* \"#utility.yul\":16762:16763   */\n      dup2\n        /* \"#utility.yul\":16756:16760   */\n      dup2\n        /* \"#utility.yul\":16753:16764   */\n      gt\n        /* \"#utility.yul\":16750:16787   */\n      iszero\n      tag_338\n      jumpi\n        /* \"#utility.yul\":16767:16785   */\n      tag_339\n      tag_170\n      jump\t// in\n    tag_339:\n        /* \"#utility.yul\":16750:16787   */\n    tag_338:\n        /* \"#utility.yul\":16600:16794   */\n      swap3\n      swap2\n      pop\n      pop\n      jump\t// out\n        /* \"#utility.yul\":16800:16991   */\n    tag_80:\n        /* \"#utility.yul\":16840:16843   */\n      0x00\n        /* \"#utility.yul\":16859:16879   */\n      tag_341\n        /* \"#utility.yul\":16877:16878   */\n      dup3\n        /* \"#utility.yul\":16859:16879   */\n      tag_146\n      jump\t// in\n    tag_341:\n        /* \"#utility.yul\":16854:16879   */\n      swap2\n      pop\n        /* \"#utility.yul\":16893:16913   */\n      tag_342\n        /* \"#utility.yul\":16911:16912   */\n      dup4\n        /* \"#utility.yul\":16893:16913   */\n      tag_146\n      jump\t// in\n    tag_342:\n        /* \"#utility.yul\":16888:16913   */\n      swap3\n      pop\n        /* \"#utility.yul\":16936:16937   */\n      dup3\n        /* \"#utility.yul\":16933:16934   */\n      dup3\n        /* \"#utility.yul\":16929:16938   */\n      add\n        /* \"#utility.yul\":16922:16938   */\n      swap1\n      pop\n        /* \"#utility.yul\":16957:16960   */\n      dup1\n        /* \"#utility.yul\":16954:16955   */\n      dup3\n        /* \"#utility.yul\":16951:16961   */\n      gt\n        /* \"#utility.yul\":16948:16984   */\n      iszero\n      tag_343\n      jumpi\n        /* \"#utility.yul\":16964:16982   */\n      tag_344\n      tag_170\n      jump\t// in\n    tag_344:\n        /* \"#utility.yul\":16948:16984   */\n    tag_343:\n        /* \"#utility.yul\":16800:16991   */\n      swap3\n      swap2\n      pop\n      pop\n      jump\t// out\n        /* \"#utility.yul\":16997:17146   */\n    tag_171:\n        /* \"#utility.yul\":17046:17052   */\n      0x00\n        /* \"#utility.yul\":17080:17085   */\n      dup2\n        /* \"#utility.yul\":17074:17086   */\n      sload\n        /* \"#utility.yul\":17064:17086   */\n      swap1\n      pop\n        /* \"#utility.yul\":17106:17139   */\n      tag_346\n        /* \"#utility.yul\":17132:17138   */\n      dup2\n        /* \"#utility.yul\":17106:17139   */\n      tag_101\n      jump\t// in\n    tag_346:\n        /* \"#utility.yul\":17096:17139   */\n      swap1\n      pop\n        /* \"#utility.yul\":16997:17146   */\n      swap2\n      swap1\n      pop\n      jump\t// out\n        /* \"#utility.yul\":17152:18603   */\n    tag_88:\n        /* \"#utility.yul\":17263:17266   */\n      dup2\n        /* \"#utility.yul\":17257:17261   */\n      dup2\n        /* \"#utility.yul\":17254:17267   */\n      sub\n        /* \"#utility.yul\":17251:17277   */\n      tag_348\n      jumpi\n        /* \"#utility.yul\":17270:17275   */\n      pop\n      pop\n      jump(tag_347)\n        /* \"#utility.yul\":17251:17277   */\n    tag_348:\n        /* \"#utility.yul\":17301:17335   */\n      tag_349\n        /* \"#utility.yul\":17331:17334   */\n      dup3\n        /* \"#utility.yul\":17301:17335   */\n      tag_171\n      jump\t// in\n    tag_349:\n        /* \"#utility.yul\":17400:17418   */\n      0xffffffffffffffff\n        /* \"#utility.yul\":17392:17398   */\n      dup2\n        /* \"#utility.yul\":17389:17419   */\n      gt\n        /* \"#utility.yul\":17386:17442   */\n      iszero\n      tag_350\n      jumpi\n        /* \"#utility.yul\":17422:17440   */\n      tag_351\n      tag_127\n      jump\t// in\n    tag_351:\n        /* \"#utility.yul\":17386:17442   */\n    tag_350:\n        /* \"#utility.yul\":17466:17504   */\n      tag_352\n        /* \"#utility.yul\":17498:17502   */\n      dup3\n        /* \"#utility.yul\":17492:17503   */\n      sload\n        /* \"#utility.yul\":17466:17504   */\n      tag_101\n      jump\t// in\n    tag_352:\n        /* \"#utility.yul\":17551:17618   */\n      tag_353\n        /* \"#utility.yul\":17611:17617   */\n      dup3\n        /* \"#utility.yul\":17603:17609   */\n      dup3\n        /* \"#utility.yul\":17597:17601   */\n      dup6\n        /* \"#utility.yul\":17551:17618   */\n      tag_163\n      jump\t// in\n    tag_353:\n        /* \"#utility.yul\":17645:17646   */\n      0x00\n        /* \"#utility.yul\":17674:17676   */\n      0x1f\n        /* \"#utility.yul\":17666:17672   */\n      dup4\n        /* \"#utility.yul\":17663:17677   */\n      gt\n        /* \"#utility.yul\":17691:17692   */\n      0x01\n        /* \"#utility.yul\":17686:18358   */\n      dup2\n      eq\n      tag_355\n      jumpi\n        /* \"#utility.yul\":18402:18403   */\n      0x00\n        /* \"#utility.yul\":18419:18425   */\n      dup5\n        /* \"#utility.yul\":18416:18493   */\n      iszero\n      tag_356\n      jumpi\n        /* \"#utility.yul\":18468:18477   */\n      dup3\n        /* \"#utility.yul\":18463:18466   */\n      dup8\n        /* \"#utility.yul\":18459:18478   */\n      add\n        /* \"#utility.yul\":18453:18479   */\n      sload\n        /* \"#utility.yul\":18444:18479   */\n      swap1\n      pop\n        /* \"#utility.yul\":18416:18493   */\n    tag_356:\n        /* \"#utility.yul\":18519:18586   */\n      tag_357\n        /* \"#utility.yul\":18579:18585   */\n      dup6\n        /* \"#utility.yul\":18572:18577   */\n      dup3\n        /* \"#utility.yul\":18519:18586   */\n      tag_166\n      jump\t// in\n    tag_357:\n        /* \"#utility.yul\":18513:18517   */\n      dup7\n        /* \"#utility.yul\":18506:18587   */\n      sstore\n        /* \"#utility.yul\":18375:18597   */\n      pop\n        /* \"#utility.yul\":17656:18597   */\n      jump(tag_354)\n        /* \"#utility.yul\":17686:18358   */\n    tag_355:\n        /* \"#utility.yul\":17738:17742   */\n      0x1f\n        /* \"#utility.yul\":17734:17743   */\n      not\n        /* \"#utility.yul\":17726:17732   */\n      dup5\n        /* \"#utility.yul\":17722:17744   */\n      and\n        /* \"#utility.yul\":17764:17800   */\n      tag_358\n        /* \"#utility.yul\":17796:17799   */\n      dup8\n        /* \"#utility.yul\":17764:17800   */\n      tag_152\n      jump\t// in\n    tag_358:\n        /* \"#utility.yul\":17757:17800   */\n      swap7\n      pop\n        /* \"#utility.yul\":17827:17864   */\n      tag_359\n        /* \"#utility.yul\":17859:17863   */\n      dup7\n        /* \"#utility.yul\":17827:17864   */\n      tag_152\n      jump\t// in\n    tag_359:\n        /* \"#utility.yul\":17886:17887   */\n      0x00\n        /* \"#utility.yul\":17900:18107   */\n    tag_360:\n        /* \"#utility.yul\":17914:17921   */\n      dup3\n        /* \"#utility.yul\":17911:17912   */\n      dup2\n        /* \"#utility.yul\":17908:17922   */\n      lt\n        /* \"#utility.yul\":17900:18107   */\n      iszero\n      tag_362\n      jumpi\n        /* \"#utility.yul\":17993:18002   */\n      dup5\n        /* \"#utility.yul\":17988:17991   */\n      dup10\n        /* \"#utility.yul\":17984:18003   */\n      add\n        /* \"#utility.yul\":17978:18004   */\n      sload\n        /* \"#utility.yul\":17970:17976   */\n      dup3\n        /* \"#utility.yul\":17963:18005   */\n      sstore\n        /* \"#utility.yul\":18044:18045   */\n      0x01\n        /* \"#utility.yul\":18036:18042   */\n      dup3\n        /* \"#utility.yul\":18032:18046   */\n      add\n        /* \"#utility.yul\":18022:18046   */\n      swap2\n      pop\n        /* \"#utility.yul\":18091:18092   */\n      0x01\n        /* \"#utility.yul\":18080:18089   */\n      dup6\n        /* \"#utility.yul\":18076:18093   */\n      add\n        /* \"#utility.yul\":18063:18093   */\n      swap5\n      pop\n        /* \"#utility.yul\":17937:17941   */\n      0x20\n        /* \"#utility.yul\":17934:17935   */\n      dup2\n        /* \"#utility.yul\":17930:17942   */\n      add\n        /* \"#utility.yul\":17925:17942   */\n      swap1\n      pop\n        /* \"#utility.yul\":17900:18107   */\n      jump(tag_360)\n    tag_362:\n        /* \"#utility.yul\":18135:18141   */\n      dup7\n        /* \"#utility.yul\":18126:18133   */\n      dup4\n        /* \"#utility.yul\":18123:18142   */\n      lt\n        /* \"#utility.yul\":18120:18299   */\n      iszero\n      tag_363\n      jumpi\n        /* \"#utility.yul\":18193:18202   */\n      dup5\n        /* \"#utility.yul\":18188:18191   */\n      dup10\n        /* \"#utility.yul\":18184:18203   */\n      add\n        /* \"#utility.yul\":18178:18204   */\n      sload\n        /* \"#utility.yul\":18236:18284   */\n      tag_364\n        /* \"#utility.yul\":18278:18282   */\n      0x1f\n        /* \"#utility.yul\":18270:18276   */\n      dup10\n        /* \"#utility.yul\":18266:18283   */\n      and\n        /* \"#utility.yul\":18255:18264   */\n      dup3\n        /* \"#utility.yul\":18236:18284   */\n      tag_165\n      jump\t// in\n    tag_364:\n        /* \"#utility.yul\":18228:18234   */\n      dup4\n        /* \"#utility.yul\":18221:18285   */\n      sstore\n        /* \"#utility.yul\":18143:18299   */\n      pop\n        /* \"#utility.yul\":18120:18299   */\n    tag_363:\n        /* \"#utility.yul\":18345:18346   */\n      0x01\n        /* \"#utility.yul\":18341:18342   */\n      0x02\n        /* \"#utility.yul\":18333:18339   */\n      dup9\n        /* \"#utility.yul\":18329:18343   */\n      mul\n        /* \"#utility.yul\":18325:18347   */\n      add\n        /* \"#utility.yul\":18319:18323   */\n      dup9\n        /* \"#utility.yul\":18312:18348   */\n      sstore\n        /* \"#utility.yul\":17693:18358   */\n      pop\n      pop\n      pop\n        /* \"#utility.yul\":17656:18597   */\n    tag_354:\n      pop\n        /* \"#utility.yul\":17241:18603   */\n      pop\n      pop\n      pop\n        /* \"#utility.yul\":17152:18603   */\n      pop\n      pop\n    tag_347:\n      jump\t// out\n        /* \"#utility.yul\":18609:18789   */\n    tag_91:\n        /* \"#utility.yul\":18657:18734   */\n      0x4e487b7100000000000000000000000000000000000000000000000000000000\n        /* \"#utility.yul\":18654:18655   */\n      0x00\n        /* \"#utility.yul\":18647:18735   */\n      mstore\n        /* \"#utility.yul\":18754:18758   */\n      0x31\n        /* \"#utility.yul\":18751:18752   */\n      0x04\n        /* \"#utility.yul\":18744:18759   */\n      mstore\n        /* \"#utility.yul\":18778:18782   */\n      0x24\n        /* \"#utility.yul\":18775:18776   */\n      0x00\n        /* \"#utility.yul\":18768:18783   */\n      revert\n\n    auxdata: 0xa2646970667358221220b9605b18d4904e491508383a0ab61cbbc3fc11499320c0e62d454d9f4e3bcd0064736f6c634300081a0033\n}\n",
				"bytecode": {
					"linkReferences": {},
					"object": "6080604052348015600e575f80fd5b50335f806101000a81548173ffffffffffffffffffffffffffffffffffffffff021916908373ffffffffffffffffffffffffffffffffffffffff1602179055506112088061005b5f395ff3fe608060405260043610610054575f3560e01c806325415eaf1461005857806348bf296a146100805780636416845c14610096578063674526bc146100be578063736c9563146100c8578063af61ed3d146100f2575b5f80fd5b348015610063575f80fd5b5061007e6004803603810190610079919061095f565b61011c565b005b34801561008b575f80fd5b5061009461030d565b005b3480156100a1575f80fd5b506100bc60048036038101906100b791906109b9565b6103db565b005b6100c66105cf565b005b3480156100d3575f80fd5b506100dc6105d1565b6040516100e99190610b48565b60405180910390f35b3480156100fd575f80fd5b50610106610711565b6040516101139190610b80565b60405180910390f35b5f8054906101000a900473ffffffffffffffffffffffffffffffffffffffff1673ffffffffffffffffffffffffffffffffffffffff163373ffffffffffffffffffffffffffffffffffffffff16146101a9576040517f08c379a00000000000000000000000000000000000000000000000000000000081526004016101a090610c19565b60405180910390fd5b5f600180805490501061024d575f5b60018054905081101561024b578373ffffffffffffffffffffffffffffffffffffffff16600182815481106101f0576101ef610c37565b5b905f5260205f2090600202015f015f9054906101000a900473ffffffffffffffffffffffffffffffffffffffff1673ffffffffffffffffffffffffffffffffffffffff160361023e57600191505b80806001019150506101b8565b505b5f15158115150361030857600160405180604001604052808573ffffffffffffffffffffffffffffffffffffffff16815260200184815250908060018154018082558091505060019003905f5260205f2090600202015f909190919091505f820151815f015f6101000a81548173ffffffffffffffffffffffffffffffffffffffff021916908373ffffffffffffffffffffffffffffffffffffffff16021790555060208201518160010190816103049190610e5e565b5050505b505050565b5f471161034f576040517f08c379a000000000000000000000000000000000000000000000000000000000815260040161034690610f9d565b60405180910390fd5b60018080549050106103d9575f6001805490504761036d9190611015565b90505f5b6001805490508110156103d6576103c96001828154811061039557610394610c37565b5b905f5260205f2090600202015f015f9054906101000a900473ffffffffffffffffffffffffffffffffffffffff1683610718565b8080600101915050610371565b50505b565b60018080549050106105cc575f5b6001805490508110156105ca578173ffffffffffffffffffffffffffffffffffffffff166001828154811061042157610420610c37565b5b905f5260205f2090600202015f015f9054906101000a900473ffffffffffffffffffffffffffffffffffffffff1673ffffffffffffffffffffffffffffffffffffffff16036105bd575f8190505b600180805490506104809190611045565b81101561055a57600180826104959190611078565b815481106104a6576104a5610c37565b5b905f5260205f209060020201600182815481106104c6576104c5610c37565b5b905f5260205f2090600202015f82015f9054906101000a900473ffffffffffffffffffffffffffffffffffffffff16815f015f6101000a81548173ffffffffffffffffffffffffffffffffffffffff021916908373ffffffffffffffffffffffffffffffffffffffff1602179055506001820181600101908161054991906110c0565b50905050808060010191505061046f565b50600180548061056d5761056c6111a5565b5b600190038181905f5260205f2090600202015f8082015f6101000a81549073ffffffffffffffffffffffffffffffffffffffff0219169055600182015f6105b49190610760565b505090556105ca565b80806001019150506103e9565b505b50565b565b60606001805480602002602001604051908101604052809291908181526020015f905b82821015610708578382905f5260205f2090600202016040518060400160405290815f82015f9054906101000a900473ffffffffffffffffffffffffffffffffffffffff1673ffffffffffffffffffffffffffffffffffffffff1673ffffffffffffffffffffffffffffffffffffffff16815260200160018201805461067990610c91565b80601f01602080910402602001604051908101604052809291908181526020018280546106a590610c91565b80156106f05780601f106106c7576101008083540402835291602001916106f0565b820191905f5260205f20905b8154815290600101906020018083116106d357829003601f168201915b505050505081525050815260200190600101906105f4565b50505050905090565b5f47905090565b8173ffffffffffffffffffffffffffffffffffffffff166108fc8290811502906040515f60405180830381858888f1935050505015801561075b573d5f803e3d5ffd5b505050565b50805461076c90610c91565b5f825580601f1061077d575061079a565b601f0160209004905f5260205f2090810190610799919061079d565b5b50565b5b808211156107b4575f815f90555060010161079e565b5090565b5f604051905090565b5f80fd5b5f80fd5b5f73ffffffffffffffffffffffffffffffffffffffff82169050919050565b5f6107f2826107c9565b9050919050565b610802816107e8565b811461080c575f80fd5b50565b5f8135905061081d816107f9565b92915050565b5f80fd5b5f80fd5b5f601f19601f8301169050919050565b7f4e487b71000000000000000000000000000000000000000000000000000000005f52604160045260245ffd5b6108718261082b565b810181811067ffffffffffffffff821117156108905761088f61083b565b5b80604052505050565b5f6108a26107b8565b90506108ae8282610868565b919050565b5f67ffffffffffffffff8211156108cd576108cc61083b565b5b6108d68261082b565b9050602081019050919050565b828183375f83830152505050565b5f6109036108fe846108b3565b610899565b90508281526020810184848401111561091f5761091e610827565b5b61092a8482856108e3565b509392505050565b5f82601f83011261094657610945610823565b5b81356109568482602086016108f1565b91505092915050565b5f8060408385031215610975576109746107c1565b5b5f6109828582860161080f565b925050602083013567ffffffffffffffff8111156109a3576109a26107c5565b5b6109af85828601610932565b9150509250929050565b5f602082840312156109ce576109cd6107c1565b5b5f6109db8482850161080f565b91505092915050565b5f81519050919050565b5f82825260208201905092915050565b5f819050602082019050919050565b610a16816107e8565b82525050565b5f81519050919050565b5f82825260208201905092915050565b8281835e5f83830152505050565b5f610a4e82610a1c565b610a588185610a26565b9350610a68818560208601610a36565b610a718161082b565b840191505092915050565b5f604083015f830151610a915f860182610a0d565b5060208301518482036020860152610aa98282610a44565b9150508091505092915050565b5f610ac18383610a7c565b905092915050565b5f602082019050919050565b5f610adf826109e4565b610ae981856109ee565b935083602082028501610afb856109fe565b805f5b85811015610b365784840389528151610b178582610ab6565b9450610b2283610ac9565b925060208a01995050600181019050610afe565b50829750879550505050505092915050565b5f6020820190508181035f830152610b608184610ad5565b905092915050565b5f819050919050565b610b7a81610b68565b82525050565b5f602082019050610b935f830184610b71565b92915050565b5f82825260208201905092915050565b7f4f6e6c7920746865206f6e7765722063616e2063616c6c20746869732066756e5f8201527f6374696f6e2e0000000000000000000000000000000000000000000000000000602082015250565b5f610c03602683610b99565b9150610c0e82610ba9565b604082019050919050565b5f6020820190508181035f830152610c3081610bf7565b9050919050565b7f4e487b71000000000000000000000000000000000000000000000000000000005f52603260045260245ffd5b7f4e487b71000000000000000000000000000000000000000000000000000000005f52602260045260245ffd5b5f6002820490506001821680610ca857607f821691505b602082108103610cbb57610cba610c64565b5b50919050565b5f819050815f5260205f209050919050565b5f6020601f8301049050919050565b5f82821b905092915050565b5f60088302610d1d7fffffffffffffffffffffffffffffffffffffffffffffffffffffffffffffffff82610ce2565b610d278683610ce2565b95508019841693508086168417925050509392505050565b5f819050919050565b5f610d62610d5d610d5884610b68565b610d3f565b610b68565b9050919050565b5f819050919050565b610d7b83610d48565b610d8f610d8782610d69565b848454610cee565b825550505050565b5f90565b610da3610d97565b610dae818484610d72565b505050565b5b81811015610dd157610dc65f82610d9b565b600181019050610db4565b5050565b601f821115610e1657610de781610cc1565b610df084610cd3565b81016020851015610dff578190505b610e13610e0b85610cd3565b830182610db3565b50505b505050565b5f82821c905092915050565b5f610e365f1984600802610e1b565b1980831691505092915050565b5f610e4e8383610e27565b9150826002028217905092915050565b610e6782610a1c565b67ffffffffffffffff811115610e8057610e7f61083b565b5b610e8a8254610c91565b610e95828285610dd5565b5f60209050601f831160018114610ec6575f8415610eb4578287015190505b610ebe8582610e43565b865550610f25565b601f198416610ed486610cc1565b5f5b82811015610efb57848901518255600182019150602085019450602081019050610ed6565b86831015610f185784890151610f14601f891682610e27565b8355505b6001600288020188555050505b505050505050565b7f496e73756666696369656e742062616c616e636520696e2074686520636f6e745f8201527f726163742e000000000000000000000000000000000000000000000000000000602082015250565b5f610f87602583610b99565b9150610f9282610f2d565b604082019050919050565b5f6020820190508181035f830152610fb481610f7b565b9050919050565b7f4e487b71000000000000000000000000000000000000000000000000000000005f52601260045260245ffd5b7f4e487b71000000000000000000000000000000000000000000000000000000005f52601160045260245ffd5b5f61101f82610b68565b915061102a83610b68565b92508261103a57611039610fbb565b5b828204905092915050565b5f61104f82610b68565b915061105a83610b68565b925082820390508181111561107257611071610fe8565b5b92915050565b5f61108282610b68565b915061108d83610b68565b92508282019050808211156110a5576110a4610fe8565b5b92915050565b5f815490506110b981610c91565b9050919050565b8181036110ce5750506111a3565b6110d7826110ab565b67ffffffffffffffff8111156110f0576110ef61083b565b5b6110fa8254610c91565b611105828285610dd5565b5f601f831160018114611132575f8415611120578287015490505b61112a8582610e43565b86555061119c565b601f19841661114087610cc1565b965061114b86610cc1565b5f5b828110156111725784890154825560018201915060018501945060208101905061114d565b8683101561118f578489015461118b601f891682610e27565b8355505b6001600288020188555050505b5050505050505b565b7f4e487b71000000000000000000000000000000000000000000000000000000005f52603160045260245ffdfea2646970667358221220b9605b18d4904e491508383a0ab61cbbc3fc11499320c0e62d454d9f4e3bcd0064736f6c634300081a0033",
					"opcodes": "PUSH1 0x80 PUSH1 0x40 MSTORE CALLVALUE DUP1 ISZERO PUSH1 0xE JUMPI PUSH0 DUP1 REVERT JUMPDEST POP CALLER PUSH0 DUP1 PUSH2 0x100 EXP DUP2 SLOAD DUP2 PUSH20 0xFFFFFFFFFFFFFFFFFFFFFFFFFFFFFFFFFFFFFFFF MUL NOT AND SWAP1 DUP4 PUSH20 0xFFFFFFFFFFFFFFFFFFFFFFFFFFFFFFFFFFFFFFFF AND MUL OR SWAP1 SSTORE POP PUSH2 0x1208 DUP1 PUSH2 0x5B PUSH0 CODECOPY PUSH0 RETURN INVALID PUSH1 0x80 PUSH1 0x40 MSTORE PUSH1 0x4 CALLDATASIZE LT PUSH2 0x54 JUMPI PUSH0 CALLDATALOAD PUSH1 0xE0 SHR DUP1 PUSH4 0x25415EAF EQ PUSH2 0x58 JUMPI DUP1 PUSH4 0x48BF296A EQ PUSH2 0x80 JUMPI DUP1 PUSH4 0x6416845C EQ PUSH2 0x96 JUMPI DUP1 PUSH4 0x674526BC EQ PUSH2 0xBE JUMPI DUP1 PUSH4 0x736C9563 EQ PUSH2 0xC8 JUMPI DUP1 PUSH4 0xAF61ED3D EQ PUSH2 0xF2 JUMPI JUMPDEST PUSH0 DUP1 REVERT JUMPDEST CALLVALUE DUP1 ISZERO PUSH2 0x63 JUMPI PUSH0 DUP1 REVERT JUMPDEST POP PUSH2 0x7E PUSH1 0x4 DUP1 CALLDATASIZE SUB DUP2 ADD SWAP1 PUSH2 0x79 SWAP2 SWAP1 PUSH2 0x95F JUMP JUMPDEST PUSH2 0x11C JUMP JUMPDEST STOP JUMPDEST CALLVALUE DUP1 ISZERO PUSH2 0x8B JUMPI PUSH0 DUP1 REVERT JUMPDEST POP PUSH2 0x94 PUSH2 0x30D JUMP JUMPDEST STOP JUMPDEST CALLVALUE DUP1 ISZERO PUSH2 0xA1 JUMPI PUSH0 DUP1 REVERT JUMPDEST POP PUSH2 0xBC PUSH1 0x4 DUP1 CALLDATASIZE SUB DUP2 ADD SWAP1 PUSH2 0xB7 SWAP2 SWAP1 PUSH2 0x9B9 JUMP JUMPDEST PUSH2 0x3DB JUMP JUMPDEST STOP JUMPDEST PUSH2 0xC6 PUSH2 0x5CF JUMP JUMPDEST STOP JUMPDEST CALLVALUE DUP1 ISZERO PUSH2 0xD3 JUMPI PUSH0 DUP1 REVERT JUMPDEST POP PUSH2 0xDC PUSH2 0x5D1 JUMP JUMPDEST PUSH1 0x40 MLOAD PUSH2 0xE9 SWAP2 SWAP1 PUSH2 0xB48 JUMP JUMPDEST PUSH1 0x40 MLOAD DUP1 SWAP2 SUB SWAP1 RETURN JUMPDEST CALLVALUE DUP1 ISZERO PUSH2 0xFD JUMPI PUSH0 DUP1 REVERT JUMPDEST POP PUSH2 0x106 PUSH2 0x711 JUMP JUMPDEST PUSH1 0x40 MLOAD PUSH2 0x113 SWAP2 SWAP1 PUSH2 0xB80 JUMP JUMPDEST PUSH1 0x40 MLOAD DUP1 SWAP2 SUB SWAP1 RETURN JUMPDEST PUSH0 DUP1 SLOAD SWAP1 PUSH2 0x100 EXP SWAP1 DIV PUSH20 0xFFFFFFFFFFFFFFFFFFFFFFFFFFFFFFFFFFFFFFFF AND PUSH20 0xFFFFFFFFFFFFFFFFFFFFFFFFFFFFFFFFFFFFFFFF AND CALLER PUSH20 0xFFFFFFFFFFFFFFFFFFFFFFFFFFFFFFFFFFFFFFFF AND EQ PUSH2 0x1A9 JUMPI PUSH1 0x40 MLOAD PUSH32 0x8C379A000000000000000000000000000000000000000000000000000000000 DUP2 MSTORE PUSH1 0x4 ADD PUSH2 0x1A0 SWAP1 PUSH2 0xC19 JUMP JUMPDEST PUSH1 0x40 MLOAD DUP1 SWAP2 SUB SWAP1 REVERT JUMPDEST PUSH0 PUSH1 0x1 DUP1 DUP1 SLOAD SWAP1 POP LT PUSH2 0x24D JUMPI PUSH0 JUMPDEST PUSH1 0x1 DUP1 SLOAD SWAP1 POP DUP2 LT ISZERO PUSH2 0x24B JUMPI DUP4 PUSH20 0xFFFFFFFFFFFFFFFFFFFFFFFFFFFFFFFFFFFFFFFF AND PUSH1 0x1 DUP3 DUP2 SLOAD DUP2 LT PUSH2 0x1F0 JUMPI PUSH2 0x1EF PUSH2 0xC37 JUMP JUMPDEST JUMPDEST SWAP1 PUSH0 MSTORE PUSH1 0x20 PUSH0 KECCAK256 SWAP1 PUSH1 0x2 MUL ADD PUSH0 ADD PUSH0 SWAP1 SLOAD SWAP1 PUSH2 0x100 EXP SWAP1 DIV PUSH20 0xFFFFFFFFFFFFFFFFFFFFFFFFFFFFFFFFFFFFFFFF AND PUSH20 0xFFFFFFFFFFFFFFFFFFFFFFFFFFFFFFFFFFFFFFFF AND SUB PUSH2 0x23E JUMPI PUSH1 0x1 SWAP2 POP JUMPDEST DUP1 DUP1 PUSH1 0x1 ADD SWAP2 POP POP PUSH2 0x1B8 JUMP JUMPDEST POP JUMPDEST PUSH0 ISZERO ISZERO DUP2 ISZERO ISZERO SUB PUSH2 0x308 JUMPI PUSH1 0x1 PUSH1 0x40 MLOAD DUP1 PUSH1 0x40 ADD PUSH1 0x40 MSTORE DUP1 DUP6 PUSH20 0xFFFFFFFFFFFFFFFFFFFFFFFFFFFFFFFFFFFFFFFF AND DUP2 MSTORE PUSH1 0x20 ADD DUP5 DUP2 MSTORE POP SWAP1 DUP1 PUSH1 0x1 DUP2 SLOAD ADD DUP1 DUP3 SSTORE DUP1 SWAP2 POP POP PUSH1 0x1 SWAP1 SUB SWAP1 PUSH0 MSTORE PUSH1 0x20 PUSH0 KECCAK256 SWAP1 PUSH1 0x2 MUL ADD PUSH0 SWAP1 SWAP2 SWAP1 SWAP2 SWAP1 SWAP2 POP PUSH0 DUP3 ADD MLOAD DUP2 PUSH0 ADD PUSH0 PUSH2 0x100 EXP DUP2 SLOAD DUP2 PUSH20 0xFFFFFFFFFFFFFFFFFFFFFFFFFFFFFFFFFFFFFFFF MUL NOT AND SWAP1 DUP4 PUSH20 0xFFFFFFFFFFFFFFFFFFFFFFFFFFFFFFFFFFFFFFFF AND MUL OR SWAP1 SSTORE POP PUSH1 0x20 DUP3 ADD MLOAD DUP2 PUSH1 0x1 ADD SWAP1 DUP2 PUSH2 0x304 SWAP2 SWAP1 PUSH2 0xE5E JUMP JUMPDEST POP POP POP JUMPDEST POP POP POP JUMP JUMPDEST PUSH0 SELFBALANCE GT PUSH2 0x34F JUMPI PUSH1 0x40 MLOAD PUSH32 0x8C379A000000000000000000000000000000000000000000000000000000000 DUP2 MSTORE PUSH1 0x4 ADD PUSH2 0x346 SWAP1 PUSH2 0xF9D JUMP JUMPDEST PUSH1 0x40 MLOAD DUP1 SWAP2 SUB SWAP1 REVERT JUMPDEST PUSH1 0x1 DUP1 DUP1 SLOAD SWAP1 POP LT PUSH2 0x3D9 JUMPI PUSH0 PUSH1 0x1 DUP1 SLOAD SWAP1 POP SELFBALANCE PUSH2 0x36D SWAP2 SWAP1 PUSH2 0x1015 JUMP JUMPDEST SWAP1 POP PUSH0 JUMPDEST PUSH1 0x1 DUP1 SLOAD SWAP1 POP DUP2 LT ISZERO PUSH2 0x3D6 JUMPI PUSH2 0x3C9 PUSH1 0x1 DUP3 DUP2 SLOAD DUP2 LT PUSH2 0x395 JUMPI PUSH2 0x394 PUSH2 0xC37 JUMP JUMPDEST JUMPDEST SWAP1 PUSH0 MSTORE PUSH1 0x20 PUSH0 KECCAK256 SWAP1 PUSH1 0x2 MUL ADD PUSH0 ADD PUSH0 SWAP1 SLOAD SWAP1 PUSH2 0x100 EXP SWAP1 DIV PUSH20 0xFFFFFFFFFFFFFFFFFFFFFFFFFFFFFFFFFFFFFFFF AND DUP4 PUSH2 0x718 JUMP JUMPDEST DUP1 DUP1 PUSH1 0x1 ADD SWAP2 POP POP PUSH2 0x371 JUMP JUMPDEST POP POP JUMPDEST JUMP JUMPDEST PUSH1 0x1 DUP1 DUP1 SLOAD SWAP1 POP LT PUSH2 0x5CC JUMPI PUSH0 JUMPDEST PUSH1 0x1 DUP1 SLOAD SWAP1 POP DUP2 LT ISZERO PUSH2 0x5CA JUMPI DUP2 PUSH20 0xFFFFFFFFFFFFFFFFFFFFFFFFFFFFFFFFFFFFFFFF AND PUSH1 0x1 DUP3 DUP2 SLOAD DUP2 LT PUSH2 0x421 JUMPI PUSH2 0x420 PUSH2 0xC37 JUMP JUMPDEST JUMPDEST SWAP1 PUSH0 MSTORE PUSH1 0x20 PUSH0 KECCAK256 SWAP1 PUSH1 0x2 MUL ADD PUSH0 ADD PUSH0 SWAP1 SLOAD SWAP1 PUSH2 0x100 EXP SWAP1 DIV PUSH20 0xFFFFFFFFFFFFFFFFFFFFFFFFFFFFFFFFFFFFFFFF AND PUSH20 0xFFFFFFFFFFFFFFFFFFFFFFFFFFFFFFFFFFFFFFFF AND SUB PUSH2 0x5BD JUMPI PUSH0 DUP2 SWAP1 POP JUMPDEST PUSH1 0x1 DUP1 DUP1 SLOAD SWAP1 POP PUSH2 0x480 SWAP2 SWAP1 PUSH2 0x1045 JUMP JUMPDEST DUP2 LT ISZERO PUSH2 0x55A JUMPI PUSH1 0x1 DUP1 DUP3 PUSH2 0x495 SWAP2 SWAP1 PUSH2 0x1078 JUMP JUMPDEST DUP2 SLOAD DUP2 LT PUSH2 0x4A6 JUMPI PUSH2 0x4A5 PUSH2 0xC37 JUMP JUMPDEST JUMPDEST SWAP1 PUSH0 MSTORE PUSH1 0x20 PUSH0 KECCAK256 SWAP1 PUSH1 0x2 MUL ADD PUSH1 0x1 DUP3 DUP2 SLOAD DUP2 LT PUSH2 0x4C6 JUMPI PUSH2 0x4C5 PUSH2 0xC37 JUMP JUMPDEST JUMPDEST SWAP1 PUSH0 MSTORE PUSH1 0x20 PUSH0 KECCAK256 SWAP1 PUSH1 0x2 MUL ADD PUSH0 DUP3 ADD PUSH0 SWAP1 SLOAD SWAP1 PUSH2 0x100 EXP SWAP1 DIV PUSH20 0xFFFFFFFFFFFFFFFFFFFFFFFFFFFFFFFFFFFFFFFF AND DUP2 PUSH0 ADD PUSH0 PUSH2 0x100 EXP DUP2 SLOAD DUP2 PUSH20 0xFFFFFFFFFFFFFFFFFFFFFFFFFFFFFFFFFFFFFFFF MUL NOT AND SWAP1 DUP4 PUSH20 0xFFFFFFFFFFFFFFFFFFFFFFFFFFFFFFFFFFFFFFFF AND MUL OR SWAP1 SSTORE POP PUSH1 0x1 DUP3 ADD DUP2 PUSH1 0x1 ADD SWAP1 DUP2 PUSH2 0x549 SWAP2 SWAP1 PUSH2 0x10C0 JUMP JUMPDEST POP SWAP1 POP POP DUP1 DUP1 PUSH1 0x1 ADD SWAP2 POP POP PUSH2 0x46F JUMP JUMPDEST POP PUSH1 0x1 DUP1 SLOAD DUP1 PUSH2 0x56D JUMPI PUSH2 0x56C PUSH2 0x11A5 JUMP JUMPDEST JUMPDEST PUSH1 0x1 SWAP1 SUB DUP2 DUP2 SWAP1 PUSH0 MSTORE PUSH1 0x20 PUSH0 KECCAK256 SWAP1 PUSH1 0x2 MUL ADD PUSH0 DUP1 DUP3 ADD PUSH0 PUSH2 0x100 EXP DUP2 SLOAD SWAP1 PUSH20 0xFFFFFFFFFFFFFFFFFFFFFFFFFFFFFFFFFFFFFFFF MUL NOT AND SWAP1 SSTORE PUSH1 0x1 DUP3 ADD PUSH0 PUSH2 0x5B4 SWAP2 SWAP1 PUSH2 0x760 JUMP JUMPDEST POP POP SWAP1 SSTORE PUSH2 0x5CA JUMP JUMPDEST DUP1 DUP1 PUSH1 0x1 ADD SWAP2 POP POP PUSH2 0x3E9 JUMP JUMPDEST POP JUMPDEST POP JUMP JUMPDEST JUMP JUMPDEST PUSH1 0x60 PUSH1 0x1 DUP1 SLOAD DUP1 PUSH1 0x20 MUL PUSH1 0x20 ADD PUSH1 0x40 MLOAD SWAP1 DUP2 ADD PUSH1 0x40 MSTORE DUP1 SWAP3 SWAP2 SWAP1 DUP2 DUP2 MSTORE PUSH1 0x20 ADD PUSH0 SWAP1 JUMPDEST DUP3 DUP3 LT ISZERO PUSH2 0x708 JUMPI DUP4 DUP3 SWAP1 PUSH0 MSTORE PUSH1 0x20 PUSH0 KECCAK256 SWAP1 PUSH1 0x2 MUL ADD PUSH1 0x40 MLOAD DUP1 PUSH1 0x40 ADD PUSH1 0x40 MSTORE SWAP1 DUP2 PUSH0 DUP3 ADD PUSH0 SWAP1 SLOAD SWAP1 PUSH2 0x100 EXP SWAP1 DIV PUSH20 0xFFFFFFFFFFFFFFFFFFFFFFFFFFFFFFFFFFFFFFFF AND PUSH20 0xFFFFFFFFFFFFFFFFFFFFFFFFFFFFFFFFFFFFFFFF AND PUSH20 0xFFFFFFFFFFFFFFFFFFFFFFFFFFFFFFFFFFFFFFFF AND DUP2 MSTORE PUSH1 0x20 ADD PUSH1 0x1 DUP3 ADD DUP1 SLOAD PUSH2 0x679 SWAP1 PUSH2 0xC91 JUMP JUMPDEST DUP1 PUSH1 0x1F ADD PUSH1 0x20 DUP1 SWAP2 DIV MUL PUSH1 0x20 ADD PUSH1 0x40 MLOAD SWAP1 DUP2 ADD PUSH1 0x40 MSTORE DUP1 SWAP3 SWAP2 SWAP1 DUP2 DUP2 MSTORE PUSH1 0x20 ADD DUP3 DUP1 SLOAD PUSH2 0x6A5 SWAP1 PUSH2 0xC91 JUMP JUMPDEST DUP1 ISZERO PUSH2 0x6F0 JUMPI DUP1 PUSH1 0x1F LT PUSH2 0x6C7 JUMPI PUSH2 0x100 DUP1 DUP4 SLOAD DIV MUL DUP4 MSTORE SWAP2 PUSH1 0x20 ADD SWAP2 PUSH2 0x6F0 JUMP JUMPDEST DUP3 ADD SWAP2 SWAP1 PUSH0 MSTORE PUSH1 0x20 PUSH0 KECCAK256 SWAP1 JUMPDEST DUP2 SLOAD DUP2 MSTORE SWAP1 PUSH1 0x1 ADD SWAP1 PUSH1 0x20 ADD DUP1 DUP4 GT PUSH2 0x6D3 JUMPI DUP3 SWAP1 SUB PUSH1 0x1F AND DUP3 ADD SWAP2 JUMPDEST POP POP POP POP POP DUP2 MSTORE POP POP DUP2 MSTORE PUSH1 0x20 ADD SWAP1 PUSH1 0x1 ADD SWAP1 PUSH2 0x5F4 JUMP JUMPDEST POP POP POP POP SWAP1 POP SWAP1 JUMP JUMPDEST PUSH0 SELFBALANCE SWAP1 POP SWAP1 JUMP JUMPDEST DUP2 PUSH20 0xFFFFFFFFFFFFFFFFFFFFFFFFFFFFFFFFFFFFFFFF AND PUSH2 0x8FC DUP3 SWAP1 DUP2 ISZERO MUL SWAP1 PUSH1 0x40 MLOAD PUSH0 PUSH1 0x40 MLOAD DUP1 DUP4 SUB DUP2 DUP6 DUP9 DUP9 CALL SWAP4 POP POP POP POP ISZERO DUP1 ISZERO PUSH2 0x75B JUMPI RETURNDATASIZE PUSH0 DUP1 RETURNDATACOPY RETURNDATASIZE PUSH0 REVERT JUMPDEST POP POP POP JUMP JUMPDEST POP DUP1 SLOAD PUSH2 0x76C SWAP1 PUSH2 0xC91 JUMP JUMPDEST PUSH0 DUP3 SSTORE DUP1 PUSH1 0x1F LT PUSH2 0x77D JUMPI POP PUSH2 0x79A JUMP JUMPDEST PUSH1 0x1F ADD PUSH1 0x20 SWAP1 DIV SWAP1 PUSH0 MSTORE PUSH1 0x20 PUSH0 KECCAK256 SWAP1 DUP2 ADD SWAP1 PUSH2 0x799 SWAP2 SWAP1 PUSH2 0x79D JUMP JUMPDEST JUMPDEST POP JUMP JUMPDEST JUMPDEST DUP1 DUP3 GT ISZERO PUSH2 0x7B4 JUMPI PUSH0 DUP2 PUSH0 SWAP1 SSTORE POP PUSH1 0x1 ADD PUSH2 0x79E JUMP JUMPDEST POP SWAP1 JUMP JUMPDEST PUSH0 PUSH1 0x40 MLOAD SWAP1 POP SWAP1 JUMP JUMPDEST PUSH0 DUP1 REVERT JUMPDEST PUSH0 DUP1 REVERT JUMPDEST PUSH0 PUSH20 0xFFFFFFFFFFFFFFFFFFFFFFFFFFFFFFFFFFFFFFFF DUP3 AND SWAP1 POP SWAP2 SWAP1 POP JUMP JUMPDEST PUSH0 PUSH2 0x7F2 DUP3 PUSH2 0x7C9 JUMP JUMPDEST SWAP1 POP SWAP2 SWAP1 POP JUMP JUMPDEST PUSH2 0x802 DUP2 PUSH2 0x7E8 JUMP JUMPDEST DUP2 EQ PUSH2 0x80C JUMPI PUSH0 DUP1 REVERT JUMPDEST POP JUMP JUMPDEST PUSH0 DUP2 CALLDATALOAD SWAP1 POP PUSH2 0x81D DUP2 PUSH2 0x7F9 JUMP JUMPDEST SWAP3 SWAP2 POP POP JUMP JUMPDEST PUSH0 DUP1 REVERT JUMPDEST PUSH0 DUP1 REVERT JUMPDEST PUSH0 PUSH1 0x1F NOT PUSH1 0x1F DUP4 ADD AND SWAP1 POP SWAP2 SWAP1 POP JUMP JUMPDEST PUSH32 0x4E487B7100000000000000000000000000000000000000000000000000000000 PUSH0 MSTORE PUSH1 0x41 PUSH1 0x4 MSTORE PUSH1 0x24 PUSH0 REVERT JUMPDEST PUSH2 0x871 DUP3 PUSH2 0x82B JUMP JUMPDEST DUP2 ADD DUP2 DUP2 LT PUSH8 0xFFFFFFFFFFFFFFFF DUP3 GT OR ISZERO PUSH2 0x890 JUMPI PUSH2 0x88F PUSH2 0x83B JUMP JUMPDEST JUMPDEST DUP1 PUSH1 0x40 MSTORE POP POP POP JUMP JUMPDEST PUSH0 PUSH2 0x8A2 PUSH2 0x7B8 JUMP JUMPDEST SWAP1 POP PUSH2 0x8AE DUP3 DUP3 PUSH2 0x868 JUMP JUMPDEST SWAP2 SWAP1 POP JUMP JUMPDEST PUSH0 PUSH8 0xFFFFFFFFFFFFFFFF DUP3 GT ISZERO PUSH2 0x8CD JUMPI PUSH2 0x8CC PUSH2 0x83B JUMP JUMPDEST JUMPDEST PUSH2 0x8D6 DUP3 PUSH2 0x82B JUMP JUMPDEST SWAP1 POP PUSH1 0x20 DUP2 ADD SWAP1 POP SWAP2 SWAP1 POP JUMP JUMPDEST DUP3 DUP2 DUP4 CALLDATACOPY PUSH0 DUP4 DUP4 ADD MSTORE POP POP POP JUMP JUMPDEST PUSH0 PUSH2 0x903 PUSH2 0x8FE DUP5 PUSH2 0x8B3 JUMP JUMPDEST PUSH2 0x899 JUMP JUMPDEST SWAP1 POP DUP3 DUP2 MSTORE PUSH1 0x20 DUP2 ADD DUP5 DUP5 DUP5 ADD GT ISZERO PUSH2 0x91F JUMPI PUSH2 0x91E PUSH2 0x827 JUMP JUMPDEST JUMPDEST PUSH2 0x92A DUP5 DUP3 DUP6 PUSH2 0x8E3 JUMP JUMPDEST POP SWAP4 SWAP3 POP POP POP JUMP JUMPDEST PUSH0 DUP3 PUSH1 0x1F DUP4 ADD SLT PUSH2 0x946 JUMPI PUSH2 0x945 PUSH2 0x823 JUMP JUMPDEST JUMPDEST DUP2 CALLDATALOAD PUSH2 0x956 DUP5 DUP3 PUSH1 0x20 DUP7 ADD PUSH2 0x8F1 JUMP JUMPDEST SWAP2 POP POP SWAP3 SWAP2 POP POP JUMP JUMPDEST PUSH0 DUP1 PUSH1 0x40 DUP4 DUP6 SUB SLT ISZERO PUSH2 0x975 JUMPI PUSH2 0x974 PUSH2 0x7C1 JUMP JUMPDEST JUMPDEST PUSH0 PUSH2 0x982 DUP6 DUP3 DUP7 ADD PUSH2 0x80F JUMP JUMPDEST SWAP3 POP POP PUSH1 0x20 DUP4 ADD CALLDATALOAD PUSH8 0xFFFFFFFFFFFFFFFF DUP2 GT ISZERO PUSH2 0x9A3 JUMPI PUSH2 0x9A2 PUSH2 0x7C5 JUMP JUMPDEST JUMPDEST PUSH2 0x9AF DUP6 DUP3 DUP7 ADD PUSH2 0x932 JUMP JUMPDEST SWAP2 POP POP SWAP3 POP SWAP3 SWAP1 POP JUMP JUMPDEST PUSH0 PUSH1 0x20 DUP3 DUP5 SUB SLT ISZERO PUSH2 0x9CE JUMPI PUSH2 0x9CD PUSH2 0x7C1 JUMP JUMPDEST JUMPDEST PUSH0 PUSH2 0x9DB DUP5 DUP3 DUP6 ADD PUSH2 0x80F JUMP JUMPDEST SWAP2 POP POP SWAP3 SWAP2 POP POP JUMP JUMPDEST PUSH0 DUP2 MLOAD SWAP1 POP SWAP2 SWAP1 POP JUMP JUMPDEST PUSH0 DUP3 DUP3 MSTORE PUSH1 0x20 DUP3 ADD SWAP1 POP SWAP3 SWAP2 POP POP JUMP JUMPDEST PUSH0 DUP2 SWAP1 POP PUSH1 0x20 DUP3 ADD SWAP1 POP SWAP2 SWAP1 POP JUMP JUMPDEST PUSH2 0xA16 DUP2 PUSH2 0x7E8 JUMP JUMPDEST DUP3 MSTORE POP POP JUMP JUMPDEST PUSH0 DUP2 MLOAD SWAP1 POP SWAP2 SWAP1 POP JUMP JUMPDEST PUSH0 DUP3 DUP3 MSTORE PUSH1 0x20 DUP3 ADD SWAP1 POP SWAP3 SWAP2 POP POP JUMP JUMPDEST DUP3 DUP2 DUP4 MCOPY PUSH0 DUP4 DUP4 ADD MSTORE POP POP POP JUMP JUMPDEST PUSH0 PUSH2 0xA4E DUP3 PUSH2 0xA1C JUMP JUMPDEST PUSH2 0xA58 DUP2 DUP6 PUSH2 0xA26 JUMP JUMPDEST SWAP4 POP PUSH2 0xA68 DUP2 DUP6 PUSH1 0x20 DUP7 ADD PUSH2 0xA36 JUMP JUMPDEST PUSH2 0xA71 DUP2 PUSH2 0x82B JUMP JUMPDEST DUP5 ADD SWAP2 POP POP SWAP3 SWAP2 POP POP JUMP JUMPDEST PUSH0 PUSH1 0x40 DUP4 ADD PUSH0 DUP4 ADD MLOAD PUSH2 0xA91 PUSH0 DUP7 ADD DUP3 PUSH2 0xA0D JUMP JUMPDEST POP PUSH1 0x20 DUP4 ADD MLOAD DUP5 DUP3 SUB PUSH1 0x20 DUP7 ADD MSTORE PUSH2 0xAA9 DUP3 DUP3 PUSH2 0xA44 JUMP JUMPDEST SWAP2 POP POP DUP1 SWAP2 POP POP SWAP3 SWAP2 POP POP JUMP JUMPDEST PUSH0 PUSH2 0xAC1 DUP4 DUP4 PUSH2 0xA7C JUMP JUMPDEST SWAP1 POP SWAP3 SWAP2 POP POP JUMP JUMPDEST PUSH0 PUSH1 0x20 DUP3 ADD SWAP1 POP SWAP2 SWAP1 POP JUMP JUMPDEST PUSH0 PUSH2 0xADF DUP3 PUSH2 0x9E4 JUMP JUMPDEST PUSH2 0xAE9 DUP2 DUP6 PUSH2 0x9EE JUMP JUMPDEST SWAP4 POP DUP4 PUSH1 0x20 DUP3 MUL DUP6 ADD PUSH2 0xAFB DUP6 PUSH2 0x9FE JUMP JUMPDEST DUP1 PUSH0 JUMPDEST DUP6 DUP2 LT ISZERO PUSH2 0xB36 JUMPI DUP5 DUP5 SUB DUP10 MSTORE DUP2 MLOAD PUSH2 0xB17 DUP6 DUP3 PUSH2 0xAB6 JUMP JUMPDEST SWAP5 POP PUSH2 0xB22 DUP4 PUSH2 0xAC9 JUMP JUMPDEST SWAP3 POP PUSH1 0x20 DUP11 ADD SWAP10 POP POP PUSH1 0x1 DUP2 ADD SWAP1 POP PUSH2 0xAFE JUMP JUMPDEST POP DUP3 SWAP8 POP DUP8 SWAP6 POP POP POP POP POP POP SWAP3 SWAP2 POP POP JUMP JUMPDEST PUSH0 PUSH1 0x20 DUP3 ADD SWAP1 POP DUP2 DUP2 SUB PUSH0 DUP4 ADD MSTORE PUSH2 0xB60 DUP2 DUP5 PUSH2 0xAD5 JUMP JUMPDEST SWAP1 POP SWAP3 SWAP2 POP POP JUMP JUMPDEST PUSH0 DUP2 SWAP1 POP SWAP2 SWAP1 POP JUMP JUMPDEST PUSH2 0xB7A DUP2 PUSH2 0xB68 JUMP JUMPDEST DUP3 MSTORE POP POP JUMP JUMPDEST PUSH0 PUSH1 0x20 DUP3 ADD SWAP1 POP PUSH2 0xB93 PUSH0 DUP4 ADD DUP5 PUSH2 0xB71 JUMP JUMPDEST SWAP3 SWAP2 POP POP JUMP JUMPDEST PUSH0 DUP3 DUP3 MSTORE PUSH1 0x20 DUP3 ADD SWAP1 POP SWAP3 SWAP2 POP POP JUMP JUMPDEST PUSH32 0x4F6E6C7920746865206F6E7765722063616E2063616C6C20746869732066756E PUSH0 DUP3 ADD MSTORE PUSH32 0x6374696F6E2E0000000000000000000000000000000000000000000000000000 PUSH1 0x20 DUP3 ADD MSTORE POP JUMP JUMPDEST PUSH0 PUSH2 0xC03 PUSH1 0x26 DUP4 PUSH2 0xB99 JUMP JUMPDEST SWAP2 POP PUSH2 0xC0E DUP3 PUSH2 0xBA9 JUMP JUMPDEST PUSH1 0x40 DUP3 ADD SWAP1 POP SWAP2 SWAP1 POP JUMP JUMPDEST PUSH0 PUSH1 0x20 DUP3 ADD SWAP1 POP DUP2 DUP2 SUB PUSH0 DUP4 ADD MSTORE PUSH2 0xC30 DUP2 PUSH2 0xBF7 JUMP JUMPDEST SWAP1 POP SWAP2 SWAP1 POP JUMP JUMPDEST PUSH32 0x4E487B7100000000000000000000000000000000000000000000000000000000 PUSH0 MSTORE PUSH1 0x32 PUSH1 0x4 MSTORE PUSH1 0x24 PUSH0 REVERT JUMPDEST PUSH32 0x4E487B7100000000000000000000000000000000000000000000000000000000 PUSH0 MSTORE PUSH1 0x22 PUSH1 0x4 MSTORE PUSH1 0x24 PUSH0 REVERT JUMPDEST PUSH0 PUSH1 0x2 DUP3 DIV SWAP1 POP PUSH1 0x1 DUP3 AND DUP1 PUSH2 0xCA8 JUMPI PUSH1 0x7F DUP3 AND SWAP2 POP JUMPDEST PUSH1 0x20 DUP3 LT DUP2 SUB PUSH2 0xCBB JUMPI PUSH2 0xCBA PUSH2 0xC64 JUMP JUMPDEST JUMPDEST POP SWAP2 SWAP1 POP JUMP JUMPDEST PUSH0 DUP2 SWAP1 POP DUP2 PUSH0 MSTORE PUSH1 0x20 PUSH0 KECCAK256 SWAP1 POP SWAP2 SWAP1 POP JUMP JUMPDEST PUSH0 PUSH1 0x20 PUSH1 0x1F DUP4 ADD DIV SWAP1 POP SWAP2 SWAP1 POP JUMP JUMPDEST PUSH0 DUP3 DUP3 SHL SWAP1 POP SWAP3 SWAP2 POP POP JUMP JUMPDEST PUSH0 PUSH1 0x8 DUP4 MUL PUSH2 0xD1D PUSH32 0xFFFFFFFFFFFFFFFFFFFFFFFFFFFFFFFFFFFFFFFFFFFFFFFFFFFFFFFFFFFFFFFF DUP3 PUSH2 0xCE2 JUMP JUMPDEST PUSH2 0xD27 DUP7 DUP4 PUSH2 0xCE2 JUMP JUMPDEST SWAP6 POP DUP1 NOT DUP5 AND SWAP4 POP DUP1 DUP7 AND DUP5 OR SWAP3 POP POP POP SWAP4 SWAP3 POP POP POP JUMP JUMPDEST PUSH0 DUP2 SWAP1 POP SWAP2 SWAP1 POP JUMP JUMPDEST PUSH0 PUSH2 0xD62 PUSH2 0xD5D PUSH2 0xD58 DUP5 PUSH2 0xB68 JUMP JUMPDEST PUSH2 0xD3F JUMP JUMPDEST PUSH2 0xB68 JUMP JUMPDEST SWAP1 POP SWAP2 SWAP1 POP JUMP JUMPDEST PUSH0 DUP2 SWAP1 POP SWAP2 SWAP1 POP JUMP JUMPDEST PUSH2 0xD7B DUP4 PUSH2 0xD48 JUMP JUMPDEST PUSH2 0xD8F PUSH2 0xD87 DUP3 PUSH2 0xD69 JUMP JUMPDEST DUP5 DUP5 SLOAD PUSH2 0xCEE JUMP JUMPDEST DUP3 SSTORE POP POP POP POP JUMP JUMPDEST PUSH0 SWAP1 JUMP JUMPDEST PUSH2 0xDA3 PUSH2 0xD97 JUMP JUMPDEST PUSH2 0xDAE DUP2 DUP5 DUP5 PUSH2 0xD72 JUMP JUMPDEST POP POP POP JUMP JUMPDEST JUMPDEST DUP2 DUP2 LT ISZERO PUSH2 0xDD1 JUMPI PUSH2 0xDC6 PUSH0 DUP3 PUSH2 0xD9B JUMP JUMPDEST PUSH1 0x1 DUP2 ADD SWAP1 POP PUSH2 0xDB4 JUMP JUMPDEST POP POP JUMP JUMPDEST PUSH1 0x1F DUP3 GT ISZERO PUSH2 0xE16 JUMPI PUSH2 0xDE7 DUP2 PUSH2 0xCC1 JUMP JUMPDEST PUSH2 0xDF0 DUP5 PUSH2 0xCD3 JUMP JUMPDEST DUP2 ADD PUSH1 0x20 DUP6 LT ISZERO PUSH2 0xDFF JUMPI DUP2 SWAP1 POP JUMPDEST PUSH2 0xE13 PUSH2 0xE0B DUP6 PUSH2 0xCD3 JUMP JUMPDEST DUP4 ADD DUP3 PUSH2 0xDB3 JUMP JUMPDEST POP POP JUMPDEST POP POP POP JUMP JUMPDEST PUSH0 DUP3 DUP3 SHR SWAP1 POP SWAP3 SWAP2 POP POP JUMP JUMPDEST PUSH0 PUSH2 0xE36 PUSH0 NOT DUP5 PUSH1 0x8 MUL PUSH2 0xE1B JUMP JUMPDEST NOT DUP1 DUP4 AND SWAP2 POP POP SWAP3 SWAP2 POP POP JUMP JUMPDEST PUSH0 PUSH2 0xE4E DUP4 DUP4 PUSH2 0xE27 JUMP JUMPDEST SWAP2 POP DUP3 PUSH1 0x2 MUL DUP3 OR SWAP1 POP SWAP3 SWAP2 POP POP JUMP JUMPDEST PUSH2 0xE67 DUP3 PUSH2 0xA1C JUMP JUMPDEST PUSH8 0xFFFFFFFFFFFFFFFF DUP2 GT ISZERO PUSH2 0xE80 JUMPI PUSH2 0xE7F PUSH2 0x83B JUMP JUMPDEST JUMPDEST PUSH2 0xE8A DUP3 SLOAD PUSH2 0xC91 JUMP JUMPDEST PUSH2 0xE95 DUP3 DUP3 DUP6 PUSH2 0xDD5 JUMP JUMPDEST PUSH0 PUSH1 0x20 SWAP1 POP PUSH1 0x1F DUP4 GT PUSH1 0x1 DUP2 EQ PUSH2 0xEC6 JUMPI PUSH0 DUP5 ISZERO PUSH2 0xEB4 JUMPI DUP3 DUP8 ADD MLOAD SWAP1 POP JUMPDEST PUSH2 0xEBE DUP6 DUP3 PUSH2 0xE43 JUMP JUMPDEST DUP7 SSTORE POP PUSH2 0xF25 JUMP JUMPDEST PUSH1 0x1F NOT DUP5 AND PUSH2 0xED4 DUP7 PUSH2 0xCC1 JUMP JUMPDEST PUSH0 JUMPDEST DUP3 DUP2 LT ISZERO PUSH2 0xEFB JUMPI DUP5 DUP10 ADD MLOAD DUP3 SSTORE PUSH1 0x1 DUP3 ADD SWAP2 POP PUSH1 0x20 DUP6 ADD SWAP5 POP PUSH1 0x20 DUP2 ADD SWAP1 POP PUSH2 0xED6 JUMP JUMPDEST DUP7 DUP4 LT ISZERO PUSH2 0xF18 JUMPI DUP5 DUP10 ADD MLOAD PUSH2 0xF14 PUSH1 0x1F DUP10 AND DUP3 PUSH2 0xE27 JUMP JUMPDEST DUP4 SSTORE POP JUMPDEST PUSH1 0x1 PUSH1 0x2 DUP9 MUL ADD DUP9 SSTORE POP POP POP JUMPDEST POP POP POP POP POP POP JUMP JUMPDEST PUSH32 0x496E73756666696369656E742062616C616E636520696E2074686520636F6E74 PUSH0 DUP3 ADD MSTORE PUSH32 0x726163742E000000000000000000000000000000000000000000000000000000 PUSH1 0x20 DUP3 ADD MSTORE POP JUMP JUMPDEST PUSH0 PUSH2 0xF87 PUSH1 0x25 DUP4 PUSH2 0xB99 JUMP JUMPDEST SWAP2 POP PUSH2 0xF92 DUP3 PUSH2 0xF2D JUMP JUMPDEST PUSH1 0x40 DUP3 ADD SWAP1 POP SWAP2 SWAP1 POP JUMP JUMPDEST PUSH0 PUSH1 0x20 DUP3 ADD SWAP1 POP DUP2 DUP2 SUB PUSH0 DUP4 ADD MSTORE PUSH2 0xFB4 DUP2 PUSH2 0xF7B JUMP JUMPDEST SWAP1 POP SWAP2 SWAP1 POP JUMP JUMPDEST PUSH32 0x4E487B7100000000000000000000000000000000000000000000000000000000 PUSH0 MSTORE PUSH1 0x12 PUSH1 0x4 MSTORE PUSH1 0x24 PUSH0 REVERT JUMPDEST PUSH32 0x4E487B7100000000000000000000000000000000000000000000000000000000 PUSH0 MSTORE PUSH1 0x11 PUSH1 0x4 MSTORE PUSH1 0x24 PUSH0 REVERT JUMPDEST PUSH0 PUSH2 0x101F DUP3 PUSH2 0xB68 JUMP JUMPDEST SWAP2 POP PUSH2 0x102A DUP4 PUSH2 0xB68 JUMP JUMPDEST SWAP3 POP DUP3 PUSH2 0x103A JUMPI PUSH2 0x1039 PUSH2 0xFBB JUMP JUMPDEST JUMPDEST DUP3 DUP3 DIV SWAP1 POP SWAP3 SWAP2 POP POP JUMP JUMPDEST PUSH0 PUSH2 0x104F DUP3 PUSH2 0xB68 JUMP JUMPDEST SWAP2 POP PUSH2 0x105A DUP4 PUSH2 0xB68 JUMP JUMPDEST SWAP3 POP DUP3 DUP3 SUB SWAP1 POP DUP2 DUP2 GT ISZERO PUSH2 0x1072 JUMPI PUSH2 0x1071 PUSH2 0xFE8 JUMP JUMPDEST JUMPDEST SWAP3 SWAP2 POP POP JUMP JUMPDEST PUSH0 PUSH2 0x1082 DUP3 PUSH2 0xB68 JUMP JUMPDEST SWAP2 POP PUSH2 0x108D DUP4 PUSH2 0xB68 JUMP JUMPDEST SWAP3 POP DUP3 DUP3 ADD SWAP1 POP DUP1 DUP3 GT ISZERO PUSH2 0x10A5 JUMPI PUSH2 0x10A4 PUSH2 0xFE8 JUMP JUMPDEST JUMPDEST SWAP3 SWAP2 POP POP JUMP JUMPDEST PUSH0 DUP2 SLOAD SWAP1 POP PUSH2 0x10B9 DUP2 PUSH2 0xC91 JUMP JUMPDEST SWAP1 POP SWAP2 SWAP1 POP JUMP JUMPDEST DUP2 DUP2 SUB PUSH2 0x10CE JUMPI POP POP PUSH2 0x11A3 JUMP JUMPDEST PUSH2 0x10D7 DUP3 PUSH2 0x10AB JUMP JUMPDEST PUSH8 0xFFFFFFFFFFFFFFFF DUP2 GT ISZERO PUSH2 0x10F0 JUMPI PUSH2 0x10EF PUSH2 0x83B JUMP JUMPDEST JUMPDEST PUSH2 0x10FA DUP3 SLOAD PUSH2 0xC91 JUMP JUMPDEST PUSH2 0x1105 DUP3 DUP3 DUP6 PUSH2 0xDD5 JUMP JUMPDEST PUSH0 PUSH1 0x1F DUP4 GT PUSH1 0x1 DUP2 EQ PUSH2 0x1132 JUMPI PUSH0 DUP5 ISZERO PUSH2 0x1120 JUMPI DUP3 DUP8 ADD SLOAD SWAP1 POP JUMPDEST PUSH2 0x112A DUP6 DUP3 PUSH2 0xE43 JUMP JUMPDEST DUP7 SSTORE POP PUSH2 0x119C JUMP JUMPDEST PUSH1 0x1F NOT DUP5 AND PUSH2 0x1140 DUP8 PUSH2 0xCC1 JUMP JUMPDEST SWAP7 POP PUSH2 0x114B DUP7 PUSH2 0xCC1 JUMP JUMPDEST PUSH0 JUMPDEST DUP3 DUP2 LT ISZERO PUSH2 0x1172 JUMPI DUP5 DUP10 ADD SLOAD DUP3 SSTORE PUSH1 0x1 DUP3 ADD SWAP2 POP PUSH1 0x1 DUP6 ADD SWAP5 POP PUSH1 0x20 DUP2 ADD SWAP1 POP PUSH2 0x114D JUMP JUMPDEST DUP7 DUP4 LT ISZERO PUSH2 0x118F JUMPI DUP5 DUP10 ADD SLOAD PUSH2 0x118B PUSH1 0x1F DUP10 AND DUP3 PUSH2 0xE27 JUMP JUMPDEST DUP4 SSTORE POP JUMPDEST PUSH1 0x1 PUSH1 0x2 DUP9 MUL ADD DUP9 SSTORE POP POP POP JUMPDEST POP POP POP POP POP POP JUMPDEST JUMP JUMPDEST PUSH32 0x4E487B7100000000000000000000000000000000000000000000000000000000 PUSH0 MSTORE PUSH1 0x31 PUSH1 0x4 MSTORE PUSH1 0x24 PUSH0 REVERT INVALID LOG2 PUSH5 0x6970667358 0x22 SLT KECCAK256 0xB9 PUSH1 0x5B XOR 0xD4 SWAP1 0x4E BLOBHASH ISZERO ADDMOD CODESIZE GASPRICE EXP 0xB6 SHR 0xBB 0xC3 0xFC GT BLOBHASH SWAP4 KECCAK256 0xC0 0xE6 0x2D GASLIMIT 0x4D SWAP16 0x4E EXTCODESIZE 0xCD STOP PUSH5 0x736F6C6343 STOP ADDMOD BYTE STOP CALLER "
				},
				"gasEstimates": {
					"creation": {
						"codeDepositCost": "923200",
						"executionCost": "25225",
						"totalCost": "948425"
					},
					"external": {
						"addSuccessor(address,string)": "infinite",
						"distrubiteInheritage()": "infinite",
						"putmoney()": "163",
						"removeSuccessor(address)": "infinite",
						"viewSuccessor()": "infinite",
						"viewbalance()": "422"
					},
					"internal": {
						"transfer(address payable,uint256)": "infinite"
					}
				},
				"methodIdentifiers": {
					"addSuccessor(address,string)": "25415eaf",
					"distrubiteInheritage()": "48bf296a",
					"putmoney()": "674526bc",
					"removeSuccessor(address)": "6416845c",
					"viewSuccessor()": "736c9563",
					"viewbalance()": "af61ed3d"
				}
			},
			"storageLayout": {
				"storage": [
					{
						"astId": 3,
						"contract": "inheritage.sol:inheritage",
						"label": "owner",
						"offset": 0,
						"slot": "0",
						"type": "t_address"
					},
					{
						"astId": 7,
						"contract": "inheritage.sol:inheritage",
						"label": "successor",
						"offset": 0,
						"slot": "1",
						"type": "t_array(t_struct(Successor)37_storage)dyn_storage"
					}
				],
				"types": {
					"t_address": {
						"encoding": "inplace",
						"label": "address",
						"numberOfBytes": "20"
					},
					"t_address_payable": {
						"encoding": "inplace",
						"label": "address payable",
						"numberOfBytes": "20"
					},
					"t_array(t_struct(Successor)37_storage)dyn_storage": {
						"base": "t_struct(Successor)37_storage",
						"encoding": "dynamic_array",
						"label": "struct inheritage.Successor[]",
						"numberOfBytes": "32"
					},
					"t_string_storage": {
						"encoding": "bytes",
						"label": "string",
						"numberOfBytes": "32"
					},
					"t_struct(Successor)37_storage": {
						"encoding": "inplace",
						"label": "struct inheritage.Successor",
						"members": [
							{
								"astId": 34,
								"contract": "inheritage.sol:inheritage",
								"label": "walletAddress",
								"offset": 0,
								"slot": "0",
								"type": "t_address_payable"
							},
							{
								"astId": 36,
								"contract": "inheritage.sol:inheritage",
								"label": "name",
								"offset": 0,
								"slot": "1",
								"type": "t_string_storage"
							}
						],
						"numberOfBytes": "64"
					}
				}
			},
			"userdoc": {
				"kind": "user",
				"methods": {},
				"version": 1
			}
		}
	}
}