{
	"heritage.sol": {
		"heritage": {
			"abi": [
				{
					"inputs": [],
					"stateMutability": "nonpayable",
					"type": "constructor"
				},
				{
					"inputs": [
						{
							"internalType": "address payable",
							"name": "walletAddress",
							"type": "address"
						},
						{
							"internalType": "string",
							"name": "name",
							"type": "string"
						}
					],
					"name": "addSuccessor",
					"outputs": [],
					"stateMutability": "nonpayable",
					"type": "function"
				},
				{
					"inputs": [],
					"name": "putmoney",
					"outputs": [],
					"stateMutability": "payable",
					"type": "function"
				},
				{
					"inputs": [
						{
							"internalType": "address payable",
							"name": "walletAddress",
							"type": "address"
						}
					],
					"name": "removeSuccessor",
					"outputs": [],
					"stateMutability": "nonpayable",
					"type": "function"
				},
				{
					"inputs": [],
					"name": "viewbalance",
					"outputs": [
						{
							"internalType": "uint256",
							"name": "",
							"type": "uint256"
						}
					],
					"stateMutability": "view",
					"type": "function"
				}
			],
			"devdoc": {
				"kind": "dev",
				"methods": {},
				"version": 1
			},
			"evm": {
				"assembly": "    /* \"heritage.sol\":60:1672  contract heritage {... */\n  mstore(0x40, 0x80)\n    /* \"heritage.sol\":135:185  constructor(){... */\n  callvalue\n  dup1\n  iszero\n  tag_1\n  jumpi\n  0x00\n  dup1\n  revert\ntag_1:\n  pop\n    /* \"heritage.sol\":167:177  msg.sender */\n  caller\n    /* \"heritage.sol\":159:164  owner */\n  0x00\n  dup1\n    /* \"heritage.sol\":159:177  owner = msg.sender */\n  0x0100\n  exp\n  dup2\n  sload\n  dup2\n  0xffffffffffffffffffffffffffffffffffffffff\n  mul\n  not\n  and\n  swap1\n  dup4\n  0xffffffffffffffffffffffffffffffffffffffff\n  and\n  mul\n  or\n  swap1\n  sstore\n  pop\n    /* \"heritage.sol\":60:1672  contract heritage {... */\n  dataSize(sub_0)\n  dup1\n  dataOffset(sub_0)\n  0x00\n  codecopy\n  0x00\n  return\nstop\n\nsub_0: assembly {\n        /* \"heritage.sol\":60:1672  contract heritage {... */\n      mstore(0x40, 0x80)\n      jumpi(tag_1, lt(calldatasize, 0x04))\n      shr(0xe0, calldataload(0x00))\n      dup1\n      0x25415eaf\n      eq\n      tag_2\n      jumpi\n      dup1\n      0x6416845c\n      eq\n      tag_3\n      jumpi\n      dup1\n      0x674526bc\n      eq\n      tag_4\n      jumpi\n      dup1\n      0xaf61ed3d\n      eq\n      tag_5\n      jumpi\n    tag_1:\n      0x00\n      dup1\n      revert\n        /* \"heritage.sol\":527:1091  function addSuccessor(address payable walletAddress,string memory name) public {... */\n    tag_2:\n      callvalue\n      dup1\n      iszero\n      tag_6\n      jumpi\n      0x00\n      dup1\n      revert\n    tag_6:\n      pop\n      tag_7\n      0x04\n      dup1\n      calldatasize\n      sub\n      dup2\n      add\n      swap1\n      tag_8\n      swap2\n      swap1\n      tag_9\n      jump\t// in\n    tag_8:\n      tag_10\n      jump\t// in\n    tag_7:\n      stop\n        /* \"heritage.sol\":1099:1589  function removeSuccessor(address payable walletAddress) public{... */\n    tag_3:\n      callvalue\n      dup1\n      iszero\n      tag_11\n      jumpi\n      0x00\n      dup1\n      revert\n    tag_11:\n      pop\n      tag_12\n      0x04\n      dup1\n      calldatasize\n      sub\n      dup2\n      add\n      swap1\n      tag_13\n      swap2\n      swap1\n      tag_14\n      jump\t// in\n    tag_13:\n      tag_15\n      jump\t// in\n    tag_12:\n      stop\n        /* \"heritage.sol\":223:268  function putmoney() payable public {... */\n    tag_4:\n      tag_16\n      tag_17\n      jump\t// in\n    tag_16:\n      stop\n        /* \"heritage.sol\":303:398  function viewbalance() public view returns(uint){... */\n    tag_5:\n      callvalue\n      dup1\n      iszero\n      tag_18\n      jumpi\n      0x00\n      dup1\n      revert\n    tag_18:\n      pop\n      tag_19\n      tag_20\n      jump\t// in\n    tag_19:\n      mload(0x40)\n      tag_21\n      swap2\n      swap1\n      tag_22\n      jump\t// in\n    tag_21:\n      mload(0x40)\n      dup1\n      swap2\n      sub\n      swap1\n      return\n        /* \"heritage.sol\":527:1091  function addSuccessor(address payable walletAddress,string memory name) public {... */\n    tag_10:\n        /* \"heritage.sol\":639:644  owner */\n      0x00\n      dup1\n      sload\n      swap1\n      0x0100\n      exp\n      swap1\n      div\n      0xffffffffffffffffffffffffffffffffffffffff\n      and\n        /* \"heritage.sol\":625:644  msg.sender == owner */\n      0xffffffffffffffffffffffffffffffffffffffff\n      and\n        /* \"heritage.sol\":625:635  msg.sender */\n      caller\n        /* \"heritage.sol\":625:644  msg.sender == owner */\n      0xffffffffffffffffffffffffffffffffffffffff\n      and\n      eq\n        /* \"heritage.sol\":617:687  require(msg.sender == owner, \"Only the onwer can call this function.\") */\n      tag_24\n      jumpi\n      mload(0x40)\n      0x08c379a000000000000000000000000000000000000000000000000000000000\n      dup2\n      mstore\n      0x04\n      add\n      tag_25\n      swap1\n      tag_26\n      jump\t// in\n    tag_25:\n      mload(0x40)\n      dup1\n      swap2\n      sub\n      swap1\n      revert\n    tag_24:\n        /* \"heritage.sol\":698:717  bool successorExist */\n      0x00\n        /* \"heritage.sol\":758:759  1 */\n      0x01\n        /* \"heritage.sol\":739:748  successor */\n      dup1\n        /* \"heritage.sol\":739:755  successor.length */\n      dup1\n      sload\n      swap1\n      pop\n        /* \"heritage.sol\":739:759  successor.length >=1 */\n      lt\n        /* \"heritage.sol\":736:969  if(successor.length >=1){... */\n      tag_27\n      jumpi\n        /* \"heritage.sol\":779:785  uint i */\n      0x00\n        /* \"heritage.sol\":775:958  for(uint i=0; i<successor.length; i++){... */\n    tag_28:\n        /* \"heritage.sol\":791:800  successor */\n      0x01\n        /* \"heritage.sol\":791:807  successor.length */\n      dup1\n      sload\n      swap1\n      pop\n        /* \"heritage.sol\":789:790  i */\n      dup2\n        /* \"heritage.sol\":789:807  i<successor.length */\n      lt\n        /* \"heritage.sol\":775:958  for(uint i=0; i<successor.length; i++){... */\n      iszero\n      tag_29\n      jumpi\n        /* \"heritage.sol\":865:878  walletAddress */\n      dup4\n        /* \"heritage.sol\":835:878  successor[i].walletAddress == walletAddress */\n      0xffffffffffffffffffffffffffffffffffffffff\n      and\n        /* \"heritage.sol\":835:844  successor */\n      0x01\n        /* \"heritage.sol\":845:846  i */\n      dup3\n        /* \"heritage.sol\":835:847  successor[i] */\n      dup2\n      sload\n      dup2\n      lt\n      tag_31\n      jumpi\n      tag_32\n      tag_33\n      jump\t// in\n    tag_32:\n    tag_31:\n      swap1\n      0x00\n      mstore\n      keccak256(0x00, 0x20)\n      swap1\n      0x02\n      mul\n      add\n        /* \"heritage.sol\":835:861  successor[i].walletAddress */\n      0x00\n      add\n      0x00\n      swap1\n      sload\n      swap1\n      0x0100\n      exp\n      swap1\n      div\n      0xffffffffffffffffffffffffffffffffffffffff\n      and\n        /* \"heritage.sol\":835:878  successor[i].walletAddress == walletAddress */\n      0xffffffffffffffffffffffffffffffffffffffff\n      and\n      sub\n        /* \"heritage.sol\":832:943  if(successor[i].walletAddress == walletAddress){... */\n      tag_35\n      jumpi\n        /* \"heritage.sol\":919:923  true */\n      0x01\n        /* \"heritage.sol\":902:923  successorExist = true */\n      swap2\n      pop\n        /* \"heritage.sol\":832:943  if(successor[i].walletAddress == walletAddress){... */\n    tag_35:\n        /* \"heritage.sol\":809:812  i++ */\n      dup1\n      dup1\n      0x01\n      add\n      swap2\n      pop\n      pop\n        /* \"heritage.sol\":775:958  for(uint i=0; i<successor.length; i++){... */\n      jump(tag_28)\n    tag_29:\n      pop\n        /* \"heritage.sol\":736:969  if(successor.length >=1){... */\n    tag_27:\n        /* \"heritage.sol\":998:1003  false */\n      0x00\n        /* \"heritage.sol\":982:1003  successorExist==false */\n      iszero\n      iszero\n        /* \"heritage.sol\":982:996  successorExist */\n      dup2\n        /* \"heritage.sol\":982:1003  successorExist==false */\n      iszero\n      iszero\n      sub\n        /* \"heritage.sol\":979:1084  if(successorExist==false){... */\n      tag_36\n      jumpi\n        /* \"heritage.sol\":1019:1028  successor */\n      0x01\n        /* \"heritage.sol\":1034:1063  Successor(walletAddress,name) */\n      mload(0x40)\n      dup1\n      0x40\n      add\n      0x40\n      mstore\n      dup1\n        /* \"heritage.sol\":1044:1057  walletAddress */\n      dup6\n        /* \"heritage.sol\":1034:1063  Successor(walletAddress,name) */\n      0xffffffffffffffffffffffffffffffffffffffff\n      and\n      dup2\n      mstore\n      0x20\n      add\n        /* \"heritage.sol\":1058:1062  name */\n      dup5\n        /* \"heritage.sol\":1034:1063  Successor(walletAddress,name) */\n      dup2\n      mstore\n      pop\n        /* \"heritage.sol\":1019:1064  successor.push(Successor(walletAddress,name)) */\n      swap1\n      dup1\n      0x01\n      dup2\n      sload\n      add\n      dup1\n      dup3\n      sstore\n      dup1\n      swap2\n      pop\n      pop\n      0x01\n      swap1\n      sub\n      swap1\n      0x00\n      mstore\n      keccak256(0x00, 0x20)\n      swap1\n      0x02\n      mul\n      add\n      0x00\n      swap1\n      swap2\n      swap1\n      swap2\n      swap1\n      swap2\n      pop\n      0x00\n      dup3\n      add\n      mload\n      dup2\n      0x00\n      add\n      exp(0x0100, 0x00)\n      dup2\n      sload\n      dup2\n      0xffffffffffffffffffffffffffffffffffffffff\n      mul\n      not\n      and\n      swap1\n      dup4\n      0xffffffffffffffffffffffffffffffffffffffff\n      and\n      mul\n      or\n      swap1\n      sstore\n      pop\n      0x20\n      dup3\n      add\n      mload\n      dup2\n      0x01\n      add\n      swap1\n      dup2\n      tag_38\n      swap2\n      swap1\n      tag_39\n      jump\t// in\n    tag_38:\n      pop\n      pop\n      pop\n        /* \"heritage.sol\":979:1084  if(successorExist==false){... */\n    tag_36:\n        /* \"heritage.sol\":606:1091  {... */\n      pop\n        /* \"heritage.sol\":527:1091  function addSuccessor(address payable walletAddress,string memory name) public {... */\n      pop\n      pop\n      jump\t// out\n        /* \"heritage.sol\":1099:1589  function removeSuccessor(address payable walletAddress) public{... */\n    tag_15:\n        /* \"heritage.sol\":1193:1194  1 */\n      0x01\n        /* \"heritage.sol\":1175:1184  successor */\n      dup1\n        /* \"heritage.sol\":1175:1191  successor.length */\n      dup1\n      sload\n      swap1\n      pop\n        /* \"heritage.sol\":1175:1194  successor.length>=1 */\n      lt\n        /* \"heritage.sol\":1172:1582  if(successor.length>=1){... */\n      tag_41\n      jumpi\n        /* \"heritage.sol\":1214:1220  uint i */\n      0x00\n        /* \"heritage.sol\":1210:1571  for(uint i=0; i<successor.length; i++){... */\n    tag_42:\n        /* \"heritage.sol\":1226:1235  successor */\n      0x01\n        /* \"heritage.sol\":1226:1242  successor.length */\n      dup1\n      sload\n      swap1\n      pop\n        /* \"heritage.sol\":1224:1225  i */\n      dup2\n        /* \"heritage.sol\":1224:1242  i<successor.length */\n      lt\n        /* \"heritage.sol\":1210:1571  for(uint i=0; i<successor.length; i++){... */\n      iszero\n      tag_43\n      jumpi\n        /* \"heritage.sol\":1298:1311  walletAddress */\n      dup2\n        /* \"heritage.sol\":1270:1311  successor[i].walletAddress==walletAddress */\n      0xffffffffffffffffffffffffffffffffffffffff\n      and\n        /* \"heritage.sol\":1270:1279  successor */\n      0x01\n        /* \"heritage.sol\":1280:1281  i */\n      dup3\n        /* \"heritage.sol\":1270:1282  successor[i] */\n      dup2\n      sload\n      dup2\n      lt\n      tag_45\n      jumpi\n      tag_46\n      tag_33\n      jump\t// in\n    tag_46:\n    tag_45:\n      swap1\n      0x00\n      mstore\n      keccak256(0x00, 0x20)\n      swap1\n      0x02\n      mul\n      add\n        /* \"heritage.sol\":1270:1296  successor[i].walletAddress */\n      0x00\n      add\n      0x00\n      swap1\n      sload\n      swap1\n      0x0100\n      exp\n      swap1\n      div\n      0xffffffffffffffffffffffffffffffffffffffff\n      and\n        /* \"heritage.sol\":1270:1311  successor[i].walletAddress==walletAddress */\n      0xffffffffffffffffffffffffffffffffffffffff\n      and\n      sub\n        /* \"heritage.sol\":1267:1538  if(successor[i].walletAddress==walletAddress){... */\n      tag_48\n      jumpi\n        /* \"heritage.sol\":1339:1345  uint j */\n      0x00\n        /* \"heritage.sol\":1346:1347  i */\n      dup2\n        /* \"heritage.sol\":1339:1347  uint j=i */\n      swap1\n      pop\n        /* \"heritage.sol\":1335:1453  for(uint j=i; j<successor.length-1; j++){... */\n    tag_49:\n        /* \"heritage.sol\":1368:1369  1 */\n      0x01\n        /* \"heritage.sol\":1351:1360  successor */\n      dup1\n        /* \"heritage.sol\":1351:1367  successor.length */\n      dup1\n      sload\n      swap1\n      pop\n        /* \"heritage.sol\":1351:1369  successor.length-1 */\n      tag_52\n      swap2\n      swap1\n      tag_53\n      jump\t// in\n    tag_52:\n        /* \"heritage.sol\":1349:1350  j */\n      dup2\n        /* \"heritage.sol\":1349:1369  j<successor.length-1 */\n      lt\n        /* \"heritage.sol\":1335:1453  for(uint j=i; j<successor.length-1; j++){... */\n      iszero\n      tag_50\n      jumpi\n        /* \"heritage.sol\":1415:1424  successor */\n      0x01\n        /* \"heritage.sol\":1427:1428  1 */\n      dup1\n        /* \"heritage.sol\":1425:1426  j */\n      dup3\n        /* \"heritage.sol\":1425:1428  j+1 */\n      tag_54\n      swap2\n      swap1\n      tag_55\n      jump\t// in\n    tag_54:\n        /* \"heritage.sol\":1415:1429  successor[j+1] */\n      dup2\n      sload\n      dup2\n      lt\n      tag_56\n      jumpi\n      tag_57\n      tag_33\n      jump\t// in\n    tag_57:\n    tag_56:\n      swap1\n      0x00\n      mstore\n      keccak256(0x00, 0x20)\n      swap1\n      0x02\n      mul\n      add\n        /* \"heritage.sol\":1402:1411  successor */\n      0x01\n        /* \"heritage.sol\":1412:1413  j */\n      dup3\n        /* \"heritage.sol\":1402:1414  successor[j] */\n      dup2\n      sload\n      dup2\n      lt\n      tag_59\n      jumpi\n      tag_60\n      tag_33\n      jump\t// in\n    tag_60:\n    tag_59:\n      swap1\n      0x00\n      mstore\n      keccak256(0x00, 0x20)\n      swap1\n      0x02\n      mul\n      add\n        /* \"heritage.sol\":1402:1429  successor[j]=successor[j+1] */\n      0x00\n      dup3\n      add\n      0x00\n      swap1\n      sload\n      swap1\n      0x0100\n      exp\n      swap1\n      div\n      0xffffffffffffffffffffffffffffffffffffffff\n      and\n      dup2\n      0x00\n      add\n      exp(0x0100, 0x00)\n      dup2\n      sload\n      dup2\n      0xffffffffffffffffffffffffffffffffffffffff\n      mul\n      not\n      and\n      swap1\n      dup4\n      0xffffffffffffffffffffffffffffffffffffffff\n      and\n      mul\n      or\n      swap1\n      sstore\n      pop\n      0x01\n      dup3\n      add\n      dup2\n      0x01\n      add\n      swap1\n      dup2\n      tag_62\n      swap2\n      swap1\n      tag_63\n      jump\t// in\n    tag_62:\n      pop\n      swap1\n      pop\n      pop\n        /* \"heritage.sol\":1371:1374  j++ */\n      dup1\n      dup1\n      0x01\n      add\n      swap2\n      pop\n      pop\n        /* \"heritage.sol\":1335:1453  for(uint j=i; j<successor.length-1; j++){... */\n      jump(tag_49)\n    tag_50:\n      pop\n        /* \"heritage.sol\":1475:1484  successor */\n      0x01\n        /* \"heritage.sol\":1475:1490  successor.pop() */\n      dup1\n      sload\n      dup1\n      tag_64\n      jumpi\n      tag_65\n      tag_66\n      jump\t// in\n    tag_65:\n    tag_64:\n      0x01\n      swap1\n      sub\n      dup2\n      dup2\n      swap1\n      0x00\n      mstore\n      keccak256(0x00, 0x20)\n      swap1\n      0x02\n      mul\n      add\n      0x00\n      dup1\n      dup3\n      add\n      exp(0x0100, 0x00)\n      dup2\n      sload\n      swap1\n      0xffffffffffffffffffffffffffffffffffffffff\n      mul\n      not\n      and\n      swap1\n      sstore\n      0x01\n      dup3\n      add\n      0x00\n      tag_68\n      swap2\n      swap1\n      tag_69\n      jump\t// in\n    tag_68:\n      pop\n      pop\n      swap1\n      sstore\n        /* \"heritage.sol\":1513:1518  break */\n      jump(tag_43)\n        /* \"heritage.sol\":1267:1538  if(successor[i].walletAddress==walletAddress){... */\n    tag_48:\n        /* \"heritage.sol\":1244:1247  i++ */\n      dup1\n      dup1\n      0x01\n      add\n      swap2\n      pop\n      pop\n        /* \"heritage.sol\":1210:1571  for(uint i=0; i<successor.length; i++){... */\n      jump(tag_42)\n    tag_43:\n      pop\n        /* \"heritage.sol\":1172:1582  if(successor.length>=1){... */\n    tag_41:\n        /* \"heritage.sol\":1099:1589  function removeSuccessor(address payable walletAddress) public{... */\n      pop\n      jump\t// out\n        /* \"heritage.sol\":223:268  function putmoney() payable public {... */\n    tag_17:\n      jump\t// out\n        /* \"heritage.sol\":303:398  function viewbalance() public view returns(uint){... */\n    tag_20:\n        /* \"heritage.sol\":346:350  uint */\n      0x00\n        /* \"heritage.sol\":369:390  address(this).balance */\n      selfbalance\n        /* \"heritage.sol\":362:390  return address(this).balance */\n      swap1\n      pop\n        /* \"heritage.sol\":303:398  function viewbalance() public view returns(uint){... */\n      swap1\n      jump\t// out\n    tag_69:\n      pop\n      dup1\n      sload\n      tag_72\n      swap1\n      tag_73\n      jump\t// in\n    tag_72:\n      0x00\n      dup3\n      sstore\n      dup1\n      0x1f\n      lt\n      tag_75\n      jumpi\n      pop\n      jump(tag_74)\n    tag_75:\n      0x1f\n      add\n      0x20\n      swap1\n      div\n      swap1\n      0x00\n      mstore\n      keccak256(0x00, 0x20)\n      swap1\n      dup2\n      add\n      swap1\n      tag_76\n      swap2\n      swap1\n      tag_77\n      jump\t// in\n    tag_76:\n    tag_74:\n      pop\n      jump\t// out\n    tag_77:\n    tag_78:\n      dup1\n      dup3\n      gt\n      iszero\n      tag_79\n      jumpi\n      0x00\n      dup2\n      0x00\n      swap1\n      sstore\n      pop\n      0x01\n      add\n      jump(tag_78)\n    tag_79:\n      pop\n      swap1\n      jump\t// out\n        /* \"#utility.yul\":7:82   */\n    tag_80:\n        /* \"#utility.yul\":40:46   */\n      0x00\n        /* \"#utility.yul\":73:75   */\n      0x40\n        /* \"#utility.yul\":67:76   */\n      mload\n        /* \"#utility.yul\":57:76   */\n      swap1\n      pop\n        /* \"#utility.yul\":7:82   */\n      swap1\n      jump\t// out\n        /* \"#utility.yul\":88:205   */\n    tag_81:\n        /* \"#utility.yul\":197:198   */\n      0x00\n        /* \"#utility.yul\":194:195   */\n      dup1\n        /* \"#utility.yul\":187:199   */\n      revert\n        /* \"#utility.yul\":211:328   */\n    tag_82:\n        /* \"#utility.yul\":320:321   */\n      0x00\n        /* \"#utility.yul\":317:318   */\n      dup1\n        /* \"#utility.yul\":310:322   */\n      revert\n        /* \"#utility.yul\":334:460   */\n    tag_83:\n        /* \"#utility.yul\":371:378   */\n      0x00\n        /* \"#utility.yul\":411:453   */\n      0xffffffffffffffffffffffffffffffffffffffff\n        /* \"#utility.yul\":404:409   */\n      dup3\n        /* \"#utility.yul\":400:454   */\n      and\n        /* \"#utility.yul\":389:454   */\n      swap1\n      pop\n        /* \"#utility.yul\":334:460   */\n      swap2\n      swap1\n      pop\n      jump\t// out\n        /* \"#utility.yul\":466:570   */\n    tag_84:\n        /* \"#utility.yul\":511:518   */\n      0x00\n        /* \"#utility.yul\":540:564   */\n      tag_127\n        /* \"#utility.yul\":558:563   */\n      dup3\n        /* \"#utility.yul\":540:564   */\n      tag_83\n      jump\t// in\n    tag_127:\n        /* \"#utility.yul\":529:564   */\n      swap1\n      pop\n        /* \"#utility.yul\":466:570   */\n      swap2\n      swap1\n      pop\n      jump\t// out\n        /* \"#utility.yul\":576:714   */\n    tag_85:\n        /* \"#utility.yul\":657:689   */\n      tag_129\n        /* \"#utility.yul\":683:688   */\n      dup2\n        /* \"#utility.yul\":657:689   */\n      tag_84\n      jump\t// in\n    tag_129:\n        /* \"#utility.yul\":650:655   */\n      dup2\n        /* \"#utility.yul\":647:690   */\n      eq\n        /* \"#utility.yul\":637:708   */\n      tag_130\n      jumpi\n        /* \"#utility.yul\":704:705   */\n      0x00\n        /* \"#utility.yul\":701:702   */\n      dup1\n        /* \"#utility.yul\":694:706   */\n      revert\n        /* \"#utility.yul\":637:708   */\n    tag_130:\n        /* \"#utility.yul\":576:714   */\n      pop\n      jump\t// out\n        /* \"#utility.yul\":720:875   */\n    tag_86:\n        /* \"#utility.yul\":774:779   */\n      0x00\n        /* \"#utility.yul\":812:818   */\n      dup2\n        /* \"#utility.yul\":799:819   */\n      calldataload\n        /* \"#utility.yul\":790:819   */\n      swap1\n      pop\n        /* \"#utility.yul\":828:869   */\n      tag_132\n        /* \"#utility.yul\":863:868   */\n      dup2\n        /* \"#utility.yul\":828:869   */\n      tag_85\n      jump\t// in\n    tag_132:\n        /* \"#utility.yul\":720:875   */\n      swap3\n      swap2\n      pop\n      pop\n      jump\t// out\n        /* \"#utility.yul\":881:998   */\n    tag_87:\n        /* \"#utility.yul\":990:991   */\n      0x00\n        /* \"#utility.yul\":987:988   */\n      dup1\n        /* \"#utility.yul\":980:992   */\n      revert\n        /* \"#utility.yul\":1004:1121   */\n    tag_88:\n        /* \"#utility.yul\":1113:1114   */\n      0x00\n        /* \"#utility.yul\":1110:1111   */\n      dup1\n        /* \"#utility.yul\":1103:1115   */\n      revert\n        /* \"#utility.yul\":1127:1229   */\n    tag_89:\n        /* \"#utility.yul\":1168:1174   */\n      0x00\n        /* \"#utility.yul\":1219:1221   */\n      0x1f\n        /* \"#utility.yul\":1215:1222   */\n      not\n        /* \"#utility.yul\":1210:1212   */\n      0x1f\n        /* \"#utility.yul\":1203:1208   */\n      dup4\n        /* \"#utility.yul\":1199:1213   */\n      add\n        /* \"#utility.yul\":1195:1223   */\n      and\n        /* \"#utility.yul\":1185:1223   */\n      swap1\n      pop\n        /* \"#utility.yul\":1127:1229   */\n      swap2\n      swap1\n      pop\n      jump\t// out\n        /* \"#utility.yul\":1235:1415   */\n    tag_90:\n        /* \"#utility.yul\":1283:1360   */\n      0x4e487b7100000000000000000000000000000000000000000000000000000000\n        /* \"#utility.yul\":1280:1281   */\n      0x00\n        /* \"#utility.yul\":1273:1361   */\n      mstore\n        /* \"#utility.yul\":1380:1384   */\n      0x41\n        /* \"#utility.yul\":1377:1378   */\n      0x04\n        /* \"#utility.yul\":1370:1385   */\n      mstore\n        /* \"#utility.yul\":1404:1408   */\n      0x24\n        /* \"#utility.yul\":1401:1402   */\n      0x00\n        /* \"#utility.yul\":1394:1409   */\n      revert\n        /* \"#utility.yul\":1421:1702   */\n    tag_91:\n        /* \"#utility.yul\":1504:1531   */\n      tag_138\n        /* \"#utility.yul\":1526:1530   */\n      dup3\n        /* \"#utility.yul\":1504:1531   */\n      tag_89\n      jump\t// in\n    tag_138:\n        /* \"#utility.yul\":1496:1502   */\n      dup2\n        /* \"#utility.yul\":1492:1532   */\n      add\n        /* \"#utility.yul\":1634:1640   */\n      dup2\n        /* \"#utility.yul\":1622:1632   */\n      dup2\n        /* \"#utility.yul\":1619:1641   */\n      lt\n        /* \"#utility.yul\":1598:1616   */\n      0xffffffffffffffff\n        /* \"#utility.yul\":1586:1596   */\n      dup3\n        /* \"#utility.yul\":1583:1617   */\n      gt\n        /* \"#utility.yul\":1580:1642   */\n      or\n        /* \"#utility.yul\":1577:1665   */\n      iszero\n      tag_139\n      jumpi\n        /* \"#utility.yul\":1645:1663   */\n      tag_140\n      tag_90\n      jump\t// in\n    tag_140:\n        /* \"#utility.yul\":1577:1665   */\n    tag_139:\n        /* \"#utility.yul\":1685:1695   */\n      dup1\n        /* \"#utility.yul\":1681:1683   */\n      0x40\n        /* \"#utility.yul\":1674:1696   */\n      mstore\n        /* \"#utility.yul\":1464:1702   */\n      pop\n        /* \"#utility.yul\":1421:1702   */\n      pop\n      pop\n      jump\t// out\n        /* \"#utility.yul\":1708:1837   */\n    tag_92:\n        /* \"#utility.yul\":1742:1748   */\n      0x00\n        /* \"#utility.yul\":1769:1789   */\n      tag_142\n      tag_80\n      jump\t// in\n    tag_142:\n        /* \"#utility.yul\":1759:1789   */\n      swap1\n      pop\n        /* \"#utility.yul\":1798:1831   */\n      tag_143\n        /* \"#utility.yul\":1826:1830   */\n      dup3\n        /* \"#utility.yul\":1818:1824   */\n      dup3\n        /* \"#utility.yul\":1798:1831   */\n      tag_91\n      jump\t// in\n    tag_143:\n        /* \"#utility.yul\":1708:1837   */\n      swap2\n      swap1\n      pop\n      jump\t// out\n        /* \"#utility.yul\":1843:2151   */\n    tag_93:\n        /* \"#utility.yul\":1905:1909   */\n      0x00\n        /* \"#utility.yul\":1995:2013   */\n      0xffffffffffffffff\n        /* \"#utility.yul\":1987:1993   */\n      dup3\n        /* \"#utility.yul\":1984:2014   */\n      gt\n        /* \"#utility.yul\":1981:2037   */\n      iszero\n      tag_145\n      jumpi\n        /* \"#utility.yul\":2017:2035   */\n      tag_146\n      tag_90\n      jump\t// in\n    tag_146:\n        /* \"#utility.yul\":1981:2037   */\n    tag_145:\n        /* \"#utility.yul\":2055:2084   */\n      tag_147\n        /* \"#utility.yul\":2077:2083   */\n      dup3\n        /* \"#utility.yul\":2055:2084   */\n      tag_89\n      jump\t// in\n    tag_147:\n        /* \"#utility.yul\":2047:2084   */\n      swap1\n      pop\n        /* \"#utility.yul\":2139:2143   */\n      0x20\n        /* \"#utility.yul\":2133:2137   */\n      dup2\n        /* \"#utility.yul\":2129:2144   */\n      add\n        /* \"#utility.yul\":2121:2144   */\n      swap1\n      pop\n        /* \"#utility.yul\":1843:2151   */\n      swap2\n      swap1\n      pop\n      jump\t// out\n        /* \"#utility.yul\":2157:2305   */\n    tag_94:\n        /* \"#utility.yul\":2255:2261   */\n      dup3\n        /* \"#utility.yul\":2250:2253   */\n      dup2\n        /* \"#utility.yul\":2245:2248   */\n      dup4\n        /* \"#utility.yul\":2232:2262   */\n      calldatacopy\n        /* \"#utility.yul\":2296:2297   */\n      0x00\n        /* \"#utility.yul\":2287:2293   */\n      dup4\n        /* \"#utility.yul\":2282:2285   */\n      dup4\n        /* \"#utility.yul\":2278:2294   */\n      add\n        /* \"#utility.yul\":2271:2298   */\n      mstore\n        /* \"#utility.yul\":2157:2305   */\n      pop\n      pop\n      pop\n      jump\t// out\n        /* \"#utility.yul\":2311:2736   */\n    tag_95:\n        /* \"#utility.yul\":2389:2394   */\n      0x00\n        /* \"#utility.yul\":2414:2480   */\n      tag_150\n        /* \"#utility.yul\":2430:2479   */\n      tag_151\n        /* \"#utility.yul\":2472:2478   */\n      dup5\n        /* \"#utility.yul\":2430:2479   */\n      tag_93\n      jump\t// in\n    tag_151:\n        /* \"#utility.yul\":2414:2480   */\n      tag_92\n      jump\t// in\n    tag_150:\n        /* \"#utility.yul\":2405:2480   */\n      swap1\n      pop\n        /* \"#utility.yul\":2503:2509   */\n      dup3\n        /* \"#utility.yul\":2496:2501   */\n      dup2\n        /* \"#utility.yul\":2489:2510   */\n      mstore\n        /* \"#utility.yul\":2541:2545   */\n      0x20\n        /* \"#utility.yul\":2534:2539   */\n      dup2\n        /* \"#utility.yul\":2530:2546   */\n      add\n        /* \"#utility.yul\":2579:2582   */\n      dup5\n        /* \"#utility.yul\":2570:2576   */\n      dup5\n        /* \"#utility.yul\":2565:2568   */\n      dup5\n        /* \"#utility.yul\":2561:2577   */\n      add\n        /* \"#utility.yul\":2558:2583   */\n      gt\n        /* \"#utility.yul\":2555:2667   */\n      iszero\n      tag_152\n      jumpi\n        /* \"#utility.yul\":2586:2665   */\n      tag_153\n      tag_88\n      jump\t// in\n    tag_153:\n        /* \"#utility.yul\":2555:2667   */\n    tag_152:\n        /* \"#utility.yul\":2676:2730   */\n      tag_154\n        /* \"#utility.yul\":2723:2729   */\n      dup5\n        /* \"#utility.yul\":2718:2721   */\n      dup3\n        /* \"#utility.yul\":2713:2716   */\n      dup6\n        /* \"#utility.yul\":2676:2730   */\n      tag_94\n      jump\t// in\n    tag_154:\n        /* \"#utility.yul\":2395:2736   */\n      pop\n        /* \"#utility.yul\":2311:2736   */\n      swap4\n      swap3\n      pop\n      pop\n      pop\n      jump\t// out\n        /* \"#utility.yul\":2756:3096   */\n    tag_96:\n        /* \"#utility.yul\":2812:2817   */\n      0x00\n        /* \"#utility.yul\":2861:2864   */\n      dup3\n        /* \"#utility.yul\":2854:2858   */\n      0x1f\n        /* \"#utility.yul\":2846:2852   */\n      dup4\n        /* \"#utility.yul\":2842:2859   */\n      add\n        /* \"#utility.yul\":2838:2865   */\n      slt\n        /* \"#utility.yul\":2828:2950   */\n      tag_156\n      jumpi\n        /* \"#utility.yul\":2869:2948   */\n      tag_157\n      tag_87\n      jump\t// in\n    tag_157:\n        /* \"#utility.yul\":2828:2950   */\n    tag_156:\n        /* \"#utility.yul\":2986:2992   */\n      dup2\n        /* \"#utility.yul\":2973:2993   */\n      calldataload\n        /* \"#utility.yul\":3011:3090   */\n      tag_158\n        /* \"#utility.yul\":3086:3089   */\n      dup5\n        /* \"#utility.yul\":3078:3084   */\n      dup3\n        /* \"#utility.yul\":3071:3075   */\n      0x20\n        /* \"#utility.yul\":3063:3069   */\n      dup7\n        /* \"#utility.yul\":3059:3076   */\n      add\n        /* \"#utility.yul\":3011:3090   */\n      tag_95\n      jump\t// in\n    tag_158:\n        /* \"#utility.yul\":3002:3090   */\n      swap2\n      pop\n        /* \"#utility.yul\":2818:3096   */\n      pop\n        /* \"#utility.yul\":2756:3096   */\n      swap3\n      swap2\n      pop\n      pop\n      jump\t// out\n        /* \"#utility.yul\":3102:3772   */\n    tag_9:\n        /* \"#utility.yul\":3188:3194   */\n      0x00\n        /* \"#utility.yul\":3196:3202   */\n      dup1\n        /* \"#utility.yul\":3245:3247   */\n      0x40\n        /* \"#utility.yul\":3233:3242   */\n      dup4\n        /* \"#utility.yul\":3224:3231   */\n      dup6\n        /* \"#utility.yul\":3220:3243   */\n      sub\n        /* \"#utility.yul\":3216:3248   */\n      slt\n        /* \"#utility.yul\":3213:3332   */\n      iszero\n      tag_160\n      jumpi\n        /* \"#utility.yul\":3251:3330   */\n      tag_161\n      tag_81\n      jump\t// in\n    tag_161:\n        /* \"#utility.yul\":3213:3332   */\n    tag_160:\n        /* \"#utility.yul\":3371:3372   */\n      0x00\n        /* \"#utility.yul\":3396:3457   */\n      tag_162\n        /* \"#utility.yul\":3449:3456   */\n      dup6\n        /* \"#utility.yul\":3440:3446   */\n      dup3\n        /* \"#utility.yul\":3429:3438   */\n      dup7\n        /* \"#utility.yul\":3425:3447   */\n      add\n        /* \"#utility.yul\":3396:3457   */\n      tag_86\n      jump\t// in\n    tag_162:\n        /* \"#utility.yul\":3386:3457   */\n      swap3\n      pop\n        /* \"#utility.yul\":3342:3467   */\n      pop\n        /* \"#utility.yul\":3534:3536   */\n      0x20\n        /* \"#utility.yul\":3523:3532   */\n      dup4\n        /* \"#utility.yul\":3519:3537   */\n      add\n        /* \"#utility.yul\":3506:3538   */\n      calldataload\n        /* \"#utility.yul\":3565:3583   */\n      0xffffffffffffffff\n        /* \"#utility.yul\":3557:3563   */\n      dup2\n        /* \"#utility.yul\":3554:3584   */\n      gt\n        /* \"#utility.yul\":3551:3668   */\n      iszero\n      tag_163\n      jumpi\n        /* \"#utility.yul\":3587:3666   */\n      tag_164\n      tag_82\n      jump\t// in\n    tag_164:\n        /* \"#utility.yul\":3551:3668   */\n    tag_163:\n        /* \"#utility.yul\":3692:3755   */\n      tag_165\n        /* \"#utility.yul\":3747:3754   */\n      dup6\n        /* \"#utility.yul\":3738:3744   */\n      dup3\n        /* \"#utility.yul\":3727:3736   */\n      dup7\n        /* \"#utility.yul\":3723:3745   */\n      add\n        /* \"#utility.yul\":3692:3755   */\n      tag_96\n      jump\t// in\n    tag_165:\n        /* \"#utility.yul\":3682:3755   */\n      swap2\n      pop\n        /* \"#utility.yul\":3477:3765   */\n      pop\n        /* \"#utility.yul\":3102:3772   */\n      swap3\n      pop\n      swap3\n      swap1\n      pop\n      jump\t// out\n        /* \"#utility.yul\":3778:4123   */\n    tag_14:\n        /* \"#utility.yul\":3845:3851   */\n      0x00\n        /* \"#utility.yul\":3894:3896   */\n      0x20\n        /* \"#utility.yul\":3882:3891   */\n      dup3\n        /* \"#utility.yul\":3873:3880   */\n      dup5\n        /* \"#utility.yul\":3869:3892   */\n      sub\n        /* \"#utility.yul\":3865:3897   */\n      slt\n        /* \"#utility.yul\":3862:3981   */\n      iszero\n      tag_167\n      jumpi\n        /* \"#utility.yul\":3900:3979   */\n      tag_168\n      tag_81\n      jump\t// in\n    tag_168:\n        /* \"#utility.yul\":3862:3981   */\n    tag_167:\n        /* \"#utility.yul\":4020:4021   */\n      0x00\n        /* \"#utility.yul\":4045:4106   */\n      tag_169\n        /* \"#utility.yul\":4098:4105   */\n      dup5\n        /* \"#utility.yul\":4089:4095   */\n      dup3\n        /* \"#utility.yul\":4078:4087   */\n      dup6\n        /* \"#utility.yul\":4074:4096   */\n      add\n        /* \"#utility.yul\":4045:4106   */\n      tag_86\n      jump\t// in\n    tag_169:\n        /* \"#utility.yul\":4035:4106   */\n      swap2\n      pop\n        /* \"#utility.yul\":3991:4116   */\n      pop\n        /* \"#utility.yul\":3778:4123   */\n      swap3\n      swap2\n      pop\n      pop\n      jump\t// out\n        /* \"#utility.yul\":4129:4206   */\n    tag_97:\n        /* \"#utility.yul\":4166:4173   */\n      0x00\n        /* \"#utility.yul\":4195:4200   */\n      dup2\n        /* \"#utility.yul\":4184:4200   */\n      swap1\n      pop\n        /* \"#utility.yul\":4129:4206   */\n      swap2\n      swap1\n      pop\n      jump\t// out\n        /* \"#utility.yul\":4212:4330   */\n    tag_98:\n        /* \"#utility.yul\":4299:4323   */\n      tag_172\n        /* \"#utility.yul\":4317:4322   */\n      dup2\n        /* \"#utility.yul\":4299:4323   */\n      tag_97\n      jump\t// in\n    tag_172:\n        /* \"#utility.yul\":4294:4297   */\n      dup3\n        /* \"#utility.yul\":4287:4324   */\n      mstore\n        /* \"#utility.yul\":4212:4330   */\n      pop\n      pop\n      jump\t// out\n        /* \"#utility.yul\":4336:4558   */\n    tag_22:\n        /* \"#utility.yul\":4429:4433   */\n      0x00\n        /* \"#utility.yul\":4467:4469   */\n      0x20\n        /* \"#utility.yul\":4456:4465   */\n      dup3\n        /* \"#utility.yul\":4452:4470   */\n      add\n        /* \"#utility.yul\":4444:4470   */\n      swap1\n      pop\n        /* \"#utility.yul\":4480:4551   */\n      tag_174\n        /* \"#utility.yul\":4548:4549   */\n      0x00\n        /* \"#utility.yul\":4537:4546   */\n      dup4\n        /* \"#utility.yul\":4533:4550   */\n      add\n        /* \"#utility.yul\":4524:4530   */\n      dup5\n        /* \"#utility.yul\":4480:4551   */\n      tag_98\n      jump\t// in\n    tag_174:\n        /* \"#utility.yul\":4336:4558   */\n      swap3\n      swap2\n      pop\n      pop\n      jump\t// out\n        /* \"#utility.yul\":4564:4733   */\n    tag_99:\n        /* \"#utility.yul\":4648:4659   */\n      0x00\n        /* \"#utility.yul\":4682:4688   */\n      dup3\n        /* \"#utility.yul\":4677:4680   */\n      dup3\n        /* \"#utility.yul\":4670:4689   */\n      mstore\n        /* \"#utility.yul\":4722:4726   */\n      0x20\n        /* \"#utility.yul\":4717:4720   */\n      dup3\n        /* \"#utility.yul\":4713:4727   */\n      add\n        /* \"#utility.yul\":4698:4727   */\n      swap1\n      pop\n        /* \"#utility.yul\":4564:4733   */\n      swap3\n      swap2\n      pop\n      pop\n      jump\t// out\n        /* \"#utility.yul\":4739:4964   */\n    tag_100:\n        /* \"#utility.yul\":4879:4913   */\n      0x4f6e6c7920746865206f6e7765722063616e2063616c6c20746869732066756e\n        /* \"#utility.yul\":4875:4876   */\n      0x00\n        /* \"#utility.yul\":4867:4873   */\n      dup3\n        /* \"#utility.yul\":4863:4877   */\n      add\n        /* \"#utility.yul\":4856:4914   */\n      mstore\n        /* \"#utility.yul\":4948:4956   */\n      0x6374696f6e2e0000000000000000000000000000000000000000000000000000\n        /* \"#utility.yul\":4943:4945   */\n      0x20\n        /* \"#utility.yul\":4935:4941   */\n      dup3\n        /* \"#utility.yul\":4931:4946   */\n      add\n        /* \"#utility.yul\":4924:4957   */\n      mstore\n        /* \"#utility.yul\":4739:4964   */\n      pop\n      jump\t// out\n        /* \"#utility.yul\":4970:5336   */\n    tag_101:\n        /* \"#utility.yul\":5112:5115   */\n      0x00\n        /* \"#utility.yul\":5133:5200   */\n      tag_178\n        /* \"#utility.yul\":5197:5199   */\n      0x26\n        /* \"#utility.yul\":5192:5195   */\n      dup4\n        /* \"#utility.yul\":5133:5200   */\n      tag_99\n      jump\t// in\n    tag_178:\n        /* \"#utility.yul\":5126:5200   */\n      swap2\n      pop\n        /* \"#utility.yul\":5209:5302   */\n      tag_179\n        /* \"#utility.yul\":5298:5301   */\n      dup3\n        /* \"#utility.yul\":5209:5302   */\n      tag_100\n      jump\t// in\n    tag_179:\n        /* \"#utility.yul\":5327:5329   */\n      0x40\n        /* \"#utility.yul\":5322:5325   */\n      dup3\n        /* \"#utility.yul\":5318:5330   */\n      add\n        /* \"#utility.yul\":5311:5330   */\n      swap1\n      pop\n        /* \"#utility.yul\":4970:5336   */\n      swap2\n      swap1\n      pop\n      jump\t// out\n        /* \"#utility.yul\":5342:5761   */\n    tag_26:\n        /* \"#utility.yul\":5508:5512   */\n      0x00\n        /* \"#utility.yul\":5546:5548   */\n      0x20\n        /* \"#utility.yul\":5535:5544   */\n      dup3\n        /* \"#utility.yul\":5531:5549   */\n      add\n        /* \"#utility.yul\":5523:5549   */\n      swap1\n      pop\n        /* \"#utility.yul\":5595:5604   */\n      dup2\n        /* \"#utility.yul\":5589:5593   */\n      dup2\n        /* \"#utility.yul\":5585:5605   */\n      sub\n        /* \"#utility.yul\":5581:5582   */\n      0x00\n        /* \"#utility.yul\":5570:5579   */\n      dup4\n        /* \"#utility.yul\":5566:5583   */\n      add\n        /* \"#utility.yul\":5559:5606   */\n      mstore\n        /* \"#utility.yul\":5623:5754   */\n      tag_181\n        /* \"#utility.yul\":5749:5753   */\n      dup2\n        /* \"#utility.yul\":5623:5754   */\n      tag_101\n      jump\t// in\n    tag_181:\n        /* \"#utility.yul\":5615:5754   */\n      swap1\n      pop\n        /* \"#utility.yul\":5342:5761   */\n      swap2\n      swap1\n      pop\n      jump\t// out\n        /* \"#utility.yul\":5767:5947   */\n    tag_33:\n        /* \"#utility.yul\":5815:5892   */\n      0x4e487b7100000000000000000000000000000000000000000000000000000000\n        /* \"#utility.yul\":5812:5813   */\n      0x00\n        /* \"#utility.yul\":5805:5893   */\n      mstore\n        /* \"#utility.yul\":5912:5916   */\n      0x32\n        /* \"#utility.yul\":5909:5910   */\n      0x04\n        /* \"#utility.yul\":5902:5917   */\n      mstore\n        /* \"#utility.yul\":5936:5940   */\n      0x24\n        /* \"#utility.yul\":5933:5934   */\n      0x00\n        /* \"#utility.yul\":5926:5941   */\n      revert\n        /* \"#utility.yul\":5953:6052   */\n    tag_102:\n        /* \"#utility.yul\":6005:6011   */\n      0x00\n        /* \"#utility.yul\":6039:6044   */\n      dup2\n        /* \"#utility.yul\":6033:6045   */\n      mload\n        /* \"#utility.yul\":6023:6045   */\n      swap1\n      pop\n        /* \"#utility.yul\":5953:6052   */\n      swap2\n      swap1\n      pop\n      jump\t// out\n        /* \"#utility.yul\":6058:6238   */\n    tag_103:\n        /* \"#utility.yul\":6106:6183   */\n      0x4e487b7100000000000000000000000000000000000000000000000000000000\n        /* \"#utility.yul\":6103:6104   */\n      0x00\n        /* \"#utility.yul\":6096:6184   */\n      mstore\n        /* \"#utility.yul\":6203:6207   */\n      0x22\n        /* \"#utility.yul\":6200:6201   */\n      0x04\n        /* \"#utility.yul\":6193:6208   */\n      mstore\n        /* \"#utility.yul\":6227:6231   */\n      0x24\n        /* \"#utility.yul\":6224:6225   */\n      0x00\n        /* \"#utility.yul\":6217:6232   */\n      revert\n        /* \"#utility.yul\":6244:6564   */\n    tag_73:\n        /* \"#utility.yul\":6288:6294   */\n      0x00\n        /* \"#utility.yul\":6325:6326   */\n      0x02\n        /* \"#utility.yul\":6319:6323   */\n      dup3\n        /* \"#utility.yul\":6315:6327   */\n      div\n        /* \"#utility.yul\":6305:6327   */\n      swap1\n      pop\n        /* \"#utility.yul\":6372:6373   */\n      0x01\n        /* \"#utility.yul\":6366:6370   */\n      dup3\n        /* \"#utility.yul\":6362:6374   */\n      and\n        /* \"#utility.yul\":6393:6411   */\n      dup1\n        /* \"#utility.yul\":6383:6464   */\n      tag_186\n      jumpi\n        /* \"#utility.yul\":6449:6453   */\n      0x7f\n        /* \"#utility.yul\":6441:6447   */\n      dup3\n        /* \"#utility.yul\":6437:6454   */\n      and\n        /* \"#utility.yul\":6427:6454   */\n      swap2\n      pop\n        /* \"#utility.yul\":6383:6464   */\n    tag_186:\n        /* \"#utility.yul\":6511:6513   */\n      0x20\n        /* \"#utility.yul\":6503:6509   */\n      dup3\n        /* \"#utility.yul\":6500:6514   */\n      lt\n        /* \"#utility.yul\":6480:6498   */\n      dup2\n        /* \"#utility.yul\":6477:6515   */\n      sub\n        /* \"#utility.yul\":6474:6558   */\n      tag_187\n      jumpi\n        /* \"#utility.yul\":6530:6548   */\n      tag_188\n      tag_103\n      jump\t// in\n    tag_188:\n        /* \"#utility.yul\":6474:6558   */\n    tag_187:\n        /* \"#utility.yul\":6295:6564   */\n      pop\n        /* \"#utility.yul\":6244:6564   */\n      swap2\n      swap1\n      pop\n      jump\t// out\n        /* \"#utility.yul\":6570:6711   */\n    tag_104:\n        /* \"#utility.yul\":6619:6623   */\n      0x00\n        /* \"#utility.yul\":6642:6645   */\n      dup2\n        /* \"#utility.yul\":6634:6645   */\n      swap1\n      pop\n        /* \"#utility.yul\":6665:6668   */\n      dup2\n        /* \"#utility.yul\":6662:6663   */\n      0x00\n        /* \"#utility.yul\":6655:6669   */\n      mstore\n        /* \"#utility.yul\":6699:6703   */\n      0x20\n        /* \"#utility.yul\":6696:6697   */\n      0x00\n        /* \"#utility.yul\":6686:6704   */\n      keccak256\n        /* \"#utility.yul\":6678:6704   */\n      swap1\n      pop\n        /* \"#utility.yul\":6570:6711   */\n      swap2\n      swap1\n      pop\n      jump\t// out\n        /* \"#utility.yul\":6717:6810   */\n    tag_105:\n        /* \"#utility.yul\":6754:6760   */\n      0x00\n        /* \"#utility.yul\":6801:6803   */\n      0x20\n        /* \"#utility.yul\":6796:6798   */\n      0x1f\n        /* \"#utility.yul\":6789:6794   */\n      dup4\n        /* \"#utility.yul\":6785:6799   */\n      add\n        /* \"#utility.yul\":6781:6804   */\n      div\n        /* \"#utility.yul\":6771:6804   */\n      swap1\n      pop\n        /* \"#utility.yul\":6717:6810   */\n      swap2\n      swap1\n      pop\n      jump\t// out\n        /* \"#utility.yul\":6816:6923   */\n    tag_106:\n        /* \"#utility.yul\":6860:6868   */\n      0x00\n        /* \"#utility.yul\":6910:6915   */\n      dup3\n        /* \"#utility.yul\":6904:6908   */\n      dup3\n        /* \"#utility.yul\":6900:6916   */\n      shl\n        /* \"#utility.yul\":6879:6916   */\n      swap1\n      pop\n        /* \"#utility.yul\":6816:6923   */\n      swap3\n      swap2\n      pop\n      pop\n      jump\t// out\n        /* \"#utility.yul\":6929:7322   */\n    tag_107:\n        /* \"#utility.yul\":6998:7004   */\n      0x00\n        /* \"#utility.yul\":7048:7049   */\n      0x08\n        /* \"#utility.yul\":7036:7046   */\n      dup4\n        /* \"#utility.yul\":7032:7050   */\n      mul\n        /* \"#utility.yul\":7071:7168   */\n      tag_193\n        /* \"#utility.yul\":7101:7167   */\n      0xffffffffffffffffffffffffffffffffffffffffffffffffffffffffffffffff\n        /* \"#utility.yul\":7090:7099   */\n      dup3\n        /* \"#utility.yul\":7071:7168   */\n      tag_106\n      jump\t// in\n    tag_193:\n        /* \"#utility.yul\":7189:7228   */\n      tag_194\n        /* \"#utility.yul\":7219:7227   */\n      dup7\n        /* \"#utility.yul\":7208:7217   */\n      dup4\n        /* \"#utility.yul\":7189:7228   */\n      tag_106\n      jump\t// in\n    tag_194:\n        /* \"#utility.yul\":7177:7228   */\n      swap6\n      pop\n        /* \"#utility.yul\":7261:7265   */\n      dup1\n        /* \"#utility.yul\":7257:7266   */\n      not\n        /* \"#utility.yul\":7250:7255   */\n      dup5\n        /* \"#utility.yul\":7246:7267   */\n      and\n        /* \"#utility.yul\":7237:7267   */\n      swap4\n      pop\n        /* \"#utility.yul\":7310:7314   */\n      dup1\n        /* \"#utility.yul\":7300:7308   */\n      dup7\n        /* \"#utility.yul\":7296:7315   */\n      and\n        /* \"#utility.yul\":7289:7294   */\n      dup5\n        /* \"#utility.yul\":7286:7316   */\n      or\n        /* \"#utility.yul\":7276:7316   */\n      swap3\n      pop\n        /* \"#utility.yul\":7005:7322   */\n      pop\n      pop\n        /* \"#utility.yul\":6929:7322   */\n      swap4\n      swap3\n      pop\n      pop\n      pop\n      jump\t// out\n        /* \"#utility.yul\":7328:7388   */\n    tag_108:\n        /* \"#utility.yul\":7356:7359   */\n      0x00\n        /* \"#utility.yul\":7377:7382   */\n      dup2\n        /* \"#utility.yul\":7370:7382   */\n      swap1\n      pop\n        /* \"#utility.yul\":7328:7388   */\n      swap2\n      swap1\n      pop\n      jump\t// out\n        /* \"#utility.yul\":7394:7536   */\n    tag_109:\n        /* \"#utility.yul\":7444:7453   */\n      0x00\n        /* \"#utility.yul\":7477:7530   */\n      tag_197\n        /* \"#utility.yul\":7495:7529   */\n      tag_198\n        /* \"#utility.yul\":7504:7528   */\n      tag_199\n        /* \"#utility.yul\":7522:7527   */\n      dup5\n        /* \"#utility.yul\":7504:7528   */\n      tag_97\n      jump\t// in\n    tag_199:\n        /* \"#utility.yul\":7495:7529   */\n      tag_108\n      jump\t// in\n    tag_198:\n        /* \"#utility.yul\":7477:7530   */\n      tag_97\n      jump\t// in\n    tag_197:\n        /* \"#utility.yul\":7464:7530   */\n      swap1\n      pop\n        /* \"#utility.yul\":7394:7536   */\n      swap2\n      swap1\n      pop\n      jump\t// out\n        /* \"#utility.yul\":7542:7617   */\n    tag_110:\n        /* \"#utility.yul\":7585:7588   */\n      0x00\n        /* \"#utility.yul\":7606:7611   */\n      dup2\n        /* \"#utility.yul\":7599:7611   */\n      swap1\n      pop\n        /* \"#utility.yul\":7542:7617   */\n      swap2\n      swap1\n      pop\n      jump\t// out\n        /* \"#utility.yul\":7623:7892   */\n    tag_111:\n        /* \"#utility.yul\":7733:7772   */\n      tag_202\n        /* \"#utility.yul\":7764:7771   */\n      dup4\n        /* \"#utility.yul\":7733:7772   */\n      tag_109\n      jump\t// in\n    tag_202:\n        /* \"#utility.yul\":7794:7885   */\n      tag_203\n        /* \"#utility.yul\":7843:7884   */\n      tag_204\n        /* \"#utility.yul\":7867:7883   */\n      dup3\n        /* \"#utility.yul\":7843:7884   */\n      tag_110\n      jump\t// in\n    tag_204:\n        /* \"#utility.yul\":7835:7841   */\n      dup5\n        /* \"#utility.yul\":7828:7832   */\n      dup5\n        /* \"#utility.yul\":7822:7833   */\n      sload\n        /* \"#utility.yul\":7794:7885   */\n      tag_107\n      jump\t// in\n    tag_203:\n        /* \"#utility.yul\":7788:7792   */\n      dup3\n        /* \"#utility.yul\":7781:7886   */\n      sstore\n        /* \"#utility.yul\":7699:7892   */\n      pop\n        /* \"#utility.yul\":7623:7892   */\n      pop\n      pop\n      pop\n      jump\t// out\n        /* \"#utility.yul\":7898:7971   */\n    tag_112:\n        /* \"#utility.yul\":7943:7946   */\n      0x00\n        /* \"#utility.yul\":7898:7971   */\n      swap1\n      jump\t// out\n        /* \"#utility.yul\":7977:8166   */\n    tag_113:\n        /* \"#utility.yul\":8054:8086   */\n      tag_207\n      tag_112\n      jump\t// in\n    tag_207:\n        /* \"#utility.yul\":8095:8160   */\n      tag_208\n        /* \"#utility.yul\":8153:8159   */\n      dup2\n        /* \"#utility.yul\":8145:8151   */\n      dup5\n        /* \"#utility.yul\":8139:8143   */\n      dup5\n        /* \"#utility.yul\":8095:8160   */\n      tag_111\n      jump\t// in\n    tag_208:\n        /* \"#utility.yul\":8030:8166   */\n      pop\n        /* \"#utility.yul\":7977:8166   */\n      pop\n      pop\n      jump\t// out\n        /* \"#utility.yul\":8172:8358   */\n    tag_114:\n        /* \"#utility.yul\":8232:8352   */\n    tag_210:\n        /* \"#utility.yul\":8249:8252   */\n      dup2\n        /* \"#utility.yul\":8242:8247   */\n      dup2\n        /* \"#utility.yul\":8239:8253   */\n      lt\n        /* \"#utility.yul\":8232:8352   */\n      iszero\n      tag_212\n      jumpi\n        /* \"#utility.yul\":8303:8342   */\n      tag_213\n        /* \"#utility.yul\":8340:8341   */\n      0x00\n        /* \"#utility.yul\":8333:8338   */\n      dup3\n        /* \"#utility.yul\":8303:8342   */\n      tag_113\n      jump\t// in\n    tag_213:\n        /* \"#utility.yul\":8276:8277   */\n      0x01\n        /* \"#utility.yul\":8269:8274   */\n      dup2\n        /* \"#utility.yul\":8265:8278   */\n      add\n        /* \"#utility.yul\":8256:8278   */\n      swap1\n      pop\n        /* \"#utility.yul\":8232:8352   */\n      jump(tag_210)\n    tag_212:\n        /* \"#utility.yul\":8172:8358   */\n      pop\n      pop\n      jump\t// out\n        /* \"#utility.yul\":8364:8907   */\n    tag_115:\n        /* \"#utility.yul\":8465:8467   */\n      0x1f\n        /* \"#utility.yul\":8460:8463   */\n      dup3\n        /* \"#utility.yul\":8457:8468   */\n      gt\n        /* \"#utility.yul\":8454:8900   */\n      iszero\n      tag_215\n      jumpi\n        /* \"#utility.yul\":8499:8537   */\n      tag_216\n        /* \"#utility.yul\":8531:8536   */\n      dup2\n        /* \"#utility.yul\":8499:8537   */\n      tag_104\n      jump\t// in\n    tag_216:\n        /* \"#utility.yul\":8583:8612   */\n      tag_217\n        /* \"#utility.yul\":8601:8611   */\n      dup5\n        /* \"#utility.yul\":8583:8612   */\n      tag_105\n      jump\t// in\n    tag_217:\n        /* \"#utility.yul\":8573:8581   */\n      dup2\n        /* \"#utility.yul\":8569:8613   */\n      add\n        /* \"#utility.yul\":8766:8768   */\n      0x20\n        /* \"#utility.yul\":8754:8764   */\n      dup6\n        /* \"#utility.yul\":8751:8769   */\n      lt\n        /* \"#utility.yul\":8748:8797   */\n      iszero\n      tag_218\n      jumpi\n        /* \"#utility.yul\":8787:8795   */\n      dup2\n        /* \"#utility.yul\":8772:8795   */\n      swap1\n      pop\n        /* \"#utility.yul\":8748:8797   */\n    tag_218:\n        /* \"#utility.yul\":8810:8890   */\n      tag_219\n        /* \"#utility.yul\":8866:8888   */\n      tag_220\n        /* \"#utility.yul\":8884:8887   */\n      dup6\n        /* \"#utility.yul\":8866:8888   */\n      tag_105\n      jump\t// in\n    tag_220:\n        /* \"#utility.yul\":8856:8864   */\n      dup4\n        /* \"#utility.yul\":8852:8889   */\n      add\n        /* \"#utility.yul\":8839:8850   */\n      dup3\n        /* \"#utility.yul\":8810:8890   */\n      tag_114\n      jump\t// in\n    tag_219:\n        /* \"#utility.yul\":8469:8900   */\n      pop\n      pop\n        /* \"#utility.yul\":8454:8900   */\n    tag_215:\n        /* \"#utility.yul\":8364:8907   */\n      pop\n      pop\n      pop\n      jump\t// out\n        /* \"#utility.yul\":8913:9030   */\n    tag_116:\n        /* \"#utility.yul\":8967:8975   */\n      0x00\n        /* \"#utility.yul\":9017:9022   */\n      dup3\n        /* \"#utility.yul\":9011:9015   */\n      dup3\n        /* \"#utility.yul\":9007:9023   */\n      shr\n        /* \"#utility.yul\":8986:9023   */\n      swap1\n      pop\n        /* \"#utility.yul\":8913:9030   */\n      swap3\n      swap2\n      pop\n      pop\n      jump\t// out\n        /* \"#utility.yul\":9036:9205   */\n    tag_117:\n        /* \"#utility.yul\":9080:9086   */\n      0x00\n        /* \"#utility.yul\":9113:9164   */\n      tag_223\n        /* \"#utility.yul\":9161:9162   */\n      0x00\n        /* \"#utility.yul\":9157:9163   */\n      not\n        /* \"#utility.yul\":9149:9154   */\n      dup5\n        /* \"#utility.yul\":9146:9147   */\n      0x08\n        /* \"#utility.yul\":9142:9155   */\n      mul\n        /* \"#utility.yul\":9113:9164   */\n      tag_116\n      jump\t// in\n    tag_223:\n        /* \"#utility.yul\":9109:9165   */\n      not\n        /* \"#utility.yul\":9194:9198   */\n      dup1\n        /* \"#utility.yul\":9188:9192   */\n      dup4\n        /* \"#utility.yul\":9184:9199   */\n      and\n        /* \"#utility.yul\":9174:9199   */\n      swap2\n      pop\n        /* \"#utility.yul\":9087:9205   */\n      pop\n        /* \"#utility.yul\":9036:9205   */\n      swap3\n      swap2\n      pop\n      pop\n      jump\t// out\n        /* \"#utility.yul\":9210:9505   */\n    tag_118:\n        /* \"#utility.yul\":9286:9290   */\n      0x00\n        /* \"#utility.yul\":9432:9461   */\n      tag_225\n        /* \"#utility.yul\":9457:9460   */\n      dup4\n        /* \"#utility.yul\":9451:9455   */\n      dup4\n        /* \"#utility.yul\":9432:9461   */\n      tag_117\n      jump\t// in\n    tag_225:\n        /* \"#utility.yul\":9424:9461   */\n      swap2\n      pop\n        /* \"#utility.yul\":9494:9497   */\n      dup3\n        /* \"#utility.yul\":9491:9492   */\n      0x02\n        /* \"#utility.yul\":9487:9498   */\n      mul\n        /* \"#utility.yul\":9481:9485   */\n      dup3\n        /* \"#utility.yul\":9478:9499   */\n      or\n        /* \"#utility.yul\":9470:9499   */\n      swap1\n      pop\n        /* \"#utility.yul\":9210:9505   */\n      swap3\n      swap2\n      pop\n      pop\n      jump\t// out\n        /* \"#utility.yul\":9510:10905   */\n    tag_39:\n        /* \"#utility.yul\":9627:9664   */\n      tag_227\n        /* \"#utility.yul\":9660:9663   */\n      dup3\n        /* \"#utility.yul\":9627:9664   */\n      tag_102\n      jump\t// in\n    tag_227:\n        /* \"#utility.yul\":9729:9747   */\n      0xffffffffffffffff\n        /* \"#utility.yul\":9721:9727   */\n      dup2\n        /* \"#utility.yul\":9718:9748   */\n      gt\n        /* \"#utility.yul\":9715:9771   */\n      iszero\n      tag_228\n      jumpi\n        /* \"#utility.yul\":9751:9769   */\n      tag_229\n      tag_90\n      jump\t// in\n    tag_229:\n        /* \"#utility.yul\":9715:9771   */\n    tag_228:\n        /* \"#utility.yul\":9795:9833   */\n      tag_230\n        /* \"#utility.yul\":9827:9831   */\n      dup3\n        /* \"#utility.yul\":9821:9832   */\n      sload\n        /* \"#utility.yul\":9795:9833   */\n      tag_73\n      jump\t// in\n    tag_230:\n        /* \"#utility.yul\":9880:9947   */\n      tag_231\n        /* \"#utility.yul\":9940:9946   */\n      dup3\n        /* \"#utility.yul\":9932:9938   */\n      dup3\n        /* \"#utility.yul\":9926:9930   */\n      dup6\n        /* \"#utility.yul\":9880:9947   */\n      tag_115\n      jump\t// in\n    tag_231:\n        /* \"#utility.yul\":9974:9975   */\n      0x00\n        /* \"#utility.yul\":9998:10002   */\n      0x20\n        /* \"#utility.yul\":9985:10002   */\n      swap1\n      pop\n        /* \"#utility.yul\":10030:10032   */\n      0x1f\n        /* \"#utility.yul\":10022:10028   */\n      dup4\n        /* \"#utility.yul\":10019:10033   */\n      gt\n        /* \"#utility.yul\":10047:10048   */\n      0x01\n        /* \"#utility.yul\":10042:10660   */\n      dup2\n      eq\n      tag_233\n      jumpi\n        /* \"#utility.yul\":10704:10705   */\n      0x00\n        /* \"#utility.yul\":10721:10727   */\n      dup5\n        /* \"#utility.yul\":10718:10795   */\n      iszero\n      tag_234\n      jumpi\n        /* \"#utility.yul\":10770:10779   */\n      dup3\n        /* \"#utility.yul\":10765:10768   */\n      dup8\n        /* \"#utility.yul\":10761:10780   */\n      add\n        /* \"#utility.yul\":10755:10781   */\n      mload\n        /* \"#utility.yul\":10746:10781   */\n      swap1\n      pop\n        /* \"#utility.yul\":10718:10795   */\n    tag_234:\n        /* \"#utility.yul\":10821:10888   */\n      tag_235\n        /* \"#utility.yul\":10881:10887   */\n      dup6\n        /* \"#utility.yul\":10874:10879   */\n      dup3\n        /* \"#utility.yul\":10821:10888   */\n      tag_118\n      jump\t// in\n    tag_235:\n        /* \"#utility.yul\":10815:10819   */\n      dup7\n        /* \"#utility.yul\":10808:10889   */\n      sstore\n        /* \"#utility.yul\":10677:10899   */\n      pop\n        /* \"#utility.yul\":10012:10899   */\n      jump(tag_232)\n        /* \"#utility.yul\":10042:10660   */\n    tag_233:\n        /* \"#utility.yul\":10094:10098   */\n      0x1f\n        /* \"#utility.yul\":10090:10099   */\n      not\n        /* \"#utility.yul\":10082:10088   */\n      dup5\n        /* \"#utility.yul\":10078:10100   */\n      and\n        /* \"#utility.yul\":10128:10165   */\n      tag_236\n        /* \"#utility.yul\":10160:10164   */\n      dup7\n        /* \"#utility.yul\":10128:10165   */\n      tag_104\n      jump\t// in\n    tag_236:\n        /* \"#utility.yul\":10187:10188   */\n      0x00\n        /* \"#utility.yul\":10201:10409   */\n    tag_237:\n        /* \"#utility.yul\":10215:10222   */\n      dup3\n        /* \"#utility.yul\":10212:10213   */\n      dup2\n        /* \"#utility.yul\":10209:10223   */\n      lt\n        /* \"#utility.yul\":10201:10409   */\n      iszero\n      tag_239\n      jumpi\n        /* \"#utility.yul\":10294:10303   */\n      dup5\n        /* \"#utility.yul\":10289:10292   */\n      dup10\n        /* \"#utility.yul\":10285:10304   */\n      add\n        /* \"#utility.yul\":10279:10305   */\n      mload\n        /* \"#utility.yul\":10271:10277   */\n      dup3\n        /* \"#utility.yul\":10264:10306   */\n      sstore\n        /* \"#utility.yul\":10345:10346   */\n      0x01\n        /* \"#utility.yul\":10337:10343   */\n      dup3\n        /* \"#utility.yul\":10333:10347   */\n      add\n        /* \"#utility.yul\":10323:10347   */\n      swap2\n      pop\n        /* \"#utility.yul\":10392:10394   */\n      0x20\n        /* \"#utility.yul\":10381:10390   */\n      dup6\n        /* \"#utility.yul\":10377:10395   */\n      add\n        /* \"#utility.yul\":10364:10395   */\n      swap5\n      pop\n        /* \"#utility.yul\":10238:10242   */\n      0x20\n        /* \"#utility.yul\":10235:10236   */\n      dup2\n        /* \"#utility.yul\":10231:10243   */\n      add\n        /* \"#utility.yul\":10226:10243   */\n      swap1\n      pop\n        /* \"#utility.yul\":10201:10409   */\n      jump(tag_237)\n    tag_239:\n        /* \"#utility.yul\":10437:10443   */\n      dup7\n        /* \"#utility.yul\":10428:10435   */\n      dup4\n        /* \"#utility.yul\":10425:10444   */\n      lt\n        /* \"#utility.yul\":10422:10601   */\n      iszero\n      tag_240\n      jumpi\n        /* \"#utility.yul\":10495:10504   */\n      dup5\n        /* \"#utility.yul\":10490:10493   */\n      dup10\n        /* \"#utility.yul\":10486:10505   */\n      add\n        /* \"#utility.yul\":10480:10506   */\n      mload\n        /* \"#utility.yul\":10538:10586   */\n      tag_241\n        /* \"#utility.yul\":10580:10584   */\n      0x1f\n        /* \"#utility.yul\":10572:10578   */\n      dup10\n        /* \"#utility.yul\":10568:10585   */\n      and\n        /* \"#utility.yul\":10557:10566   */\n      dup3\n        /* \"#utility.yul\":10538:10586   */\n      tag_117\n      jump\t// in\n    tag_241:\n        /* \"#utility.yul\":10530:10536   */\n      dup4\n        /* \"#utility.yul\":10523:10587   */\n      sstore\n        /* \"#utility.yul\":10445:10601   */\n      pop\n        /* \"#utility.yul\":10422:10601   */\n    tag_240:\n        /* \"#utility.yul\":10647:10648   */\n      0x01\n        /* \"#utility.yul\":10643:10644   */\n      0x02\n        /* \"#utility.yul\":10635:10641   */\n      dup9\n        /* \"#utility.yul\":10631:10645   */\n      mul\n        /* \"#utility.yul\":10627:10649   */\n      add\n        /* \"#utility.yul\":10621:10625   */\n      dup9\n        /* \"#utility.yul\":10614:10650   */\n      sstore\n        /* \"#utility.yul\":10049:10660   */\n      pop\n      pop\n      pop\n        /* \"#utility.yul\":10012:10899   */\n    tag_232:\n      pop\n        /* \"#utility.yul\":9602:10905   */\n      pop\n      pop\n      pop\n        /* \"#utility.yul\":9510:10905   */\n      pop\n      pop\n      jump\t// out\n        /* \"#utility.yul\":10911:11091   */\n    tag_119:\n        /* \"#utility.yul\":10959:11036   */\n      0x4e487b7100000000000000000000000000000000000000000000000000000000\n        /* \"#utility.yul\":10956:10957   */\n      0x00\n        /* \"#utility.yul\":10949:11037   */\n      mstore\n        /* \"#utility.yul\":11056:11060   */\n      0x11\n        /* \"#utility.yul\":11053:11054   */\n      0x04\n        /* \"#utility.yul\":11046:11061   */\n      mstore\n        /* \"#utility.yul\":11080:11084   */\n      0x24\n        /* \"#utility.yul\":11077:11078   */\n      0x00\n        /* \"#utility.yul\":11070:11085   */\n      revert\n        /* \"#utility.yul\":11097:11291   */\n    tag_53:\n        /* \"#utility.yul\":11137:11141   */\n      0x00\n        /* \"#utility.yul\":11157:11177   */\n      tag_244\n        /* \"#utility.yul\":11175:11176   */\n      dup3\n        /* \"#utility.yul\":11157:11177   */\n      tag_97\n      jump\t// in\n    tag_244:\n        /* \"#utility.yul\":11152:11177   */\n      swap2\n      pop\n        /* \"#utility.yul\":11191:11211   */\n      tag_245\n        /* \"#utility.yul\":11209:11210   */\n      dup4\n        /* \"#utility.yul\":11191:11211   */\n      tag_97\n      jump\t// in\n    tag_245:\n        /* \"#utility.yul\":11186:11211   */\n      swap3\n      pop\n        /* \"#utility.yul\":11235:11236   */\n      dup3\n        /* \"#utility.yul\":11232:11233   */\n      dup3\n        /* \"#utility.yul\":11228:11237   */\n      sub\n        /* \"#utility.yul\":11220:11237   */\n      swap1\n      pop\n        /* \"#utility.yul\":11259:11260   */\n      dup2\n        /* \"#utility.yul\":11253:11257   */\n      dup2\n        /* \"#utility.yul\":11250:11261   */\n      gt\n        /* \"#utility.yul\":11247:11284   */\n      iszero\n      tag_246\n      jumpi\n        /* \"#utility.yul\":11264:11282   */\n      tag_247\n      tag_119\n      jump\t// in\n    tag_247:\n        /* \"#utility.yul\":11247:11284   */\n    tag_246:\n        /* \"#utility.yul\":11097:11291   */\n      swap3\n      swap2\n      pop\n      pop\n      jump\t// out\n        /* \"#utility.yul\":11297:11488   */\n    tag_55:\n        /* \"#utility.yul\":11337:11340   */\n      0x00\n        /* \"#utility.yul\":11356:11376   */\n      tag_249\n        /* \"#utility.yul\":11374:11375   */\n      dup3\n        /* \"#utility.yul\":11356:11376   */\n      tag_97\n      jump\t// in\n    tag_249:\n        /* \"#utility.yul\":11351:11376   */\n      swap2\n      pop\n        /* \"#utility.yul\":11390:11410   */\n      tag_250\n        /* \"#utility.yul\":11408:11409   */\n      dup4\n        /* \"#utility.yul\":11390:11410   */\n      tag_97\n      jump\t// in\n    tag_250:\n        /* \"#utility.yul\":11385:11410   */\n      swap3\n      pop\n        /* \"#utility.yul\":11433:11434   */\n      dup3\n        /* \"#utility.yul\":11430:11431   */\n      dup3\n        /* \"#utility.yul\":11426:11435   */\n      add\n        /* \"#utility.yul\":11419:11435   */\n      swap1\n      pop\n        /* \"#utility.yul\":11454:11457   */\n      dup1\n        /* \"#utility.yul\":11451:11452   */\n      dup3\n        /* \"#utility.yul\":11448:11458   */\n      gt\n        /* \"#utility.yul\":11445:11481   */\n      iszero\n      tag_251\n      jumpi\n        /* \"#utility.yul\":11461:11479   */\n      tag_252\n      tag_119\n      jump\t// in\n    tag_252:\n        /* \"#utility.yul\":11445:11481   */\n    tag_251:\n        /* \"#utility.yul\":11297:11488   */\n      swap3\n      swap2\n      pop\n      pop\n      jump\t// out\n        /* \"#utility.yul\":11494:11643   */\n    tag_120:\n        /* \"#utility.yul\":11543:11549   */\n      0x00\n        /* \"#utility.yul\":11577:11582   */\n      dup2\n        /* \"#utility.yul\":11571:11583   */\n      sload\n        /* \"#utility.yul\":11561:11583   */\n      swap1\n      pop\n        /* \"#utility.yul\":11603:11636   */\n      tag_254\n        /* \"#utility.yul\":11629:11635   */\n      dup2\n        /* \"#utility.yul\":11603:11636   */\n      tag_73\n      jump\t// in\n    tag_254:\n        /* \"#utility.yul\":11593:11636   */\n      swap1\n      pop\n        /* \"#utility.yul\":11494:11643   */\n      swap2\n      swap1\n      pop\n      jump\t// out\n        /* \"#utility.yul\":11649:13100   */\n    tag_63:\n        /* \"#utility.yul\":11760:11763   */\n      dup2\n        /* \"#utility.yul\":11754:11758   */\n      dup2\n        /* \"#utility.yul\":11751:11764   */\n      sub\n        /* \"#utility.yul\":11748:11774   */\n      tag_256\n      jumpi\n        /* \"#utility.yul\":11767:11772   */\n      pop\n      pop\n      jump(tag_255)\n        /* \"#utility.yul\":11748:11774   */\n    tag_256:\n        /* \"#utility.yul\":11798:11832   */\n      tag_257\n        /* \"#utility.yul\":11828:11831   */\n      dup3\n        /* \"#utility.yul\":11798:11832   */\n      tag_120\n      jump\t// in\n    tag_257:\n        /* \"#utility.yul\":11897:11915   */\n      0xffffffffffffffff\n        /* \"#utility.yul\":11889:11895   */\n      dup2\n        /* \"#utility.yul\":11886:11916   */\n      gt\n        /* \"#utility.yul\":11883:11939   */\n      iszero\n      tag_258\n      jumpi\n        /* \"#utility.yul\":11919:11937   */\n      tag_259\n      tag_90\n      jump\t// in\n    tag_259:\n        /* \"#utility.yul\":11883:11939   */\n    tag_258:\n        /* \"#utility.yul\":11963:12001   */\n      tag_260\n        /* \"#utility.yul\":11995:11999   */\n      dup3\n        /* \"#utility.yul\":11989:12000   */\n      sload\n        /* \"#utility.yul\":11963:12001   */\n      tag_73\n      jump\t// in\n    tag_260:\n        /* \"#utility.yul\":12048:12115   */\n      tag_261\n        /* \"#utility.yul\":12108:12114   */\n      dup3\n        /* \"#utility.yul\":12100:12106   */\n      dup3\n        /* \"#utility.yul\":12094:12098   */\n      dup6\n        /* \"#utility.yul\":12048:12115   */\n      tag_115\n      jump\t// in\n    tag_261:\n        /* \"#utility.yul\":12142:12143   */\n      0x00\n        /* \"#utility.yul\":12171:12173   */\n      0x1f\n        /* \"#utility.yul\":12163:12169   */\n      dup4\n        /* \"#utility.yul\":12160:12174   */\n      gt\n        /* \"#utility.yul\":12188:12189   */\n      0x01\n        /* \"#utility.yul\":12183:12855   */\n      dup2\n      eq\n      tag_263\n      jumpi\n        /* \"#utility.yul\":12899:12900   */\n      0x00\n        /* \"#utility.yul\":12916:12922   */\n      dup5\n        /* \"#utility.yul\":12913:12990   */\n      iszero\n      tag_264\n      jumpi\n        /* \"#utility.yul\":12965:12974   */\n      dup3\n        /* \"#utility.yul\":12960:12963   */\n      dup8\n        /* \"#utility.yul\":12956:12975   */\n      add\n        /* \"#utility.yul\":12950:12976   */\n      sload\n        /* \"#utility.yul\":12941:12976   */\n      swap1\n      pop\n        /* \"#utility.yul\":12913:12990   */\n    tag_264:\n        /* \"#utility.yul\":13016:13083   */\n      tag_265\n        /* \"#utility.yul\":13076:13082   */\n      dup6\n        /* \"#utility.yul\":13069:13074   */\n      dup3\n        /* \"#utility.yul\":13016:13083   */\n      tag_118\n      jump\t// in\n    tag_265:\n        /* \"#utility.yul\":13010:13014   */\n      dup7\n        /* \"#utility.yul\":13003:13084   */\n      sstore\n        /* \"#utility.yul\":12872:13094   */\n      pop\n        /* \"#utility.yul\":12153:13094   */\n      jump(tag_262)\n        /* \"#utility.yul\":12183:12855   */\n    tag_263:\n        /* \"#utility.yul\":12235:12239   */\n      0x1f\n        /* \"#utility.yul\":12231:12240   */\n      not\n        /* \"#utility.yul\":12223:12229   */\n      dup5\n        /* \"#utility.yul\":12219:12241   */\n      and\n        /* \"#utility.yul\":12261:12297   */\n      tag_266\n        /* \"#utility.yul\":12293:12296   */\n      dup8\n        /* \"#utility.yul\":12261:12297   */\n      tag_104\n      jump\t// in\n    tag_266:\n        /* \"#utility.yul\":12254:12297   */\n      swap7\n      pop\n        /* \"#utility.yul\":12324:12361   */\n      tag_267\n        /* \"#utility.yul\":12356:12360   */\n      dup7\n        /* \"#utility.yul\":12324:12361   */\n      tag_104\n      jump\t// in\n    tag_267:\n        /* \"#utility.yul\":12383:12384   */\n      0x00\n        /* \"#utility.yul\":12397:12604   */\n    tag_268:\n        /* \"#utility.yul\":12411:12418   */\n      dup3\n        /* \"#utility.yul\":12408:12409   */\n      dup2\n        /* \"#utility.yul\":12405:12419   */\n      lt\n        /* \"#utility.yul\":12397:12604   */\n      iszero\n      tag_270\n      jumpi\n        /* \"#utility.yul\":12490:12499   */\n      dup5\n        /* \"#utility.yul\":12485:12488   */\n      dup10\n        /* \"#utility.yul\":12481:12500   */\n      add\n        /* \"#utility.yul\":12475:12501   */\n      sload\n        /* \"#utility.yul\":12467:12473   */\n      dup3\n        /* \"#utility.yul\":12460:12502   */\n      sstore\n        /* \"#utility.yul\":12541:12542   */\n      0x01\n        /* \"#utility.yul\":12533:12539   */\n      dup3\n        /* \"#utility.yul\":12529:12543   */\n      add\n        /* \"#utility.yul\":12519:12543   */\n      swap2\n      pop\n        /* \"#utility.yul\":12588:12589   */\n      0x01\n        /* \"#utility.yul\":12577:12586   */\n      dup6\n        /* \"#utility.yul\":12573:12590   */\n      add\n        /* \"#utility.yul\":12560:12590   */\n      swap5\n      pop\n        /* \"#utility.yul\":12434:12438   */\n      0x20\n        /* \"#utility.yul\":12431:12432   */\n      dup2\n        /* \"#utility.yul\":12427:12439   */\n      add\n        /* \"#utility.yul\":12422:12439   */\n      swap1\n      pop\n        /* \"#utility.yul\":12397:12604   */\n      jump(tag_268)\n    tag_270:\n        /* \"#utility.yul\":12632:12638   */\n      dup7\n        /* \"#utility.yul\":12623:12630   */\n      dup4\n        /* \"#utility.yul\":12620:12639   */\n      lt\n        /* \"#utility.yul\":12617:12796   */\n      iszero\n      tag_271\n      jumpi\n        /* \"#utility.yul\":12690:12699   */\n      dup5\n        /* \"#utility.yul\":12685:12688   */\n      dup10\n        /* \"#utility.yul\":12681:12700   */\n      add\n        /* \"#utility.yul\":12675:12701   */\n      sload\n        /* \"#utility.yul\":12733:12781   */\n      tag_272\n        /* \"#utility.yul\":12775:12779   */\n      0x1f\n        /* \"#utility.yul\":12767:12773   */\n      dup10\n        /* \"#utility.yul\":12763:12780   */\n      and\n        /* \"#utility.yul\":12752:12761   */\n      dup3\n        /* \"#utility.yul\":12733:12781   */\n      tag_117\n      jump\t// in\n    tag_272:\n        /* \"#utility.yul\":12725:12731   */\n      dup4\n        /* \"#utility.yul\":12718:12782   */\n      sstore\n        /* \"#utility.yul\":12640:12796   */\n      pop\n        /* \"#utility.yul\":12617:12796   */\n    tag_271:\n        /* \"#utility.yul\":12842:12843   */\n      0x01\n        /* \"#utility.yul\":12838:12839   */\n      0x02\n        /* \"#utility.yul\":12830:12836   */\n      dup9\n        /* \"#utility.yul\":12826:12840   */\n      mul\n        /* \"#utility.yul\":12822:12844   */\n      add\n        /* \"#utility.yul\":12816:12820   */\n      dup9\n        /* \"#utility.yul\":12809:12845   */\n      sstore\n        /* \"#utility.yul\":12190:12855   */\n      pop\n      pop\n      pop\n        /* \"#utility.yul\":12153:13094   */\n    tag_262:\n      pop\n        /* \"#utility.yul\":11738:13100   */\n      pop\n      pop\n      pop\n        /* \"#utility.yul\":11649:13100   */\n      pop\n      pop\n    tag_255:\n      jump\t// out\n        /* \"#utility.yul\":13106:13286   */\n    tag_66:\n        /* \"#utility.yul\":13154:13231   */\n      0x4e487b7100000000000000000000000000000000000000000000000000000000\n        /* \"#utility.yul\":13151:13152   */\n      0x00\n        /* \"#utility.yul\":13144:13232   */\n      mstore\n        /* \"#utility.yul\":13251:13255   */\n      0x31\n        /* \"#utility.yul\":13248:13249   */\n      0x04\n        /* \"#utility.yul\":13241:13256   */\n      mstore\n        /* \"#utility.yul\":13275:13279   */\n      0x24\n        /* \"#utility.yul\":13272:13273   */\n      0x00\n        /* \"#utility.yul\":13265:13280   */\n      revert\n\n    auxdata: 0xa264697066735822122051bc5f461ba1fc39571bc2a5a8329e9e96762d69e7e585308578f225fc5fcbe864736f6c634300081a0033\n}\n",
				"bytecode": {
					"linkReferences": {},
					"object": "6080604052348015600e575f80fd5b50335f806101000a81548173ffffffffffffffffffffffffffffffffffffffff021916908373ffffffffffffffffffffffffffffffffffffffff160217905550610cf78061005b5f395ff3fe60806040526004361061003e575f3560e01c806325415eaf146100425780636416845c1461006a578063674526bc14610092578063af61ed3d1461009c575b5f80fd5b34801561004d575f80fd5b50610068600480360381019061006391906106b3565b6100c6565b005b348015610075575f80fd5b50610090600480360381019061008b919061070d565b6102b7565b005b61009a6104ab565b005b3480156100a7575f80fd5b506100b06104ad565b6040516100bd9190610750565b60405180910390f35b5f8054906101000a900473ffffffffffffffffffffffffffffffffffffffff1673ffffffffffffffffffffffffffffffffffffffff163373ffffffffffffffffffffffffffffffffffffffff1614610153576040517f08c379a000000000000000000000000000000000000000000000000000000000815260040161014a906107e9565b60405180910390fd5b5f60018080549050106101f7575f5b6001805490508110156101f5578373ffffffffffffffffffffffffffffffffffffffff166001828154811061019a57610199610807565b5b905f5260205f2090600202015f015f9054906101000a900473ffffffffffffffffffffffffffffffffffffffff1673ffffffffffffffffffffffffffffffffffffffff16036101e857600191505b8080600101915050610162565b505b5f1515811515036102b257600160405180604001604052808573ffffffffffffffffffffffffffffffffffffffff16815260200184815250908060018154018082558091505060019003905f5260205f2090600202015f909190919091505f820151815f015f6101000a81548173ffffffffffffffffffffffffffffffffffffffff021916908373ffffffffffffffffffffffffffffffffffffffff16021790555060208201518160010190816102ae9190610a38565b5050505b505050565b60018080549050106104a8575f5b6001805490508110156104a6578173ffffffffffffffffffffffffffffffffffffffff16600182815481106102fd576102fc610807565b5b905f5260205f2090600202015f015f9054906101000a900473ffffffffffffffffffffffffffffffffffffffff1673ffffffffffffffffffffffffffffffffffffffff1603610499575f8190505b6001808054905061035c9190610b34565b81101561043657600180826103719190610b67565b8154811061038257610381610807565b5b905f5260205f209060020201600182815481106103a2576103a1610807565b5b905f5260205f2090600202015f82015f9054906101000a900473ffffffffffffffffffffffffffffffffffffffff16815f015f6101000a81548173ffffffffffffffffffffffffffffffffffffffff021916908373ffffffffffffffffffffffffffffffffffffffff160217905550600182018160010190816104259190610baf565b50905050808060010191505061034b565b50600180548061044957610448610c94565b5b600190038181905f5260205f2090600202015f8082015f6101000a81549073ffffffffffffffffffffffffffffffffffffffff0219169055600182015f61049091906104b4565b505090556104a6565b80806001019150506102c5565b505b50565b565b5f47905090565b5080546104c09061086b565b5f825580601f106104d157506104ee565b601f0160209004905f5260205f20908101906104ed91906104f1565b5b50565b5b80821115610508575f815f9055506001016104f2565b5090565b5f604051905090565b5f80fd5b5f80fd5b5f73ffffffffffffffffffffffffffffffffffffffff82169050919050565b5f6105468261051d565b9050919050565b6105568161053c565b8114610560575f80fd5b50565b5f813590506105718161054d565b92915050565b5f80fd5b5f80fd5b5f601f19601f8301169050919050565b7f4e487b71000000000000000000000000000000000000000000000000000000005f52604160045260245ffd5b6105c58261057f565b810181811067ffffffffffffffff821117156105e4576105e361058f565b5b80604052505050565b5f6105f661050c565b905061060282826105bc565b919050565b5f67ffffffffffffffff8211156106215761062061058f565b5b61062a8261057f565b9050602081019050919050565b828183375f83830152505050565b5f61065761065284610607565b6105ed565b9050828152602081018484840111156106735761067261057b565b5b61067e848285610637565b509392505050565b5f82601f83011261069a57610699610577565b5b81356106aa848260208601610645565b91505092915050565b5f80604083850312156106c9576106c8610515565b5b5f6106d685828601610563565b925050602083013567ffffffffffffffff8111156106f7576106f6610519565b5b61070385828601610686565b9150509250929050565b5f6020828403121561072257610721610515565b5b5f61072f84828501610563565b91505092915050565b5f819050919050565b61074a81610738565b82525050565b5f6020820190506107635f830184610741565b92915050565b5f82825260208201905092915050565b7f4f6e6c7920746865206f6e7765722063616e2063616c6c20746869732066756e5f8201527f6374696f6e2e0000000000000000000000000000000000000000000000000000602082015250565b5f6107d3602683610769565b91506107de82610779565b604082019050919050565b5f6020820190508181035f830152610800816107c7565b9050919050565b7f4e487b71000000000000000000000000000000000000000000000000000000005f52603260045260245ffd5b5f81519050919050565b7f4e487b71000000000000000000000000000000000000000000000000000000005f52602260045260245ffd5b5f600282049050600182168061088257607f821691505b6020821081036108955761089461083e565b5b50919050565b5f819050815f5260205f209050919050565b5f6020601f8301049050919050565b5f82821b905092915050565b5f600883026108f77fffffffffffffffffffffffffffffffffffffffffffffffffffffffffffffffff826108bc565b61090186836108bc565b95508019841693508086168417925050509392505050565b5f819050919050565b5f61093c61093761093284610738565b610919565b610738565b9050919050565b5f819050919050565b61095583610922565b61096961096182610943565b8484546108c8565b825550505050565b5f90565b61097d610971565b61098881848461094c565b505050565b5b818110156109ab576109a05f82610975565b60018101905061098e565b5050565b601f8211156109f0576109c18161089b565b6109ca846108ad565b810160208510156109d9578190505b6109ed6109e5856108ad565b83018261098d565b50505b505050565b5f82821c905092915050565b5f610a105f19846008026109f5565b1980831691505092915050565b5f610a288383610a01565b9150826002028217905092915050565b610a4182610834565b67ffffffffffffffff811115610a5a57610a5961058f565b5b610a64825461086b565b610a6f8282856109af565b5f60209050601f831160018114610aa0575f8415610a8e578287015190505b610a988582610a1d565b865550610aff565b601f198416610aae8661089b565b5f5b82811015610ad557848901518255600182019150602085019450602081019050610ab0565b86831015610af25784890151610aee601f891682610a01565b8355505b6001600288020188555050505b505050505050565b7f4e487b71000000000000000000000000000000000000000000000000000000005f52601160045260245ffd5b5f610b3e82610738565b9150610b4983610738565b9250828203905081811115610b6157610b60610b07565b5b92915050565b5f610b7182610738565b9150610b7c83610738565b9250828201905080821115610b9457610b93610b07565b5b92915050565b5f81549050610ba88161086b565b9050919050565b818103610bbd575050610c92565b610bc682610b9a565b67ffffffffffffffff811115610bdf57610bde61058f565b5b610be9825461086b565b610bf48282856109af565b5f601f831160018114610c21575f8415610c0f578287015490505b610c198582610a1d565b865550610c8b565b601f198416610c2f8761089b565b9650610c3a8661089b565b5f5b82811015610c6157848901548255600182019150600185019450602081019050610c3c565b86831015610c7e5784890154610c7a601f891682610a01565b8355505b6001600288020188555050505b5050505050505b565b7f4e487b71000000000000000000000000000000000000000000000000000000005f52603160045260245ffdfea264697066735822122051bc5f461ba1fc39571bc2a5a8329e9e96762d69e7e585308578f225fc5fcbe864736f6c634300081a0033",
					"opcodes": "PUSH1 0x80 PUSH1 0x40 MSTORE CALLVALUE DUP1 ISZERO PUSH1 0xE JUMPI PUSH0 DUP1 REVERT JUMPDEST POP CALLER PUSH0 DUP1 PUSH2 0x100 EXP DUP2 SLOAD DUP2 PUSH20 0xFFFFFFFFFFFFFFFFFFFFFFFFFFFFFFFFFFFFFFFF MUL NOT AND SWAP1 DUP4 PUSH20 0xFFFFFFFFFFFFFFFFFFFFFFFFFFFFFFFFFFFFFFFF AND MUL OR SWAP1 SSTORE POP PUSH2 0xCF7 DUP1 PUSH2 0x5B PUSH0 CODECOPY PUSH0 RETURN INVALID PUSH1 0x80 PUSH1 0x40 MSTORE PUSH1 0x4 CALLDATASIZE LT PUSH2 0x3E JUMPI PUSH0 CALLDATALOAD PUSH1 0xE0 SHR DUP1 PUSH4 0x25415EAF EQ PUSH2 0x42 JUMPI DUP1 PUSH4 0x6416845C EQ PUSH2 0x6A JUMPI DUP1 PUSH4 0x674526BC EQ PUSH2 0x92 JUMPI DUP1 PUSH4 0xAF61ED3D EQ PUSH2 0x9C JUMPI JUMPDEST PUSH0 DUP1 REVERT JUMPDEST CALLVALUE DUP1 ISZERO PUSH2 0x4D JUMPI PUSH0 DUP1 REVERT JUMPDEST POP PUSH2 0x68 PUSH1 0x4 DUP1 CALLDATASIZE SUB DUP2 ADD SWAP1 PUSH2 0x63 SWAP2 SWAP1 PUSH2 0x6B3 JUMP JUMPDEST PUSH2 0xC6 JUMP JUMPDEST STOP JUMPDEST CALLVALUE DUP1 ISZERO PUSH2 0x75 JUMPI PUSH0 DUP1 REVERT JUMPDEST POP PUSH2 0x90 PUSH1 0x4 DUP1 CALLDATASIZE SUB DUP2 ADD SWAP1 PUSH2 0x8B SWAP2 SWAP1 PUSH2 0x70D JUMP JUMPDEST PUSH2 0x2B7 JUMP JUMPDEST STOP JUMPDEST PUSH2 0x9A PUSH2 0x4AB JUMP JUMPDEST STOP JUMPDEST CALLVALUE DUP1 ISZERO PUSH2 0xA7 JUMPI PUSH0 DUP1 REVERT JUMPDEST POP PUSH2 0xB0 PUSH2 0x4AD JUMP JUMPDEST PUSH1 0x40 MLOAD PUSH2 0xBD SWAP2 SWAP1 PUSH2 0x750 JUMP JUMPDEST PUSH1 0x40 MLOAD DUP1 SWAP2 SUB SWAP1 RETURN JUMPDEST PUSH0 DUP1 SLOAD SWAP1 PUSH2 0x100 EXP SWAP1 DIV PUSH20 0xFFFFFFFFFFFFFFFFFFFFFFFFFFFFFFFFFFFFFFFF AND PUSH20 0xFFFFFFFFFFFFFFFFFFFFFFFFFFFFFFFFFFFFFFFF AND CALLER PUSH20 0xFFFFFFFFFFFFFFFFFFFFFFFFFFFFFFFFFFFFFFFF AND EQ PUSH2 0x153 JUMPI PUSH1 0x40 MLOAD PUSH32 0x8C379A000000000000000000000000000000000000000000000000000000000 DUP2 MSTORE PUSH1 0x4 ADD PUSH2 0x14A SWAP1 PUSH2 0x7E9 JUMP JUMPDEST PUSH1 0x40 MLOAD DUP1 SWAP2 SUB SWAP1 REVERT JUMPDEST PUSH0 PUSH1 0x1 DUP1 DUP1 SLOAD SWAP1 POP LT PUSH2 0x1F7 JUMPI PUSH0 JUMPDEST PUSH1 0x1 DUP1 SLOAD SWAP1 POP DUP2 LT ISZERO PUSH2 0x1F5 JUMPI DUP4 PUSH20 0xFFFFFFFFFFFFFFFFFFFFFFFFFFFFFFFFFFFFFFFF AND PUSH1 0x1 DUP3 DUP2 SLOAD DUP2 LT PUSH2 0x19A JUMPI PUSH2 0x199 PUSH2 0x807 JUMP JUMPDEST JUMPDEST SWAP1 PUSH0 MSTORE PUSH1 0x20 PUSH0 KECCAK256 SWAP1 PUSH1 0x2 MUL ADD PUSH0 ADD PUSH0 SWAP1 SLOAD SWAP1 PUSH2 0x100 EXP SWAP1 DIV PUSH20 0xFFFFFFFFFFFFFFFFFFFFFFFFFFFFFFFFFFFFFFFF AND PUSH20 0xFFFFFFFFFFFFFFFFFFFFFFFFFFFFFFFFFFFFFFFF AND SUB PUSH2 0x1E8 JUMPI PUSH1 0x1 SWAP2 POP JUMPDEST DUP1 DUP1 PUSH1 0x1 ADD SWAP2 POP POP PUSH2 0x162 JUMP JUMPDEST POP JUMPDEST PUSH0 ISZERO ISZERO DUP2 ISZERO ISZERO SUB PUSH2 0x2B2 JUMPI PUSH1 0x1 PUSH1 0x40 MLOAD DUP1 PUSH1 0x40 ADD PUSH1 0x40 MSTORE DUP1 DUP6 PUSH20 0xFFFFFFFFFFFFFFFFFFFFFFFFFFFFFFFFFFFFFFFF AND DUP2 MSTORE PUSH1 0x20 ADD DUP5 DUP2 MSTORE POP SWAP1 DUP1 PUSH1 0x1 DUP2 SLOAD ADD DUP1 DUP3 SSTORE DUP1 SWAP2 POP POP PUSH1 0x1 SWAP1 SUB SWAP1 PUSH0 MSTORE PUSH1 0x20 PUSH0 KECCAK256 SWAP1 PUSH1 0x2 MUL ADD PUSH0 SWAP1 SWAP2 SWAP1 SWAP2 SWAP1 SWAP2 POP PUSH0 DUP3 ADD MLOAD DUP2 PUSH0 ADD PUSH0 PUSH2 0x100 EXP DUP2 SLOAD DUP2 PUSH20 0xFFFFFFFFFFFFFFFFFFFFFFFFFFFFFFFFFFFFFFFF MUL NOT AND SWAP1 DUP4 PUSH20 0xFFFFFFFFFFFFFFFFFFFFFFFFFFFFFFFFFFFFFFFF AND MUL OR SWAP1 SSTORE POP PUSH1 0x20 DUP3 ADD MLOAD DUP2 PUSH1 0x1 ADD SWAP1 DUP2 PUSH2 0x2AE SWAP2 SWAP1 PUSH2 0xA38 JUMP JUMPDEST POP POP POP JUMPDEST POP POP POP JUMP JUMPDEST PUSH1 0x1 DUP1 DUP1 SLOAD SWAP1 POP LT PUSH2 0x4A8 JUMPI PUSH0 JUMPDEST PUSH1 0x1 DUP1 SLOAD SWAP1 POP DUP2 LT ISZERO PUSH2 0x4A6 JUMPI DUP2 PUSH20 0xFFFFFFFFFFFFFFFFFFFFFFFFFFFFFFFFFFFFFFFF AND PUSH1 0x1 DUP3 DUP2 SLOAD DUP2 LT PUSH2 0x2FD JUMPI PUSH2 0x2FC PUSH2 0x807 JUMP JUMPDEST JUMPDEST SWAP1 PUSH0 MSTORE PUSH1 0x20 PUSH0 KECCAK256 SWAP1 PUSH1 0x2 MUL ADD PUSH0 ADD PUSH0 SWAP1 SLOAD SWAP1 PUSH2 0x100 EXP SWAP1 DIV PUSH20 0xFFFFFFFFFFFFFFFFFFFFFFFFFFFFFFFFFFFFFFFF AND PUSH20 0xFFFFFFFFFFFFFFFFFFFFFFFFFFFFFFFFFFFFFFFF AND SUB PUSH2 0x499 JUMPI PUSH0 DUP2 SWAP1 POP JUMPDEST PUSH1 0x1 DUP1 DUP1 SLOAD SWAP1 POP PUSH2 0x35C SWAP2 SWAP1 PUSH2 0xB34 JUMP JUMPDEST DUP2 LT ISZERO PUSH2 0x436 JUMPI PUSH1 0x1 DUP1 DUP3 PUSH2 0x371 SWAP2 SWAP1 PUSH2 0xB67 JUMP JUMPDEST DUP2 SLOAD DUP2 LT PUSH2 0x382 JUMPI PUSH2 0x381 PUSH2 0x807 JUMP JUMPDEST JUMPDEST SWAP1 PUSH0 MSTORE PUSH1 0x20 PUSH0 KECCAK256 SWAP1 PUSH1 0x2 MUL ADD PUSH1 0x1 DUP3 DUP2 SLOAD DUP2 LT PUSH2 0x3A2 JUMPI PUSH2 0x3A1 PUSH2 0x807 JUMP JUMPDEST JUMPDEST SWAP1 PUSH0 MSTORE PUSH1 0x20 PUSH0 KECCAK256 SWAP1 PUSH1 0x2 MUL ADD PUSH0 DUP3 ADD PUSH0 SWAP1 SLOAD SWAP1 PUSH2 0x100 EXP SWAP1 DIV PUSH20 0xFFFFFFFFFFFFFFFFFFFFFFFFFFFFFFFFFFFFFFFF AND DUP2 PUSH0 ADD PUSH0 PUSH2 0x100 EXP DUP2 SLOAD DUP2 PUSH20 0xFFFFFFFFFFFFFFFFFFFFFFFFFFFFFFFFFFFFFFFF MUL NOT AND SWAP1 DUP4 PUSH20 0xFFFFFFFFFFFFFFFFFFFFFFFFFFFFFFFFFFFFFFFF AND MUL OR SWAP1 SSTORE POP PUSH1 0x1 DUP3 ADD DUP2 PUSH1 0x1 ADD SWAP1 DUP2 PUSH2 0x425 SWAP2 SWAP1 PUSH2 0xBAF JUMP JUMPDEST POP SWAP1 POP POP DUP1 DUP1 PUSH1 0x1 ADD SWAP2 POP POP PUSH2 0x34B JUMP JUMPDEST POP PUSH1 0x1 DUP1 SLOAD DUP1 PUSH2 0x449 JUMPI PUSH2 0x448 PUSH2 0xC94 JUMP JUMPDEST JUMPDEST PUSH1 0x1 SWAP1 SUB DUP2 DUP2 SWAP1 PUSH0 MSTORE PUSH1 0x20 PUSH0 KECCAK256 SWAP1 PUSH1 0x2 MUL ADD PUSH0 DUP1 DUP3 ADD PUSH0 PUSH2 0x100 EXP DUP2 SLOAD SWAP1 PUSH20 0xFFFFFFFFFFFFFFFFFFFFFFFFFFFFFFFFFFFFFFFF MUL NOT AND SWAP1 SSTORE PUSH1 0x1 DUP3 ADD PUSH0 PUSH2 0x490 SWAP2 SWAP1 PUSH2 0x4B4 JUMP JUMPDEST POP POP SWAP1 SSTORE PUSH2 0x4A6 JUMP JUMPDEST DUP1 DUP1 PUSH1 0x1 ADD SWAP2 POP POP PUSH2 0x2C5 JUMP JUMPDEST POP JUMPDEST POP JUMP JUMPDEST JUMP JUMPDEST PUSH0 SELFBALANCE SWAP1 POP SWAP1 JUMP JUMPDEST POP DUP1 SLOAD PUSH2 0x4C0 SWAP1 PUSH2 0x86B JUMP JUMPDEST PUSH0 DUP3 SSTORE DUP1 PUSH1 0x1F LT PUSH2 0x4D1 JUMPI POP PUSH2 0x4EE JUMP JUMPDEST PUSH1 0x1F ADD PUSH1 0x20 SWAP1 DIV SWAP1 PUSH0 MSTORE PUSH1 0x20 PUSH0 KECCAK256 SWAP1 DUP2 ADD SWAP1 PUSH2 0x4ED SWAP2 SWAP1 PUSH2 0x4F1 JUMP JUMPDEST JUMPDEST POP JUMP JUMPDEST JUMPDEST DUP1 DUP3 GT ISZERO PUSH2 0x508 JUMPI PUSH0 DUP2 PUSH0 SWAP1 SSTORE POP PUSH1 0x1 ADD PUSH2 0x4F2 JUMP JUMPDEST POP SWAP1 JUMP JUMPDEST PUSH0 PUSH1 0x40 MLOAD SWAP1 POP SWAP1 JUMP JUMPDEST PUSH0 DUP1 REVERT JUMPDEST PUSH0 DUP1 REVERT JUMPDEST PUSH0 PUSH20 0xFFFFFFFFFFFFFFFFFFFFFFFFFFFFFFFFFFFFFFFF DUP3 AND SWAP1 POP SWAP2 SWAP1 POP JUMP JUMPDEST PUSH0 PUSH2 0x546 DUP3 PUSH2 0x51D JUMP JUMPDEST SWAP1 POP SWAP2 SWAP1 POP JUMP JUMPDEST PUSH2 0x556 DUP2 PUSH2 0x53C JUMP JUMPDEST DUP2 EQ PUSH2 0x560 JUMPI PUSH0 DUP1 REVERT JUMPDEST POP JUMP JUMPDEST PUSH0 DUP2 CALLDATALOAD SWAP1 POP PUSH2 0x571 DUP2 PUSH2 0x54D JUMP JUMPDEST SWAP3 SWAP2 POP POP JUMP JUMPDEST PUSH0 DUP1 REVERT JUMPDEST PUSH0 DUP1 REVERT JUMPDEST PUSH0 PUSH1 0x1F NOT PUSH1 0x1F DUP4 ADD AND SWAP1 POP SWAP2 SWAP1 POP JUMP JUMPDEST PUSH32 0x4E487B7100000000000000000000000000000000000000000000000000000000 PUSH0 MSTORE PUSH1 0x41 PUSH1 0x4 MSTORE PUSH1 0x24 PUSH0 REVERT JUMPDEST PUSH2 0x5C5 DUP3 PUSH2 0x57F JUMP JUMPDEST DUP2 ADD DUP2 DUP2 LT PUSH8 0xFFFFFFFFFFFFFFFF DUP3 GT OR ISZERO PUSH2 0x5E4 JUMPI PUSH2 0x5E3 PUSH2 0x58F JUMP JUMPDEST JUMPDEST DUP1 PUSH1 0x40 MSTORE POP POP POP JUMP JUMPDEST PUSH0 PUSH2 0x5F6 PUSH2 0x50C JUMP JUMPDEST SWAP1 POP PUSH2 0x602 DUP3 DUP3 PUSH2 0x5BC JUMP JUMPDEST SWAP2 SWAP1 POP JUMP JUMPDEST PUSH0 PUSH8 0xFFFFFFFFFFFFFFFF DUP3 GT ISZERO PUSH2 0x621 JUMPI PUSH2 0x620 PUSH2 0x58F JUMP JUMPDEST JUMPDEST PUSH2 0x62A DUP3 PUSH2 0x57F JUMP JUMPDEST SWAP1 POP PUSH1 0x20 DUP2 ADD SWAP1 POP SWAP2 SWAP1 POP JUMP JUMPDEST DUP3 DUP2 DUP4 CALLDATACOPY PUSH0 DUP4 DUP4 ADD MSTORE POP POP POP JUMP JUMPDEST PUSH0 PUSH2 0x657 PUSH2 0x652 DUP5 PUSH2 0x607 JUMP JUMPDEST PUSH2 0x5ED JUMP JUMPDEST SWAP1 POP DUP3 DUP2 MSTORE PUSH1 0x20 DUP2 ADD DUP5 DUP5 DUP5 ADD GT ISZERO PUSH2 0x673 JUMPI PUSH2 0x672 PUSH2 0x57B JUMP JUMPDEST JUMPDEST PUSH2 0x67E DUP5 DUP3 DUP6 PUSH2 0x637 JUMP JUMPDEST POP SWAP4 SWAP3 POP POP POP JUMP JUMPDEST PUSH0 DUP3 PUSH1 0x1F DUP4 ADD SLT PUSH2 0x69A JUMPI PUSH2 0x699 PUSH2 0x577 JUMP JUMPDEST JUMPDEST DUP2 CALLDATALOAD PUSH2 0x6AA DUP5 DUP3 PUSH1 0x20 DUP7 ADD PUSH2 0x645 JUMP JUMPDEST SWAP2 POP POP SWAP3 SWAP2 POP POP JUMP JUMPDEST PUSH0 DUP1 PUSH1 0x40 DUP4 DUP6 SUB SLT ISZERO PUSH2 0x6C9 JUMPI PUSH2 0x6C8 PUSH2 0x515 JUMP JUMPDEST JUMPDEST PUSH0 PUSH2 0x6D6 DUP6 DUP3 DUP7 ADD PUSH2 0x563 JUMP JUMPDEST SWAP3 POP POP PUSH1 0x20 DUP4 ADD CALLDATALOAD PUSH8 0xFFFFFFFFFFFFFFFF DUP2 GT ISZERO PUSH2 0x6F7 JUMPI PUSH2 0x6F6 PUSH2 0x519 JUMP JUMPDEST JUMPDEST PUSH2 0x703 DUP6 DUP3 DUP7 ADD PUSH2 0x686 JUMP JUMPDEST SWAP2 POP POP SWAP3 POP SWAP3 SWAP1 POP JUMP JUMPDEST PUSH0 PUSH1 0x20 DUP3 DUP5 SUB SLT ISZERO PUSH2 0x722 JUMPI PUSH2 0x721 PUSH2 0x515 JUMP JUMPDEST JUMPDEST PUSH0 PUSH2 0x72F DUP5 DUP3 DUP6 ADD PUSH2 0x563 JUMP JUMPDEST SWAP2 POP POP SWAP3 SWAP2 POP POP JUMP JUMPDEST PUSH0 DUP2 SWAP1 POP SWAP2 SWAP1 POP JUMP JUMPDEST PUSH2 0x74A DUP2 PUSH2 0x738 JUMP JUMPDEST DUP3 MSTORE POP POP JUMP JUMPDEST PUSH0 PUSH1 0x20 DUP3 ADD SWAP1 POP PUSH2 0x763 PUSH0 DUP4 ADD DUP5 PUSH2 0x741 JUMP JUMPDEST SWAP3 SWAP2 POP POP JUMP JUMPDEST PUSH0 DUP3 DUP3 MSTORE PUSH1 0x20 DUP3 ADD SWAP1 POP SWAP3 SWAP2 POP POP JUMP JUMPDEST PUSH32 0x4F6E6C7920746865206F6E7765722063616E2063616C6C20746869732066756E PUSH0 DUP3 ADD MSTORE PUSH32 0x6374696F6E2E0000000000000000000000000000000000000000000000000000 PUSH1 0x20 DUP3 ADD MSTORE POP JUMP JUMPDEST PUSH0 PUSH2 0x7D3 PUSH1 0x26 DUP4 PUSH2 0x769 JUMP JUMPDEST SWAP2 POP PUSH2 0x7DE DUP3 PUSH2 0x779 JUMP JUMPDEST PUSH1 0x40 DUP3 ADD SWAP1 POP SWAP2 SWAP1 POP JUMP JUMPDEST PUSH0 PUSH1 0x20 DUP3 ADD SWAP1 POP DUP2 DUP2 SUB PUSH0 DUP4 ADD MSTORE PUSH2 0x800 DUP2 PUSH2 0x7C7 JUMP JUMPDEST SWAP1 POP SWAP2 SWAP1 POP JUMP JUMPDEST PUSH32 0x4E487B7100000000000000000000000000000000000000000000000000000000 PUSH0 MSTORE PUSH1 0x32 PUSH1 0x4 MSTORE PUSH1 0x24 PUSH0 REVERT JUMPDEST PUSH0 DUP2 MLOAD SWAP1 POP SWAP2 SWAP1 POP JUMP JUMPDEST PUSH32 0x4E487B7100000000000000000000000000000000000000000000000000000000 PUSH0 MSTORE PUSH1 0x22 PUSH1 0x4 MSTORE PUSH1 0x24 PUSH0 REVERT JUMPDEST PUSH0 PUSH1 0x2 DUP3 DIV SWAP1 POP PUSH1 0x1 DUP3 AND DUP1 PUSH2 0x882 JUMPI PUSH1 0x7F DUP3 AND SWAP2 POP JUMPDEST PUSH1 0x20 DUP3 LT DUP2 SUB PUSH2 0x895 JUMPI PUSH2 0x894 PUSH2 0x83E JUMP JUMPDEST JUMPDEST POP SWAP2 SWAP1 POP JUMP JUMPDEST PUSH0 DUP2 SWAP1 POP DUP2 PUSH0 MSTORE PUSH1 0x20 PUSH0 KECCAK256 SWAP1 POP SWAP2 SWAP1 POP JUMP JUMPDEST PUSH0 PUSH1 0x20 PUSH1 0x1F DUP4 ADD DIV SWAP1 POP SWAP2 SWAP1 POP JUMP JUMPDEST PUSH0 DUP3 DUP3 SHL SWAP1 POP SWAP3 SWAP2 POP POP JUMP JUMPDEST PUSH0 PUSH1 0x8 DUP4 MUL PUSH2 0x8F7 PUSH32 0xFFFFFFFFFFFFFFFFFFFFFFFFFFFFFFFFFFFFFFFFFFFFFFFFFFFFFFFFFFFFFFFF DUP3 PUSH2 0x8BC JUMP JUMPDEST PUSH2 0x901 DUP7 DUP4 PUSH2 0x8BC JUMP JUMPDEST SWAP6 POP DUP1 NOT DUP5 AND SWAP4 POP DUP1 DUP7 AND DUP5 OR SWAP3 POP POP POP SWAP4 SWAP3 POP POP POP JUMP JUMPDEST PUSH0 DUP2 SWAP1 POP SWAP2 SWAP1 POP JUMP JUMPDEST PUSH0 PUSH2 0x93C PUSH2 0x937 PUSH2 0x932 DUP5 PUSH2 0x738 JUMP JUMPDEST PUSH2 0x919 JUMP JUMPDEST PUSH2 0x738 JUMP JUMPDEST SWAP1 POP SWAP2 SWAP1 POP JUMP JUMPDEST PUSH0 DUP2 SWAP1 POP SWAP2 SWAP1 POP JUMP JUMPDEST PUSH2 0x955 DUP4 PUSH2 0x922 JUMP JUMPDEST PUSH2 0x969 PUSH2 0x961 DUP3 PUSH2 0x943 JUMP JUMPDEST DUP5 DUP5 SLOAD PUSH2 0x8C8 JUMP JUMPDEST DUP3 SSTORE POP POP POP POP JUMP JUMPDEST PUSH0 SWAP1 JUMP JUMPDEST PUSH2 0x97D PUSH2 0x971 JUMP JUMPDEST PUSH2 0x988 DUP2 DUP5 DUP5 PUSH2 0x94C JUMP JUMPDEST POP POP POP JUMP JUMPDEST JUMPDEST DUP2 DUP2 LT ISZERO PUSH2 0x9AB JUMPI PUSH2 0x9A0 PUSH0 DUP3 PUSH2 0x975 JUMP JUMPDEST PUSH1 0x1 DUP2 ADD SWAP1 POP PUSH2 0x98E JUMP JUMPDEST POP POP JUMP JUMPDEST PUSH1 0x1F DUP3 GT ISZERO PUSH2 0x9F0 JUMPI PUSH2 0x9C1 DUP2 PUSH2 0x89B JUMP JUMPDEST PUSH2 0x9CA DUP5 PUSH2 0x8AD JUMP JUMPDEST DUP2 ADD PUSH1 0x20 DUP6 LT ISZERO PUSH2 0x9D9 JUMPI DUP2 SWAP1 POP JUMPDEST PUSH2 0x9ED PUSH2 0x9E5 DUP6 PUSH2 0x8AD JUMP JUMPDEST DUP4 ADD DUP3 PUSH2 0x98D JUMP JUMPDEST POP POP JUMPDEST POP POP POP JUMP JUMPDEST PUSH0 DUP3 DUP3 SHR SWAP1 POP SWAP3 SWAP2 POP POP JUMP JUMPDEST PUSH0 PUSH2 0xA10 PUSH0 NOT DUP5 PUSH1 0x8 MUL PUSH2 0x9F5 JUMP JUMPDEST NOT DUP1 DUP4 AND SWAP2 POP POP SWAP3 SWAP2 POP POP JUMP JUMPDEST PUSH0 PUSH2 0xA28 DUP4 DUP4 PUSH2 0xA01 JUMP JUMPDEST SWAP2 POP DUP3 PUSH1 0x2 MUL DUP3 OR SWAP1 POP SWAP3 SWAP2 POP POP JUMP JUMPDEST PUSH2 0xA41 DUP3 PUSH2 0x834 JUMP JUMPDEST PUSH8 0xFFFFFFFFFFFFFFFF DUP2 GT ISZERO PUSH2 0xA5A JUMPI PUSH2 0xA59 PUSH2 0x58F JUMP JUMPDEST JUMPDEST PUSH2 0xA64 DUP3 SLOAD PUSH2 0x86B JUMP JUMPDEST PUSH2 0xA6F DUP3 DUP3 DUP6 PUSH2 0x9AF JUMP JUMPDEST PUSH0 PUSH1 0x20 SWAP1 POP PUSH1 0x1F DUP4 GT PUSH1 0x1 DUP2 EQ PUSH2 0xAA0 JUMPI PUSH0 DUP5 ISZERO PUSH2 0xA8E JUMPI DUP3 DUP8 ADD MLOAD SWAP1 POP JUMPDEST PUSH2 0xA98 DUP6 DUP3 PUSH2 0xA1D JUMP JUMPDEST DUP7 SSTORE POP PUSH2 0xAFF JUMP JUMPDEST PUSH1 0x1F NOT DUP5 AND PUSH2 0xAAE DUP7 PUSH2 0x89B JUMP JUMPDEST PUSH0 JUMPDEST DUP3 DUP2 LT ISZERO PUSH2 0xAD5 JUMPI DUP5 DUP10 ADD MLOAD DUP3 SSTORE PUSH1 0x1 DUP3 ADD SWAP2 POP PUSH1 0x20 DUP6 ADD SWAP5 POP PUSH1 0x20 DUP2 ADD SWAP1 POP PUSH2 0xAB0 JUMP JUMPDEST DUP7 DUP4 LT ISZERO PUSH2 0xAF2 JUMPI DUP5 DUP10 ADD MLOAD PUSH2 0xAEE PUSH1 0x1F DUP10 AND DUP3 PUSH2 0xA01 JUMP JUMPDEST DUP4 SSTORE POP JUMPDEST PUSH1 0x1 PUSH1 0x2 DUP9 MUL ADD DUP9 SSTORE POP POP POP JUMPDEST POP POP POP POP POP POP JUMP JUMPDEST PUSH32 0x4E487B7100000000000000000000000000000000000000000000000000000000 PUSH0 MSTORE PUSH1 0x11 PUSH1 0x4 MSTORE PUSH1 0x24 PUSH0 REVERT JUMPDEST PUSH0 PUSH2 0xB3E DUP3 PUSH2 0x738 JUMP JUMPDEST SWAP2 POP PUSH2 0xB49 DUP4 PUSH2 0x738 JUMP JUMPDEST SWAP3 POP DUP3 DUP3 SUB SWAP1 POP DUP2 DUP2 GT ISZERO PUSH2 0xB61 JUMPI PUSH2 0xB60 PUSH2 0xB07 JUMP JUMPDEST JUMPDEST SWAP3 SWAP2 POP POP JUMP JUMPDEST PUSH0 PUSH2 0xB71 DUP3 PUSH2 0x738 JUMP JUMPDEST SWAP2 POP PUSH2 0xB7C DUP4 PUSH2 0x738 JUMP JUMPDEST SWAP3 POP DUP3 DUP3 ADD SWAP1 POP DUP1 DUP3 GT ISZERO PUSH2 0xB94 JUMPI PUSH2 0xB93 PUSH2 0xB07 JUMP JUMPDEST JUMPDEST SWAP3 SWAP2 POP POP JUMP JUMPDEST PUSH0 DUP2 SLOAD SWAP1 POP PUSH2 0xBA8 DUP2 PUSH2 0x86B JUMP JUMPDEST SWAP1 POP SWAP2 SWAP1 POP JUMP JUMPDEST DUP2 DUP2 SUB PUSH2 0xBBD JUMPI POP POP PUSH2 0xC92 JUMP JUMPDEST PUSH2 0xBC6 DUP3 PUSH2 0xB9A JUMP JUMPDEST PUSH8 0xFFFFFFFFFFFFFFFF DUP2 GT ISZERO PUSH2 0xBDF JUMPI PUSH2 0xBDE PUSH2 0x58F JUMP JUMPDEST JUMPDEST PUSH2 0xBE9 DUP3 SLOAD PUSH2 0x86B JUMP JUMPDEST PUSH2 0xBF4 DUP3 DUP3 DUP6 PUSH2 0x9AF JUMP JUMPDEST PUSH0 PUSH1 0x1F DUP4 GT PUSH1 0x1 DUP2 EQ PUSH2 0xC21 JUMPI PUSH0 DUP5 ISZERO PUSH2 0xC0F JUMPI DUP3 DUP8 ADD SLOAD SWAP1 POP JUMPDEST PUSH2 0xC19 DUP6 DUP3 PUSH2 0xA1D JUMP JUMPDEST DUP7 SSTORE POP PUSH2 0xC8B JUMP JUMPDEST PUSH1 0x1F NOT DUP5 AND PUSH2 0xC2F DUP8 PUSH2 0x89B JUMP JUMPDEST SWAP7 POP PUSH2 0xC3A DUP7 PUSH2 0x89B JUMP JUMPDEST PUSH0 JUMPDEST DUP3 DUP2 LT ISZERO PUSH2 0xC61 JUMPI DUP5 DUP10 ADD SLOAD DUP3 SSTORE PUSH1 0x1 DUP3 ADD SWAP2 POP PUSH1 0x1 DUP6 ADD SWAP5 POP PUSH1 0x20 DUP2 ADD SWAP1 POP PUSH2 0xC3C JUMP JUMPDEST DUP7 DUP4 LT ISZERO PUSH2 0xC7E JUMPI DUP5 DUP10 ADD SLOAD PUSH2 0xC7A PUSH1 0x1F DUP10 AND DUP3 PUSH2 0xA01 JUMP JUMPDEST DUP4 SSTORE POP JUMPDEST PUSH1 0x1 PUSH1 0x2 DUP9 MUL ADD DUP9 SSTORE POP POP POP JUMPDEST POP POP POP POP POP POP JUMPDEST JUMP JUMPDEST PUSH32 0x4E487B7100000000000000000000000000000000000000000000000000000000 PUSH0 MSTORE PUSH1 0x31 PUSH1 0x4 MSTORE PUSH1 0x24 PUSH0 REVERT INVALID LOG2 PUSH5 0x6970667358 0x22 SLT KECCAK256 MLOAD 0xBC PUSH0 CHAINID SHL LOG1 0xFC CODECOPY JUMPI SHL 0xC2 0xA5 0xA8 ORIGIN SWAP15 SWAP15 SWAP7 PUSH23 0x2D69E7E585308578F225FC5FCBE864736F6C634300081A STOP CALLER "
				},
				"gasEstimates": {
					"creation": {
						"codeDepositCost": "663800",
						"executionCost": "24959",
						"totalCost": "688759"
					},
					"external": {
						"addSuccessor(address,string)": "infinite",
						"putmoney()": "141",
						"removeSuccessor(address)": "infinite",
						"viewbalance()": "378"
					}
				},
				"methodIdentifiers": {
					"addSuccessor(address,string)": "25415eaf",
					"putmoney()": "674526bc",
					"removeSuccessor(address)": "6416845c",
					"viewbalance()": "af61ed3d"
				}
			},
			"storageLayout": {
				"storage": [
					{
						"astId": 3,
						"contract": "heritage.sol:heritage",
						"label": "owner",
						"offset": 0,
						"slot": "0",
						"type": "t_address"
					},
					{
						"astId": 7,
						"contract": "heritage.sol:heritage",
						"label": "successor",
						"offset": 0,
						"slot": "1",
						"type": "t_array(t_struct(Successor)37_storage)dyn_storage"
					}
				],
				"types": {
					"t_address": {
						"encoding": "inplace",
						"label": "address",
						"numberOfBytes": "20"
					},
					"t_address_payable": {
						"encoding": "inplace",
						"label": "address payable",
						"numberOfBytes": "20"
					},
					"t_array(t_struct(Successor)37_storage)dyn_storage": {
						"base": "t_struct(Successor)37_storage",
						"encoding": "dynamic_array",
						"label": "struct heritage.Successor[]",
						"numberOfBytes": "32"
					},
					"t_string_storage": {
						"encoding": "bytes",
						"label": "string",
						"numberOfBytes": "32"
					},
					"t_struct(Successor)37_storage": {
						"encoding": "inplace",
						"label": "struct heritage.Successor",
						"members": [
							{
								"astId": 34,
								"contract": "heritage.sol:heritage",
								"label": "walletAddress",
								"offset": 0,
								"slot": "0",
								"type": "t_address_payable"
							},
							{
								"astId": 36,
								"contract": "heritage.sol:heritage",
								"label": "name",
								"offset": 0,
								"slot": "1",
								"type": "t_string_storage"
							}
						],
						"numberOfBytes": "64"
					}
				}
			},
			"userdoc": {
				"kind": "user",
				"methods": {},
				"version": 1
			}
		}
	}
}