{
	"inheritage.sol": {
		"inheritage": {
			"abi": [
				{
					"inputs": [],
					"stateMutability": "nonpayable",
					"type": "constructor"
				},
				{
					"inputs": [
						{
							"internalType": "address payable",
							"name": "walletAddress",
							"type": "address"
						},
						{
							"internalType": "string",
							"name": "name",
							"type": "string"
						},
						{
							"internalType": "uint256",
							"name": "percentage",
							"type": "uint256"
						}
					],
					"name": "addSuccessor",
					"outputs": [],
					"stateMutability": "nonpayable",
					"type": "function"
				},
				{
					"inputs": [],
					"name": "distrubiteInheritage",
					"outputs": [],
					"stateMutability": "nonpayable",
					"type": "function"
				},
				{
					"inputs": [],
					"name": "getTotalPercentage",
					"outputs": [
						{
							"internalType": "uint256",
							"name": "",
							"type": "uint256"
						}
					],
					"stateMutability": "view",
					"type": "function"
				},
				{
					"inputs": [],
					"name": "putmoney",
					"outputs": [],
					"stateMutability": "payable",
					"type": "function"
				},
				{
					"inputs": [
						{
							"internalType": "address payable",
							"name": "walletAddress",
							"type": "address"
						}
					],
					"name": "removeSuccessor",
					"outputs": [],
					"stateMutability": "nonpayable",
					"type": "function"
				},
				{
					"inputs": [
						{
							"internalType": "address payable",
							"name": "walletAddress",
							"type": "address"
						}
					],
					"name": "removeWaitress",
					"outputs": [],
					"stateMutability": "nonpayable",
					"type": "function"
				},
				{
					"inputs": [],
					"name": "viewSuccessor",
					"outputs": [
						{
							"components": [
								{
									"internalType": "address payable",
									"name": "walletAddress",
									"type": "address"
								},
								{
									"internalType": "string",
									"name": "name",
									"type": "string"
								},
								{
									"internalType": "uint256",
									"name": "percentage",
									"type": "uint256"
								}
							],
							"internalType": "struct inheritage.Successor[]",
							"name": "",
							"type": "tuple[]"
						}
					],
					"stateMutability": "view",
					"type": "function"
				},
				{
					"inputs": [],
					"name": "viewbalance",
					"outputs": [
						{
							"internalType": "uint256",
							"name": "",
							"type": "uint256"
						}
					],
					"stateMutability": "view",
					"type": "function"
				}
			],
			"devdoc": {
				"kind": "dev",
				"methods": {},
				"version": 1
			},
			"evm": {
				"assembly": "    /* \"inheritage.sol\":60:3237  contract inheritage {... */\n  mstore(0x40, 0x80)\n    /* \"inheritage.sol\":137:187  constructor(){... */\n  callvalue\n  dup1\n  iszero\n  tag_1\n  jumpi\n  0x00\n  dup1\n  revert\ntag_1:\n  pop\n    /* \"inheritage.sol\":169:179  msg.sender */\n  caller\n    /* \"inheritage.sol\":161:166  owner */\n  0x00\n  dup1\n    /* \"inheritage.sol\":161:179  owner = msg.sender */\n  0x0100\n  exp\n  dup2\n  sload\n  dup2\n  0xffffffffffffffffffffffffffffffffffffffff\n  mul\n  not\n  and\n  swap1\n  dup4\n  0xffffffffffffffffffffffffffffffffffffffff\n  and\n  mul\n  or\n  swap1\n  sstore\n  pop\n    /* \"inheritage.sol\":60:3237  contract inheritage {... */\n  dataSize(sub_0)\n  dup1\n  dataOffset(sub_0)\n  0x00\n  codecopy\n  0x00\n  return\nstop\n\nsub_0: assembly {\n        /* \"inheritage.sol\":60:3237  contract inheritage {... */\n      mstore(0x40, 0x80)\n      jumpi(tag_1, lt(calldatasize, 0x04))\n      shr(0xe0, calldataload(0x00))\n      dup1\n      0x674526bc\n      gt\n      tag_10\n      jumpi\n      dup1\n      0x674526bc\n      eq\n      tag_6\n      jumpi\n      dup1\n      0x736c9563\n      eq\n      tag_7\n      jumpi\n      dup1\n      0x7cc60b32\n      eq\n      tag_8\n      jumpi\n      dup1\n      0xaf61ed3d\n      eq\n      tag_9\n      jumpi\n      jump(tag_1)\n    tag_10:\n      dup1\n      0x0558c155\n      eq\n      tag_2\n      jumpi\n      dup1\n      0x369a489d\n      eq\n      tag_3\n      jumpi\n      dup1\n      0x48bf296a\n      eq\n      tag_4\n      jumpi\n      dup1\n      0x6416845c\n      eq\n      tag_5\n      jumpi\n    tag_1:\n      0x00\n      dup1\n      revert\n        /* \"inheritage.sol\":2953:3206  function getTotalPercentage() public view returns(uint) {... */\n    tag_2:\n      callvalue\n      dup1\n      iszero\n      tag_11\n      jumpi\n      0x00\n      dup1\n      revert\n    tag_11:\n      pop\n      tag_12\n      tag_13\n      jump\t// in\n    tag_12:\n      mload(0x40)\n      tag_14\n      swap2\n      swap1\n      tag_15\n      jump\t// in\n    tag_14:\n      mload(0x40)\n      dup1\n      swap2\n      sub\n      swap1\n      return\n        /* \"inheritage.sol\":1308:1797  function removeWaitress(address payable walletAddress) public{... */\n    tag_3:\n      callvalue\n      dup1\n      iszero\n      tag_16\n      jumpi\n      0x00\n      dup1\n      revert\n    tag_16:\n      pop\n      tag_17\n      0x04\n      dup1\n      calldatasize\n      sub\n      dup2\n      add\n      swap1\n      tag_18\n      swap2\n      swap1\n      tag_19\n      jump\t// in\n    tag_18:\n      tag_20\n      jump\t// in\n    tag_17:\n      stop\n        /* \"inheritage.sol\":2432:2817  function distrubiteInheritage() public {... */\n    tag_4:\n      callvalue\n      dup1\n      iszero\n      tag_21\n      jumpi\n      0x00\n      dup1\n      revert\n    tag_21:\n      pop\n      tag_22\n      tag_23\n      jump\t// in\n    tag_22:\n      stop\n        /* \"inheritage.sol\":1805:2295  function removeSuccessor(address payable walletAddress) public{... */\n    tag_5:\n      callvalue\n      dup1\n      iszero\n      tag_24\n      jumpi\n      0x00\n      dup1\n      revert\n    tag_24:\n      pop\n      tag_25\n      0x04\n      dup1\n      calldatasize\n      sub\n      dup2\n      add\n      swap1\n      tag_26\n      swap2\n      swap1\n      tag_19\n      jump\t// in\n    tag_26:\n      tag_27\n      jump\t// in\n    tag_25:\n      stop\n        /* \"inheritage.sol\":225:270  function putmoney() payable public {... */\n    tag_6:\n      tag_28\n      tag_29\n      jump\t// in\n    tag_28:\n      stop\n        /* \"inheritage.sol\":2324:2424  function viewSuccessor() public view returns(Successor[] memory) {... */\n    tag_7:\n      callvalue\n      dup1\n      iszero\n      tag_30\n      jumpi\n      0x00\n      dup1\n      revert\n    tag_30:\n      pop\n      tag_31\n      tag_32\n      jump\t// in\n    tag_31:\n      mload(0x40)\n      tag_33\n      swap2\n      swap1\n      tag_34\n      jump\t// in\n    tag_33:\n      mload(0x40)\n      dup1\n      swap2\n      sub\n      swap1\n      return\n        /* \"inheritage.sol\":555:1300  function addSuccessor(address payable walletAddress, string memory name, uint percentage) public {... */\n    tag_8:\n      callvalue\n      dup1\n      iszero\n      tag_35\n      jumpi\n      0x00\n      dup1\n      revert\n    tag_35:\n      pop\n      tag_36\n      0x04\n      dup1\n      calldatasize\n      sub\n      dup2\n      add\n      swap1\n      tag_37\n      swap2\n      swap1\n      tag_38\n      jump\t// in\n    tag_37:\n      tag_39\n      jump\t// in\n    tag_36:\n      stop\n        /* \"inheritage.sol\":305:400  function viewbalance() public view returns(uint){... */\n    tag_9:\n      callvalue\n      dup1\n      iszero\n      tag_40\n      jumpi\n      0x00\n      dup1\n      revert\n    tag_40:\n      pop\n      tag_41\n      tag_42\n      jump\t// in\n    tag_41:\n      mload(0x40)\n      tag_43\n      swap2\n      swap1\n      tag_15\n      jump\t// in\n    tag_43:\n      mload(0x40)\n      dup1\n      swap2\n      sub\n      swap1\n      return\n        /* \"inheritage.sol\":2953:3206  function getTotalPercentage() public view returns(uint) {... */\n    tag_13:\n        /* \"inheritage.sol\":3003:3007  uint */\n      0x00\n        /* \"inheritage.sol\":3020:3040  uint totalPercentage */\n      dup1\n        /* \"inheritage.sol\":3043:3044  0 */\n      0x00\n        /* \"inheritage.sol\":3020:3044  uint totalPercentage = 0 */\n      swap1\n      pop\n        /* \"inheritage.sol\":3059:3065  uint i */\n      0x00\n        /* \"inheritage.sol\":3055:3166  for(uint i = 0; i < successor.length; i++){... */\n    tag_45:\n        /* \"inheritage.sol\":3075:3084  successor */\n      0x01\n        /* \"inheritage.sol\":3075:3091  successor.length */\n      dup1\n      sload\n      swap1\n      pop\n        /* \"inheritage.sol\":3071:3072  i */\n      dup2\n        /* \"inheritage.sol\":3071:3091  i < successor.length */\n      lt\n        /* \"inheritage.sol\":3055:3166  for(uint i = 0; i < successor.length; i++){... */\n      iszero\n      tag_46\n      jumpi\n        /* \"inheritage.sol\":3131:3140  successor */\n      0x01\n        /* \"inheritage.sol\":3141:3142  i */\n      dup2\n        /* \"inheritage.sol\":3131:3143  successor[i] */\n      dup2\n      sload\n      dup2\n      lt\n      tag_48\n      jumpi\n      tag_49\n      tag_50\n      jump\t// in\n    tag_49:\n    tag_48:\n      swap1\n      0x00\n      mstore\n      keccak256(0x00, 0x20)\n      swap1\n      0x03\n      mul\n      add\n        /* \"inheritage.sol\":3131:3154  successor[i].percentage */\n      0x02\n      add\n      sload\n        /* \"inheritage.sol\":3112:3154  totalPercentage += successor[i].percentage */\n      dup3\n      tag_52\n      swap2\n      swap1\n      tag_53\n      jump\t// in\n    tag_52:\n      swap2\n      pop\n        /* \"inheritage.sol\":3093:3096  i++ */\n      dup1\n      dup1\n      0x01\n      add\n      swap2\n      pop\n      pop\n        /* \"inheritage.sol\":3055:3166  for(uint i = 0; i < successor.length; i++){... */\n      jump(tag_45)\n    tag_46:\n      pop\n        /* \"inheritage.sol\":3183:3198  totalPercentage */\n      dup1\n        /* \"inheritage.sol\":3176:3198  return totalPercentage */\n      swap2\n      pop\n      pop\n        /* \"inheritage.sol\":2953:3206  function getTotalPercentage() public view returns(uint) {... */\n      swap1\n      jump\t// out\n        /* \"inheritage.sol\":1308:1797  function removeWaitress(address payable walletAddress) public{... */\n    tag_20:\n        /* \"inheritage.sol\":1401:1402  1 */\n      0x01\n        /* \"inheritage.sol\":1383:1392  successor */\n      dup1\n        /* \"inheritage.sol\":1383:1399  successor.length */\n      dup1\n      sload\n      swap1\n      pop\n        /* \"inheritage.sol\":1383:1402  successor.length>=1 */\n      lt\n        /* \"inheritage.sol\":1380:1790  if(successor.length>=1){... */\n      tag_55\n      jumpi\n        /* \"inheritage.sol\":1422:1428  uint i */\n      0x00\n        /* \"inheritage.sol\":1418:1779  for(uint i=0; i<successor.length; i++){... */\n    tag_56:\n        /* \"inheritage.sol\":1434:1443  successor */\n      0x01\n        /* \"inheritage.sol\":1434:1450  successor.length */\n      dup1\n      sload\n      swap1\n      pop\n        /* \"inheritage.sol\":1432:1433  i */\n      dup2\n        /* \"inheritage.sol\":1432:1450  i<successor.length */\n      lt\n        /* \"inheritage.sol\":1418:1779  for(uint i=0; i<successor.length; i++){... */\n      iszero\n      tag_57\n      jumpi\n        /* \"inheritage.sol\":1506:1519  walletAddress */\n      dup2\n        /* \"inheritage.sol\":1478:1519  successor[i].walletAddress==walletAddress */\n      0xffffffffffffffffffffffffffffffffffffffff\n      and\n        /* \"inheritage.sol\":1478:1487  successor */\n      0x01\n        /* \"inheritage.sol\":1488:1489  i */\n      dup3\n        /* \"inheritage.sol\":1478:1490  successor[i] */\n      dup2\n      sload\n      dup2\n      lt\n      tag_59\n      jumpi\n      tag_60\n      tag_50\n      jump\t// in\n    tag_60:\n    tag_59:\n      swap1\n      0x00\n      mstore\n      keccak256(0x00, 0x20)\n      swap1\n      0x03\n      mul\n      add\n        /* \"inheritage.sol\":1478:1504  successor[i].walletAddress */\n      0x00\n      add\n      0x00\n      swap1\n      sload\n      swap1\n      0x0100\n      exp\n      swap1\n      div\n      0xffffffffffffffffffffffffffffffffffffffff\n      and\n        /* \"inheritage.sol\":1478:1519  successor[i].walletAddress==walletAddress */\n      0xffffffffffffffffffffffffffffffffffffffff\n      and\n      sub\n        /* \"inheritage.sol\":1475:1746  if(successor[i].walletAddress==walletAddress){... */\n      tag_62\n      jumpi\n        /* \"inheritage.sol\":1547:1553  uint j */\n      0x00\n        /* \"inheritage.sol\":1554:1555  i */\n      dup2\n        /* \"inheritage.sol\":1547:1555  uint j=i */\n      swap1\n      pop\n        /* \"inheritage.sol\":1543:1661  for(uint j=i; j<successor.length-1; j++){... */\n    tag_63:\n        /* \"inheritage.sol\":1576:1577  1 */\n      0x01\n        /* \"inheritage.sol\":1559:1568  successor */\n      dup1\n        /* \"inheritage.sol\":1559:1575  successor.length */\n      dup1\n      sload\n      swap1\n      pop\n        /* \"inheritage.sol\":1559:1577  successor.length-1 */\n      tag_66\n      swap2\n      swap1\n      tag_67\n      jump\t// in\n    tag_66:\n        /* \"inheritage.sol\":1557:1558  j */\n      dup2\n        /* \"inheritage.sol\":1557:1577  j<successor.length-1 */\n      lt\n        /* \"inheritage.sol\":1543:1661  for(uint j=i; j<successor.length-1; j++){... */\n      iszero\n      tag_64\n      jumpi\n        /* \"inheritage.sol\":1623:1632  successor */\n      0x01\n        /* \"inheritage.sol\":1635:1636  1 */\n      dup1\n        /* \"inheritage.sol\":1633:1634  j */\n      dup3\n        /* \"inheritage.sol\":1633:1636  j+1 */\n      tag_68\n      swap2\n      swap1\n      tag_53\n      jump\t// in\n    tag_68:\n        /* \"inheritage.sol\":1623:1637  successor[j+1] */\n      dup2\n      sload\n      dup2\n      lt\n      tag_69\n      jumpi\n      tag_70\n      tag_50\n      jump\t// in\n    tag_70:\n    tag_69:\n      swap1\n      0x00\n      mstore\n      keccak256(0x00, 0x20)\n      swap1\n      0x03\n      mul\n      add\n        /* \"inheritage.sol\":1610:1619  successor */\n      0x01\n        /* \"inheritage.sol\":1620:1621  j */\n      dup3\n        /* \"inheritage.sol\":1610:1622  successor[j] */\n      dup2\n      sload\n      dup2\n      lt\n      tag_72\n      jumpi\n      tag_73\n      tag_50\n      jump\t// in\n    tag_73:\n    tag_72:\n      swap1\n      0x00\n      mstore\n      keccak256(0x00, 0x20)\n      swap1\n      0x03\n      mul\n      add\n        /* \"inheritage.sol\":1610:1637  successor[j]=successor[j+1] */\n      0x00\n      dup3\n      add\n      0x00\n      swap1\n      sload\n      swap1\n      0x0100\n      exp\n      swap1\n      div\n      0xffffffffffffffffffffffffffffffffffffffff\n      and\n      dup2\n      0x00\n      add\n      exp(0x0100, 0x00)\n      dup2\n      sload\n      dup2\n      0xffffffffffffffffffffffffffffffffffffffff\n      mul\n      not\n      and\n      swap1\n      dup4\n      0xffffffffffffffffffffffffffffffffffffffff\n      and\n      mul\n      or\n      swap1\n      sstore\n      pop\n      0x01\n      dup3\n      add\n      dup2\n      0x01\n      add\n      swap1\n      dup2\n      tag_75\n      swap2\n      swap1\n      tag_76\n      jump\t// in\n    tag_75:\n      pop\n      0x02\n      dup3\n      add\n      sload\n      dup2\n      0x02\n      add\n      sstore\n      swap1\n      pop\n      pop\n        /* \"inheritage.sol\":1579:1582  j++ */\n      dup1\n      dup1\n      0x01\n      add\n      swap2\n      pop\n      pop\n        /* \"inheritage.sol\":1543:1661  for(uint j=i; j<successor.length-1; j++){... */\n      jump(tag_63)\n    tag_64:\n      pop\n        /* \"inheritage.sol\":1683:1692  successor */\n      0x01\n        /* \"inheritage.sol\":1683:1698  successor.pop() */\n      dup1\n      sload\n      dup1\n      tag_77\n      jumpi\n      tag_78\n      tag_79\n      jump\t// in\n    tag_78:\n    tag_77:\n      0x01\n      swap1\n      sub\n      dup2\n      dup2\n      swap1\n      0x00\n      mstore\n      keccak256(0x00, 0x20)\n      swap1\n      0x03\n      mul\n      add\n      0x00\n      dup1\n      dup3\n      add\n      exp(0x0100, 0x00)\n      dup2\n      sload\n      swap1\n      0xffffffffffffffffffffffffffffffffffffffff\n      mul\n      not\n      and\n      swap1\n      sstore\n      0x01\n      dup3\n      add\n      0x00\n      tag_81\n      swap2\n      swap1\n      tag_82\n      jump\t// in\n    tag_81:\n      0x02\n      dup3\n      add\n      0x00\n      swap1\n      sstore\n      pop\n      pop\n      swap1\n      sstore\n        /* \"inheritage.sol\":1721:1726  break */\n      jump(tag_57)\n        /* \"inheritage.sol\":1475:1746  if(successor[i].walletAddress==walletAddress){... */\n    tag_62:\n        /* \"inheritage.sol\":1452:1455  i++ */\n      dup1\n      dup1\n      0x01\n      add\n      swap2\n      pop\n      pop\n        /* \"inheritage.sol\":1418:1779  for(uint i=0; i<successor.length; i++){... */\n      jump(tag_56)\n    tag_57:\n      pop\n        /* \"inheritage.sol\":1380:1790  if(successor.length>=1){... */\n    tag_55:\n        /* \"inheritage.sol\":1308:1797  function removeWaitress(address payable walletAddress) public{... */\n      pop\n      jump\t// out\n        /* \"inheritage.sol\":2432:2817  function distrubiteInheritage() public {... */\n    tag_23:\n        /* \"inheritage.sol\":2514:2515  0 */\n      0x00\n        /* \"inheritage.sol\":2490:2511  address(this).balance */\n      selfbalance\n        /* \"inheritage.sol\":2490:2515  address(this).balance > 0 */\n      gt\n        /* \"inheritage.sol\":2482:2557  require(address(this).balance > 0, \"Insufficient balance in the contract.\") */\n      tag_84\n      jumpi\n      mload(0x40)\n      0x08c379a000000000000000000000000000000000000000000000000000000000\n      dup2\n      mstore\n      0x04\n      add\n      tag_85\n      swap1\n      tag_86\n      jump\t// in\n    tag_85:\n      mload(0x40)\n      dup1\n      swap2\n      sub\n      swap1\n      revert\n    tag_84:\n        /* \"inheritage.sol\":2568:2585  uint totalBalance */\n      0x00\n        /* \"inheritage.sol\":2588:2609  address(this).balance */\n      selfbalance\n        /* \"inheritage.sol\":2568:2609  uint totalBalance = address(this).balance */\n      swap1\n      pop\n        /* \"inheritage.sol\":2626:2632  uint i */\n      0x00\n        /* \"inheritage.sol\":2622:2810  for(uint i = 0; i < successor.length; i++){... */\n    tag_87:\n        /* \"inheritage.sol\":2642:2651  successor */\n      0x01\n        /* \"inheritage.sol\":2642:2658  successor.length */\n      dup1\n      sload\n      swap1\n      pop\n        /* \"inheritage.sol\":2638:2639  i */\n      dup2\n        /* \"inheritage.sol\":2638:2658  i < successor.length */\n      lt\n        /* \"inheritage.sol\":2622:2810  for(uint i = 0; i < successor.length; i++){... */\n      iszero\n      tag_88\n      jumpi\n        /* \"inheritage.sol\":2679:2690  uint amount */\n      0x00\n        /* \"inheritage.sol\":2736:2739  100 */\n      0x64\n        /* \"inheritage.sol\":2709:2718  successor */\n      0x01\n        /* \"inheritage.sol\":2719:2720  i */\n      dup4\n        /* \"inheritage.sol\":2709:2721  successor[i] */\n      dup2\n      sload\n      dup2\n      lt\n      tag_90\n      jumpi\n      tag_91\n      tag_50\n      jump\t// in\n    tag_91:\n    tag_90:\n      swap1\n      0x00\n      mstore\n      keccak256(0x00, 0x20)\n      swap1\n      0x03\n      mul\n      add\n        /* \"inheritage.sol\":2709:2732  successor[i].percentage */\n      0x02\n      add\n      sload\n        /* \"inheritage.sol\":2694:2706  totalBalance */\n      dup5\n        /* \"inheritage.sol\":2694:2732  totalBalance * successor[i].percentage */\n      tag_93\n      swap2\n      swap1\n      tag_94\n      jump\t// in\n    tag_93:\n        /* \"inheritage.sol\":2693:2739  (totalBalance * successor[i].percentage) / 100 */\n      tag_95\n      swap2\n      swap1\n      tag_96\n      jump\t// in\n    tag_95:\n        /* \"inheritage.sol\":2679:2739  uint amount = (totalBalance * successor[i].percentage) / 100 */\n      swap1\n      pop\n        /* \"inheritage.sol\":2754:2798  transfer(successor[i].walletAddress, amount) */\n      tag_97\n        /* \"inheritage.sol\":2763:2772  successor */\n      0x01\n        /* \"inheritage.sol\":2773:2774  i */\n      dup4\n        /* \"inheritage.sol\":2763:2775  successor[i] */\n      dup2\n      sload\n      dup2\n      lt\n      tag_98\n      jumpi\n      tag_99\n      tag_50\n      jump\t// in\n    tag_99:\n    tag_98:\n      swap1\n      0x00\n      mstore\n      keccak256(0x00, 0x20)\n      swap1\n      0x03\n      mul\n      add\n        /* \"inheritage.sol\":2763:2789  successor[i].walletAddress */\n      0x00\n      add\n      0x00\n      swap1\n      sload\n      swap1\n      0x0100\n      exp\n      swap1\n      div\n      0xffffffffffffffffffffffffffffffffffffffff\n      and\n        /* \"inheritage.sol\":2791:2797  amount */\n      dup3\n        /* \"inheritage.sol\":2754:2762  transfer */\n      tag_101\n        /* \"inheritage.sol\":2754:2798  transfer(successor[i].walletAddress, amount) */\n      jump\t// in\n    tag_97:\n        /* \"inheritage.sol\":2664:2810  {... */\n      pop\n        /* \"inheritage.sol\":2660:2663  i++ */\n      dup1\n      dup1\n      0x01\n      add\n      swap2\n      pop\n      pop\n        /* \"inheritage.sol\":2622:2810  for(uint i = 0; i < successor.length; i++){... */\n      jump(tag_87)\n    tag_88:\n      pop\n        /* \"inheritage.sol\":2471:2817  {... */\n      pop\n        /* \"inheritage.sol\":2432:2817  function distrubiteInheritage() public {... */\n      jump\t// out\n        /* \"inheritage.sol\":1805:2295  function removeSuccessor(address payable walletAddress) public{... */\n    tag_27:\n        /* \"inheritage.sol\":1899:1900  1 */\n      0x01\n        /* \"inheritage.sol\":1881:1890  successor */\n      dup1\n        /* \"inheritage.sol\":1881:1897  successor.length */\n      dup1\n      sload\n      swap1\n      pop\n        /* \"inheritage.sol\":1881:1900  successor.length>=1 */\n      lt\n        /* \"inheritage.sol\":1878:2288  if(successor.length>=1){... */\n      tag_103\n      jumpi\n        /* \"inheritage.sol\":1920:1926  uint i */\n      0x00\n        /* \"inheritage.sol\":1916:2277  for(uint i=0; i<successor.length; i++){... */\n    tag_104:\n        /* \"inheritage.sol\":1932:1941  successor */\n      0x01\n        /* \"inheritage.sol\":1932:1948  successor.length */\n      dup1\n      sload\n      swap1\n      pop\n        /* \"inheritage.sol\":1930:1931  i */\n      dup2\n        /* \"inheritage.sol\":1930:1948  i<successor.length */\n      lt\n        /* \"inheritage.sol\":1916:2277  for(uint i=0; i<successor.length; i++){... */\n      iszero\n      tag_105\n      jumpi\n        /* \"inheritage.sol\":2004:2017  walletAddress */\n      dup2\n        /* \"inheritage.sol\":1976:2017  successor[i].walletAddress==walletAddress */\n      0xffffffffffffffffffffffffffffffffffffffff\n      and\n        /* \"inheritage.sol\":1976:1985  successor */\n      0x01\n        /* \"inheritage.sol\":1986:1987  i */\n      dup3\n        /* \"inheritage.sol\":1976:1988  successor[i] */\n      dup2\n      sload\n      dup2\n      lt\n      tag_107\n      jumpi\n      tag_108\n      tag_50\n      jump\t// in\n    tag_108:\n    tag_107:\n      swap1\n      0x00\n      mstore\n      keccak256(0x00, 0x20)\n      swap1\n      0x03\n      mul\n      add\n        /* \"inheritage.sol\":1976:2002  successor[i].walletAddress */\n      0x00\n      add\n      0x00\n      swap1\n      sload\n      swap1\n      0x0100\n      exp\n      swap1\n      div\n      0xffffffffffffffffffffffffffffffffffffffff\n      and\n        /* \"inheritage.sol\":1976:2017  successor[i].walletAddress==walletAddress */\n      0xffffffffffffffffffffffffffffffffffffffff\n      and\n      sub\n        /* \"inheritage.sol\":1973:2244  if(successor[i].walletAddress==walletAddress){... */\n      tag_110\n      jumpi\n        /* \"inheritage.sol\":2045:2051  uint j */\n      0x00\n        /* \"inheritage.sol\":2052:2053  i */\n      dup2\n        /* \"inheritage.sol\":2045:2053  uint j=i */\n      swap1\n      pop\n        /* \"inheritage.sol\":2041:2159  for(uint j=i; j<successor.length-1; j++){... */\n    tag_111:\n        /* \"inheritage.sol\":2074:2075  1 */\n      0x01\n        /* \"inheritage.sol\":2057:2066  successor */\n      dup1\n        /* \"inheritage.sol\":2057:2073  successor.length */\n      dup1\n      sload\n      swap1\n      pop\n        /* \"inheritage.sol\":2057:2075  successor.length-1 */\n      tag_114\n      swap2\n      swap1\n      tag_67\n      jump\t// in\n    tag_114:\n        /* \"inheritage.sol\":2055:2056  j */\n      dup2\n        /* \"inheritage.sol\":2055:2075  j<successor.length-1 */\n      lt\n        /* \"inheritage.sol\":2041:2159  for(uint j=i; j<successor.length-1; j++){... */\n      iszero\n      tag_112\n      jumpi\n        /* \"inheritage.sol\":2121:2130  successor */\n      0x01\n        /* \"inheritage.sol\":2133:2134  1 */\n      dup1\n        /* \"inheritage.sol\":2131:2132  j */\n      dup3\n        /* \"inheritage.sol\":2131:2134  j+1 */\n      tag_115\n      swap2\n      swap1\n      tag_53\n      jump\t// in\n    tag_115:\n        /* \"inheritage.sol\":2121:2135  successor[j+1] */\n      dup2\n      sload\n      dup2\n      lt\n      tag_116\n      jumpi\n      tag_117\n      tag_50\n      jump\t// in\n    tag_117:\n    tag_116:\n      swap1\n      0x00\n      mstore\n      keccak256(0x00, 0x20)\n      swap1\n      0x03\n      mul\n      add\n        /* \"inheritage.sol\":2108:2117  successor */\n      0x01\n        /* \"inheritage.sol\":2118:2119  j */\n      dup3\n        /* \"inheritage.sol\":2108:2120  successor[j] */\n      dup2\n      sload\n      dup2\n      lt\n      tag_119\n      jumpi\n      tag_120\n      tag_50\n      jump\t// in\n    tag_120:\n    tag_119:\n      swap1\n      0x00\n      mstore\n      keccak256(0x00, 0x20)\n      swap1\n      0x03\n      mul\n      add\n        /* \"inheritage.sol\":2108:2135  successor[j]=successor[j+1] */\n      0x00\n      dup3\n      add\n      0x00\n      swap1\n      sload\n      swap1\n      0x0100\n      exp\n      swap1\n      div\n      0xffffffffffffffffffffffffffffffffffffffff\n      and\n      dup2\n      0x00\n      add\n      exp(0x0100, 0x00)\n      dup2\n      sload\n      dup2\n      0xffffffffffffffffffffffffffffffffffffffff\n      mul\n      not\n      and\n      swap1\n      dup4\n      0xffffffffffffffffffffffffffffffffffffffff\n      and\n      mul\n      or\n      swap1\n      sstore\n      pop\n      0x01\n      dup3\n      add\n      dup2\n      0x01\n      add\n      swap1\n      dup2\n      tag_122\n      swap2\n      swap1\n      tag_76\n      jump\t// in\n    tag_122:\n      pop\n      0x02\n      dup3\n      add\n      sload\n      dup2\n      0x02\n      add\n      sstore\n      swap1\n      pop\n      pop\n        /* \"inheritage.sol\":2077:2080  j++ */\n      dup1\n      dup1\n      0x01\n      add\n      swap2\n      pop\n      pop\n        /* \"inheritage.sol\":2041:2159  for(uint j=i; j<successor.length-1; j++){... */\n      jump(tag_111)\n    tag_112:\n      pop\n        /* \"inheritage.sol\":2181:2190  successor */\n      0x01\n        /* \"inheritage.sol\":2181:2196  successor.pop() */\n      dup1\n      sload\n      dup1\n      tag_123\n      jumpi\n      tag_124\n      tag_79\n      jump\t// in\n    tag_124:\n    tag_123:\n      0x01\n      swap1\n      sub\n      dup2\n      dup2\n      swap1\n      0x00\n      mstore\n      keccak256(0x00, 0x20)\n      swap1\n      0x03\n      mul\n      add\n      0x00\n      dup1\n      dup3\n      add\n      exp(0x0100, 0x00)\n      dup2\n      sload\n      swap1\n      0xffffffffffffffffffffffffffffffffffffffff\n      mul\n      not\n      and\n      swap1\n      sstore\n      0x01\n      dup3\n      add\n      0x00\n      tag_126\n      swap2\n      swap1\n      tag_82\n      jump\t// in\n    tag_126:\n      0x02\n      dup3\n      add\n      0x00\n      swap1\n      sstore\n      pop\n      pop\n      swap1\n      sstore\n        /* \"inheritage.sol\":2219:2224  break */\n      jump(tag_105)\n        /* \"inheritage.sol\":1973:2244  if(successor[i].walletAddress==walletAddress){... */\n    tag_110:\n        /* \"inheritage.sol\":1950:1953  i++ */\n      dup1\n      dup1\n      0x01\n      add\n      swap2\n      pop\n      pop\n        /* \"inheritage.sol\":1916:2277  for(uint i=0; i<successor.length; i++){... */\n      jump(tag_104)\n    tag_105:\n      pop\n        /* \"inheritage.sol\":1878:2288  if(successor.length>=1){... */\n    tag_103:\n        /* \"inheritage.sol\":1805:2295  function removeSuccessor(address payable walletAddress) public{... */\n      pop\n      jump\t// out\n        /* \"inheritage.sol\":225:270  function putmoney() payable public {... */\n    tag_29:\n      jump\t// out\n        /* \"inheritage.sol\":2324:2424  function viewSuccessor() public view returns(Successor[] memory) {... */\n    tag_32:\n        /* \"inheritage.sol\":2369:2387  Successor[] memory */\n      0x60\n        /* \"inheritage.sol\":2407:2416  successor */\n      0x01\n        /* \"inheritage.sol\":2400:2416  return successor */\n      dup1\n      sload\n      dup1\n      0x20\n      mul\n      0x20\n      add\n      mload(0x40)\n      swap1\n      dup2\n      add\n      0x40\n      mstore\n      dup1\n      swap3\n      swap2\n      swap1\n      dup2\n      dup2\n      mstore\n      0x20\n      add\n      0x00\n      swap1\n    tag_129:\n      dup3\n      dup3\n      lt\n      iszero\n      tag_130\n      jumpi\n      dup4\n      dup3\n      swap1\n      0x00\n      mstore\n      keccak256(0x00, 0x20)\n      swap1\n      0x03\n      mul\n      add\n      mload(0x40)\n      dup1\n      0x60\n      add\n      0x40\n      mstore\n      swap1\n      dup2\n      0x00\n      dup3\n      add\n      0x00\n      swap1\n      sload\n      swap1\n      0x0100\n      exp\n      swap1\n      div\n      0xffffffffffffffffffffffffffffffffffffffff\n      and\n      0xffffffffffffffffffffffffffffffffffffffff\n      and\n      0xffffffffffffffffffffffffffffffffffffffff\n      and\n      dup2\n      mstore\n      0x20\n      add\n      0x01\n      dup3\n      add\n      dup1\n      sload\n      tag_132\n      swap1\n      tag_133\n      jump\t// in\n    tag_132:\n      dup1\n      0x1f\n      add\n      0x20\n      dup1\n      swap2\n      div\n      mul\n      0x20\n      add\n      mload(0x40)\n      swap1\n      dup2\n      add\n      0x40\n      mstore\n      dup1\n      swap3\n      swap2\n      swap1\n      dup2\n      dup2\n      mstore\n      0x20\n      add\n      dup3\n      dup1\n      sload\n      tag_134\n      swap1\n      tag_133\n      jump\t// in\n    tag_134:\n      dup1\n      iszero\n      tag_135\n      jumpi\n      dup1\n      0x1f\n      lt\n      tag_136\n      jumpi\n      0x0100\n      dup1\n      dup4\n      sload\n      div\n      mul\n      dup4\n      mstore\n      swap2\n      0x20\n      add\n      swap2\n      jump(tag_135)\n    tag_136:\n      dup3\n      add\n      swap2\n      swap1\n      0x00\n      mstore\n      keccak256(0x00, 0x20)\n      swap1\n    tag_137:\n      dup2\n      sload\n      dup2\n      mstore\n      swap1\n      0x01\n      add\n      swap1\n      0x20\n      add\n      dup1\n      dup4\n      gt\n      tag_137\n      jumpi\n      dup3\n      swap1\n      sub\n      0x1f\n      and\n      dup3\n      add\n      swap2\n    tag_135:\n      pop\n      pop\n      pop\n      pop\n      pop\n      dup2\n      mstore\n      0x20\n      add\n      0x02\n      dup3\n      add\n      sload\n      dup2\n      mstore\n      pop\n      pop\n      dup2\n      mstore\n      0x20\n      add\n      swap1\n      0x01\n      add\n      swap1\n      jump(tag_129)\n    tag_130:\n      pop\n      pop\n      pop\n      pop\n      swap1\n      pop\n        /* \"inheritage.sol\":2324:2424  function viewSuccessor() public view returns(Successor[] memory) {... */\n      swap1\n      jump\t// out\n        /* \"inheritage.sol\":555:1300  function addSuccessor(address payable walletAddress, string memory name, uint percentage) public {... */\n    tag_39:\n        /* \"inheritage.sol\":685:690  owner */\n      0x00\n      dup1\n      sload\n      swap1\n      0x0100\n      exp\n      swap1\n      div\n      0xffffffffffffffffffffffffffffffffffffffff\n      and\n        /* \"inheritage.sol\":671:690  msg.sender == owner */\n      0xffffffffffffffffffffffffffffffffffffffff\n      and\n        /* \"inheritage.sol\":671:681  msg.sender */\n      caller\n        /* \"inheritage.sol\":671:690  msg.sender == owner */\n      0xffffffffffffffffffffffffffffffffffffffff\n      and\n      eq\n        /* \"inheritage.sol\":663:733  require(msg.sender == owner, \"Only the owner can call this function.\") */\n      tag_139\n      jumpi\n      mload(0x40)\n      0x08c379a000000000000000000000000000000000000000000000000000000000\n      dup2\n      mstore\n      0x04\n      add\n      tag_140\n      swap1\n      tag_141\n      jump\t// in\n    tag_140:\n      mload(0x40)\n      dup1\n      swap2\n      sub\n      swap1\n      revert\n    tag_139:\n        /* \"inheritage.sol\":765:766  0 */\n      0x00\n        /* \"inheritage.sol\":752:762  percentage */\n      dup2\n        /* \"inheritage.sol\":752:766  percentage > 0 */\n      gt\n        /* \"inheritage.sol\":752:787  percentage > 0 && percentage <= 100 */\n      dup1\n      iszero\n      tag_142\n      jumpi\n      pop\n        /* \"inheritage.sol\":784:787  100 */\n      0x64\n        /* \"inheritage.sol\":770:780  percentage */\n      dup2\n        /* \"inheritage.sol\":770:787  percentage <= 100 */\n      gt\n      iszero\n        /* \"inheritage.sol\":752:787  percentage > 0 && percentage <= 100 */\n    tag_142:\n        /* \"inheritage.sol\":744:829  require(percentage > 0 && percentage <= 100, \"Percentage must be between 1 and 100.\") */\n      tag_143\n      jumpi\n      mload(0x40)\n      0x08c379a000000000000000000000000000000000000000000000000000000000\n      dup2\n      mstore\n      0x04\n      add\n      tag_144\n      swap1\n      tag_145\n      jump\t// in\n    tag_144:\n      mload(0x40)\n      dup1\n      swap2\n      sub\n      swap1\n      revert\n    tag_143:\n        /* \"inheritage.sol\":885:888  100 */\n      0x64\n        /* \"inheritage.sol\":871:881  percentage */\n      dup2\n        /* \"inheritage.sol\":848:868  getTotalPercentage() */\n      tag_146\n        /* \"inheritage.sol\":848:866  getTotalPercentage */\n      tag_13\n        /* \"inheritage.sol\":848:868  getTotalPercentage() */\n      jump\t// in\n    tag_146:\n        /* \"inheritage.sol\":848:881  getTotalPercentage() + percentage */\n      tag_147\n      swap2\n      swap1\n      tag_53\n      jump\t// in\n    tag_147:\n        /* \"inheritage.sol\":848:888  getTotalPercentage() + percentage <= 100 */\n      gt\n      iszero\n        /* \"inheritage.sol\":840:923  require(getTotalPercentage() + percentage <= 100, \"Total percentage exceeds 100%.\") */\n      tag_148\n      jumpi\n      mload(0x40)\n      0x08c379a000000000000000000000000000000000000000000000000000000000\n      dup2\n      mstore\n      0x04\n      add\n      tag_149\n      swap1\n      tag_150\n      jump\t// in\n    tag_149:\n      mload(0x40)\n      dup1\n      swap2\n      sub\n      swap1\n      revert\n    tag_148:\n        /* \"inheritage.sol\":936:955  bool successorExist */\n      0x00\n        /* \"inheritage.sol\":978:984  uint i */\n      dup1\n        /* \"inheritage.sol\":974:1169  for(uint i = 0; i < successor.length; i++){... */\n    tag_151:\n        /* \"inheritage.sol\":994:1003  successor */\n      0x01\n        /* \"inheritage.sol\":994:1010  successor.length */\n      dup1\n      sload\n      swap1\n      pop\n        /* \"inheritage.sol\":990:991  i */\n      dup2\n        /* \"inheritage.sol\":990:1010  i < successor.length */\n      lt\n        /* \"inheritage.sol\":974:1169  for(uint i = 0; i < successor.length; i++){... */\n      iszero\n      tag_152\n      jumpi\n        /* \"inheritage.sol\":1064:1077  walletAddress */\n      dup5\n        /* \"inheritage.sol\":1034:1077  successor[i].walletAddress == walletAddress */\n      0xffffffffffffffffffffffffffffffffffffffff\n      and\n        /* \"inheritage.sol\":1034:1043  successor */\n      0x01\n        /* \"inheritage.sol\":1044:1045  i */\n      dup3\n        /* \"inheritage.sol\":1034:1046  successor[i] */\n      dup2\n      sload\n      dup2\n      lt\n      tag_154\n      jumpi\n      tag_155\n      tag_50\n      jump\t// in\n    tag_155:\n    tag_154:\n      swap1\n      0x00\n      mstore\n      keccak256(0x00, 0x20)\n      swap1\n      0x03\n      mul\n      add\n        /* \"inheritage.sol\":1034:1060  successor[i].walletAddress */\n      0x00\n      add\n      0x00\n      swap1\n      sload\n      swap1\n      0x0100\n      exp\n      swap1\n      div\n      0xffffffffffffffffffffffffffffffffffffffff\n      and\n        /* \"inheritage.sol\":1034:1077  successor[i].walletAddress == walletAddress */\n      0xffffffffffffffffffffffffffffffffffffffff\n      and\n      sub\n        /* \"inheritage.sol\":1031:1158  if(successor[i].walletAddress == walletAddress){... */\n      tag_157\n      jumpi\n        /* \"inheritage.sol\":1114:1118  true */\n      0x01\n        /* \"inheritage.sol\":1097:1118  successorExist = true */\n      swap2\n      pop\n        /* \"inheritage.sol\":1137:1142  break */\n      jump(tag_152)\n        /* \"inheritage.sol\":1031:1158  if(successor[i].walletAddress == walletAddress){... */\n    tag_157:\n        /* \"inheritage.sol\":1012:1015  i++ */\n      dup1\n      dup1\n      0x01\n      add\n      swap2\n      pop\n      pop\n        /* \"inheritage.sol\":974:1169  for(uint i = 0; i < successor.length; i++){... */\n      jump(tag_151)\n    tag_152:\n      pop\n        /* \"inheritage.sol\":1185:1199  successorExist */\n      dup1\n        /* \"inheritage.sol\":1181:1293  if(!successorExist){... */\n      tag_158\n      jumpi\n        /* \"inheritage.sol\":1215:1224  successor */\n      0x01\n        /* \"inheritage.sol\":1230:1272  Successor(walletAddress, name, percentage) */\n      mload(0x40)\n      dup1\n      0x60\n      add\n      0x40\n      mstore\n      dup1\n        /* \"inheritage.sol\":1240:1253  walletAddress */\n      dup7\n        /* \"inheritage.sol\":1230:1272  Successor(walletAddress, name, percentage) */\n      0xffffffffffffffffffffffffffffffffffffffff\n      and\n      dup2\n      mstore\n      0x20\n      add\n        /* \"inheritage.sol\":1255:1259  name */\n      dup6\n        /* \"inheritage.sol\":1230:1272  Successor(walletAddress, name, percentage) */\n      dup2\n      mstore\n      0x20\n      add\n        /* \"inheritage.sol\":1261:1271  percentage */\n      dup5\n        /* \"inheritage.sol\":1230:1272  Successor(walletAddress, name, percentage) */\n      dup2\n      mstore\n      pop\n        /* \"inheritage.sol\":1215:1273  successor.push(Successor(walletAddress, name, percentage)) */\n      swap1\n      dup1\n      0x01\n      dup2\n      sload\n      add\n      dup1\n      dup3\n      sstore\n      dup1\n      swap2\n      pop\n      pop\n      0x01\n      swap1\n      sub\n      swap1\n      0x00\n      mstore\n      keccak256(0x00, 0x20)\n      swap1\n      0x03\n      mul\n      add\n      0x00\n      swap1\n      swap2\n      swap1\n      swap2\n      swap1\n      swap2\n      pop\n      0x00\n      dup3\n      add\n      mload\n      dup2\n      0x00\n      add\n      exp(0x0100, 0x00)\n      dup2\n      sload\n      dup2\n      0xffffffffffffffffffffffffffffffffffffffff\n      mul\n      not\n      and\n      swap1\n      dup4\n      0xffffffffffffffffffffffffffffffffffffffff\n      and\n      mul\n      or\n      swap1\n      sstore\n      pop\n      0x20\n      dup3\n      add\n      mload\n      dup2\n      0x01\n      add\n      swap1\n      dup2\n      tag_160\n      swap2\n      swap1\n      tag_161\n      jump\t// in\n    tag_160:\n      pop\n      0x40\n      dup3\n      add\n      mload\n      dup2\n      0x02\n      add\n      sstore\n      pop\n      pop\n        /* \"inheritage.sol\":1181:1293  if(!successorExist){... */\n    tag_158:\n        /* \"inheritage.sol\":652:1300  {... */\n      pop\n        /* \"inheritage.sol\":555:1300  function addSuccessor(address payable walletAddress, string memory name, uint percentage) public {... */\n      pop\n      pop\n      pop\n      jump\t// out\n        /* \"inheritage.sol\":305:400  function viewbalance() public view returns(uint){... */\n    tag_42:\n        /* \"inheritage.sol\":348:352  uint */\n      0x00\n        /* \"inheritage.sol\":371:392  address(this).balance */\n      selfbalance\n        /* \"inheritage.sol\":364:392  return address(this).balance */\n      swap1\n      pop\n        /* \"inheritage.sol\":305:400  function viewbalance() public view returns(uint){... */\n      swap1\n      jump\t// out\n        /* \"inheritage.sol\":2825:2945  function transfer(address payable walletAddress, uint amount) internal {... */\n    tag_101:\n        /* \"inheritage.sol\":2907:2920  walletAddress */\n      dup2\n        /* \"inheritage.sol\":2907:2929  walletAddress.transfer */\n      0xffffffffffffffffffffffffffffffffffffffff\n      and\n        /* \"inheritage.sol\":2907:2937  walletAddress.transfer(amount) */\n      0x08fc\n        /* \"inheritage.sol\":2930:2936  amount */\n      dup3\n        /* \"inheritage.sol\":2907:2937  walletAddress.transfer(amount) */\n      swap1\n      dup2\n      iszero\n      mul\n      swap1\n      mload(0x40)\n      0x00\n      mload(0x40)\n      dup1\n      dup4\n      sub\n      dup2\n      dup6\n      dup9\n      dup9\n      call\n      swap4\n      pop\n      pop\n      pop\n      pop\n      iszero\n      dup1\n      iszero\n      tag_165\n      jumpi\n      returndatasize\n      0x00\n      dup1\n      returndatacopy\n      revert(0x00, returndatasize)\n    tag_165:\n      pop\n        /* \"inheritage.sol\":2825:2945  function transfer(address payable walletAddress, uint amount) internal {... */\n      pop\n      pop\n      jump\t// out\n    tag_82:\n      pop\n      dup1\n      sload\n      tag_166\n      swap1\n      tag_133\n      jump\t// in\n    tag_166:\n      0x00\n      dup3\n      sstore\n      dup1\n      0x1f\n      lt\n      tag_168\n      jumpi\n      pop\n      jump(tag_167)\n    tag_168:\n      0x1f\n      add\n      0x20\n      swap1\n      div\n      swap1\n      0x00\n      mstore\n      keccak256(0x00, 0x20)\n      swap1\n      dup2\n      add\n      swap1\n      tag_169\n      swap2\n      swap1\n      tag_170\n      jump\t// in\n    tag_169:\n    tag_167:\n      pop\n      jump\t// out\n    tag_170:\n    tag_171:\n      dup1\n      dup3\n      gt\n      iszero\n      tag_172\n      jumpi\n      0x00\n      dup2\n      0x00\n      swap1\n      sstore\n      pop\n      0x01\n      add\n      jump(tag_171)\n    tag_172:\n      pop\n      swap1\n      jump\t// out\n        /* \"#utility.yul\":7:84   */\n    tag_173:\n        /* \"#utility.yul\":44:51   */\n      0x00\n        /* \"#utility.yul\":73:78   */\n      dup2\n        /* \"#utility.yul\":62:78   */\n      swap1\n      pop\n        /* \"#utility.yul\":7:84   */\n      swap2\n      swap1\n      pop\n      jump\t// out\n        /* \"#utility.yul\":90:208   */\n    tag_174:\n        /* \"#utility.yul\":177:201   */\n      tag_238\n        /* \"#utility.yul\":195:200   */\n      dup2\n        /* \"#utility.yul\":177:201   */\n      tag_173\n      jump\t// in\n    tag_238:\n        /* \"#utility.yul\":172:175   */\n      dup3\n        /* \"#utility.yul\":165:202   */\n      mstore\n        /* \"#utility.yul\":90:208   */\n      pop\n      pop\n      jump\t// out\n        /* \"#utility.yul\":214:436   */\n    tag_15:\n        /* \"#utility.yul\":307:311   */\n      0x00\n        /* \"#utility.yul\":345:347   */\n      0x20\n        /* \"#utility.yul\":334:343   */\n      dup3\n        /* \"#utility.yul\":330:348   */\n      add\n        /* \"#utility.yul\":322:348   */\n      swap1\n      pop\n        /* \"#utility.yul\":358:429   */\n      tag_240\n        /* \"#utility.yul\":426:427   */\n      0x00\n        /* \"#utility.yul\":415:424   */\n      dup4\n        /* \"#utility.yul\":411:428   */\n      add\n        /* \"#utility.yul\":402:408   */\n      dup5\n        /* \"#utility.yul\":358:429   */\n      tag_174\n      jump\t// in\n    tag_240:\n        /* \"#utility.yul\":214:436   */\n      swap3\n      swap2\n      pop\n      pop\n      jump\t// out\n        /* \"#utility.yul\":442:517   */\n    tag_175:\n        /* \"#utility.yul\":475:481   */\n      0x00\n        /* \"#utility.yul\":508:510   */\n      0x40\n        /* \"#utility.yul\":502:511   */\n      mload\n        /* \"#utility.yul\":492:511   */\n      swap1\n      pop\n        /* \"#utility.yul\":442:517   */\n      swap1\n      jump\t// out\n        /* \"#utility.yul\":523:640   */\n    tag_176:\n        /* \"#utility.yul\":632:633   */\n      0x00\n        /* \"#utility.yul\":629:630   */\n      dup1\n        /* \"#utility.yul\":622:634   */\n      revert\n        /* \"#utility.yul\":646:763   */\n    tag_177:\n        /* \"#utility.yul\":755:756   */\n      0x00\n        /* \"#utility.yul\":752:753   */\n      dup1\n        /* \"#utility.yul\":745:757   */\n      revert\n        /* \"#utility.yul\":769:895   */\n    tag_178:\n        /* \"#utility.yul\":806:813   */\n      0x00\n        /* \"#utility.yul\":846:888   */\n      0xffffffffffffffffffffffffffffffffffffffff\n        /* \"#utility.yul\":839:844   */\n      dup3\n        /* \"#utility.yul\":835:889   */\n      and\n        /* \"#utility.yul\":824:889   */\n      swap1\n      pop\n        /* \"#utility.yul\":769:895   */\n      swap2\n      swap1\n      pop\n      jump\t// out\n        /* \"#utility.yul\":901:1005   */\n    tag_179:\n        /* \"#utility.yul\":946:953   */\n      0x00\n        /* \"#utility.yul\":975:999   */\n      tag_246\n        /* \"#utility.yul\":993:998   */\n      dup3\n        /* \"#utility.yul\":975:999   */\n      tag_178\n      jump\t// in\n    tag_246:\n        /* \"#utility.yul\":964:999   */\n      swap1\n      pop\n        /* \"#utility.yul\":901:1005   */\n      swap2\n      swap1\n      pop\n      jump\t// out\n        /* \"#utility.yul\":1011:1149   */\n    tag_180:\n        /* \"#utility.yul\":1092:1124   */\n      tag_248\n        /* \"#utility.yul\":1118:1123   */\n      dup2\n        /* \"#utility.yul\":1092:1124   */\n      tag_179\n      jump\t// in\n    tag_248:\n        /* \"#utility.yul\":1085:1090   */\n      dup2\n        /* \"#utility.yul\":1082:1125   */\n      eq\n        /* \"#utility.yul\":1072:1143   */\n      tag_249\n      jumpi\n        /* \"#utility.yul\":1139:1140   */\n      0x00\n        /* \"#utility.yul\":1136:1137   */\n      dup1\n        /* \"#utility.yul\":1129:1141   */\n      revert\n        /* \"#utility.yul\":1072:1143   */\n    tag_249:\n        /* \"#utility.yul\":1011:1149   */\n      pop\n      jump\t// out\n        /* \"#utility.yul\":1155:1310   */\n    tag_181:\n        /* \"#utility.yul\":1209:1214   */\n      0x00\n        /* \"#utility.yul\":1247:1253   */\n      dup2\n        /* \"#utility.yul\":1234:1254   */\n      calldataload\n        /* \"#utility.yul\":1225:1254   */\n      swap1\n      pop\n        /* \"#utility.yul\":1263:1304   */\n      tag_251\n        /* \"#utility.yul\":1298:1303   */\n      dup2\n        /* \"#utility.yul\":1263:1304   */\n      tag_180\n      jump\t// in\n    tag_251:\n        /* \"#utility.yul\":1155:1310   */\n      swap3\n      swap2\n      pop\n      pop\n      jump\t// out\n        /* \"#utility.yul\":1316:1661   */\n    tag_19:\n        /* \"#utility.yul\":1383:1389   */\n      0x00\n        /* \"#utility.yul\":1432:1434   */\n      0x20\n        /* \"#utility.yul\":1420:1429   */\n      dup3\n        /* \"#utility.yul\":1411:1418   */\n      dup5\n        /* \"#utility.yul\":1407:1430   */\n      sub\n        /* \"#utility.yul\":1403:1435   */\n      slt\n        /* \"#utility.yul\":1400:1519   */\n      iszero\n      tag_253\n      jumpi\n        /* \"#utility.yul\":1438:1517   */\n      tag_254\n      tag_176\n      jump\t// in\n    tag_254:\n        /* \"#utility.yul\":1400:1519   */\n    tag_253:\n        /* \"#utility.yul\":1558:1559   */\n      0x00\n        /* \"#utility.yul\":1583:1644   */\n      tag_255\n        /* \"#utility.yul\":1636:1643   */\n      dup5\n        /* \"#utility.yul\":1627:1633   */\n      dup3\n        /* \"#utility.yul\":1616:1625   */\n      dup6\n        /* \"#utility.yul\":1612:1634   */\n      add\n        /* \"#utility.yul\":1583:1644   */\n      tag_181\n      jump\t// in\n    tag_255:\n        /* \"#utility.yul\":1573:1644   */\n      swap2\n      pop\n        /* \"#utility.yul\":1529:1654   */\n      pop\n        /* \"#utility.yul\":1316:1661   */\n      swap3\n      swap2\n      pop\n      pop\n      jump\t// out\n        /* \"#utility.yul\":1667:1806   */\n    tag_182:\n        /* \"#utility.yul\":1759:1765   */\n      0x00\n        /* \"#utility.yul\":1793:1798   */\n      dup2\n        /* \"#utility.yul\":1787:1799   */\n      mload\n        /* \"#utility.yul\":1777:1799   */\n      swap1\n      pop\n        /* \"#utility.yul\":1667:1806   */\n      swap2\n      swap1\n      pop\n      jump\t// out\n        /* \"#utility.yul\":1812:2021   */\n    tag_183:\n        /* \"#utility.yul\":1936:1947   */\n      0x00\n        /* \"#utility.yul\":1970:1976   */\n      dup3\n        /* \"#utility.yul\":1965:1968   */\n      dup3\n        /* \"#utility.yul\":1958:1977   */\n      mstore\n        /* \"#utility.yul\":2010:2014   */\n      0x20\n        /* \"#utility.yul\":2005:2008   */\n      dup3\n        /* \"#utility.yul\":2001:2015   */\n      add\n        /* \"#utility.yul\":1986:2015   */\n      swap1\n      pop\n        /* \"#utility.yul\":1812:2021   */\n      swap3\n      swap2\n      pop\n      pop\n      jump\t// out\n        /* \"#utility.yul\":2027:2184   */\n    tag_184:\n        /* \"#utility.yul\":2119:2123   */\n      0x00\n        /* \"#utility.yul\":2142:2145   */\n      dup2\n        /* \"#utility.yul\":2134:2145   */\n      swap1\n      pop\n        /* \"#utility.yul\":2172:2176   */\n      0x20\n        /* \"#utility.yul\":2167:2170   */\n      dup3\n        /* \"#utility.yul\":2163:2177   */\n      add\n        /* \"#utility.yul\":2155:2177   */\n      swap1\n      pop\n        /* \"#utility.yul\":2027:2184   */\n      swap2\n      swap1\n      pop\n      jump\t// out\n        /* \"#utility.yul\":2190:2322   */\n    tag_185:\n        /* \"#utility.yul\":2283:2315   */\n      tag_260\n        /* \"#utility.yul\":2309:2314   */\n      dup2\n        /* \"#utility.yul\":2283:2315   */\n      tag_179\n      jump\t// in\n    tag_260:\n        /* \"#utility.yul\":2278:2281   */\n      dup3\n        /* \"#utility.yul\":2271:2316   */\n      mstore\n        /* \"#utility.yul\":2190:2322   */\n      pop\n      pop\n      jump\t// out\n        /* \"#utility.yul\":2328:2427   */\n    tag_186:\n        /* \"#utility.yul\":2380:2386   */\n      0x00\n        /* \"#utility.yul\":2414:2419   */\n      dup2\n        /* \"#utility.yul\":2408:2420   */\n      mload\n        /* \"#utility.yul\":2398:2420   */\n      swap1\n      pop\n        /* \"#utility.yul\":2328:2427   */\n      swap2\n      swap1\n      pop\n      jump\t// out\n        /* \"#utility.yul\":2433:2592   */\n    tag_187:\n        /* \"#utility.yul\":2507:2518   */\n      0x00\n        /* \"#utility.yul\":2541:2547   */\n      dup3\n        /* \"#utility.yul\":2536:2539   */\n      dup3\n        /* \"#utility.yul\":2529:2548   */\n      mstore\n        /* \"#utility.yul\":2581:2585   */\n      0x20\n        /* \"#utility.yul\":2576:2579   */\n      dup3\n        /* \"#utility.yul\":2572:2586   */\n      add\n        /* \"#utility.yul\":2557:2586   */\n      swap1\n      pop\n        /* \"#utility.yul\":2433:2592   */\n      swap3\n      swap2\n      pop\n      pop\n      jump\t// out\n        /* \"#utility.yul\":2598:2737   */\n    tag_188:\n        /* \"#utility.yul\":2687:2693   */\n      dup3\n        /* \"#utility.yul\":2682:2685   */\n      dup2\n        /* \"#utility.yul\":2677:2680   */\n      dup4\n        /* \"#utility.yul\":2671:2694   */\n      mcopy\n        /* \"#utility.yul\":2728:2729   */\n      0x00\n        /* \"#utility.yul\":2719:2725   */\n      dup4\n        /* \"#utility.yul\":2714:2717   */\n      dup4\n        /* \"#utility.yul\":2710:2726   */\n      add\n        /* \"#utility.yul\":2703:2730   */\n      mstore\n        /* \"#utility.yul\":2598:2737   */\n      pop\n      pop\n      pop\n      jump\t// out\n        /* \"#utility.yul\":2743:2845   */\n    tag_189:\n        /* \"#utility.yul\":2784:2790   */\n      0x00\n        /* \"#utility.yul\":2835:2837   */\n      0x1f\n        /* \"#utility.yul\":2831:2838   */\n      not\n        /* \"#utility.yul\":2826:2828   */\n      0x1f\n        /* \"#utility.yul\":2819:2824   */\n      dup4\n        /* \"#utility.yul\":2815:2829   */\n      add\n        /* \"#utility.yul\":2811:2839   */\n      and\n        /* \"#utility.yul\":2801:2839   */\n      swap1\n      pop\n        /* \"#utility.yul\":2743:2845   */\n      swap2\n      swap1\n      pop\n      jump\t// out\n        /* \"#utility.yul\":2851:3208   */\n    tag_190:\n        /* \"#utility.yul\":2929:2932   */\n      0x00\n        /* \"#utility.yul\":2957:2996   */\n      tag_266\n        /* \"#utility.yul\":2990:2995   */\n      dup3\n        /* \"#utility.yul\":2957:2996   */\n      tag_186\n      jump\t// in\n    tag_266:\n        /* \"#utility.yul\":3012:3073   */\n      tag_267\n        /* \"#utility.yul\":3066:3072   */\n      dup2\n        /* \"#utility.yul\":3061:3064   */\n      dup6\n        /* \"#utility.yul\":3012:3073   */\n      tag_187\n      jump\t// in\n    tag_267:\n        /* \"#utility.yul\":3005:3073   */\n      swap4\n      pop\n        /* \"#utility.yul\":3082:3147   */\n      tag_268\n        /* \"#utility.yul\":3140:3146   */\n      dup2\n        /* \"#utility.yul\":3135:3138   */\n      dup6\n        /* \"#utility.yul\":3128:3132   */\n      0x20\n        /* \"#utility.yul\":3121:3126   */\n      dup7\n        /* \"#utility.yul\":3117:3133   */\n      add\n        /* \"#utility.yul\":3082:3147   */\n      tag_188\n      jump\t// in\n    tag_268:\n        /* \"#utility.yul\":3172:3201   */\n      tag_269\n        /* \"#utility.yul\":3194:3200   */\n      dup2\n        /* \"#utility.yul\":3172:3201   */\n      tag_189\n      jump\t// in\n    tag_269:\n        /* \"#utility.yul\":3167:3170   */\n      dup5\n        /* \"#utility.yul\":3163:3202   */\n      add\n        /* \"#utility.yul\":3156:3202   */\n      swap2\n      pop\n        /* \"#utility.yul\":2933:3208   */\n      pop\n        /* \"#utility.yul\":2851:3208   */\n      swap3\n      swap2\n      pop\n      pop\n      jump\t// out\n        /* \"#utility.yul\":3214:3322   */\n    tag_191:\n        /* \"#utility.yul\":3291:3315   */\n      tag_271\n        /* \"#utility.yul\":3309:3314   */\n      dup2\n        /* \"#utility.yul\":3291:3315   */\n      tag_173\n      jump\t// in\n    tag_271:\n        /* \"#utility.yul\":3286:3289   */\n      dup3\n        /* \"#utility.yul\":3279:3316   */\n      mstore\n        /* \"#utility.yul\":3214:3322   */\n      pop\n      pop\n      jump\t// out\n        /* \"#utility.yul\":3394:4195   */\n    tag_192:\n        /* \"#utility.yul\":3503:3506   */\n      0x00\n        /* \"#utility.yul\":3539:3543   */\n      0x60\n        /* \"#utility.yul\":3534:3537   */\n      dup4\n        /* \"#utility.yul\":3530:3544   */\n      add\n        /* \"#utility.yul\":3635:3639   */\n      0x00\n        /* \"#utility.yul\":3628:3633   */\n      dup4\n        /* \"#utility.yul\":3624:3640   */\n      add\n        /* \"#utility.yul\":3618:3641   */\n      mload\n        /* \"#utility.yul\":3654:3733   */\n      tag_273\n        /* \"#utility.yul\":3727:3731   */\n      0x00\n        /* \"#utility.yul\":3722:3725   */\n      dup7\n        /* \"#utility.yul\":3718:3732   */\n      add\n        /* \"#utility.yul\":3704:3716   */\n      dup3\n        /* \"#utility.yul\":3654:3733   */\n      tag_185\n      jump\t// in\n    tag_273:\n        /* \"#utility.yul\":3554:3743   */\n      pop\n        /* \"#utility.yul\":3825:3829   */\n      0x20\n        /* \"#utility.yul\":3818:3823   */\n      dup4\n        /* \"#utility.yul\":3814:3830   */\n      add\n        /* \"#utility.yul\":3808:3831   */\n      mload\n        /* \"#utility.yul\":3878:3881   */\n      dup5\n        /* \"#utility.yul\":3872:3876   */\n      dup3\n        /* \"#utility.yul\":3868:3882   */\n      sub\n        /* \"#utility.yul\":3861:3865   */\n      0x20\n        /* \"#utility.yul\":3856:3859   */\n      dup7\n        /* \"#utility.yul\":3852:3866   */\n      add\n        /* \"#utility.yul\":3845:3883   */\n      mstore\n        /* \"#utility.yul\":3904:3977   */\n      tag_274\n        /* \"#utility.yul\":3972:3976   */\n      dup3\n        /* \"#utility.yul\":3958:3970   */\n      dup3\n        /* \"#utility.yul\":3904:3977   */\n      tag_190\n      jump\t// in\n    tag_274:\n        /* \"#utility.yul\":3896:3977   */\n      swap2\n      pop\n        /* \"#utility.yul\":3753:3988   */\n      pop\n        /* \"#utility.yul\":4076:4080   */\n      0x40\n        /* \"#utility.yul\":4069:4074   */\n      dup4\n        /* \"#utility.yul\":4065:4081   */\n      add\n        /* \"#utility.yul\":4059:4082   */\n      mload\n        /* \"#utility.yul\":4095:4158   */\n      tag_275\n        /* \"#utility.yul\":4152:4156   */\n      0x40\n        /* \"#utility.yul\":4147:4150   */\n      dup7\n        /* \"#utility.yul\":4143:4157   */\n      add\n        /* \"#utility.yul\":4129:4141   */\n      dup3\n        /* \"#utility.yul\":4095:4158   */\n      tag_191\n      jump\t// in\n    tag_275:\n        /* \"#utility.yul\":3998:4168   */\n      pop\n        /* \"#utility.yul\":4185:4189   */\n      dup1\n        /* \"#utility.yul\":4178:4189   */\n      swap2\n      pop\n        /* \"#utility.yul\":3508:4195   */\n      pop\n        /* \"#utility.yul\":3394:4195   */\n      swap3\n      swap2\n      pop\n      pop\n      jump\t// out\n        /* \"#utility.yul\":4201:4457   */\n    tag_193:\n        /* \"#utility.yul\":4320:4330   */\n      0x00\n        /* \"#utility.yul\":4355:4451   */\n      tag_277\n        /* \"#utility.yul\":4447:4450   */\n      dup4\n        /* \"#utility.yul\":4439:4445   */\n      dup4\n        /* \"#utility.yul\":4355:4451   */\n      tag_192\n      jump\t// in\n    tag_277:\n        /* \"#utility.yul\":4341:4451   */\n      swap1\n      pop\n        /* \"#utility.yul\":4201:4457   */\n      swap3\n      swap2\n      pop\n      pop\n      jump\t// out\n        /* \"#utility.yul\":4463:4601   */\n    tag_194:\n        /* \"#utility.yul\":4558:4562   */\n      0x00\n        /* \"#utility.yul\":4590:4594   */\n      0x20\n        /* \"#utility.yul\":4585:4588   */\n      dup3\n        /* \"#utility.yul\":4581:4595   */\n      add\n        /* \"#utility.yul\":4573:4595   */\n      swap1\n      pop\n        /* \"#utility.yul\":4463:4601   */\n      swap2\n      swap1\n      pop\n      jump\t// out\n        /* \"#utility.yul\":4677:5788   */\n    tag_195:\n        /* \"#utility.yul\":4846:4849   */\n      0x00\n        /* \"#utility.yul\":4875:4954   */\n      tag_280\n        /* \"#utility.yul\":4948:4953   */\n      dup3\n        /* \"#utility.yul\":4875:4954   */\n      tag_182\n      jump\t// in\n    tag_280:\n        /* \"#utility.yul\":4970:5081   */\n      tag_281\n        /* \"#utility.yul\":5074:5080   */\n      dup2\n        /* \"#utility.yul\":5069:5072   */\n      dup6\n        /* \"#utility.yul\":4970:5081   */\n      tag_183\n      jump\t// in\n    tag_281:\n        /* \"#utility.yul\":4963:5081   */\n      swap4\n      pop\n        /* \"#utility.yul\":5107:5110   */\n      dup4\n        /* \"#utility.yul\":5152:5156   */\n      0x20\n        /* \"#utility.yul\":5144:5150   */\n      dup3\n        /* \"#utility.yul\":5140:5157   */\n      mul\n        /* \"#utility.yul\":5135:5138   */\n      dup6\n        /* \"#utility.yul\":5131:5158   */\n      add\n        /* \"#utility.yul\":5182:5263   */\n      tag_282\n        /* \"#utility.yul\":5257:5262   */\n      dup6\n        /* \"#utility.yul\":5182:5263   */\n      tag_184\n      jump\t// in\n    tag_282:\n        /* \"#utility.yul\":5286:5293   */\n      dup1\n        /* \"#utility.yul\":5317:5318   */\n      0x00\n        /* \"#utility.yul\":5302:5743   */\n    tag_283:\n        /* \"#utility.yul\":5327:5333   */\n      dup6\n        /* \"#utility.yul\":5324:5325   */\n      dup2\n        /* \"#utility.yul\":5321:5334   */\n      lt\n        /* \"#utility.yul\":5302:5743   */\n      iszero\n      tag_285\n      jumpi\n        /* \"#utility.yul\":5398:5407   */\n      dup5\n        /* \"#utility.yul\":5392:5396   */\n      dup5\n        /* \"#utility.yul\":5388:5408   */\n      sub\n        /* \"#utility.yul\":5383:5386   */\n      dup10\n        /* \"#utility.yul\":5376:5409   */\n      mstore\n        /* \"#utility.yul\":5449:5455   */\n      dup2\n        /* \"#utility.yul\":5443:5456   */\n      mload\n        /* \"#utility.yul\":5477:5591   */\n      tag_286\n        /* \"#utility.yul\":5586:5590   */\n      dup6\n        /* \"#utility.yul\":5571:5584   */\n      dup3\n        /* \"#utility.yul\":5477:5591   */\n      tag_193\n      jump\t// in\n    tag_286:\n        /* \"#utility.yul\":5469:5591   */\n      swap5\n      pop\n        /* \"#utility.yul\":5614:5699   */\n      tag_287\n        /* \"#utility.yul\":5692:5698   */\n      dup4\n        /* \"#utility.yul\":5614:5699   */\n      tag_194\n      jump\t// in\n    tag_287:\n        /* \"#utility.yul\":5604:5699   */\n      swap3\n      pop\n        /* \"#utility.yul\":5728:5732   */\n      0x20\n        /* \"#utility.yul\":5723:5726   */\n      dup11\n        /* \"#utility.yul\":5719:5733   */\n      add\n        /* \"#utility.yul\":5712:5733   */\n      swap10\n      pop\n        /* \"#utility.yul\":5362:5743   */\n      pop\n        /* \"#utility.yul\":5349:5350   */\n      0x01\n        /* \"#utility.yul\":5346:5347   */\n      dup2\n        /* \"#utility.yul\":5342:5351   */\n      add\n        /* \"#utility.yul\":5337:5351   */\n      swap1\n      pop\n        /* \"#utility.yul\":5302:5743   */\n      jump(tag_283)\n    tag_285:\n        /* \"#utility.yul\":5306:5320   */\n      pop\n        /* \"#utility.yul\":5759:5763   */\n      dup3\n        /* \"#utility.yul\":5752:5763   */\n      swap8\n      pop\n        /* \"#utility.yul\":5779:5782   */\n      dup8\n        /* \"#utility.yul\":5772:5782   */\n      swap6\n      pop\n        /* \"#utility.yul\":4851:5788   */\n      pop\n      pop\n      pop\n      pop\n      pop\n        /* \"#utility.yul\":4677:5788   */\n      swap3\n      swap2\n      pop\n      pop\n      jump\t// out\n        /* \"#utility.yul\":5794:6267   */\n    tag_34:\n        /* \"#utility.yul\":5987:5991   */\n      0x00\n        /* \"#utility.yul\":6025:6027   */\n      0x20\n        /* \"#utility.yul\":6014:6023   */\n      dup3\n        /* \"#utility.yul\":6010:6028   */\n      add\n        /* \"#utility.yul\":6002:6028   */\n      swap1\n      pop\n        /* \"#utility.yul\":6074:6083   */\n      dup2\n        /* \"#utility.yul\":6068:6072   */\n      dup2\n        /* \"#utility.yul\":6064:6084   */\n      sub\n        /* \"#utility.yul\":6060:6061   */\n      0x00\n        /* \"#utility.yul\":6049:6058   */\n      dup4\n        /* \"#utility.yul\":6045:6062   */\n      add\n        /* \"#utility.yul\":6038:6085   */\n      mstore\n        /* \"#utility.yul\":6102:6260   */\n      tag_289\n        /* \"#utility.yul\":6255:6259   */\n      dup2\n        /* \"#utility.yul\":6246:6252   */\n      dup5\n        /* \"#utility.yul\":6102:6260   */\n      tag_195\n      jump\t// in\n    tag_289:\n        /* \"#utility.yul\":6094:6260   */\n      swap1\n      pop\n        /* \"#utility.yul\":5794:6267   */\n      swap3\n      swap2\n      pop\n      pop\n      jump\t// out\n        /* \"#utility.yul\":6273:6390   */\n    tag_196:\n        /* \"#utility.yul\":6382:6383   */\n      0x00\n        /* \"#utility.yul\":6379:6380   */\n      dup1\n        /* \"#utility.yul\":6372:6384   */\n      revert\n        /* \"#utility.yul\":6396:6513   */\n    tag_197:\n        /* \"#utility.yul\":6505:6506   */\n      0x00\n        /* \"#utility.yul\":6502:6503   */\n      dup1\n        /* \"#utility.yul\":6495:6507   */\n      revert\n        /* \"#utility.yul\":6519:6699   */\n    tag_198:\n        /* \"#utility.yul\":6567:6644   */\n      0x4e487b7100000000000000000000000000000000000000000000000000000000\n        /* \"#utility.yul\":6564:6565   */\n      0x00\n        /* \"#utility.yul\":6557:6645   */\n      mstore\n        /* \"#utility.yul\":6664:6668   */\n      0x41\n        /* \"#utility.yul\":6661:6662   */\n      0x04\n        /* \"#utility.yul\":6654:6669   */\n      mstore\n        /* \"#utility.yul\":6688:6692   */\n      0x24\n        /* \"#utility.yul\":6685:6686   */\n      0x00\n        /* \"#utility.yul\":6678:6693   */\n      revert\n        /* \"#utility.yul\":6705:6986   */\n    tag_199:\n        /* \"#utility.yul\":6788:6815   */\n      tag_294\n        /* \"#utility.yul\":6810:6814   */\n      dup3\n        /* \"#utility.yul\":6788:6815   */\n      tag_189\n      jump\t// in\n    tag_294:\n        /* \"#utility.yul\":6780:6786   */\n      dup2\n        /* \"#utility.yul\":6776:6816   */\n      add\n        /* \"#utility.yul\":6918:6924   */\n      dup2\n        /* \"#utility.yul\":6906:6916   */\n      dup2\n        /* \"#utility.yul\":6903:6925   */\n      lt\n        /* \"#utility.yul\":6882:6900   */\n      0xffffffffffffffff\n        /* \"#utility.yul\":6870:6880   */\n      dup3\n        /* \"#utility.yul\":6867:6901   */\n      gt\n        /* \"#utility.yul\":6864:6926   */\n      or\n        /* \"#utility.yul\":6861:6949   */\n      iszero\n      tag_295\n      jumpi\n        /* \"#utility.yul\":6929:6947   */\n      tag_296\n      tag_198\n      jump\t// in\n    tag_296:\n        /* \"#utility.yul\":6861:6949   */\n    tag_295:\n        /* \"#utility.yul\":6969:6979   */\n      dup1\n        /* \"#utility.yul\":6965:6967   */\n      0x40\n        /* \"#utility.yul\":6958:6980   */\n      mstore\n        /* \"#utility.yul\":6748:6986   */\n      pop\n        /* \"#utility.yul\":6705:6986   */\n      pop\n      pop\n      jump\t// out\n        /* \"#utility.yul\":6992:7121   */\n    tag_200:\n        /* \"#utility.yul\":7026:7032   */\n      0x00\n        /* \"#utility.yul\":7053:7073   */\n      tag_298\n      tag_175\n      jump\t// in\n    tag_298:\n        /* \"#utility.yul\":7043:7073   */\n      swap1\n      pop\n        /* \"#utility.yul\":7082:7115   */\n      tag_299\n        /* \"#utility.yul\":7110:7114   */\n      dup3\n        /* \"#utility.yul\":7102:7108   */\n      dup3\n        /* \"#utility.yul\":7082:7115   */\n      tag_199\n      jump\t// in\n    tag_299:\n        /* \"#utility.yul\":6992:7121   */\n      swap2\n      swap1\n      pop\n      jump\t// out\n        /* \"#utility.yul\":7127:7435   */\n    tag_201:\n        /* \"#utility.yul\":7189:7193   */\n      0x00\n        /* \"#utility.yul\":7279:7297   */\n      0xffffffffffffffff\n        /* \"#utility.yul\":7271:7277   */\n      dup3\n        /* \"#utility.yul\":7268:7298   */\n      gt\n        /* \"#utility.yul\":7265:7321   */\n      iszero\n      tag_301\n      jumpi\n        /* \"#utility.yul\":7301:7319   */\n      tag_302\n      tag_198\n      jump\t// in\n    tag_302:\n        /* \"#utility.yul\":7265:7321   */\n    tag_301:\n        /* \"#utility.yul\":7339:7368   */\n      tag_303\n        /* \"#utility.yul\":7361:7367   */\n      dup3\n        /* \"#utility.yul\":7339:7368   */\n      tag_189\n      jump\t// in\n    tag_303:\n        /* \"#utility.yul\":7331:7368   */\n      swap1\n      pop\n        /* \"#utility.yul\":7423:7427   */\n      0x20\n        /* \"#utility.yul\":7417:7421   */\n      dup2\n        /* \"#utility.yul\":7413:7428   */\n      add\n        /* \"#utility.yul\":7405:7428   */\n      swap1\n      pop\n        /* \"#utility.yul\":7127:7435   */\n      swap2\n      swap1\n      pop\n      jump\t// out\n        /* \"#utility.yul\":7441:7589   */\n    tag_202:\n        /* \"#utility.yul\":7539:7545   */\n      dup3\n        /* \"#utility.yul\":7534:7537   */\n      dup2\n        /* \"#utility.yul\":7529:7532   */\n      dup4\n        /* \"#utility.yul\":7516:7546   */\n      calldatacopy\n        /* \"#utility.yul\":7580:7581   */\n      0x00\n        /* \"#utility.yul\":7571:7577   */\n      dup4\n        /* \"#utility.yul\":7566:7569   */\n      dup4\n        /* \"#utility.yul\":7562:7578   */\n      add\n        /* \"#utility.yul\":7555:7582   */\n      mstore\n        /* \"#utility.yul\":7441:7589   */\n      pop\n      pop\n      pop\n      jump\t// out\n        /* \"#utility.yul\":7595:8020   */\n    tag_203:\n        /* \"#utility.yul\":7673:7678   */\n      0x00\n        /* \"#utility.yul\":7698:7764   */\n      tag_306\n        /* \"#utility.yul\":7714:7763   */\n      tag_307\n        /* \"#utility.yul\":7756:7762   */\n      dup5\n        /* \"#utility.yul\":7714:7763   */\n      tag_201\n      jump\t// in\n    tag_307:\n        /* \"#utility.yul\":7698:7764   */\n      tag_200\n      jump\t// in\n    tag_306:\n        /* \"#utility.yul\":7689:7764   */\n      swap1\n      pop\n        /* \"#utility.yul\":7787:7793   */\n      dup3\n        /* \"#utility.yul\":7780:7785   */\n      dup2\n        /* \"#utility.yul\":7773:7794   */\n      mstore\n        /* \"#utility.yul\":7825:7829   */\n      0x20\n        /* \"#utility.yul\":7818:7823   */\n      dup2\n        /* \"#utility.yul\":7814:7830   */\n      add\n        /* \"#utility.yul\":7863:7866   */\n      dup5\n        /* \"#utility.yul\":7854:7860   */\n      dup5\n        /* \"#utility.yul\":7849:7852   */\n      dup5\n        /* \"#utility.yul\":7845:7861   */\n      add\n        /* \"#utility.yul\":7842:7867   */\n      gt\n        /* \"#utility.yul\":7839:7951   */\n      iszero\n      tag_308\n      jumpi\n        /* \"#utility.yul\":7870:7949   */\n      tag_309\n      tag_197\n      jump\t// in\n    tag_309:\n        /* \"#utility.yul\":7839:7951   */\n    tag_308:\n        /* \"#utility.yul\":7960:8014   */\n      tag_310\n        /* \"#utility.yul\":8007:8013   */\n      dup5\n        /* \"#utility.yul\":8002:8005   */\n      dup3\n        /* \"#utility.yul\":7997:8000   */\n      dup6\n        /* \"#utility.yul\":7960:8014   */\n      tag_202\n      jump\t// in\n    tag_310:\n        /* \"#utility.yul\":7679:8020   */\n      pop\n        /* \"#utility.yul\":7595:8020   */\n      swap4\n      swap3\n      pop\n      pop\n      pop\n      jump\t// out\n        /* \"#utility.yul\":8040:8380   */\n    tag_204:\n        /* \"#utility.yul\":8096:8101   */\n      0x00\n        /* \"#utility.yul\":8145:8148   */\n      dup3\n        /* \"#utility.yul\":8138:8142   */\n      0x1f\n        /* \"#utility.yul\":8130:8136   */\n      dup4\n        /* \"#utility.yul\":8126:8143   */\n      add\n        /* \"#utility.yul\":8122:8149   */\n      slt\n        /* \"#utility.yul\":8112:8234   */\n      tag_312\n      jumpi\n        /* \"#utility.yul\":8153:8232   */\n      tag_313\n      tag_196\n      jump\t// in\n    tag_313:\n        /* \"#utility.yul\":8112:8234   */\n    tag_312:\n        /* \"#utility.yul\":8270:8276   */\n      dup2\n        /* \"#utility.yul\":8257:8277   */\n      calldataload\n        /* \"#utility.yul\":8295:8374   */\n      tag_314\n        /* \"#utility.yul\":8370:8373   */\n      dup5\n        /* \"#utility.yul\":8362:8368   */\n      dup3\n        /* \"#utility.yul\":8355:8359   */\n      0x20\n        /* \"#utility.yul\":8347:8353   */\n      dup7\n        /* \"#utility.yul\":8343:8360   */\n      add\n        /* \"#utility.yul\":8295:8374   */\n      tag_203\n      jump\t// in\n    tag_314:\n        /* \"#utility.yul\":8286:8374   */\n      swap2\n      pop\n        /* \"#utility.yul\":8102:8380   */\n      pop\n        /* \"#utility.yul\":8040:8380   */\n      swap3\n      swap2\n      pop\n      pop\n      jump\t// out\n        /* \"#utility.yul\":8386:8508   */\n    tag_205:\n        /* \"#utility.yul\":8459:8483   */\n      tag_316\n        /* \"#utility.yul\":8477:8482   */\n      dup2\n        /* \"#utility.yul\":8459:8483   */\n      tag_173\n      jump\t// in\n    tag_316:\n        /* \"#utility.yul\":8452:8457   */\n      dup2\n        /* \"#utility.yul\":8449:8484   */\n      eq\n        /* \"#utility.yul\":8439:8502   */\n      tag_317\n      jumpi\n        /* \"#utility.yul\":8498:8499   */\n      0x00\n        /* \"#utility.yul\":8495:8496   */\n      dup1\n        /* \"#utility.yul\":8488:8500   */\n      revert\n        /* \"#utility.yul\":8439:8502   */\n    tag_317:\n        /* \"#utility.yul\":8386:8508   */\n      pop\n      jump\t// out\n        /* \"#utility.yul\":8514:8653   */\n    tag_206:\n        /* \"#utility.yul\":8560:8565   */\n      0x00\n        /* \"#utility.yul\":8598:8604   */\n      dup2\n        /* \"#utility.yul\":8585:8605   */\n      calldataload\n        /* \"#utility.yul\":8576:8605   */\n      swap1\n      pop\n        /* \"#utility.yul\":8614:8647   */\n      tag_319\n        /* \"#utility.yul\":8641:8646   */\n      dup2\n        /* \"#utility.yul\":8614:8647   */\n      tag_205\n      jump\t// in\n    tag_319:\n        /* \"#utility.yul\":8514:8653   */\n      swap3\n      swap2\n      pop\n      pop\n      jump\t// out\n        /* \"#utility.yul\":8659:9474   */\n    tag_38:\n        /* \"#utility.yul\":8754:8760   */\n      0x00\n        /* \"#utility.yul\":8762:8768   */\n      dup1\n        /* \"#utility.yul\":8770:8776   */\n      0x00\n        /* \"#utility.yul\":8819:8821   */\n      0x60\n        /* \"#utility.yul\":8807:8816   */\n      dup5\n        /* \"#utility.yul\":8798:8805   */\n      dup7\n        /* \"#utility.yul\":8794:8817   */\n      sub\n        /* \"#utility.yul\":8790:8822   */\n      slt\n        /* \"#utility.yul\":8787:8906   */\n      iszero\n      tag_321\n      jumpi\n        /* \"#utility.yul\":8825:8904   */\n      tag_322\n      tag_176\n      jump\t// in\n    tag_322:\n        /* \"#utility.yul\":8787:8906   */\n    tag_321:\n        /* \"#utility.yul\":8945:8946   */\n      0x00\n        /* \"#utility.yul\":8970:9031   */\n      tag_323\n        /* \"#utility.yul\":9023:9030   */\n      dup7\n        /* \"#utility.yul\":9014:9020   */\n      dup3\n        /* \"#utility.yul\":9003:9012   */\n      dup8\n        /* \"#utility.yul\":8999:9021   */\n      add\n        /* \"#utility.yul\":8970:9031   */\n      tag_181\n      jump\t// in\n    tag_323:\n        /* \"#utility.yul\":8960:9031   */\n      swap4\n      pop\n        /* \"#utility.yul\":8916:9041   */\n      pop\n        /* \"#utility.yul\":9108:9110   */\n      0x20\n        /* \"#utility.yul\":9097:9106   */\n      dup5\n        /* \"#utility.yul\":9093:9111   */\n      add\n        /* \"#utility.yul\":9080:9112   */\n      calldataload\n        /* \"#utility.yul\":9139:9157   */\n      0xffffffffffffffff\n        /* \"#utility.yul\":9131:9137   */\n      dup2\n        /* \"#utility.yul\":9128:9158   */\n      gt\n        /* \"#utility.yul\":9125:9242   */\n      iszero\n      tag_324\n      jumpi\n        /* \"#utility.yul\":9161:9240   */\n      tag_325\n      tag_177\n      jump\t// in\n    tag_325:\n        /* \"#utility.yul\":9125:9242   */\n    tag_324:\n        /* \"#utility.yul\":9266:9329   */\n      tag_326\n        /* \"#utility.yul\":9321:9328   */\n      dup7\n        /* \"#utility.yul\":9312:9318   */\n      dup3\n        /* \"#utility.yul\":9301:9310   */\n      dup8\n        /* \"#utility.yul\":9297:9319   */\n      add\n        /* \"#utility.yul\":9266:9329   */\n      tag_204\n      jump\t// in\n    tag_326:\n        /* \"#utility.yul\":9256:9329   */\n      swap3\n      pop\n        /* \"#utility.yul\":9051:9339   */\n      pop\n        /* \"#utility.yul\":9378:9380   */\n      0x40\n        /* \"#utility.yul\":9404:9457   */\n      tag_327\n        /* \"#utility.yul\":9449:9456   */\n      dup7\n        /* \"#utility.yul\":9440:9446   */\n      dup3\n        /* \"#utility.yul\":9429:9438   */\n      dup8\n        /* \"#utility.yul\":9425:9447   */\n      add\n        /* \"#utility.yul\":9404:9457   */\n      tag_206\n      jump\t// in\n    tag_327:\n        /* \"#utility.yul\":9394:9457   */\n      swap2\n      pop\n        /* \"#utility.yul\":9349:9467   */\n      pop\n        /* \"#utility.yul\":8659:9474   */\n      swap3\n      pop\n      swap3\n      pop\n      swap3\n      jump\t// out\n        /* \"#utility.yul\":9480:9660   */\n    tag_50:\n        /* \"#utility.yul\":9528:9605   */\n      0x4e487b7100000000000000000000000000000000000000000000000000000000\n        /* \"#utility.yul\":9525:9526   */\n      0x00\n        /* \"#utility.yul\":9518:9606   */\n      mstore\n        /* \"#utility.yul\":9625:9629   */\n      0x32\n        /* \"#utility.yul\":9622:9623   */\n      0x04\n        /* \"#utility.yul\":9615:9630   */\n      mstore\n        /* \"#utility.yul\":9649:9653   */\n      0x24\n        /* \"#utility.yul\":9646:9647   */\n      0x00\n        /* \"#utility.yul\":9639:9654   */\n      revert\n        /* \"#utility.yul\":9666:9846   */\n    tag_207:\n        /* \"#utility.yul\":9714:9791   */\n      0x4e487b7100000000000000000000000000000000000000000000000000000000\n        /* \"#utility.yul\":9711:9712   */\n      0x00\n        /* \"#utility.yul\":9704:9792   */\n      mstore\n        /* \"#utility.yul\":9811:9815   */\n      0x11\n        /* \"#utility.yul\":9808:9809   */\n      0x04\n        /* \"#utility.yul\":9801:9816   */\n      mstore\n        /* \"#utility.yul\":9835:9839   */\n      0x24\n        /* \"#utility.yul\":9832:9833   */\n      0x00\n        /* \"#utility.yul\":9825:9840   */\n      revert\n        /* \"#utility.yul\":9852:10043   */\n    tag_53:\n        /* \"#utility.yul\":9892:9895   */\n      0x00\n        /* \"#utility.yul\":9911:9931   */\n      tag_331\n        /* \"#utility.yul\":9929:9930   */\n      dup3\n        /* \"#utility.yul\":9911:9931   */\n      tag_173\n      jump\t// in\n    tag_331:\n        /* \"#utility.yul\":9906:9931   */\n      swap2\n      pop\n        /* \"#utility.yul\":9945:9965   */\n      tag_332\n        /* \"#utility.yul\":9963:9964   */\n      dup4\n        /* \"#utility.yul\":9945:9965   */\n      tag_173\n      jump\t// in\n    tag_332:\n        /* \"#utility.yul\":9940:9965   */\n      swap3\n      pop\n        /* \"#utility.yul\":9988:9989   */\n      dup3\n        /* \"#utility.yul\":9985:9986   */\n      dup3\n        /* \"#utility.yul\":9981:9990   */\n      add\n        /* \"#utility.yul\":9974:9990   */\n      swap1\n      pop\n        /* \"#utility.yul\":10009:10012   */\n      dup1\n        /* \"#utility.yul\":10006:10007   */\n      dup3\n        /* \"#utility.yul\":10003:10013   */\n      gt\n        /* \"#utility.yul\":10000:10036   */\n      iszero\n      tag_333\n      jumpi\n        /* \"#utility.yul\":10016:10034   */\n      tag_334\n      tag_207\n      jump\t// in\n    tag_334:\n        /* \"#utility.yul\":10000:10036   */\n    tag_333:\n        /* \"#utility.yul\":9852:10043   */\n      swap3\n      swap2\n      pop\n      pop\n      jump\t// out\n        /* \"#utility.yul\":10049:10243   */\n    tag_67:\n        /* \"#utility.yul\":10089:10093   */\n      0x00\n        /* \"#utility.yul\":10109:10129   */\n      tag_336\n        /* \"#utility.yul\":10127:10128   */\n      dup3\n        /* \"#utility.yul\":10109:10129   */\n      tag_173\n      jump\t// in\n    tag_336:\n        /* \"#utility.yul\":10104:10129   */\n      swap2\n      pop\n        /* \"#utility.yul\":10143:10163   */\n      tag_337\n        /* \"#utility.yul\":10161:10162   */\n      dup4\n        /* \"#utility.yul\":10143:10163   */\n      tag_173\n      jump\t// in\n    tag_337:\n        /* \"#utility.yul\":10138:10163   */\n      swap3\n      pop\n        /* \"#utility.yul\":10187:10188   */\n      dup3\n        /* \"#utility.yul\":10184:10185   */\n      dup3\n        /* \"#utility.yul\":10180:10189   */\n      sub\n        /* \"#utility.yul\":10172:10189   */\n      swap1\n      pop\n        /* \"#utility.yul\":10211:10212   */\n      dup2\n        /* \"#utility.yul\":10205:10209   */\n      dup2\n        /* \"#utility.yul\":10202:10213   */\n      gt\n        /* \"#utility.yul\":10199:10236   */\n      iszero\n      tag_338\n      jumpi\n        /* \"#utility.yul\":10216:10234   */\n      tag_339\n      tag_207\n      jump\t// in\n    tag_339:\n        /* \"#utility.yul\":10199:10236   */\n    tag_338:\n        /* \"#utility.yul\":10049:10243   */\n      swap3\n      swap2\n      pop\n      pop\n      jump\t// out\n        /* \"#utility.yul\":10249:10429   */\n    tag_208:\n        /* \"#utility.yul\":10297:10374   */\n      0x4e487b7100000000000000000000000000000000000000000000000000000000\n        /* \"#utility.yul\":10294:10295   */\n      0x00\n        /* \"#utility.yul\":10287:10375   */\n      mstore\n        /* \"#utility.yul\":10394:10398   */\n      0x22\n        /* \"#utility.yul\":10391:10392   */\n      0x04\n        /* \"#utility.yul\":10384:10399   */\n      mstore\n        /* \"#utility.yul\":10418:10422   */\n      0x24\n        /* \"#utility.yul\":10415:10416   */\n      0x00\n        /* \"#utility.yul\":10408:10423   */\n      revert\n        /* \"#utility.yul\":10435:10755   */\n    tag_133:\n        /* \"#utility.yul\":10479:10485   */\n      0x00\n        /* \"#utility.yul\":10516:10517   */\n      0x02\n        /* \"#utility.yul\":10510:10514   */\n      dup3\n        /* \"#utility.yul\":10506:10518   */\n      div\n        /* \"#utility.yul\":10496:10518   */\n      swap1\n      pop\n        /* \"#utility.yul\":10563:10564   */\n      0x01\n        /* \"#utility.yul\":10557:10561   */\n      dup3\n        /* \"#utility.yul\":10553:10565   */\n      and\n        /* \"#utility.yul\":10584:10602   */\n      dup1\n        /* \"#utility.yul\":10574:10655   */\n      tag_342\n      jumpi\n        /* \"#utility.yul\":10640:10644   */\n      0x7f\n        /* \"#utility.yul\":10632:10638   */\n      dup3\n        /* \"#utility.yul\":10628:10645   */\n      and\n        /* \"#utility.yul\":10618:10645   */\n      swap2\n      pop\n        /* \"#utility.yul\":10574:10655   */\n    tag_342:\n        /* \"#utility.yul\":10702:10704   */\n      0x20\n        /* \"#utility.yul\":10694:10700   */\n      dup3\n        /* \"#utility.yul\":10691:10705   */\n      lt\n        /* \"#utility.yul\":10671:10689   */\n      dup2\n        /* \"#utility.yul\":10668:10706   */\n      sub\n        /* \"#utility.yul\":10665:10749   */\n      tag_343\n      jumpi\n        /* \"#utility.yul\":10721:10739   */\n      tag_344\n      tag_208\n      jump\t// in\n    tag_344:\n        /* \"#utility.yul\":10665:10749   */\n    tag_343:\n        /* \"#utility.yul\":10486:10755   */\n      pop\n        /* \"#utility.yul\":10435:10755   */\n      swap2\n      swap1\n      pop\n      jump\t// out\n        /* \"#utility.yul\":10761:10910   */\n    tag_209:\n        /* \"#utility.yul\":10810:10816   */\n      0x00\n        /* \"#utility.yul\":10844:10849   */\n      dup2\n        /* \"#utility.yul\":10838:10850   */\n      sload\n        /* \"#utility.yul\":10828:10850   */\n      swap1\n      pop\n        /* \"#utility.yul\":10870:10903   */\n      tag_346\n        /* \"#utility.yul\":10896:10902   */\n      dup2\n        /* \"#utility.yul\":10870:10903   */\n      tag_133\n      jump\t// in\n    tag_346:\n        /* \"#utility.yul\":10860:10903   */\n      swap1\n      pop\n        /* \"#utility.yul\":10761:10910   */\n      swap2\n      swap1\n      pop\n      jump\t// out\n        /* \"#utility.yul\":10916:11057   */\n    tag_210:\n        /* \"#utility.yul\":10965:10969   */\n      0x00\n        /* \"#utility.yul\":10988:10991   */\n      dup2\n        /* \"#utility.yul\":10980:10991   */\n      swap1\n      pop\n        /* \"#utility.yul\":11011:11014   */\n      dup2\n        /* \"#utility.yul\":11008:11009   */\n      0x00\n        /* \"#utility.yul\":11001:11015   */\n      mstore\n        /* \"#utility.yul\":11045:11049   */\n      0x20\n        /* \"#utility.yul\":11042:11043   */\n      0x00\n        /* \"#utility.yul\":11032:11050   */\n      keccak256\n        /* \"#utility.yul\":11024:11050   */\n      swap1\n      pop\n        /* \"#utility.yul\":10916:11057   */\n      swap2\n      swap1\n      pop\n      jump\t// out\n        /* \"#utility.yul\":11063:11156   */\n    tag_211:\n        /* \"#utility.yul\":11100:11106   */\n      0x00\n        /* \"#utility.yul\":11147:11149   */\n      0x20\n        /* \"#utility.yul\":11142:11144   */\n      0x1f\n        /* \"#utility.yul\":11135:11140   */\n      dup4\n        /* \"#utility.yul\":11131:11145   */\n      add\n        /* \"#utility.yul\":11127:11150   */\n      div\n        /* \"#utility.yul\":11117:11150   */\n      swap1\n      pop\n        /* \"#utility.yul\":11063:11156   */\n      swap2\n      swap1\n      pop\n      jump\t// out\n        /* \"#utility.yul\":11162:11269   */\n    tag_212:\n        /* \"#utility.yul\":11206:11214   */\n      0x00\n        /* \"#utility.yul\":11256:11261   */\n      dup3\n        /* \"#utility.yul\":11250:11254   */\n      dup3\n        /* \"#utility.yul\":11246:11262   */\n      shl\n        /* \"#utility.yul\":11225:11262   */\n      swap1\n      pop\n        /* \"#utility.yul\":11162:11269   */\n      swap3\n      swap2\n      pop\n      pop\n      jump\t// out\n        /* \"#utility.yul\":11275:11668   */\n    tag_213:\n        /* \"#utility.yul\":11344:11350   */\n      0x00\n        /* \"#utility.yul\":11394:11395   */\n      0x08\n        /* \"#utility.yul\":11382:11392   */\n      dup4\n        /* \"#utility.yul\":11378:11396   */\n      mul\n        /* \"#utility.yul\":11417:11514   */\n      tag_351\n        /* \"#utility.yul\":11447:11513   */\n      0xffffffffffffffffffffffffffffffffffffffffffffffffffffffffffffffff\n        /* \"#utility.yul\":11436:11445   */\n      dup3\n        /* \"#utility.yul\":11417:11514   */\n      tag_212\n      jump\t// in\n    tag_351:\n        /* \"#utility.yul\":11535:11574   */\n      tag_352\n        /* \"#utility.yul\":11565:11573   */\n      dup7\n        /* \"#utility.yul\":11554:11563   */\n      dup4\n        /* \"#utility.yul\":11535:11574   */\n      tag_212\n      jump\t// in\n    tag_352:\n        /* \"#utility.yul\":11523:11574   */\n      swap6\n      pop\n        /* \"#utility.yul\":11607:11611   */\n      dup1\n        /* \"#utility.yul\":11603:11612   */\n      not\n        /* \"#utility.yul\":11596:11601   */\n      dup5\n        /* \"#utility.yul\":11592:11613   */\n      and\n        /* \"#utility.yul\":11583:11613   */\n      swap4\n      pop\n        /* \"#utility.yul\":11656:11660   */\n      dup1\n        /* \"#utility.yul\":11646:11654   */\n      dup7\n        /* \"#utility.yul\":11642:11661   */\n      and\n        /* \"#utility.yul\":11635:11640   */\n      dup5\n        /* \"#utility.yul\":11632:11662   */\n      or\n        /* \"#utility.yul\":11622:11662   */\n      swap3\n      pop\n        /* \"#utility.yul\":11351:11668   */\n      pop\n      pop\n        /* \"#utility.yul\":11275:11668   */\n      swap4\n      swap3\n      pop\n      pop\n      pop\n      jump\t// out\n        /* \"#utility.yul\":11674:11734   */\n    tag_214:\n        /* \"#utility.yul\":11702:11705   */\n      0x00\n        /* \"#utility.yul\":11723:11728   */\n      dup2\n        /* \"#utility.yul\":11716:11728   */\n      swap1\n      pop\n        /* \"#utility.yul\":11674:11734   */\n      swap2\n      swap1\n      pop\n      jump\t// out\n        /* \"#utility.yul\":11740:11882   */\n    tag_215:\n        /* \"#utility.yul\":11790:11799   */\n      0x00\n        /* \"#utility.yul\":11823:11876   */\n      tag_355\n        /* \"#utility.yul\":11841:11875   */\n      tag_356\n        /* \"#utility.yul\":11850:11874   */\n      tag_357\n        /* \"#utility.yul\":11868:11873   */\n      dup5\n        /* \"#utility.yul\":11850:11874   */\n      tag_173\n      jump\t// in\n    tag_357:\n        /* \"#utility.yul\":11841:11875   */\n      tag_214\n      jump\t// in\n    tag_356:\n        /* \"#utility.yul\":11823:11876   */\n      tag_173\n      jump\t// in\n    tag_355:\n        /* \"#utility.yul\":11810:11876   */\n      swap1\n      pop\n        /* \"#utility.yul\":11740:11882   */\n      swap2\n      swap1\n      pop\n      jump\t// out\n        /* \"#utility.yul\":11888:11963   */\n    tag_216:\n        /* \"#utility.yul\":11931:11934   */\n      0x00\n        /* \"#utility.yul\":11952:11957   */\n      dup2\n        /* \"#utility.yul\":11945:11957   */\n      swap1\n      pop\n        /* \"#utility.yul\":11888:11963   */\n      swap2\n      swap1\n      pop\n      jump\t// out\n        /* \"#utility.yul\":11969:12238   */\n    tag_217:\n        /* \"#utility.yul\":12079:12118   */\n      tag_360\n        /* \"#utility.yul\":12110:12117   */\n      dup4\n        /* \"#utility.yul\":12079:12118   */\n      tag_215\n      jump\t// in\n    tag_360:\n        /* \"#utility.yul\":12140:12231   */\n      tag_361\n        /* \"#utility.yul\":12189:12230   */\n      tag_362\n        /* \"#utility.yul\":12213:12229   */\n      dup3\n        /* \"#utility.yul\":12189:12230   */\n      tag_216\n      jump\t// in\n    tag_362:\n        /* \"#utility.yul\":12181:12187   */\n      dup5\n        /* \"#utility.yul\":12174:12178   */\n      dup5\n        /* \"#utility.yul\":12168:12179   */\n      sload\n        /* \"#utility.yul\":12140:12231   */\n      tag_213\n      jump\t// in\n    tag_361:\n        /* \"#utility.yul\":12134:12138   */\n      dup3\n        /* \"#utility.yul\":12127:12232   */\n      sstore\n        /* \"#utility.yul\":12045:12238   */\n      pop\n        /* \"#utility.yul\":11969:12238   */\n      pop\n      pop\n      pop\n      jump\t// out\n        /* \"#utility.yul\":12244:12317   */\n    tag_218:\n        /* \"#utility.yul\":12289:12292   */\n      0x00\n        /* \"#utility.yul\":12244:12317   */\n      swap1\n      jump\t// out\n        /* \"#utility.yul\":12323:12512   */\n    tag_219:\n        /* \"#utility.yul\":12400:12432   */\n      tag_365\n      tag_218\n      jump\t// in\n    tag_365:\n        /* \"#utility.yul\":12441:12506   */\n      tag_366\n        /* \"#utility.yul\":12499:12505   */\n      dup2\n        /* \"#utility.yul\":12491:12497   */\n      dup5\n        /* \"#utility.yul\":12485:12489   */\n      dup5\n        /* \"#utility.yul\":12441:12506   */\n      tag_217\n      jump\t// in\n    tag_366:\n        /* \"#utility.yul\":12376:12512   */\n      pop\n        /* \"#utility.yul\":12323:12512   */\n      pop\n      pop\n      jump\t// out\n        /* \"#utility.yul\":12518:12704   */\n    tag_220:\n        /* \"#utility.yul\":12578:12698   */\n    tag_368:\n        /* \"#utility.yul\":12595:12598   */\n      dup2\n        /* \"#utility.yul\":12588:12593   */\n      dup2\n        /* \"#utility.yul\":12585:12599   */\n      lt\n        /* \"#utility.yul\":12578:12698   */\n      iszero\n      tag_370\n      jumpi\n        /* \"#utility.yul\":12649:12688   */\n      tag_371\n        /* \"#utility.yul\":12686:12687   */\n      0x00\n        /* \"#utility.yul\":12679:12684   */\n      dup3\n        /* \"#utility.yul\":12649:12688   */\n      tag_219\n      jump\t// in\n    tag_371:\n        /* \"#utility.yul\":12622:12623   */\n      0x01\n        /* \"#utility.yul\":12615:12620   */\n      dup2\n        /* \"#utility.yul\":12611:12624   */\n      add\n        /* \"#utility.yul\":12602:12624   */\n      swap1\n      pop\n        /* \"#utility.yul\":12578:12698   */\n      jump(tag_368)\n    tag_370:\n        /* \"#utility.yul\":12518:12704   */\n      pop\n      pop\n      jump\t// out\n        /* \"#utility.yul\":12710:13253   */\n    tag_221:\n        /* \"#utility.yul\":12811:12813   */\n      0x1f\n        /* \"#utility.yul\":12806:12809   */\n      dup3\n        /* \"#utility.yul\":12803:12814   */\n      gt\n        /* \"#utility.yul\":12800:13246   */\n      iszero\n      tag_373\n      jumpi\n        /* \"#utility.yul\":12845:12883   */\n      tag_374\n        /* \"#utility.yul\":12877:12882   */\n      dup2\n        /* \"#utility.yul\":12845:12883   */\n      tag_210\n      jump\t// in\n    tag_374:\n        /* \"#utility.yul\":12929:12958   */\n      tag_375\n        /* \"#utility.yul\":12947:12957   */\n      dup5\n        /* \"#utility.yul\":12929:12958   */\n      tag_211\n      jump\t// in\n    tag_375:\n        /* \"#utility.yul\":12919:12927   */\n      dup2\n        /* \"#utility.yul\":12915:12959   */\n      add\n        /* \"#utility.yul\":13112:13114   */\n      0x20\n        /* \"#utility.yul\":13100:13110   */\n      dup6\n        /* \"#utility.yul\":13097:13115   */\n      lt\n        /* \"#utility.yul\":13094:13143   */\n      iszero\n      tag_376\n      jumpi\n        /* \"#utility.yul\":13133:13141   */\n      dup2\n        /* \"#utility.yul\":13118:13141   */\n      swap1\n      pop\n        /* \"#utility.yul\":13094:13143   */\n    tag_376:\n        /* \"#utility.yul\":13156:13236   */\n      tag_377\n        /* \"#utility.yul\":13212:13234   */\n      tag_378\n        /* \"#utility.yul\":13230:13233   */\n      dup6\n        /* \"#utility.yul\":13212:13234   */\n      tag_211\n      jump\t// in\n    tag_378:\n        /* \"#utility.yul\":13202:13210   */\n      dup4\n        /* \"#utility.yul\":13198:13235   */\n      add\n        /* \"#utility.yul\":13185:13196   */\n      dup3\n        /* \"#utility.yul\":13156:13236   */\n      tag_220\n      jump\t// in\n    tag_377:\n        /* \"#utility.yul\":12815:13246   */\n      pop\n      pop\n        /* \"#utility.yul\":12800:13246   */\n    tag_373:\n        /* \"#utility.yul\":12710:13253   */\n      pop\n      pop\n      pop\n      jump\t// out\n        /* \"#utility.yul\":13259:13376   */\n    tag_222:\n        /* \"#utility.yul\":13313:13321   */\n      0x00\n        /* \"#utility.yul\":13363:13368   */\n      dup3\n        /* \"#utility.yul\":13357:13361   */\n      dup3\n        /* \"#utility.yul\":13353:13369   */\n      shr\n        /* \"#utility.yul\":13332:13369   */\n      swap1\n      pop\n        /* \"#utility.yul\":13259:13376   */\n      swap3\n      swap2\n      pop\n      pop\n      jump\t// out\n        /* \"#utility.yul\":13382:13551   */\n    tag_223:\n        /* \"#utility.yul\":13426:13432   */\n      0x00\n        /* \"#utility.yul\":13459:13510   */\n      tag_381\n        /* \"#utility.yul\":13507:13508   */\n      0x00\n        /* \"#utility.yul\":13503:13509   */\n      not\n        /* \"#utility.yul\":13495:13500   */\n      dup5\n        /* \"#utility.yul\":13492:13493   */\n      0x08\n        /* \"#utility.yul\":13488:13501   */\n      mul\n        /* \"#utility.yul\":13459:13510   */\n      tag_222\n      jump\t// in\n    tag_381:\n        /* \"#utility.yul\":13455:13511   */\n      not\n        /* \"#utility.yul\":13540:13544   */\n      dup1\n        /* \"#utility.yul\":13534:13538   */\n      dup4\n        /* \"#utility.yul\":13530:13545   */\n      and\n        /* \"#utility.yul\":13520:13545   */\n      swap2\n      pop\n        /* \"#utility.yul\":13433:13551   */\n      pop\n        /* \"#utility.yul\":13382:13551   */\n      swap3\n      swap2\n      pop\n      pop\n      jump\t// out\n        /* \"#utility.yul\":13556:13851   */\n    tag_224:\n        /* \"#utility.yul\":13632:13636   */\n      0x00\n        /* \"#utility.yul\":13778:13807   */\n      tag_383\n        /* \"#utility.yul\":13803:13806   */\n      dup4\n        /* \"#utility.yul\":13797:13801   */\n      dup4\n        /* \"#utility.yul\":13778:13807   */\n      tag_223\n      jump\t// in\n    tag_383:\n        /* \"#utility.yul\":13770:13807   */\n      swap2\n      pop\n        /* \"#utility.yul\":13840:13843   */\n      dup3\n        /* \"#utility.yul\":13837:13838   */\n      0x02\n        /* \"#utility.yul\":13833:13844   */\n      mul\n        /* \"#utility.yul\":13827:13831   */\n      dup3\n        /* \"#utility.yul\":13824:13845   */\n      or\n        /* \"#utility.yul\":13816:13845   */\n      swap1\n      pop\n        /* \"#utility.yul\":13556:13851   */\n      swap3\n      swap2\n      pop\n      pop\n      jump\t// out\n        /* \"#utility.yul\":13856:15307   */\n    tag_76:\n        /* \"#utility.yul\":13967:13970   */\n      dup2\n        /* \"#utility.yul\":13961:13965   */\n      dup2\n        /* \"#utility.yul\":13958:13971   */\n      sub\n        /* \"#utility.yul\":13955:13981   */\n      tag_385\n      jumpi\n        /* \"#utility.yul\":13974:13979   */\n      pop\n      pop\n      jump(tag_384)\n        /* \"#utility.yul\":13955:13981   */\n    tag_385:\n        /* \"#utility.yul\":14005:14039   */\n      tag_386\n        /* \"#utility.yul\":14035:14038   */\n      dup3\n        /* \"#utility.yul\":14005:14039   */\n      tag_209\n      jump\t// in\n    tag_386:\n        /* \"#utility.yul\":14104:14122   */\n      0xffffffffffffffff\n        /* \"#utility.yul\":14096:14102   */\n      dup2\n        /* \"#utility.yul\":14093:14123   */\n      gt\n        /* \"#utility.yul\":14090:14146   */\n      iszero\n      tag_387\n      jumpi\n        /* \"#utility.yul\":14126:14144   */\n      tag_388\n      tag_198\n      jump\t// in\n    tag_388:\n        /* \"#utility.yul\":14090:14146   */\n    tag_387:\n        /* \"#utility.yul\":14170:14208   */\n      tag_389\n        /* \"#utility.yul\":14202:14206   */\n      dup3\n        /* \"#utility.yul\":14196:14207   */\n      sload\n        /* \"#utility.yul\":14170:14208   */\n      tag_133\n      jump\t// in\n    tag_389:\n        /* \"#utility.yul\":14255:14322   */\n      tag_390\n        /* \"#utility.yul\":14315:14321   */\n      dup3\n        /* \"#utility.yul\":14307:14313   */\n      dup3\n        /* \"#utility.yul\":14301:14305   */\n      dup6\n        /* \"#utility.yul\":14255:14322   */\n      tag_221\n      jump\t// in\n    tag_390:\n        /* \"#utility.yul\":14349:14350   */\n      0x00\n        /* \"#utility.yul\":14378:14380   */\n      0x1f\n        /* \"#utility.yul\":14370:14376   */\n      dup4\n        /* \"#utility.yul\":14367:14381   */\n      gt\n        /* \"#utility.yul\":14395:14396   */\n      0x01\n        /* \"#utility.yul\":14390:15062   */\n      dup2\n      eq\n      tag_392\n      jumpi\n        /* \"#utility.yul\":15106:15107   */\n      0x00\n        /* \"#utility.yul\":15123:15129   */\n      dup5\n        /* \"#utility.yul\":15120:15197   */\n      iszero\n      tag_393\n      jumpi\n        /* \"#utility.yul\":15172:15181   */\n      dup3\n        /* \"#utility.yul\":15167:15170   */\n      dup8\n        /* \"#utility.yul\":15163:15182   */\n      add\n        /* \"#utility.yul\":15157:15183   */\n      sload\n        /* \"#utility.yul\":15148:15183   */\n      swap1\n      pop\n        /* \"#utility.yul\":15120:15197   */\n    tag_393:\n        /* \"#utility.yul\":15223:15290   */\n      tag_394\n        /* \"#utility.yul\":15283:15289   */\n      dup6\n        /* \"#utility.yul\":15276:15281   */\n      dup3\n        /* \"#utility.yul\":15223:15290   */\n      tag_224\n      jump\t// in\n    tag_394:\n        /* \"#utility.yul\":15217:15221   */\n      dup7\n        /* \"#utility.yul\":15210:15291   */\n      sstore\n        /* \"#utility.yul\":15079:15301   */\n      pop\n        /* \"#utility.yul\":14360:15301   */\n      jump(tag_391)\n        /* \"#utility.yul\":14390:15062   */\n    tag_392:\n        /* \"#utility.yul\":14442:14446   */\n      0x1f\n        /* \"#utility.yul\":14438:14447   */\n      not\n        /* \"#utility.yul\":14430:14436   */\n      dup5\n        /* \"#utility.yul\":14426:14448   */\n      and\n        /* \"#utility.yul\":14468:14504   */\n      tag_395\n        /* \"#utility.yul\":14500:14503   */\n      dup8\n        /* \"#utility.yul\":14468:14504   */\n      tag_210\n      jump\t// in\n    tag_395:\n        /* \"#utility.yul\":14461:14504   */\n      swap7\n      pop\n        /* \"#utility.yul\":14531:14568   */\n      tag_396\n        /* \"#utility.yul\":14563:14567   */\n      dup7\n        /* \"#utility.yul\":14531:14568   */\n      tag_210\n      jump\t// in\n    tag_396:\n        /* \"#utility.yul\":14590:14591   */\n      0x00\n        /* \"#utility.yul\":14604:14811   */\n    tag_397:\n        /* \"#utility.yul\":14618:14625   */\n      dup3\n        /* \"#utility.yul\":14615:14616   */\n      dup2\n        /* \"#utility.yul\":14612:14626   */\n      lt\n        /* \"#utility.yul\":14604:14811   */\n      iszero\n      tag_399\n      jumpi\n        /* \"#utility.yul\":14697:14706   */\n      dup5\n        /* \"#utility.yul\":14692:14695   */\n      dup10\n        /* \"#utility.yul\":14688:14707   */\n      add\n        /* \"#utility.yul\":14682:14708   */\n      sload\n        /* \"#utility.yul\":14674:14680   */\n      dup3\n        /* \"#utility.yul\":14667:14709   */\n      sstore\n        /* \"#utility.yul\":14748:14749   */\n      0x01\n        /* \"#utility.yul\":14740:14746   */\n      dup3\n        /* \"#utility.yul\":14736:14750   */\n      add\n        /* \"#utility.yul\":14726:14750   */\n      swap2\n      pop\n        /* \"#utility.yul\":14795:14796   */\n      0x01\n        /* \"#utility.yul\":14784:14793   */\n      dup6\n        /* \"#utility.yul\":14780:14797   */\n      add\n        /* \"#utility.yul\":14767:14797   */\n      swap5\n      pop\n        /* \"#utility.yul\":14641:14645   */\n      0x20\n        /* \"#utility.yul\":14638:14639   */\n      dup2\n        /* \"#utility.yul\":14634:14646   */\n      add\n        /* \"#utility.yul\":14629:14646   */\n      swap1\n      pop\n        /* \"#utility.yul\":14604:14811   */\n      jump(tag_397)\n    tag_399:\n        /* \"#utility.yul\":14839:14845   */\n      dup7\n        /* \"#utility.yul\":14830:14837   */\n      dup4\n        /* \"#utility.yul\":14827:14846   */\n      lt\n        /* \"#utility.yul\":14824:15003   */\n      iszero\n      tag_400\n      jumpi\n        /* \"#utility.yul\":14897:14906   */\n      dup5\n        /* \"#utility.yul\":14892:14895   */\n      dup10\n        /* \"#utility.yul\":14888:14907   */\n      add\n        /* \"#utility.yul\":14882:14908   */\n      sload\n        /* \"#utility.yul\":14940:14988   */\n      tag_401\n        /* \"#utility.yul\":14982:14986   */\n      0x1f\n        /* \"#utility.yul\":14974:14980   */\n      dup10\n        /* \"#utility.yul\":14970:14987   */\n      and\n        /* \"#utility.yul\":14959:14968   */\n      dup3\n        /* \"#utility.yul\":14940:14988   */\n      tag_223\n      jump\t// in\n    tag_401:\n        /* \"#utility.yul\":14932:14938   */\n      dup4\n        /* \"#utility.yul\":14925:14989   */\n      sstore\n        /* \"#utility.yul\":14847:15003   */\n      pop\n        /* \"#utility.yul\":14824:15003   */\n    tag_400:\n        /* \"#utility.yul\":15049:15050   */\n      0x01\n        /* \"#utility.yul\":15045:15046   */\n      0x02\n        /* \"#utility.yul\":15037:15043   */\n      dup9\n        /* \"#utility.yul\":15033:15047   */\n      mul\n        /* \"#utility.yul\":15029:15051   */\n      add\n        /* \"#utility.yul\":15023:15027   */\n      dup9\n        /* \"#utility.yul\":15016:15052   */\n      sstore\n        /* \"#utility.yul\":14397:15062   */\n      pop\n      pop\n      pop\n        /* \"#utility.yul\":14360:15301   */\n    tag_391:\n      pop\n        /* \"#utility.yul\":13945:15307   */\n      pop\n      pop\n      pop\n        /* \"#utility.yul\":13856:15307   */\n      pop\n      pop\n    tag_384:\n      jump\t// out\n        /* \"#utility.yul\":15313:15493   */\n    tag_79:\n        /* \"#utility.yul\":15361:15438   */\n      0x4e487b7100000000000000000000000000000000000000000000000000000000\n        /* \"#utility.yul\":15358:15359   */\n      0x00\n        /* \"#utility.yul\":15351:15439   */\n      mstore\n        /* \"#utility.yul\":15458:15462   */\n      0x31\n        /* \"#utility.yul\":15455:15456   */\n      0x04\n        /* \"#utility.yul\":15448:15463   */\n      mstore\n        /* \"#utility.yul\":15482:15486   */\n      0x24\n        /* \"#utility.yul\":15479:15480   */\n      0x00\n        /* \"#utility.yul\":15472:15487   */\n      revert\n        /* \"#utility.yul\":15499:15668   */\n    tag_225:\n        /* \"#utility.yul\":15583:15594   */\n      0x00\n        /* \"#utility.yul\":15617:15623   */\n      dup3\n        /* \"#utility.yul\":15612:15615   */\n      dup3\n        /* \"#utility.yul\":15605:15624   */\n      mstore\n        /* \"#utility.yul\":15657:15661   */\n      0x20\n        /* \"#utility.yul\":15652:15655   */\n      dup3\n        /* \"#utility.yul\":15648:15662   */\n      add\n        /* \"#utility.yul\":15633:15662   */\n      swap1\n      pop\n        /* \"#utility.yul\":15499:15668   */\n      swap3\n      swap2\n      pop\n      pop\n      jump\t// out\n        /* \"#utility.yul\":15674:15898   */\n    tag_226:\n        /* \"#utility.yul\":15814:15848   */\n      0x496e73756666696369656e742062616c616e636520696e2074686520636f6e74\n        /* \"#utility.yul\":15810:15811   */\n      0x00\n        /* \"#utility.yul\":15802:15808   */\n      dup3\n        /* \"#utility.yul\":15798:15812   */\n      add\n        /* \"#utility.yul\":15791:15849   */\n      mstore\n        /* \"#utility.yul\":15883:15890   */\n      0x726163742e000000000000000000000000000000000000000000000000000000\n        /* \"#utility.yul\":15878:15880   */\n      0x20\n        /* \"#utility.yul\":15870:15876   */\n      dup3\n        /* \"#utility.yul\":15866:15881   */\n      add\n        /* \"#utility.yul\":15859:15891   */\n      mstore\n        /* \"#utility.yul\":15674:15898   */\n      pop\n      jump\t// out\n        /* \"#utility.yul\":15904:16270   */\n    tag_227:\n        /* \"#utility.yul\":16046:16049   */\n      0x00\n        /* \"#utility.yul\":16067:16134   */\n      tag_406\n        /* \"#utility.yul\":16131:16133   */\n      0x25\n        /* \"#utility.yul\":16126:16129   */\n      dup4\n        /* \"#utility.yul\":16067:16134   */\n      tag_225\n      jump\t// in\n    tag_406:\n        /* \"#utility.yul\":16060:16134   */\n      swap2\n      pop\n        /* \"#utility.yul\":16143:16236   */\n      tag_407\n        /* \"#utility.yul\":16232:16235   */\n      dup3\n        /* \"#utility.yul\":16143:16236   */\n      tag_226\n      jump\t// in\n    tag_407:\n        /* \"#utility.yul\":16261:16263   */\n      0x40\n        /* \"#utility.yul\":16256:16259   */\n      dup3\n        /* \"#utility.yul\":16252:16264   */\n      add\n        /* \"#utility.yul\":16245:16264   */\n      swap1\n      pop\n        /* \"#utility.yul\":15904:16270   */\n      swap2\n      swap1\n      pop\n      jump\t// out\n        /* \"#utility.yul\":16276:16695   */\n    tag_86:\n        /* \"#utility.yul\":16442:16446   */\n      0x00\n        /* \"#utility.yul\":16480:16482   */\n      0x20\n        /* \"#utility.yul\":16469:16478   */\n      dup3\n        /* \"#utility.yul\":16465:16483   */\n      add\n        /* \"#utility.yul\":16457:16483   */\n      swap1\n      pop\n        /* \"#utility.yul\":16529:16538   */\n      dup2\n        /* \"#utility.yul\":16523:16527   */\n      dup2\n        /* \"#utility.yul\":16519:16539   */\n      sub\n        /* \"#utility.yul\":16515:16516   */\n      0x00\n        /* \"#utility.yul\":16504:16513   */\n      dup4\n        /* \"#utility.yul\":16500:16517   */\n      add\n        /* \"#utility.yul\":16493:16540   */\n      mstore\n        /* \"#utility.yul\":16557:16688   */\n      tag_409\n        /* \"#utility.yul\":16683:16687   */\n      dup2\n        /* \"#utility.yul\":16557:16688   */\n      tag_227\n      jump\t// in\n    tag_409:\n        /* \"#utility.yul\":16549:16688   */\n      swap1\n      pop\n        /* \"#utility.yul\":16276:16695   */\n      swap2\n      swap1\n      pop\n      jump\t// out\n        /* \"#utility.yul\":16701:17111   */\n    tag_94:\n        /* \"#utility.yul\":16741:16748   */\n      0x00\n        /* \"#utility.yul\":16764:16784   */\n      tag_411\n        /* \"#utility.yul\":16782:16783   */\n      dup3\n        /* \"#utility.yul\":16764:16784   */\n      tag_173\n      jump\t// in\n    tag_411:\n        /* \"#utility.yul\":16759:16784   */\n      swap2\n      pop\n        /* \"#utility.yul\":16798:16818   */\n      tag_412\n        /* \"#utility.yul\":16816:16817   */\n      dup4\n        /* \"#utility.yul\":16798:16818   */\n      tag_173\n      jump\t// in\n    tag_412:\n        /* \"#utility.yul\":16793:16818   */\n      swap3\n      pop\n        /* \"#utility.yul\":16853:16854   */\n      dup3\n        /* \"#utility.yul\":16850:16851   */\n      dup3\n        /* \"#utility.yul\":16846:16855   */\n      mul\n        /* \"#utility.yul\":16875:16905   */\n      tag_413\n        /* \"#utility.yul\":16893:16904   */\n      dup2\n        /* \"#utility.yul\":16875:16905   */\n      tag_173\n      jump\t// in\n    tag_413:\n        /* \"#utility.yul\":16864:16905   */\n      swap2\n      pop\n        /* \"#utility.yul\":17054:17055   */\n      dup3\n        /* \"#utility.yul\":17045:17052   */\n      dup3\n        /* \"#utility.yul\":17041:17056   */\n      div\n        /* \"#utility.yul\":17038:17039   */\n      dup5\n        /* \"#utility.yul\":17035:17057   */\n      eq\n        /* \"#utility.yul\":17015:17016   */\n      dup4\n        /* \"#utility.yul\":17008:17017   */\n      iszero\n        /* \"#utility.yul\":16988:17071   */\n      or\n        /* \"#utility.yul\":16965:17104   */\n      tag_414\n      jumpi\n        /* \"#utility.yul\":17084:17102   */\n      tag_415\n      tag_207\n      jump\t// in\n    tag_415:\n        /* \"#utility.yul\":16965:17104   */\n    tag_414:\n        /* \"#utility.yul\":16749:17111   */\n      pop\n        /* \"#utility.yul\":16701:17111   */\n      swap3\n      swap2\n      pop\n      pop\n      jump\t// out\n        /* \"#utility.yul\":17117:17297   */\n    tag_228:\n        /* \"#utility.yul\":17165:17242   */\n      0x4e487b7100000000000000000000000000000000000000000000000000000000\n        /* \"#utility.yul\":17162:17163   */\n      0x00\n        /* \"#utility.yul\":17155:17243   */\n      mstore\n        /* \"#utility.yul\":17262:17266   */\n      0x12\n        /* \"#utility.yul\":17259:17260   */\n      0x04\n        /* \"#utility.yul\":17252:17267   */\n      mstore\n        /* \"#utility.yul\":17286:17290   */\n      0x24\n        /* \"#utility.yul\":17283:17284   */\n      0x00\n        /* \"#utility.yul\":17276:17291   */\n      revert\n        /* \"#utility.yul\":17303:17488   */\n    tag_96:\n        /* \"#utility.yul\":17343:17344   */\n      0x00\n        /* \"#utility.yul\":17360:17380   */\n      tag_418\n        /* \"#utility.yul\":17378:17379   */\n      dup3\n        /* \"#utility.yul\":17360:17380   */\n      tag_173\n      jump\t// in\n    tag_418:\n        /* \"#utility.yul\":17355:17380   */\n      swap2\n      pop\n        /* \"#utility.yul\":17394:17414   */\n      tag_419\n        /* \"#utility.yul\":17412:17413   */\n      dup4\n        /* \"#utility.yul\":17394:17414   */\n      tag_173\n      jump\t// in\n    tag_419:\n        /* \"#utility.yul\":17389:17414   */\n      swap3\n      pop\n        /* \"#utility.yul\":17433:17434   */\n      dup3\n        /* \"#utility.yul\":17423:17458   */\n      tag_420\n      jumpi\n        /* \"#utility.yul\":17438:17456   */\n      tag_421\n      tag_228\n      jump\t// in\n    tag_421:\n        /* \"#utility.yul\":17423:17458   */\n    tag_420:\n        /* \"#utility.yul\":17480:17481   */\n      dup3\n        /* \"#utility.yul\":17477:17478   */\n      dup3\n        /* \"#utility.yul\":17473:17482   */\n      div\n        /* \"#utility.yul\":17468:17482   */\n      swap1\n      pop\n        /* \"#utility.yul\":17303:17488   */\n      swap3\n      swap2\n      pop\n      pop\n      jump\t// out\n        /* \"#utility.yul\":17494:17719   */\n    tag_229:\n        /* \"#utility.yul\":17634:17668   */\n      0x4f6e6c7920746865206f776e65722063616e2063616c6c20746869732066756e\n        /* \"#utility.yul\":17630:17631   */\n      0x00\n        /* \"#utility.yul\":17622:17628   */\n      dup3\n        /* \"#utility.yul\":17618:17632   */\n      add\n        /* \"#utility.yul\":17611:17669   */\n      mstore\n        /* \"#utility.yul\":17703:17711   */\n      0x6374696f6e2e0000000000000000000000000000000000000000000000000000\n        /* \"#utility.yul\":17698:17700   */\n      0x20\n        /* \"#utility.yul\":17690:17696   */\n      dup3\n        /* \"#utility.yul\":17686:17701   */\n      add\n        /* \"#utility.yul\":17679:17712   */\n      mstore\n        /* \"#utility.yul\":17494:17719   */\n      pop\n      jump\t// out\n        /* \"#utility.yul\":17725:18091   */\n    tag_230:\n        /* \"#utility.yul\":17867:17870   */\n      0x00\n        /* \"#utility.yul\":17888:17955   */\n      tag_424\n        /* \"#utility.yul\":17952:17954   */\n      0x26\n        /* \"#utility.yul\":17947:17950   */\n      dup4\n        /* \"#utility.yul\":17888:17955   */\n      tag_225\n      jump\t// in\n    tag_424:\n        /* \"#utility.yul\":17881:17955   */\n      swap2\n      pop\n        /* \"#utility.yul\":17964:18057   */\n      tag_425\n        /* \"#utility.yul\":18053:18056   */\n      dup3\n        /* \"#utility.yul\":17964:18057   */\n      tag_229\n      jump\t// in\n    tag_425:\n        /* \"#utility.yul\":18082:18084   */\n      0x40\n        /* \"#utility.yul\":18077:18080   */\n      dup3\n        /* \"#utility.yul\":18073:18085   */\n      add\n        /* \"#utility.yul\":18066:18085   */\n      swap1\n      pop\n        /* \"#utility.yul\":17725:18091   */\n      swap2\n      swap1\n      pop\n      jump\t// out\n        /* \"#utility.yul\":18097:18516   */\n    tag_141:\n        /* \"#utility.yul\":18263:18267   */\n      0x00\n        /* \"#utility.yul\":18301:18303   */\n      0x20\n        /* \"#utility.yul\":18290:18299   */\n      dup3\n        /* \"#utility.yul\":18286:18304   */\n      add\n        /* \"#utility.yul\":18278:18304   */\n      swap1\n      pop\n        /* \"#utility.yul\":18350:18359   */\n      dup2\n        /* \"#utility.yul\":18344:18348   */\n      dup2\n        /* \"#utility.yul\":18340:18360   */\n      sub\n        /* \"#utility.yul\":18336:18337   */\n      0x00\n        /* \"#utility.yul\":18325:18334   */\n      dup4\n        /* \"#utility.yul\":18321:18338   */\n      add\n        /* \"#utility.yul\":18314:18361   */\n      mstore\n        /* \"#utility.yul\":18378:18509   */\n      tag_427\n        /* \"#utility.yul\":18504:18508   */\n      dup2\n        /* \"#utility.yul\":18378:18509   */\n      tag_230\n      jump\t// in\n    tag_427:\n        /* \"#utility.yul\":18370:18509   */\n      swap1\n      pop\n        /* \"#utility.yul\":18097:18516   */\n      swap2\n      swap1\n      pop\n      jump\t// out\n        /* \"#utility.yul\":18522:18746   */\n    tag_231:\n        /* \"#utility.yul\":18662:18696   */\n      0x50657263656e74616765206d757374206265206265747765656e203120616e64\n        /* \"#utility.yul\":18658:18659   */\n      0x00\n        /* \"#utility.yul\":18650:18656   */\n      dup3\n        /* \"#utility.yul\":18646:18660   */\n      add\n        /* \"#utility.yul\":18639:18697   */\n      mstore\n        /* \"#utility.yul\":18731:18738   */\n      0x203130302e000000000000000000000000000000000000000000000000000000\n        /* \"#utility.yul\":18726:18728   */\n      0x20\n        /* \"#utility.yul\":18718:18724   */\n      dup3\n        /* \"#utility.yul\":18714:18729   */\n      add\n        /* \"#utility.yul\":18707:18739   */\n      mstore\n        /* \"#utility.yul\":18522:18746   */\n      pop\n      jump\t// out\n        /* \"#utility.yul\":18752:19118   */\n    tag_232:\n        /* \"#utility.yul\":18894:18897   */\n      0x00\n        /* \"#utility.yul\":18915:18982   */\n      tag_430\n        /* \"#utility.yul\":18979:18981   */\n      0x25\n        /* \"#utility.yul\":18974:18977   */\n      dup4\n        /* \"#utility.yul\":18915:18982   */\n      tag_225\n      jump\t// in\n    tag_430:\n        /* \"#utility.yul\":18908:18982   */\n      swap2\n      pop\n        /* \"#utility.yul\":18991:19084   */\n      tag_431\n        /* \"#utility.yul\":19080:19083   */\n      dup3\n        /* \"#utility.yul\":18991:19084   */\n      tag_231\n      jump\t// in\n    tag_431:\n        /* \"#utility.yul\":19109:19111   */\n      0x40\n        /* \"#utility.yul\":19104:19107   */\n      dup3\n        /* \"#utility.yul\":19100:19112   */\n      add\n        /* \"#utility.yul\":19093:19112   */\n      swap1\n      pop\n        /* \"#utility.yul\":18752:19118   */\n      swap2\n      swap1\n      pop\n      jump\t// out\n        /* \"#utility.yul\":19124:19543   */\n    tag_145:\n        /* \"#utility.yul\":19290:19294   */\n      0x00\n        /* \"#utility.yul\":19328:19330   */\n      0x20\n        /* \"#utility.yul\":19317:19326   */\n      dup3\n        /* \"#utility.yul\":19313:19331   */\n      add\n        /* \"#utility.yul\":19305:19331   */\n      swap1\n      pop\n        /* \"#utility.yul\":19377:19386   */\n      dup2\n        /* \"#utility.yul\":19371:19375   */\n      dup2\n        /* \"#utility.yul\":19367:19387   */\n      sub\n        /* \"#utility.yul\":19363:19364   */\n      0x00\n        /* \"#utility.yul\":19352:19361   */\n      dup4\n        /* \"#utility.yul\":19348:19365   */\n      add\n        /* \"#utility.yul\":19341:19388   */\n      mstore\n        /* \"#utility.yul\":19405:19536   */\n      tag_433\n        /* \"#utility.yul\":19531:19535   */\n      dup2\n        /* \"#utility.yul\":19405:19536   */\n      tag_232\n      jump\t// in\n    tag_433:\n        /* \"#utility.yul\":19397:19536   */\n      swap1\n      pop\n        /* \"#utility.yul\":19124:19543   */\n      swap2\n      swap1\n      pop\n      jump\t// out\n        /* \"#utility.yul\":19549:19729   */\n    tag_233:\n        /* \"#utility.yul\":19689:19721   */\n      0x546f74616c2070657263656e74616765206578636565647320313030252e0000\n        /* \"#utility.yul\":19685:19686   */\n      0x00\n        /* \"#utility.yul\":19677:19683   */\n      dup3\n        /* \"#utility.yul\":19673:19687   */\n      add\n        /* \"#utility.yul\":19666:19722   */\n      mstore\n        /* \"#utility.yul\":19549:19729   */\n      pop\n      jump\t// out\n        /* \"#utility.yul\":19735:20101   */\n    tag_234:\n        /* \"#utility.yul\":19877:19880   */\n      0x00\n        /* \"#utility.yul\":19898:19965   */\n      tag_436\n        /* \"#utility.yul\":19962:19964   */\n      0x1e\n        /* \"#utility.yul\":19957:19960   */\n      dup4\n        /* \"#utility.yul\":19898:19965   */\n      tag_225\n      jump\t// in\n    tag_436:\n        /* \"#utility.yul\":19891:19965   */\n      swap2\n      pop\n        /* \"#utility.yul\":19974:20067   */\n      tag_437\n        /* \"#utility.yul\":20063:20066   */\n      dup3\n        /* \"#utility.yul\":19974:20067   */\n      tag_233\n      jump\t// in\n    tag_437:\n        /* \"#utility.yul\":20092:20094   */\n      0x20\n        /* \"#utility.yul\":20087:20090   */\n      dup3\n        /* \"#utility.yul\":20083:20095   */\n      add\n        /* \"#utility.yul\":20076:20095   */\n      swap1\n      pop\n        /* \"#utility.yul\":19735:20101   */\n      swap2\n      swap1\n      pop\n      jump\t// out\n        /* \"#utility.yul\":20107:20526   */\n    tag_150:\n        /* \"#utility.yul\":20273:20277   */\n      0x00\n        /* \"#utility.yul\":20311:20313   */\n      0x20\n        /* \"#utility.yul\":20300:20309   */\n      dup3\n        /* \"#utility.yul\":20296:20314   */\n      add\n        /* \"#utility.yul\":20288:20314   */\n      swap1\n      pop\n        /* \"#utility.yul\":20360:20369   */\n      dup2\n        /* \"#utility.yul\":20354:20358   */\n      dup2\n        /* \"#utility.yul\":20350:20370   */\n      sub\n        /* \"#utility.yul\":20346:20347   */\n      0x00\n        /* \"#utility.yul\":20335:20344   */\n      dup4\n        /* \"#utility.yul\":20331:20348   */\n      add\n        /* \"#utility.yul\":20324:20371   */\n      mstore\n        /* \"#utility.yul\":20388:20519   */\n      tag_439\n        /* \"#utility.yul\":20514:20518   */\n      dup2\n        /* \"#utility.yul\":20388:20519   */\n      tag_234\n      jump\t// in\n    tag_439:\n        /* \"#utility.yul\":20380:20519   */\n      swap1\n      pop\n        /* \"#utility.yul\":20107:20526   */\n      swap2\n      swap1\n      pop\n      jump\t// out\n        /* \"#utility.yul\":20532:21927   */\n    tag_161:\n        /* \"#utility.yul\":20649:20686   */\n      tag_441\n        /* \"#utility.yul\":20682:20685   */\n      dup3\n        /* \"#utility.yul\":20649:20686   */\n      tag_186\n      jump\t// in\n    tag_441:\n        /* \"#utility.yul\":20751:20769   */\n      0xffffffffffffffff\n        /* \"#utility.yul\":20743:20749   */\n      dup2\n        /* \"#utility.yul\":20740:20770   */\n      gt\n        /* \"#utility.yul\":20737:20793   */\n      iszero\n      tag_442\n      jumpi\n        /* \"#utility.yul\":20773:20791   */\n      tag_443\n      tag_198\n      jump\t// in\n    tag_443:\n        /* \"#utility.yul\":20737:20793   */\n    tag_442:\n        /* \"#utility.yul\":20817:20855   */\n      tag_444\n        /* \"#utility.yul\":20849:20853   */\n      dup3\n        /* \"#utility.yul\":20843:20854   */\n      sload\n        /* \"#utility.yul\":20817:20855   */\n      tag_133\n      jump\t// in\n    tag_444:\n        /* \"#utility.yul\":20902:20969   */\n      tag_445\n        /* \"#utility.yul\":20962:20968   */\n      dup3\n        /* \"#utility.yul\":20954:20960   */\n      dup3\n        /* \"#utility.yul\":20948:20952   */\n      dup6\n        /* \"#utility.yul\":20902:20969   */\n      tag_221\n      jump\t// in\n    tag_445:\n        /* \"#utility.yul\":20996:20997   */\n      0x00\n        /* \"#utility.yul\":21020:21024   */\n      0x20\n        /* \"#utility.yul\":21007:21024   */\n      swap1\n      pop\n        /* \"#utility.yul\":21052:21054   */\n      0x1f\n        /* \"#utility.yul\":21044:21050   */\n      dup4\n        /* \"#utility.yul\":21041:21055   */\n      gt\n        /* \"#utility.yul\":21069:21070   */\n      0x01\n        /* \"#utility.yul\":21064:21682   */\n      dup2\n      eq\n      tag_447\n      jumpi\n        /* \"#utility.yul\":21726:21727   */\n      0x00\n        /* \"#utility.yul\":21743:21749   */\n      dup5\n        /* \"#utility.yul\":21740:21817   */\n      iszero\n      tag_448\n      jumpi\n        /* \"#utility.yul\":21792:21801   */\n      dup3\n        /* \"#utility.yul\":21787:21790   */\n      dup8\n        /* \"#utility.yul\":21783:21802   */\n      add\n        /* \"#utility.yul\":21777:21803   */\n      mload\n        /* \"#utility.yul\":21768:21803   */\n      swap1\n      pop\n        /* \"#utility.yul\":21740:21817   */\n    tag_448:\n        /* \"#utility.yul\":21843:21910   */\n      tag_449\n        /* \"#utility.yul\":21903:21909   */\n      dup6\n        /* \"#utility.yul\":21896:21901   */\n      dup3\n        /* \"#utility.yul\":21843:21910   */\n      tag_224\n      jump\t// in\n    tag_449:\n        /* \"#utility.yul\":21837:21841   */\n      dup7\n        /* \"#utility.yul\":21830:21911   */\n      sstore\n        /* \"#utility.yul\":21699:21921   */\n      pop\n        /* \"#utility.yul\":21034:21921   */\n      jump(tag_446)\n        /* \"#utility.yul\":21064:21682   */\n    tag_447:\n        /* \"#utility.yul\":21116:21120   */\n      0x1f\n        /* \"#utility.yul\":21112:21121   */\n      not\n        /* \"#utility.yul\":21104:21110   */\n      dup5\n        /* \"#utility.yul\":21100:21122   */\n      and\n        /* \"#utility.yul\":21150:21187   */\n      tag_450\n        /* \"#utility.yul\":21182:21186   */\n      dup7\n        /* \"#utility.yul\":21150:21187   */\n      tag_210\n      jump\t// in\n    tag_450:\n        /* \"#utility.yul\":21209:21210   */\n      0x00\n        /* \"#utility.yul\":21223:21431   */\n    tag_451:\n        /* \"#utility.yul\":21237:21244   */\n      dup3\n        /* \"#utility.yul\":21234:21235   */\n      dup2\n        /* \"#utility.yul\":21231:21245   */\n      lt\n        /* \"#utility.yul\":21223:21431   */\n      iszero\n      tag_453\n      jumpi\n        /* \"#utility.yul\":21316:21325   */\n      dup5\n        /* \"#utility.yul\":21311:21314   */\n      dup10\n        /* \"#utility.yul\":21307:21326   */\n      add\n        /* \"#utility.yul\":21301:21327   */\n      mload\n        /* \"#utility.yul\":21293:21299   */\n      dup3\n        /* \"#utility.yul\":21286:21328   */\n      sstore\n        /* \"#utility.yul\":21367:21368   */\n      0x01\n        /* \"#utility.yul\":21359:21365   */\n      dup3\n        /* \"#utility.yul\":21355:21369   */\n      add\n        /* \"#utility.yul\":21345:21369   */\n      swap2\n      pop\n        /* \"#utility.yul\":21414:21416   */\n      0x20\n        /* \"#utility.yul\":21403:21412   */\n      dup6\n        /* \"#utility.yul\":21399:21417   */\n      add\n        /* \"#utility.yul\":21386:21417   */\n      swap5\n      pop\n        /* \"#utility.yul\":21260:21264   */\n      0x20\n        /* \"#utility.yul\":21257:21258   */\n      dup2\n        /* \"#utility.yul\":21253:21265   */\n      add\n        /* \"#utility.yul\":21248:21265   */\n      swap1\n      pop\n        /* \"#utility.yul\":21223:21431   */\n      jump(tag_451)\n    tag_453:\n        /* \"#utility.yul\":21459:21465   */\n      dup7\n        /* \"#utility.yul\":21450:21457   */\n      dup4\n        /* \"#utility.yul\":21447:21466   */\n      lt\n        /* \"#utility.yul\":21444:21623   */\n      iszero\n      tag_454\n      jumpi\n        /* \"#utility.yul\":21517:21526   */\n      dup5\n        /* \"#utility.yul\":21512:21515   */\n      dup10\n        /* \"#utility.yul\":21508:21527   */\n      add\n        /* \"#utility.yul\":21502:21528   */\n      mload\n        /* \"#utility.yul\":21560:21608   */\n      tag_455\n        /* \"#utility.yul\":21602:21606   */\n      0x1f\n        /* \"#utility.yul\":21594:21600   */\n      dup10\n        /* \"#utility.yul\":21590:21607   */\n      and\n        /* \"#utility.yul\":21579:21588   */\n      dup3\n        /* \"#utility.yul\":21560:21608   */\n      tag_223\n      jump\t// in\n    tag_455:\n        /* \"#utility.yul\":21552:21558   */\n      dup4\n        /* \"#utility.yul\":21545:21609   */\n      sstore\n        /* \"#utility.yul\":21467:21623   */\n      pop\n        /* \"#utility.yul\":21444:21623   */\n    tag_454:\n        /* \"#utility.yul\":21669:21670   */\n      0x01\n        /* \"#utility.yul\":21665:21666   */\n      0x02\n        /* \"#utility.yul\":21657:21663   */\n      dup9\n        /* \"#utility.yul\":21653:21667   */\n      mul\n        /* \"#utility.yul\":21649:21671   */\n      add\n        /* \"#utility.yul\":21643:21647   */\n      dup9\n        /* \"#utility.yul\":21636:21672   */\n      sstore\n        /* \"#utility.yul\":21071:21682   */\n      pop\n      pop\n      pop\n        /* \"#utility.yul\":21034:21921   */\n    tag_446:\n      pop\n        /* \"#utility.yul\":20624:21927   */\n      pop\n      pop\n      pop\n        /* \"#utility.yul\":20532:21927   */\n      pop\n      pop\n      jump\t// out\n\n    auxdata: 0xa2646970667358221220da6994fa508cdf39b5c4e6ccbb20949dca4657adb49b162bb7458863ef68f34964736f6c634300081a0033\n}\n",
				"bytecode": {
					"linkReferences": {},
					"object": "6080604052348015600e575f80fd5b50335f806101000a81548173ffffffffffffffffffffffffffffffffffffffff021916908373ffffffffffffffffffffffffffffffffffffffff1602179055506117588061005b5f395ff3fe60806040526004361061007a575f3560e01c8063674526bc1161004d578063674526bc1461010e578063736c9563146101185780637cc60b3214610142578063af61ed3d1461016a5761007a565b80630558c1551461007e578063369a489d146100a857806348bf296a146100d05780636416845c146100e6575b5f80fd5b348015610089575f80fd5b50610092610194565b60405161009f9190610b8b565b60405180910390f35b3480156100b3575f80fd5b506100ce60048036038101906100c99190610c0f565b6101ee565b005b3480156100db575f80fd5b506100e46103f3565b005b3480156100f1575f80fd5b5061010c60048036038101906101079190610c0f565b6104e3565b005b6101166106e8565b005b348015610123575f80fd5b5061012c6106ea565b6040516101399190610dd0565b60405180910390f35b34801561014d575f80fd5b5061016860048036038101906101639190610f46565b610834565b005b348015610175575f80fd5b5061017e610acc565b60405161018b9190610b8b565b60405180910390f35b5f805f90505f5b6001805490508110156101e657600181815481106101bc576101bb610fb2565b5b905f5260205f20906003020160020154826101d7919061100c565b9150808060010191505061019b565b508091505090565b60018080549050106103f0575f5b6001805490508110156103ee578173ffffffffffffffffffffffffffffffffffffffff166001828154811061023457610233610fb2565b5b905f5260205f2090600302015f015f9054906101000a900473ffffffffffffffffffffffffffffffffffffffff1673ffffffffffffffffffffffffffffffffffffffff16036103e1575f8190505b60018080549050610293919061103f565b81101561037757600180826102a8919061100c565b815481106102b9576102b8610fb2565b5b905f5260205f209060030201600182815481106102d9576102d8610fb2565b5b905f5260205f2090600302015f82015f9054906101000a900473ffffffffffffffffffffffffffffffffffffffff16815f015f6101000a81548173ffffffffffffffffffffffffffffffffffffffff021916908373ffffffffffffffffffffffffffffffffffffffff1602179055506001820181600101908161035c9190611281565b50600282015481600201559050508080600101915050610282565b50600180548061038a57610389611366565b5b600190038181905f5260205f2090600302015f8082015f6101000a81549073ffffffffffffffffffffffffffffffffffffffff0219169055600182015f6103d19190610b1b565b600282015f9055505090556103ee565b80806001019150506101fc565b505b50565b5f4711610435576040517f08c379a000000000000000000000000000000000000000000000000000000000815260040161042c90611413565b60405180910390fd5b5f4790505f5b6001805490508110156104df575f60646001838154811061045f5761045e610fb2565b5b905f5260205f209060030201600201548461047a9190611431565b610484919061149f565b90506104d16001838154811061049d5761049c610fb2565b5b905f5260205f2090600302015f015f9054906101000a900473ffffffffffffffffffffffffffffffffffffffff1682610ad3565b50808060010191505061043b565b5050565b60018080549050106106e5575f5b6001805490508110156106e3578173ffffffffffffffffffffffffffffffffffffffff166001828154811061052957610528610fb2565b5b905f5260205f2090600302015f015f9054906101000a900473ffffffffffffffffffffffffffffffffffffffff1673ffffffffffffffffffffffffffffffffffffffff16036106d6575f8190505b60018080549050610588919061103f565b81101561066c576001808261059d919061100c565b815481106105ae576105ad610fb2565b5b905f5260205f209060030201600182815481106105ce576105cd610fb2565b5b905f5260205f2090600302015f82015f9054906101000a900473ffffffffffffffffffffffffffffffffffffffff16815f015f6101000a81548173ffffffffffffffffffffffffffffffffffffffff021916908373ffffffffffffffffffffffffffffffffffffffff160217905550600182018160010190816106519190611281565b50600282015481600201559050508080600101915050610577565b50600180548061067f5761067e611366565b5b600190038181905f5260205f2090600302015f8082015f6101000a81549073ffffffffffffffffffffffffffffffffffffffff0219169055600182015f6106c69190610b1b565b600282015f9055505090556106e3565b80806001019150506104f1565b505b50565b565b60606001805480602002602001604051908101604052809291908181526020015f905b8282101561082b578382905f5260205f2090600302016040518060600160405290815f82015f9054906101000a900473ffffffffffffffffffffffffffffffffffffffff1673ffffffffffffffffffffffffffffffffffffffff1673ffffffffffffffffffffffffffffffffffffffff1681526020016001820180546107929061109f565b80601f01602080910402602001604051908101604052809291908181526020018280546107be9061109f565b80156108095780601f106107e057610100808354040283529160200191610809565b820191905f5260205f20905b8154815290600101906020018083116107ec57829003601f168201915b505050505081526020016002820154815250508152602001906001019061070d565b50505050905090565b5f8054906101000a900473ffffffffffffffffffffffffffffffffffffffff1673ffffffffffffffffffffffffffffffffffffffff163373ffffffffffffffffffffffffffffffffffffffff16146108c1576040517f08c379a00000000000000000000000000000000000000000000000000000000081526004016108b89061153f565b60405180910390fd5b5f811180156108d1575060648111155b610910576040517f08c379a0000000000000000000000000000000000000000000000000000000008152600401610907906115cd565b60405180910390fd5b60648161091b610194565b610925919061100c565b1115610966576040517f08c379a000000000000000000000000000000000000000000000000000000000815260040161095d90611635565b60405180910390fd5b5f805b600180549050811015610a00578473ffffffffffffffffffffffffffffffffffffffff16600182815481106109a1576109a0610fb2565b5b905f5260205f2090600302015f015f9054906101000a900473ffffffffffffffffffffffffffffffffffffffff1673ffffffffffffffffffffffffffffffffffffffff16036109f35760019150610a00565b8080600101915050610969565b5080610ac657600160405180606001604052808673ffffffffffffffffffffffffffffffffffffffff16815260200185815260200184815250908060018154018082558091505060019003905f5260205f2090600302015f909190919091505f820151815f015f6101000a81548173ffffffffffffffffffffffffffffffffffffffff021916908373ffffffffffffffffffffffffffffffffffffffff1602179055506020820151816001019081610ab89190611653565b506040820151816002015550505b50505050565b5f47905090565b8173ffffffffffffffffffffffffffffffffffffffff166108fc8290811502906040515f60405180830381858888f19350505050158015610b16573d5f803e3d5ffd5b505050565b508054610b279061109f565b5f825580601f10610b385750610b55565b601f0160209004905f5260205f2090810190610b549190610b58565b5b50565b5b80821115610b6f575f815f905550600101610b59565b5090565b5f819050919050565b610b8581610b73565b82525050565b5f602082019050610b9e5f830184610b7c565b92915050565b5f604051905090565b5f80fd5b5f80fd5b5f73ffffffffffffffffffffffffffffffffffffffff82169050919050565b5f610bde82610bb5565b9050919050565b610bee81610bd4565b8114610bf8575f80fd5b50565b5f81359050610c0981610be5565b92915050565b5f60208284031215610c2457610c23610bad565b5b5f610c3184828501610bfb565b91505092915050565b5f81519050919050565b5f82825260208201905092915050565b5f819050602082019050919050565b610c6c81610bd4565b82525050565b5f81519050919050565b5f82825260208201905092915050565b8281835e5f83830152505050565b5f601f19601f8301169050919050565b5f610cb482610c72565b610cbe8185610c7c565b9350610cce818560208601610c8c565b610cd781610c9a565b840191505092915050565b610ceb81610b73565b82525050565b5f606083015f830151610d065f860182610c63565b5060208301518482036020860152610d1e8282610caa565b9150506040830151610d336040860182610ce2565b508091505092915050565b5f610d498383610cf1565b905092915050565b5f602082019050919050565b5f610d6782610c3a565b610d718185610c44565b935083602082028501610d8385610c54565b805f5b85811015610dbe5784840389528151610d9f8582610d3e565b9450610daa83610d51565b925060208a01995050600181019050610d86565b50829750879550505050505092915050565b5f6020820190508181035f830152610de88184610d5d565b905092915050565b5f80fd5b5f80fd5b7f4e487b71000000000000000000000000000000000000000000000000000000005f52604160045260245ffd5b610e2e82610c9a565b810181811067ffffffffffffffff82111715610e4d57610e4c610df8565b5b80604052505050565b5f610e5f610ba4565b9050610e6b8282610e25565b919050565b5f67ffffffffffffffff821115610e8a57610e89610df8565b5b610e9382610c9a565b9050602081019050919050565b828183375f83830152505050565b5f610ec0610ebb84610e70565b610e56565b905082815260208101848484011115610edc57610edb610df4565b5b610ee7848285610ea0565b509392505050565b5f82601f830112610f0357610f02610df0565b5b8135610f13848260208601610eae565b91505092915050565b610f2581610b73565b8114610f2f575f80fd5b50565b5f81359050610f4081610f1c565b92915050565b5f805f60608486031215610f5d57610f5c610bad565b5b5f610f6a86828701610bfb565b935050602084013567ffffffffffffffff811115610f8b57610f8a610bb1565b5b610f9786828701610eef565b9250506040610fa886828701610f32565b9150509250925092565b7f4e487b71000000000000000000000000000000000000000000000000000000005f52603260045260245ffd5b7f4e487b71000000000000000000000000000000000000000000000000000000005f52601160045260245ffd5b5f61101682610b73565b915061102183610b73565b925082820190508082111561103957611038610fdf565b5b92915050565b5f61104982610b73565b915061105483610b73565b925082820390508181111561106c5761106b610fdf565b5b92915050565b7f4e487b71000000000000000000000000000000000000000000000000000000005f52602260045260245ffd5b5f60028204905060018216806110b657607f821691505b6020821081036110c9576110c8611072565b5b50919050565b5f815490506110dd8161109f565b9050919050565b5f819050815f5260205f209050919050565b5f6020601f8301049050919050565b5f82821b905092915050565b5f600883026111407fffffffffffffffffffffffffffffffffffffffffffffffffffffffffffffffff82611105565b61114a8683611105565b95508019841693508086168417925050509392505050565b5f819050919050565b5f61118561118061117b84610b73565b611162565b610b73565b9050919050565b5f819050919050565b61119e8361116b565b6111b26111aa8261118c565b848454611111565b825550505050565b5f90565b6111c66111ba565b6111d1818484611195565b505050565b5b818110156111f4576111e95f826111be565b6001810190506111d7565b5050565b601f8211156112395761120a816110e4565b611213846110f6565b81016020851015611222578190505b61123661122e856110f6565b8301826111d6565b50505b505050565b5f82821c905092915050565b5f6112595f198460080261123e565b1980831691505092915050565b5f611271838361124a565b9150826002028217905092915050565b81810361128f575050611364565b611298826110cf565b67ffffffffffffffff8111156112b1576112b0610df8565b5b6112bb825461109f565b6112c68282856111f8565b5f601f8311600181146112f3575f84156112e1578287015490505b6112eb8582611266565b86555061135d565b601f198416611301876110e4565b965061130c866110e4565b5f5b828110156113335784890154825560018201915060018501945060208101905061130e565b86831015611350578489015461134c601f89168261124a565b8355505b6001600288020188555050505b5050505050505b565b7f4e487b71000000000000000000000000000000000000000000000000000000005f52603160045260245ffd5b5f82825260208201905092915050565b7f496e73756666696369656e742062616c616e636520696e2074686520636f6e745f8201527f726163742e000000000000000000000000000000000000000000000000000000602082015250565b5f6113fd602583611393565b9150611408826113a3565b604082019050919050565b5f6020820190508181035f83015261142a816113f1565b9050919050565b5f61143b82610b73565b915061144683610b73565b925082820261145481610b73565b9150828204841483151761146b5761146a610fdf565b5b5092915050565b7f4e487b71000000000000000000000000000000000000000000000000000000005f52601260045260245ffd5b5f6114a982610b73565b91506114b483610b73565b9250826114c4576114c3611472565b5b828204905092915050565b7f4f6e6c7920746865206f776e65722063616e2063616c6c20746869732066756e5f8201527f6374696f6e2e0000000000000000000000000000000000000000000000000000602082015250565b5f611529602683611393565b9150611534826114cf565b604082019050919050565b5f6020820190508181035f8301526115568161151d565b9050919050565b7f50657263656e74616765206d757374206265206265747765656e203120616e645f8201527f203130302e000000000000000000000000000000000000000000000000000000602082015250565b5f6115b7602583611393565b91506115c28261155d565b604082019050919050565b5f6020820190508181035f8301526115e4816115ab565b9050919050565b7f546f74616c2070657263656e74616765206578636565647320313030252e00005f82015250565b5f61161f601e83611393565b915061162a826115eb565b602082019050919050565b5f6020820190508181035f83015261164c81611613565b9050919050565b61165c82610c72565b67ffffffffffffffff81111561167557611674610df8565b5b61167f825461109f565b61168a8282856111f8565b5f60209050601f8311600181146116bb575f84156116a9578287015190505b6116b38582611266565b86555061171a565b601f1984166116c9866110e4565b5f5b828110156116f0578489015182556001820191506020850194506020810190506116cb565b8683101561170d5784890151611709601f89168261124a565b8355505b6001600288020188555050505b50505050505056fea2646970667358221220da6994fa508cdf39b5c4e6ccbb20949dca4657adb49b162bb7458863ef68f34964736f6c634300081a0033",
					"opcodes": "PUSH1 0x80 PUSH1 0x40 MSTORE CALLVALUE DUP1 ISZERO PUSH1 0xE JUMPI PUSH0 DUP1 REVERT JUMPDEST POP CALLER PUSH0 DUP1 PUSH2 0x100 EXP DUP2 SLOAD DUP2 PUSH20 0xFFFFFFFFFFFFFFFFFFFFFFFFFFFFFFFFFFFFFFFF MUL NOT AND SWAP1 DUP4 PUSH20 0xFFFFFFFFFFFFFFFFFFFFFFFFFFFFFFFFFFFFFFFF AND MUL OR SWAP1 SSTORE POP PUSH2 0x1758 DUP1 PUSH2 0x5B PUSH0 CODECOPY PUSH0 RETURN INVALID PUSH1 0x80 PUSH1 0x40 MSTORE PUSH1 0x4 CALLDATASIZE LT PUSH2 0x7A JUMPI PUSH0 CALLDATALOAD PUSH1 0xE0 SHR DUP1 PUSH4 0x674526BC GT PUSH2 0x4D JUMPI DUP1 PUSH4 0x674526BC EQ PUSH2 0x10E JUMPI DUP1 PUSH4 0x736C9563 EQ PUSH2 0x118 JUMPI DUP1 PUSH4 0x7CC60B32 EQ PUSH2 0x142 JUMPI DUP1 PUSH4 0xAF61ED3D EQ PUSH2 0x16A JUMPI PUSH2 0x7A JUMP JUMPDEST DUP1 PUSH4 0x558C155 EQ PUSH2 0x7E JUMPI DUP1 PUSH4 0x369A489D EQ PUSH2 0xA8 JUMPI DUP1 PUSH4 0x48BF296A EQ PUSH2 0xD0 JUMPI DUP1 PUSH4 0x6416845C EQ PUSH2 0xE6 JUMPI JUMPDEST PUSH0 DUP1 REVERT JUMPDEST CALLVALUE DUP1 ISZERO PUSH2 0x89 JUMPI PUSH0 DUP1 REVERT JUMPDEST POP PUSH2 0x92 PUSH2 0x194 JUMP JUMPDEST PUSH1 0x40 MLOAD PUSH2 0x9F SWAP2 SWAP1 PUSH2 0xB8B JUMP JUMPDEST PUSH1 0x40 MLOAD DUP1 SWAP2 SUB SWAP1 RETURN JUMPDEST CALLVALUE DUP1 ISZERO PUSH2 0xB3 JUMPI PUSH0 DUP1 REVERT JUMPDEST POP PUSH2 0xCE PUSH1 0x4 DUP1 CALLDATASIZE SUB DUP2 ADD SWAP1 PUSH2 0xC9 SWAP2 SWAP1 PUSH2 0xC0F JUMP JUMPDEST PUSH2 0x1EE JUMP JUMPDEST STOP JUMPDEST CALLVALUE DUP1 ISZERO PUSH2 0xDB JUMPI PUSH0 DUP1 REVERT JUMPDEST POP PUSH2 0xE4 PUSH2 0x3F3 JUMP JUMPDEST STOP JUMPDEST CALLVALUE DUP1 ISZERO PUSH2 0xF1 JUMPI PUSH0 DUP1 REVERT JUMPDEST POP PUSH2 0x10C PUSH1 0x4 DUP1 CALLDATASIZE SUB DUP2 ADD SWAP1 PUSH2 0x107 SWAP2 SWAP1 PUSH2 0xC0F JUMP JUMPDEST PUSH2 0x4E3 JUMP JUMPDEST STOP JUMPDEST PUSH2 0x116 PUSH2 0x6E8 JUMP JUMPDEST STOP JUMPDEST CALLVALUE DUP1 ISZERO PUSH2 0x123 JUMPI PUSH0 DUP1 REVERT JUMPDEST POP PUSH2 0x12C PUSH2 0x6EA JUMP JUMPDEST PUSH1 0x40 MLOAD PUSH2 0x139 SWAP2 SWAP1 PUSH2 0xDD0 JUMP JUMPDEST PUSH1 0x40 MLOAD DUP1 SWAP2 SUB SWAP1 RETURN JUMPDEST CALLVALUE DUP1 ISZERO PUSH2 0x14D JUMPI PUSH0 DUP1 REVERT JUMPDEST POP PUSH2 0x168 PUSH1 0x4 DUP1 CALLDATASIZE SUB DUP2 ADD SWAP1 PUSH2 0x163 SWAP2 SWAP1 PUSH2 0xF46 JUMP JUMPDEST PUSH2 0x834 JUMP JUMPDEST STOP JUMPDEST CALLVALUE DUP1 ISZERO PUSH2 0x175 JUMPI PUSH0 DUP1 REVERT JUMPDEST POP PUSH2 0x17E PUSH2 0xACC JUMP JUMPDEST PUSH1 0x40 MLOAD PUSH2 0x18B SWAP2 SWAP1 PUSH2 0xB8B JUMP JUMPDEST PUSH1 0x40 MLOAD DUP1 SWAP2 SUB SWAP1 RETURN JUMPDEST PUSH0 DUP1 PUSH0 SWAP1 POP PUSH0 JUMPDEST PUSH1 0x1 DUP1 SLOAD SWAP1 POP DUP2 LT ISZERO PUSH2 0x1E6 JUMPI PUSH1 0x1 DUP2 DUP2 SLOAD DUP2 LT PUSH2 0x1BC JUMPI PUSH2 0x1BB PUSH2 0xFB2 JUMP JUMPDEST JUMPDEST SWAP1 PUSH0 MSTORE PUSH1 0x20 PUSH0 KECCAK256 SWAP1 PUSH1 0x3 MUL ADD PUSH1 0x2 ADD SLOAD DUP3 PUSH2 0x1D7 SWAP2 SWAP1 PUSH2 0x100C JUMP JUMPDEST SWAP2 POP DUP1 DUP1 PUSH1 0x1 ADD SWAP2 POP POP PUSH2 0x19B JUMP JUMPDEST POP DUP1 SWAP2 POP POP SWAP1 JUMP JUMPDEST PUSH1 0x1 DUP1 DUP1 SLOAD SWAP1 POP LT PUSH2 0x3F0 JUMPI PUSH0 JUMPDEST PUSH1 0x1 DUP1 SLOAD SWAP1 POP DUP2 LT ISZERO PUSH2 0x3EE JUMPI DUP2 PUSH20 0xFFFFFFFFFFFFFFFFFFFFFFFFFFFFFFFFFFFFFFFF AND PUSH1 0x1 DUP3 DUP2 SLOAD DUP2 LT PUSH2 0x234 JUMPI PUSH2 0x233 PUSH2 0xFB2 JUMP JUMPDEST JUMPDEST SWAP1 PUSH0 MSTORE PUSH1 0x20 PUSH0 KECCAK256 SWAP1 PUSH1 0x3 MUL ADD PUSH0 ADD PUSH0 SWAP1 SLOAD SWAP1 PUSH2 0x100 EXP SWAP1 DIV PUSH20 0xFFFFFFFFFFFFFFFFFFFFFFFFFFFFFFFFFFFFFFFF AND PUSH20 0xFFFFFFFFFFFFFFFFFFFFFFFFFFFFFFFFFFFFFFFF AND SUB PUSH2 0x3E1 JUMPI PUSH0 DUP2 SWAP1 POP JUMPDEST PUSH1 0x1 DUP1 DUP1 SLOAD SWAP1 POP PUSH2 0x293 SWAP2 SWAP1 PUSH2 0x103F JUMP JUMPDEST DUP2 LT ISZERO PUSH2 0x377 JUMPI PUSH1 0x1 DUP1 DUP3 PUSH2 0x2A8 SWAP2 SWAP1 PUSH2 0x100C JUMP JUMPDEST DUP2 SLOAD DUP2 LT PUSH2 0x2B9 JUMPI PUSH2 0x2B8 PUSH2 0xFB2 JUMP JUMPDEST JUMPDEST SWAP1 PUSH0 MSTORE PUSH1 0x20 PUSH0 KECCAK256 SWAP1 PUSH1 0x3 MUL ADD PUSH1 0x1 DUP3 DUP2 SLOAD DUP2 LT PUSH2 0x2D9 JUMPI PUSH2 0x2D8 PUSH2 0xFB2 JUMP JUMPDEST JUMPDEST SWAP1 PUSH0 MSTORE PUSH1 0x20 PUSH0 KECCAK256 SWAP1 PUSH1 0x3 MUL ADD PUSH0 DUP3 ADD PUSH0 SWAP1 SLOAD SWAP1 PUSH2 0x100 EXP SWAP1 DIV PUSH20 0xFFFFFFFFFFFFFFFFFFFFFFFFFFFFFFFFFFFFFFFF AND DUP2 PUSH0 ADD PUSH0 PUSH2 0x100 EXP DUP2 SLOAD DUP2 PUSH20 0xFFFFFFFFFFFFFFFFFFFFFFFFFFFFFFFFFFFFFFFF MUL NOT AND SWAP1 DUP4 PUSH20 0xFFFFFFFFFFFFFFFFFFFFFFFFFFFFFFFFFFFFFFFF AND MUL OR SWAP1 SSTORE POP PUSH1 0x1 DUP3 ADD DUP2 PUSH1 0x1 ADD SWAP1 DUP2 PUSH2 0x35C SWAP2 SWAP1 PUSH2 0x1281 JUMP JUMPDEST POP PUSH1 0x2 DUP3 ADD SLOAD DUP2 PUSH1 0x2 ADD SSTORE SWAP1 POP POP DUP1 DUP1 PUSH1 0x1 ADD SWAP2 POP POP PUSH2 0x282 JUMP JUMPDEST POP PUSH1 0x1 DUP1 SLOAD DUP1 PUSH2 0x38A JUMPI PUSH2 0x389 PUSH2 0x1366 JUMP JUMPDEST JUMPDEST PUSH1 0x1 SWAP1 SUB DUP2 DUP2 SWAP1 PUSH0 MSTORE PUSH1 0x20 PUSH0 KECCAK256 SWAP1 PUSH1 0x3 MUL ADD PUSH0 DUP1 DUP3 ADD PUSH0 PUSH2 0x100 EXP DUP2 SLOAD SWAP1 PUSH20 0xFFFFFFFFFFFFFFFFFFFFFFFFFFFFFFFFFFFFFFFF MUL NOT AND SWAP1 SSTORE PUSH1 0x1 DUP3 ADD PUSH0 PUSH2 0x3D1 SWAP2 SWAP1 PUSH2 0xB1B JUMP JUMPDEST PUSH1 0x2 DUP3 ADD PUSH0 SWAP1 SSTORE POP POP SWAP1 SSTORE PUSH2 0x3EE JUMP JUMPDEST DUP1 DUP1 PUSH1 0x1 ADD SWAP2 POP POP PUSH2 0x1FC JUMP JUMPDEST POP JUMPDEST POP JUMP JUMPDEST PUSH0 SELFBALANCE GT PUSH2 0x435 JUMPI PUSH1 0x40 MLOAD PUSH32 0x8C379A000000000000000000000000000000000000000000000000000000000 DUP2 MSTORE PUSH1 0x4 ADD PUSH2 0x42C SWAP1 PUSH2 0x1413 JUMP JUMPDEST PUSH1 0x40 MLOAD DUP1 SWAP2 SUB SWAP1 REVERT JUMPDEST PUSH0 SELFBALANCE SWAP1 POP PUSH0 JUMPDEST PUSH1 0x1 DUP1 SLOAD SWAP1 POP DUP2 LT ISZERO PUSH2 0x4DF JUMPI PUSH0 PUSH1 0x64 PUSH1 0x1 DUP4 DUP2 SLOAD DUP2 LT PUSH2 0x45F JUMPI PUSH2 0x45E PUSH2 0xFB2 JUMP JUMPDEST JUMPDEST SWAP1 PUSH0 MSTORE PUSH1 0x20 PUSH0 KECCAK256 SWAP1 PUSH1 0x3 MUL ADD PUSH1 0x2 ADD SLOAD DUP5 PUSH2 0x47A SWAP2 SWAP1 PUSH2 0x1431 JUMP JUMPDEST PUSH2 0x484 SWAP2 SWAP1 PUSH2 0x149F JUMP JUMPDEST SWAP1 POP PUSH2 0x4D1 PUSH1 0x1 DUP4 DUP2 SLOAD DUP2 LT PUSH2 0x49D JUMPI PUSH2 0x49C PUSH2 0xFB2 JUMP JUMPDEST JUMPDEST SWAP1 PUSH0 MSTORE PUSH1 0x20 PUSH0 KECCAK256 SWAP1 PUSH1 0x3 MUL ADD PUSH0 ADD PUSH0 SWAP1 SLOAD SWAP1 PUSH2 0x100 EXP SWAP1 DIV PUSH20 0xFFFFFFFFFFFFFFFFFFFFFFFFFFFFFFFFFFFFFFFF AND DUP3 PUSH2 0xAD3 JUMP JUMPDEST POP DUP1 DUP1 PUSH1 0x1 ADD SWAP2 POP POP PUSH2 0x43B JUMP JUMPDEST POP POP JUMP JUMPDEST PUSH1 0x1 DUP1 DUP1 SLOAD SWAP1 POP LT PUSH2 0x6E5 JUMPI PUSH0 JUMPDEST PUSH1 0x1 DUP1 SLOAD SWAP1 POP DUP2 LT ISZERO PUSH2 0x6E3 JUMPI DUP2 PUSH20 0xFFFFFFFFFFFFFFFFFFFFFFFFFFFFFFFFFFFFFFFF AND PUSH1 0x1 DUP3 DUP2 SLOAD DUP2 LT PUSH2 0x529 JUMPI PUSH2 0x528 PUSH2 0xFB2 JUMP JUMPDEST JUMPDEST SWAP1 PUSH0 MSTORE PUSH1 0x20 PUSH0 KECCAK256 SWAP1 PUSH1 0x3 MUL ADD PUSH0 ADD PUSH0 SWAP1 SLOAD SWAP1 PUSH2 0x100 EXP SWAP1 DIV PUSH20 0xFFFFFFFFFFFFFFFFFFFFFFFFFFFFFFFFFFFFFFFF AND PUSH20 0xFFFFFFFFFFFFFFFFFFFFFFFFFFFFFFFFFFFFFFFF AND SUB PUSH2 0x6D6 JUMPI PUSH0 DUP2 SWAP1 POP JUMPDEST PUSH1 0x1 DUP1 DUP1 SLOAD SWAP1 POP PUSH2 0x588 SWAP2 SWAP1 PUSH2 0x103F JUMP JUMPDEST DUP2 LT ISZERO PUSH2 0x66C JUMPI PUSH1 0x1 DUP1 DUP3 PUSH2 0x59D SWAP2 SWAP1 PUSH2 0x100C JUMP JUMPDEST DUP2 SLOAD DUP2 LT PUSH2 0x5AE JUMPI PUSH2 0x5AD PUSH2 0xFB2 JUMP JUMPDEST JUMPDEST SWAP1 PUSH0 MSTORE PUSH1 0x20 PUSH0 KECCAK256 SWAP1 PUSH1 0x3 MUL ADD PUSH1 0x1 DUP3 DUP2 SLOAD DUP2 LT PUSH2 0x5CE JUMPI PUSH2 0x5CD PUSH2 0xFB2 JUMP JUMPDEST JUMPDEST SWAP1 PUSH0 MSTORE PUSH1 0x20 PUSH0 KECCAK256 SWAP1 PUSH1 0x3 MUL ADD PUSH0 DUP3 ADD PUSH0 SWAP1 SLOAD SWAP1 PUSH2 0x100 EXP SWAP1 DIV PUSH20 0xFFFFFFFFFFFFFFFFFFFFFFFFFFFFFFFFFFFFFFFF AND DUP2 PUSH0 ADD PUSH0 PUSH2 0x100 EXP DUP2 SLOAD DUP2 PUSH20 0xFFFFFFFFFFFFFFFFFFFFFFFFFFFFFFFFFFFFFFFF MUL NOT AND SWAP1 DUP4 PUSH20 0xFFFFFFFFFFFFFFFFFFFFFFFFFFFFFFFFFFFFFFFF AND MUL OR SWAP1 SSTORE POP PUSH1 0x1 DUP3 ADD DUP2 PUSH1 0x1 ADD SWAP1 DUP2 PUSH2 0x651 SWAP2 SWAP1 PUSH2 0x1281 JUMP JUMPDEST POP PUSH1 0x2 DUP3 ADD SLOAD DUP2 PUSH1 0x2 ADD SSTORE SWAP1 POP POP DUP1 DUP1 PUSH1 0x1 ADD SWAP2 POP POP PUSH2 0x577 JUMP JUMPDEST POP PUSH1 0x1 DUP1 SLOAD DUP1 PUSH2 0x67F JUMPI PUSH2 0x67E PUSH2 0x1366 JUMP JUMPDEST JUMPDEST PUSH1 0x1 SWAP1 SUB DUP2 DUP2 SWAP1 PUSH0 MSTORE PUSH1 0x20 PUSH0 KECCAK256 SWAP1 PUSH1 0x3 MUL ADD PUSH0 DUP1 DUP3 ADD PUSH0 PUSH2 0x100 EXP DUP2 SLOAD SWAP1 PUSH20 0xFFFFFFFFFFFFFFFFFFFFFFFFFFFFFFFFFFFFFFFF MUL NOT AND SWAP1 SSTORE PUSH1 0x1 DUP3 ADD PUSH0 PUSH2 0x6C6 SWAP2 SWAP1 PUSH2 0xB1B JUMP JUMPDEST PUSH1 0x2 DUP3 ADD PUSH0 SWAP1 SSTORE POP POP SWAP1 SSTORE PUSH2 0x6E3 JUMP JUMPDEST DUP1 DUP1 PUSH1 0x1 ADD SWAP2 POP POP PUSH2 0x4F1 JUMP JUMPDEST POP JUMPDEST POP JUMP JUMPDEST JUMP JUMPDEST PUSH1 0x60 PUSH1 0x1 DUP1 SLOAD DUP1 PUSH1 0x20 MUL PUSH1 0x20 ADD PUSH1 0x40 MLOAD SWAP1 DUP2 ADD PUSH1 0x40 MSTORE DUP1 SWAP3 SWAP2 SWAP1 DUP2 DUP2 MSTORE PUSH1 0x20 ADD PUSH0 SWAP1 JUMPDEST DUP3 DUP3 LT ISZERO PUSH2 0x82B JUMPI DUP4 DUP3 SWAP1 PUSH0 MSTORE PUSH1 0x20 PUSH0 KECCAK256 SWAP1 PUSH1 0x3 MUL ADD PUSH1 0x40 MLOAD DUP1 PUSH1 0x60 ADD PUSH1 0x40 MSTORE SWAP1 DUP2 PUSH0 DUP3 ADD PUSH0 SWAP1 SLOAD SWAP1 PUSH2 0x100 EXP SWAP1 DIV PUSH20 0xFFFFFFFFFFFFFFFFFFFFFFFFFFFFFFFFFFFFFFFF AND PUSH20 0xFFFFFFFFFFFFFFFFFFFFFFFFFFFFFFFFFFFFFFFF AND PUSH20 0xFFFFFFFFFFFFFFFFFFFFFFFFFFFFFFFFFFFFFFFF AND DUP2 MSTORE PUSH1 0x20 ADD PUSH1 0x1 DUP3 ADD DUP1 SLOAD PUSH2 0x792 SWAP1 PUSH2 0x109F JUMP JUMPDEST DUP1 PUSH1 0x1F ADD PUSH1 0x20 DUP1 SWAP2 DIV MUL PUSH1 0x20 ADD PUSH1 0x40 MLOAD SWAP1 DUP2 ADD PUSH1 0x40 MSTORE DUP1 SWAP3 SWAP2 SWAP1 DUP2 DUP2 MSTORE PUSH1 0x20 ADD DUP3 DUP1 SLOAD PUSH2 0x7BE SWAP1 PUSH2 0x109F JUMP JUMPDEST DUP1 ISZERO PUSH2 0x809 JUMPI DUP1 PUSH1 0x1F LT PUSH2 0x7E0 JUMPI PUSH2 0x100 DUP1 DUP4 SLOAD DIV MUL DUP4 MSTORE SWAP2 PUSH1 0x20 ADD SWAP2 PUSH2 0x809 JUMP JUMPDEST DUP3 ADD SWAP2 SWAP1 PUSH0 MSTORE PUSH1 0x20 PUSH0 KECCAK256 SWAP1 JUMPDEST DUP2 SLOAD DUP2 MSTORE SWAP1 PUSH1 0x1 ADD SWAP1 PUSH1 0x20 ADD DUP1 DUP4 GT PUSH2 0x7EC JUMPI DUP3 SWAP1 SUB PUSH1 0x1F AND DUP3 ADD SWAP2 JUMPDEST POP POP POP POP POP DUP2 MSTORE PUSH1 0x20 ADD PUSH1 0x2 DUP3 ADD SLOAD DUP2 MSTORE POP POP DUP2 MSTORE PUSH1 0x20 ADD SWAP1 PUSH1 0x1 ADD SWAP1 PUSH2 0x70D JUMP JUMPDEST POP POP POP POP SWAP1 POP SWAP1 JUMP JUMPDEST PUSH0 DUP1 SLOAD SWAP1 PUSH2 0x100 EXP SWAP1 DIV PUSH20 0xFFFFFFFFFFFFFFFFFFFFFFFFFFFFFFFFFFFFFFFF AND PUSH20 0xFFFFFFFFFFFFFFFFFFFFFFFFFFFFFFFFFFFFFFFF AND CALLER PUSH20 0xFFFFFFFFFFFFFFFFFFFFFFFFFFFFFFFFFFFFFFFF AND EQ PUSH2 0x8C1 JUMPI PUSH1 0x40 MLOAD PUSH32 0x8C379A000000000000000000000000000000000000000000000000000000000 DUP2 MSTORE PUSH1 0x4 ADD PUSH2 0x8B8 SWAP1 PUSH2 0x153F JUMP JUMPDEST PUSH1 0x40 MLOAD DUP1 SWAP2 SUB SWAP1 REVERT JUMPDEST PUSH0 DUP2 GT DUP1 ISZERO PUSH2 0x8D1 JUMPI POP PUSH1 0x64 DUP2 GT ISZERO JUMPDEST PUSH2 0x910 JUMPI PUSH1 0x40 MLOAD PUSH32 0x8C379A000000000000000000000000000000000000000000000000000000000 DUP2 MSTORE PUSH1 0x4 ADD PUSH2 0x907 SWAP1 PUSH2 0x15CD JUMP JUMPDEST PUSH1 0x40 MLOAD DUP1 SWAP2 SUB SWAP1 REVERT JUMPDEST PUSH1 0x64 DUP2 PUSH2 0x91B PUSH2 0x194 JUMP JUMPDEST PUSH2 0x925 SWAP2 SWAP1 PUSH2 0x100C JUMP JUMPDEST GT ISZERO PUSH2 0x966 JUMPI PUSH1 0x40 MLOAD PUSH32 0x8C379A000000000000000000000000000000000000000000000000000000000 DUP2 MSTORE PUSH1 0x4 ADD PUSH2 0x95D SWAP1 PUSH2 0x1635 JUMP JUMPDEST PUSH1 0x40 MLOAD DUP1 SWAP2 SUB SWAP1 REVERT JUMPDEST PUSH0 DUP1 JUMPDEST PUSH1 0x1 DUP1 SLOAD SWAP1 POP DUP2 LT ISZERO PUSH2 0xA00 JUMPI DUP5 PUSH20 0xFFFFFFFFFFFFFFFFFFFFFFFFFFFFFFFFFFFFFFFF AND PUSH1 0x1 DUP3 DUP2 SLOAD DUP2 LT PUSH2 0x9A1 JUMPI PUSH2 0x9A0 PUSH2 0xFB2 JUMP JUMPDEST JUMPDEST SWAP1 PUSH0 MSTORE PUSH1 0x20 PUSH0 KECCAK256 SWAP1 PUSH1 0x3 MUL ADD PUSH0 ADD PUSH0 SWAP1 SLOAD SWAP1 PUSH2 0x100 EXP SWAP1 DIV PUSH20 0xFFFFFFFFFFFFFFFFFFFFFFFFFFFFFFFFFFFFFFFF AND PUSH20 0xFFFFFFFFFFFFFFFFFFFFFFFFFFFFFFFFFFFFFFFF AND SUB PUSH2 0x9F3 JUMPI PUSH1 0x1 SWAP2 POP PUSH2 0xA00 JUMP JUMPDEST DUP1 DUP1 PUSH1 0x1 ADD SWAP2 POP POP PUSH2 0x969 JUMP JUMPDEST POP DUP1 PUSH2 0xAC6 JUMPI PUSH1 0x1 PUSH1 0x40 MLOAD DUP1 PUSH1 0x60 ADD PUSH1 0x40 MSTORE DUP1 DUP7 PUSH20 0xFFFFFFFFFFFFFFFFFFFFFFFFFFFFFFFFFFFFFFFF AND DUP2 MSTORE PUSH1 0x20 ADD DUP6 DUP2 MSTORE PUSH1 0x20 ADD DUP5 DUP2 MSTORE POP SWAP1 DUP1 PUSH1 0x1 DUP2 SLOAD ADD DUP1 DUP3 SSTORE DUP1 SWAP2 POP POP PUSH1 0x1 SWAP1 SUB SWAP1 PUSH0 MSTORE PUSH1 0x20 PUSH0 KECCAK256 SWAP1 PUSH1 0x3 MUL ADD PUSH0 SWAP1 SWAP2 SWAP1 SWAP2 SWAP1 SWAP2 POP PUSH0 DUP3 ADD MLOAD DUP2 PUSH0 ADD PUSH0 PUSH2 0x100 EXP DUP2 SLOAD DUP2 PUSH20 0xFFFFFFFFFFFFFFFFFFFFFFFFFFFFFFFFFFFFFFFF MUL NOT AND SWAP1 DUP4 PUSH20 0xFFFFFFFFFFFFFFFFFFFFFFFFFFFFFFFFFFFFFFFF AND MUL OR SWAP1 SSTORE POP PUSH1 0x20 DUP3 ADD MLOAD DUP2 PUSH1 0x1 ADD SWAP1 DUP2 PUSH2 0xAB8 SWAP2 SWAP1 PUSH2 0x1653 JUMP JUMPDEST POP PUSH1 0x40 DUP3 ADD MLOAD DUP2 PUSH1 0x2 ADD SSTORE POP POP JUMPDEST POP POP POP POP JUMP JUMPDEST PUSH0 SELFBALANCE SWAP1 POP SWAP1 JUMP JUMPDEST DUP2 PUSH20 0xFFFFFFFFFFFFFFFFFFFFFFFFFFFFFFFFFFFFFFFF AND PUSH2 0x8FC DUP3 SWAP1 DUP2 ISZERO MUL SWAP1 PUSH1 0x40 MLOAD PUSH0 PUSH1 0x40 MLOAD DUP1 DUP4 SUB DUP2 DUP6 DUP9 DUP9 CALL SWAP4 POP POP POP POP ISZERO DUP1 ISZERO PUSH2 0xB16 JUMPI RETURNDATASIZE PUSH0 DUP1 RETURNDATACOPY RETURNDATASIZE PUSH0 REVERT JUMPDEST POP POP POP JUMP JUMPDEST POP DUP1 SLOAD PUSH2 0xB27 SWAP1 PUSH2 0x109F JUMP JUMPDEST PUSH0 DUP3 SSTORE DUP1 PUSH1 0x1F LT PUSH2 0xB38 JUMPI POP PUSH2 0xB55 JUMP JUMPDEST PUSH1 0x1F ADD PUSH1 0x20 SWAP1 DIV SWAP1 PUSH0 MSTORE PUSH1 0x20 PUSH0 KECCAK256 SWAP1 DUP2 ADD SWAP1 PUSH2 0xB54 SWAP2 SWAP1 PUSH2 0xB58 JUMP JUMPDEST JUMPDEST POP JUMP JUMPDEST JUMPDEST DUP1 DUP3 GT ISZERO PUSH2 0xB6F JUMPI PUSH0 DUP2 PUSH0 SWAP1 SSTORE POP PUSH1 0x1 ADD PUSH2 0xB59 JUMP JUMPDEST POP SWAP1 JUMP JUMPDEST PUSH0 DUP2 SWAP1 POP SWAP2 SWAP1 POP JUMP JUMPDEST PUSH2 0xB85 DUP2 PUSH2 0xB73 JUMP JUMPDEST DUP3 MSTORE POP POP JUMP JUMPDEST PUSH0 PUSH1 0x20 DUP3 ADD SWAP1 POP PUSH2 0xB9E PUSH0 DUP4 ADD DUP5 PUSH2 0xB7C JUMP JUMPDEST SWAP3 SWAP2 POP POP JUMP JUMPDEST PUSH0 PUSH1 0x40 MLOAD SWAP1 POP SWAP1 JUMP JUMPDEST PUSH0 DUP1 REVERT JUMPDEST PUSH0 DUP1 REVERT JUMPDEST PUSH0 PUSH20 0xFFFFFFFFFFFFFFFFFFFFFFFFFFFFFFFFFFFFFFFF DUP3 AND SWAP1 POP SWAP2 SWAP1 POP JUMP JUMPDEST PUSH0 PUSH2 0xBDE DUP3 PUSH2 0xBB5 JUMP JUMPDEST SWAP1 POP SWAP2 SWAP1 POP JUMP JUMPDEST PUSH2 0xBEE DUP2 PUSH2 0xBD4 JUMP JUMPDEST DUP2 EQ PUSH2 0xBF8 JUMPI PUSH0 DUP1 REVERT JUMPDEST POP JUMP JUMPDEST PUSH0 DUP2 CALLDATALOAD SWAP1 POP PUSH2 0xC09 DUP2 PUSH2 0xBE5 JUMP JUMPDEST SWAP3 SWAP2 POP POP JUMP JUMPDEST PUSH0 PUSH1 0x20 DUP3 DUP5 SUB SLT ISZERO PUSH2 0xC24 JUMPI PUSH2 0xC23 PUSH2 0xBAD JUMP JUMPDEST JUMPDEST PUSH0 PUSH2 0xC31 DUP5 DUP3 DUP6 ADD PUSH2 0xBFB JUMP JUMPDEST SWAP2 POP POP SWAP3 SWAP2 POP POP JUMP JUMPDEST PUSH0 DUP2 MLOAD SWAP1 POP SWAP2 SWAP1 POP JUMP JUMPDEST PUSH0 DUP3 DUP3 MSTORE PUSH1 0x20 DUP3 ADD SWAP1 POP SWAP3 SWAP2 POP POP JUMP JUMPDEST PUSH0 DUP2 SWAP1 POP PUSH1 0x20 DUP3 ADD SWAP1 POP SWAP2 SWAP1 POP JUMP JUMPDEST PUSH2 0xC6C DUP2 PUSH2 0xBD4 JUMP JUMPDEST DUP3 MSTORE POP POP JUMP JUMPDEST PUSH0 DUP2 MLOAD SWAP1 POP SWAP2 SWAP1 POP JUMP JUMPDEST PUSH0 DUP3 DUP3 MSTORE PUSH1 0x20 DUP3 ADD SWAP1 POP SWAP3 SWAP2 POP POP JUMP JUMPDEST DUP3 DUP2 DUP4 MCOPY PUSH0 DUP4 DUP4 ADD MSTORE POP POP POP JUMP JUMPDEST PUSH0 PUSH1 0x1F NOT PUSH1 0x1F DUP4 ADD AND SWAP1 POP SWAP2 SWAP1 POP JUMP JUMPDEST PUSH0 PUSH2 0xCB4 DUP3 PUSH2 0xC72 JUMP JUMPDEST PUSH2 0xCBE DUP2 DUP6 PUSH2 0xC7C JUMP JUMPDEST SWAP4 POP PUSH2 0xCCE DUP2 DUP6 PUSH1 0x20 DUP7 ADD PUSH2 0xC8C JUMP JUMPDEST PUSH2 0xCD7 DUP2 PUSH2 0xC9A JUMP JUMPDEST DUP5 ADD SWAP2 POP POP SWAP3 SWAP2 POP POP JUMP JUMPDEST PUSH2 0xCEB DUP2 PUSH2 0xB73 JUMP JUMPDEST DUP3 MSTORE POP POP JUMP JUMPDEST PUSH0 PUSH1 0x60 DUP4 ADD PUSH0 DUP4 ADD MLOAD PUSH2 0xD06 PUSH0 DUP7 ADD DUP3 PUSH2 0xC63 JUMP JUMPDEST POP PUSH1 0x20 DUP4 ADD MLOAD DUP5 DUP3 SUB PUSH1 0x20 DUP7 ADD MSTORE PUSH2 0xD1E DUP3 DUP3 PUSH2 0xCAA JUMP JUMPDEST SWAP2 POP POP PUSH1 0x40 DUP4 ADD MLOAD PUSH2 0xD33 PUSH1 0x40 DUP7 ADD DUP3 PUSH2 0xCE2 JUMP JUMPDEST POP DUP1 SWAP2 POP POP SWAP3 SWAP2 POP POP JUMP JUMPDEST PUSH0 PUSH2 0xD49 DUP4 DUP4 PUSH2 0xCF1 JUMP JUMPDEST SWAP1 POP SWAP3 SWAP2 POP POP JUMP JUMPDEST PUSH0 PUSH1 0x20 DUP3 ADD SWAP1 POP SWAP2 SWAP1 POP JUMP JUMPDEST PUSH0 PUSH2 0xD67 DUP3 PUSH2 0xC3A JUMP JUMPDEST PUSH2 0xD71 DUP2 DUP6 PUSH2 0xC44 JUMP JUMPDEST SWAP4 POP DUP4 PUSH1 0x20 DUP3 MUL DUP6 ADD PUSH2 0xD83 DUP6 PUSH2 0xC54 JUMP JUMPDEST DUP1 PUSH0 JUMPDEST DUP6 DUP2 LT ISZERO PUSH2 0xDBE JUMPI DUP5 DUP5 SUB DUP10 MSTORE DUP2 MLOAD PUSH2 0xD9F DUP6 DUP3 PUSH2 0xD3E JUMP JUMPDEST SWAP5 POP PUSH2 0xDAA DUP4 PUSH2 0xD51 JUMP JUMPDEST SWAP3 POP PUSH1 0x20 DUP11 ADD SWAP10 POP POP PUSH1 0x1 DUP2 ADD SWAP1 POP PUSH2 0xD86 JUMP JUMPDEST POP DUP3 SWAP8 POP DUP8 SWAP6 POP POP POP POP POP POP SWAP3 SWAP2 POP POP JUMP JUMPDEST PUSH0 PUSH1 0x20 DUP3 ADD SWAP1 POP DUP2 DUP2 SUB PUSH0 DUP4 ADD MSTORE PUSH2 0xDE8 DUP2 DUP5 PUSH2 0xD5D JUMP JUMPDEST SWAP1 POP SWAP3 SWAP2 POP POP JUMP JUMPDEST PUSH0 DUP1 REVERT JUMPDEST PUSH0 DUP1 REVERT JUMPDEST PUSH32 0x4E487B7100000000000000000000000000000000000000000000000000000000 PUSH0 MSTORE PUSH1 0x41 PUSH1 0x4 MSTORE PUSH1 0x24 PUSH0 REVERT JUMPDEST PUSH2 0xE2E DUP3 PUSH2 0xC9A JUMP JUMPDEST DUP2 ADD DUP2 DUP2 LT PUSH8 0xFFFFFFFFFFFFFFFF DUP3 GT OR ISZERO PUSH2 0xE4D JUMPI PUSH2 0xE4C PUSH2 0xDF8 JUMP JUMPDEST JUMPDEST DUP1 PUSH1 0x40 MSTORE POP POP POP JUMP JUMPDEST PUSH0 PUSH2 0xE5F PUSH2 0xBA4 JUMP JUMPDEST SWAP1 POP PUSH2 0xE6B DUP3 DUP3 PUSH2 0xE25 JUMP JUMPDEST SWAP2 SWAP1 POP JUMP JUMPDEST PUSH0 PUSH8 0xFFFFFFFFFFFFFFFF DUP3 GT ISZERO PUSH2 0xE8A JUMPI PUSH2 0xE89 PUSH2 0xDF8 JUMP JUMPDEST JUMPDEST PUSH2 0xE93 DUP3 PUSH2 0xC9A JUMP JUMPDEST SWAP1 POP PUSH1 0x20 DUP2 ADD SWAP1 POP SWAP2 SWAP1 POP JUMP JUMPDEST DUP3 DUP2 DUP4 CALLDATACOPY PUSH0 DUP4 DUP4 ADD MSTORE POP POP POP JUMP JUMPDEST PUSH0 PUSH2 0xEC0 PUSH2 0xEBB DUP5 PUSH2 0xE70 JUMP JUMPDEST PUSH2 0xE56 JUMP JUMPDEST SWAP1 POP DUP3 DUP2 MSTORE PUSH1 0x20 DUP2 ADD DUP5 DUP5 DUP5 ADD GT ISZERO PUSH2 0xEDC JUMPI PUSH2 0xEDB PUSH2 0xDF4 JUMP JUMPDEST JUMPDEST PUSH2 0xEE7 DUP5 DUP3 DUP6 PUSH2 0xEA0 JUMP JUMPDEST POP SWAP4 SWAP3 POP POP POP JUMP JUMPDEST PUSH0 DUP3 PUSH1 0x1F DUP4 ADD SLT PUSH2 0xF03 JUMPI PUSH2 0xF02 PUSH2 0xDF0 JUMP JUMPDEST JUMPDEST DUP2 CALLDATALOAD PUSH2 0xF13 DUP5 DUP3 PUSH1 0x20 DUP7 ADD PUSH2 0xEAE JUMP JUMPDEST SWAP2 POP POP SWAP3 SWAP2 POP POP JUMP JUMPDEST PUSH2 0xF25 DUP2 PUSH2 0xB73 JUMP JUMPDEST DUP2 EQ PUSH2 0xF2F JUMPI PUSH0 DUP1 REVERT JUMPDEST POP JUMP JUMPDEST PUSH0 DUP2 CALLDATALOAD SWAP1 POP PUSH2 0xF40 DUP2 PUSH2 0xF1C JUMP JUMPDEST SWAP3 SWAP2 POP POP JUMP JUMPDEST PUSH0 DUP1 PUSH0 PUSH1 0x60 DUP5 DUP7 SUB SLT ISZERO PUSH2 0xF5D JUMPI PUSH2 0xF5C PUSH2 0xBAD JUMP JUMPDEST JUMPDEST PUSH0 PUSH2 0xF6A DUP7 DUP3 DUP8 ADD PUSH2 0xBFB JUMP JUMPDEST SWAP4 POP POP PUSH1 0x20 DUP5 ADD CALLDATALOAD PUSH8 0xFFFFFFFFFFFFFFFF DUP2 GT ISZERO PUSH2 0xF8B JUMPI PUSH2 0xF8A PUSH2 0xBB1 JUMP JUMPDEST JUMPDEST PUSH2 0xF97 DUP7 DUP3 DUP8 ADD PUSH2 0xEEF JUMP JUMPDEST SWAP3 POP POP PUSH1 0x40 PUSH2 0xFA8 DUP7 DUP3 DUP8 ADD PUSH2 0xF32 JUMP JUMPDEST SWAP2 POP POP SWAP3 POP SWAP3 POP SWAP3 JUMP JUMPDEST PUSH32 0x4E487B7100000000000000000000000000000000000000000000000000000000 PUSH0 MSTORE PUSH1 0x32 PUSH1 0x4 MSTORE PUSH1 0x24 PUSH0 REVERT JUMPDEST PUSH32 0x4E487B7100000000000000000000000000000000000000000000000000000000 PUSH0 MSTORE PUSH1 0x11 PUSH1 0x4 MSTORE PUSH1 0x24 PUSH0 REVERT JUMPDEST PUSH0 PUSH2 0x1016 DUP3 PUSH2 0xB73 JUMP JUMPDEST SWAP2 POP PUSH2 0x1021 DUP4 PUSH2 0xB73 JUMP JUMPDEST SWAP3 POP DUP3 DUP3 ADD SWAP1 POP DUP1 DUP3 GT ISZERO PUSH2 0x1039 JUMPI PUSH2 0x1038 PUSH2 0xFDF JUMP JUMPDEST JUMPDEST SWAP3 SWAP2 POP POP JUMP JUMPDEST PUSH0 PUSH2 0x1049 DUP3 PUSH2 0xB73 JUMP JUMPDEST SWAP2 POP PUSH2 0x1054 DUP4 PUSH2 0xB73 JUMP JUMPDEST SWAP3 POP DUP3 DUP3 SUB SWAP1 POP DUP2 DUP2 GT ISZERO PUSH2 0x106C JUMPI PUSH2 0x106B PUSH2 0xFDF JUMP JUMPDEST JUMPDEST SWAP3 SWAP2 POP POP JUMP JUMPDEST PUSH32 0x4E487B7100000000000000000000000000000000000000000000000000000000 PUSH0 MSTORE PUSH1 0x22 PUSH1 0x4 MSTORE PUSH1 0x24 PUSH0 REVERT JUMPDEST PUSH0 PUSH1 0x2 DUP3 DIV SWAP1 POP PUSH1 0x1 DUP3 AND DUP1 PUSH2 0x10B6 JUMPI PUSH1 0x7F DUP3 AND SWAP2 POP JUMPDEST PUSH1 0x20 DUP3 LT DUP2 SUB PUSH2 0x10C9 JUMPI PUSH2 0x10C8 PUSH2 0x1072 JUMP JUMPDEST JUMPDEST POP SWAP2 SWAP1 POP JUMP JUMPDEST PUSH0 DUP2 SLOAD SWAP1 POP PUSH2 0x10DD DUP2 PUSH2 0x109F JUMP JUMPDEST SWAP1 POP SWAP2 SWAP1 POP JUMP JUMPDEST PUSH0 DUP2 SWAP1 POP DUP2 PUSH0 MSTORE PUSH1 0x20 PUSH0 KECCAK256 SWAP1 POP SWAP2 SWAP1 POP JUMP JUMPDEST PUSH0 PUSH1 0x20 PUSH1 0x1F DUP4 ADD DIV SWAP1 POP SWAP2 SWAP1 POP JUMP JUMPDEST PUSH0 DUP3 DUP3 SHL SWAP1 POP SWAP3 SWAP2 POP POP JUMP JUMPDEST PUSH0 PUSH1 0x8 DUP4 MUL PUSH2 0x1140 PUSH32 0xFFFFFFFFFFFFFFFFFFFFFFFFFFFFFFFFFFFFFFFFFFFFFFFFFFFFFFFFFFFFFFFF DUP3 PUSH2 0x1105 JUMP JUMPDEST PUSH2 0x114A DUP7 DUP4 PUSH2 0x1105 JUMP JUMPDEST SWAP6 POP DUP1 NOT DUP5 AND SWAP4 POP DUP1 DUP7 AND DUP5 OR SWAP3 POP POP POP SWAP4 SWAP3 POP POP POP JUMP JUMPDEST PUSH0 DUP2 SWAP1 POP SWAP2 SWAP1 POP JUMP JUMPDEST PUSH0 PUSH2 0x1185 PUSH2 0x1180 PUSH2 0x117B DUP5 PUSH2 0xB73 JUMP JUMPDEST PUSH2 0x1162 JUMP JUMPDEST PUSH2 0xB73 JUMP JUMPDEST SWAP1 POP SWAP2 SWAP1 POP JUMP JUMPDEST PUSH0 DUP2 SWAP1 POP SWAP2 SWAP1 POP JUMP JUMPDEST PUSH2 0x119E DUP4 PUSH2 0x116B JUMP JUMPDEST PUSH2 0x11B2 PUSH2 0x11AA DUP3 PUSH2 0x118C JUMP JUMPDEST DUP5 DUP5 SLOAD PUSH2 0x1111 JUMP JUMPDEST DUP3 SSTORE POP POP POP POP JUMP JUMPDEST PUSH0 SWAP1 JUMP JUMPDEST PUSH2 0x11C6 PUSH2 0x11BA JUMP JUMPDEST PUSH2 0x11D1 DUP2 DUP5 DUP5 PUSH2 0x1195 JUMP JUMPDEST POP POP POP JUMP JUMPDEST JUMPDEST DUP2 DUP2 LT ISZERO PUSH2 0x11F4 JUMPI PUSH2 0x11E9 PUSH0 DUP3 PUSH2 0x11BE JUMP JUMPDEST PUSH1 0x1 DUP2 ADD SWAP1 POP PUSH2 0x11D7 JUMP JUMPDEST POP POP JUMP JUMPDEST PUSH1 0x1F DUP3 GT ISZERO PUSH2 0x1239 JUMPI PUSH2 0x120A DUP2 PUSH2 0x10E4 JUMP JUMPDEST PUSH2 0x1213 DUP5 PUSH2 0x10F6 JUMP JUMPDEST DUP2 ADD PUSH1 0x20 DUP6 LT ISZERO PUSH2 0x1222 JUMPI DUP2 SWAP1 POP JUMPDEST PUSH2 0x1236 PUSH2 0x122E DUP6 PUSH2 0x10F6 JUMP JUMPDEST DUP4 ADD DUP3 PUSH2 0x11D6 JUMP JUMPDEST POP POP JUMPDEST POP POP POP JUMP JUMPDEST PUSH0 DUP3 DUP3 SHR SWAP1 POP SWAP3 SWAP2 POP POP JUMP JUMPDEST PUSH0 PUSH2 0x1259 PUSH0 NOT DUP5 PUSH1 0x8 MUL PUSH2 0x123E JUMP JUMPDEST NOT DUP1 DUP4 AND SWAP2 POP POP SWAP3 SWAP2 POP POP JUMP JUMPDEST PUSH0 PUSH2 0x1271 DUP4 DUP4 PUSH2 0x124A JUMP JUMPDEST SWAP2 POP DUP3 PUSH1 0x2 MUL DUP3 OR SWAP1 POP SWAP3 SWAP2 POP POP JUMP JUMPDEST DUP2 DUP2 SUB PUSH2 0x128F JUMPI POP POP PUSH2 0x1364 JUMP JUMPDEST PUSH2 0x1298 DUP3 PUSH2 0x10CF JUMP JUMPDEST PUSH8 0xFFFFFFFFFFFFFFFF DUP2 GT ISZERO PUSH2 0x12B1 JUMPI PUSH2 0x12B0 PUSH2 0xDF8 JUMP JUMPDEST JUMPDEST PUSH2 0x12BB DUP3 SLOAD PUSH2 0x109F JUMP JUMPDEST PUSH2 0x12C6 DUP3 DUP3 DUP6 PUSH2 0x11F8 JUMP JUMPDEST PUSH0 PUSH1 0x1F DUP4 GT PUSH1 0x1 DUP2 EQ PUSH2 0x12F3 JUMPI PUSH0 DUP5 ISZERO PUSH2 0x12E1 JUMPI DUP3 DUP8 ADD SLOAD SWAP1 POP JUMPDEST PUSH2 0x12EB DUP6 DUP3 PUSH2 0x1266 JUMP JUMPDEST DUP7 SSTORE POP PUSH2 0x135D JUMP JUMPDEST PUSH1 0x1F NOT DUP5 AND PUSH2 0x1301 DUP8 PUSH2 0x10E4 JUMP JUMPDEST SWAP7 POP PUSH2 0x130C DUP7 PUSH2 0x10E4 JUMP JUMPDEST PUSH0 JUMPDEST DUP3 DUP2 LT ISZERO PUSH2 0x1333 JUMPI DUP5 DUP10 ADD SLOAD DUP3 SSTORE PUSH1 0x1 DUP3 ADD SWAP2 POP PUSH1 0x1 DUP6 ADD SWAP5 POP PUSH1 0x20 DUP2 ADD SWAP1 POP PUSH2 0x130E JUMP JUMPDEST DUP7 DUP4 LT ISZERO PUSH2 0x1350 JUMPI DUP5 DUP10 ADD SLOAD PUSH2 0x134C PUSH1 0x1F DUP10 AND DUP3 PUSH2 0x124A JUMP JUMPDEST DUP4 SSTORE POP JUMPDEST PUSH1 0x1 PUSH1 0x2 DUP9 MUL ADD DUP9 SSTORE POP POP POP JUMPDEST POP POP POP POP POP POP JUMPDEST JUMP JUMPDEST PUSH32 0x4E487B7100000000000000000000000000000000000000000000000000000000 PUSH0 MSTORE PUSH1 0x31 PUSH1 0x4 MSTORE PUSH1 0x24 PUSH0 REVERT JUMPDEST PUSH0 DUP3 DUP3 MSTORE PUSH1 0x20 DUP3 ADD SWAP1 POP SWAP3 SWAP2 POP POP JUMP JUMPDEST PUSH32 0x496E73756666696369656E742062616C616E636520696E2074686520636F6E74 PUSH0 DUP3 ADD MSTORE PUSH32 0x726163742E000000000000000000000000000000000000000000000000000000 PUSH1 0x20 DUP3 ADD MSTORE POP JUMP JUMPDEST PUSH0 PUSH2 0x13FD PUSH1 0x25 DUP4 PUSH2 0x1393 JUMP JUMPDEST SWAP2 POP PUSH2 0x1408 DUP3 PUSH2 0x13A3 JUMP JUMPDEST PUSH1 0x40 DUP3 ADD SWAP1 POP SWAP2 SWAP1 POP JUMP JUMPDEST PUSH0 PUSH1 0x20 DUP3 ADD SWAP1 POP DUP2 DUP2 SUB PUSH0 DUP4 ADD MSTORE PUSH2 0x142A DUP2 PUSH2 0x13F1 JUMP JUMPDEST SWAP1 POP SWAP2 SWAP1 POP JUMP JUMPDEST PUSH0 PUSH2 0x143B DUP3 PUSH2 0xB73 JUMP JUMPDEST SWAP2 POP PUSH2 0x1446 DUP4 PUSH2 0xB73 JUMP JUMPDEST SWAP3 POP DUP3 DUP3 MUL PUSH2 0x1454 DUP2 PUSH2 0xB73 JUMP JUMPDEST SWAP2 POP DUP3 DUP3 DIV DUP5 EQ DUP4 ISZERO OR PUSH2 0x146B JUMPI PUSH2 0x146A PUSH2 0xFDF JUMP JUMPDEST JUMPDEST POP SWAP3 SWAP2 POP POP JUMP JUMPDEST PUSH32 0x4E487B7100000000000000000000000000000000000000000000000000000000 PUSH0 MSTORE PUSH1 0x12 PUSH1 0x4 MSTORE PUSH1 0x24 PUSH0 REVERT JUMPDEST PUSH0 PUSH2 0x14A9 DUP3 PUSH2 0xB73 JUMP JUMPDEST SWAP2 POP PUSH2 0x14B4 DUP4 PUSH2 0xB73 JUMP JUMPDEST SWAP3 POP DUP3 PUSH2 0x14C4 JUMPI PUSH2 0x14C3 PUSH2 0x1472 JUMP JUMPDEST JUMPDEST DUP3 DUP3 DIV SWAP1 POP SWAP3 SWAP2 POP POP JUMP JUMPDEST PUSH32 0x4F6E6C7920746865206F776E65722063616E2063616C6C20746869732066756E PUSH0 DUP3 ADD MSTORE PUSH32 0x6374696F6E2E0000000000000000000000000000000000000000000000000000 PUSH1 0x20 DUP3 ADD MSTORE POP JUMP JUMPDEST PUSH0 PUSH2 0x1529 PUSH1 0x26 DUP4 PUSH2 0x1393 JUMP JUMPDEST SWAP2 POP PUSH2 0x1534 DUP3 PUSH2 0x14CF JUMP JUMPDEST PUSH1 0x40 DUP3 ADD SWAP1 POP SWAP2 SWAP1 POP JUMP JUMPDEST PUSH0 PUSH1 0x20 DUP3 ADD SWAP1 POP DUP2 DUP2 SUB PUSH0 DUP4 ADD MSTORE PUSH2 0x1556 DUP2 PUSH2 0x151D JUMP JUMPDEST SWAP1 POP SWAP2 SWAP1 POP JUMP JUMPDEST PUSH32 0x50657263656E74616765206D757374206265206265747765656E203120616E64 PUSH0 DUP3 ADD MSTORE PUSH32 0x203130302E000000000000000000000000000000000000000000000000000000 PUSH1 0x20 DUP3 ADD MSTORE POP JUMP JUMPDEST PUSH0 PUSH2 0x15B7 PUSH1 0x25 DUP4 PUSH2 0x1393 JUMP JUMPDEST SWAP2 POP PUSH2 0x15C2 DUP3 PUSH2 0x155D JUMP JUMPDEST PUSH1 0x40 DUP3 ADD SWAP1 POP SWAP2 SWAP1 POP JUMP JUMPDEST PUSH0 PUSH1 0x20 DUP3 ADD SWAP1 POP DUP2 DUP2 SUB PUSH0 DUP4 ADD MSTORE PUSH2 0x15E4 DUP2 PUSH2 0x15AB JUMP JUMPDEST SWAP1 POP SWAP2 SWAP1 POP JUMP JUMPDEST PUSH32 0x546F74616C2070657263656E74616765206578636565647320313030252E0000 PUSH0 DUP3 ADD MSTORE POP JUMP JUMPDEST PUSH0 PUSH2 0x161F PUSH1 0x1E DUP4 PUSH2 0x1393 JUMP JUMPDEST SWAP2 POP PUSH2 0x162A DUP3 PUSH2 0x15EB JUMP JUMPDEST PUSH1 0x20 DUP3 ADD SWAP1 POP SWAP2 SWAP1 POP JUMP JUMPDEST PUSH0 PUSH1 0x20 DUP3 ADD SWAP1 POP DUP2 DUP2 SUB PUSH0 DUP4 ADD MSTORE PUSH2 0x164C DUP2 PUSH2 0x1613 JUMP JUMPDEST SWAP1 POP SWAP2 SWAP1 POP JUMP JUMPDEST PUSH2 0x165C DUP3 PUSH2 0xC72 JUMP JUMPDEST PUSH8 0xFFFFFFFFFFFFFFFF DUP2 GT ISZERO PUSH2 0x1675 JUMPI PUSH2 0x1674 PUSH2 0xDF8 JUMP JUMPDEST JUMPDEST PUSH2 0x167F DUP3 SLOAD PUSH2 0x109F JUMP JUMPDEST PUSH2 0x168A DUP3 DUP3 DUP6 PUSH2 0x11F8 JUMP JUMPDEST PUSH0 PUSH1 0x20 SWAP1 POP PUSH1 0x1F DUP4 GT PUSH1 0x1 DUP2 EQ PUSH2 0x16BB JUMPI PUSH0 DUP5 ISZERO PUSH2 0x16A9 JUMPI DUP3 DUP8 ADD MLOAD SWAP1 POP JUMPDEST PUSH2 0x16B3 DUP6 DUP3 PUSH2 0x1266 JUMP JUMPDEST DUP7 SSTORE POP PUSH2 0x171A JUMP JUMPDEST PUSH1 0x1F NOT DUP5 AND PUSH2 0x16C9 DUP7 PUSH2 0x10E4 JUMP JUMPDEST PUSH0 JUMPDEST DUP3 DUP2 LT ISZERO PUSH2 0x16F0 JUMPI DUP5 DUP10 ADD MLOAD DUP3 SSTORE PUSH1 0x1 DUP3 ADD SWAP2 POP PUSH1 0x20 DUP6 ADD SWAP5 POP PUSH1 0x20 DUP2 ADD SWAP1 POP PUSH2 0x16CB JUMP JUMPDEST DUP7 DUP4 LT ISZERO PUSH2 0x170D JUMPI DUP5 DUP10 ADD MLOAD PUSH2 0x1709 PUSH1 0x1F DUP10 AND DUP3 PUSH2 0x124A JUMP JUMPDEST DUP4 SSTORE POP JUMPDEST PUSH1 0x1 PUSH1 0x2 DUP9 MUL ADD DUP9 SSTORE POP POP POP JUMPDEST POP POP POP POP POP POP JUMP INVALID LOG2 PUSH5 0x6970667358 0x22 SLT KECCAK256 0xDA PUSH10 0x94FA508CDF39B5C4E6CC 0xBB KECCAK256 SWAP5 SWAP14 0xCA CHAINID JUMPI 0xAD 0xB4 SWAP12 AND 0x2B 0xB7 GASLIMIT DUP9 PUSH4 0xEF68F349 PUSH5 0x736F6C6343 STOP ADDMOD BYTE STOP CALLER "
				},
				"gasEstimates": {
					"creation": {
						"codeDepositCost": "1195200",
						"executionCost": "25504",
						"totalCost": "1220704"
					},
					"external": {
						"addSuccessor(address,string,uint256)": "infinite",
						"distrubiteInheritage()": "infinite",
						"getTotalPercentage()": "infinite",
						"putmoney()": "119",
						"removeSuccessor(address)": "infinite",
						"removeWaitress(address)": "infinite",
						"viewSuccessor()": "infinite",
						"viewbalance()": "400"
					},
					"internal": {
						"transfer(address payable,uint256)": "infinite"
					}
				},
				"methodIdentifiers": {
					"addSuccessor(address,string,uint256)": "7cc60b32",
					"distrubiteInheritage()": "48bf296a",
					"getTotalPercentage()": "0558c155",
					"putmoney()": "674526bc",
					"removeSuccessor(address)": "6416845c",
					"removeWaitress(address)": "369a489d",
					"viewSuccessor()": "736c9563",
					"viewbalance()": "af61ed3d"
				}
			},
			"storageLayout": {
				"storage": [
					{
						"astId": 3,
						"contract": "inheritage.sol:inheritage",
						"label": "owner",
						"offset": 0,
						"slot": "0",
						"type": "t_address"
					},
					{
						"astId": 7,
						"contract": "inheritage.sol:inheritage",
						"label": "successor",
						"offset": 0,
						"slot": "1",
						"type": "t_array(t_struct(Successor)39_storage)dyn_storage"
					}
				],
				"types": {
					"t_address": {
						"encoding": "inplace",
						"label": "address",
						"numberOfBytes": "20"
					},
					"t_address_payable": {
						"encoding": "inplace",
						"label": "address payable",
						"numberOfBytes": "20"
					},
					"t_array(t_struct(Successor)39_storage)dyn_storage": {
						"base": "t_struct(Successor)39_storage",
						"encoding": "dynamic_array",
						"label": "struct inheritage.Successor[]",
						"numberOfBytes": "32"
					},
					"t_string_storage": {
						"encoding": "bytes",
						"label": "string",
						"numberOfBytes": "32"
					},
					"t_struct(Successor)39_storage": {
						"encoding": "inplace",
						"label": "struct inheritage.Successor",
						"members": [
							{
								"astId": 34,
								"contract": "inheritage.sol:inheritage",
								"label": "walletAddress",
								"offset": 0,
								"slot": "0",
								"type": "t_address_payable"
							},
							{
								"astId": 36,
								"contract": "inheritage.sol:inheritage",
								"label": "name",
								"offset": 0,
								"slot": "1",
								"type": "t_string_storage"
							},
							{
								"astId": 38,
								"contract": "inheritage.sol:inheritage",
								"label": "percentage",
								"offset": 0,
								"slot": "2",
								"type": "t_uint256"
							}
						],
						"numberOfBytes": "96"
					},
					"t_uint256": {
						"encoding": "inplace",
						"label": "uint256",
						"numberOfBytes": "32"
					}
				}
			},
			"userdoc": {
				"kind": "user",
				"methods": {},
				"version": 1
			}
		}
	}
}